{
	"test.sol": {
		"SimpleStorage": {
			"abi": [
				{
					"inputs": [
						{
							"internalType": "string",
							"name": "_name",
							"type": "string"
						},
						{
							"internalType": "uint256",
							"name": "_favoriteNumber",
							"type": "uint256"
						}
					],
					"name": "addPerson",
					"outputs": [],
					"stateMutability": "nonpayable",
					"type": "function"
				},
				{
					"inputs": [],
					"name": "favoriteNumber",
					"outputs": [
						{
							"internalType": "uint256",
							"name": "",
							"type": "uint256"
						}
					],
					"stateMutability": "view",
					"type": "function"
				},
				{
					"inputs": [
						{
							"internalType": "string",
							"name": "",
							"type": "string"
						}
					],
					"name": "nameToFavoriteNumber",
					"outputs": [
						{
							"internalType": "uint256",
							"name": "",
							"type": "uint256"
						}
					],
					"stateMutability": "view",
					"type": "function"
				},
				{
					"inputs": [
						{
							"internalType": "uint256",
							"name": "",
							"type": "uint256"
						}
					],
					"name": "people",
					"outputs": [
						{
							"internalType": "uint256",
							"name": "favoriteNumber",
							"type": "uint256"
						},
						{
							"internalType": "string",
							"name": "name",
							"type": "string"
						}
					],
					"stateMutability": "view",
					"type": "function"
				},
				{
					"inputs": [],
					"name": "retrieve",
					"outputs": [
						{
							"internalType": "uint256",
							"name": "",
							"type": "uint256"
						}
					],
					"stateMutability": "view",
					"type": "function"
				},
				{
					"inputs": [],
					"name": "retrieveBytes",
					"outputs": [
						{
							"internalType": "bytes32",
							"name": "",
							"type": "bytes32"
						}
					],
					"stateMutability": "view",
					"type": "function"
				},
				{
					"inputs": [
						{
							"internalType": "uint256",
							"name": "_favoriteNumber",
							"type": "uint256"
						}
					],
					"name": "store",
					"outputs": [],
					"stateMutability": "nonpayable",
					"type": "function"
				},
				{
					"inputs": [],
					"name": "testBytes",
					"outputs": [
						{
							"internalType": "bytes32",
							"name": "",
							"type": "bytes32"
						}
					],
					"stateMutability": "view",
					"type": "function"
				}
			],
			"devdoc": {
				"kind": "dev",
				"methods": {},
				"version": 1
			},
			"evm": {
				"assembly": "    /* \"test.sol\":119:933  contract SimpleStorage {... */\n  mstore(0x40, 0x80)\n    /* \"test.sol\":212:246  bytes32 public testBytes = \"simon\" */\n  sstore(0x02, 0x73696d6f6e000000000000000000000000000000000000000000000000000000)\n    /* \"test.sol\":119:933  contract SimpleStorage {... */\n  callvalue\n  dup1\n  iszero\n  tag_1\n  jumpi\n  0x00\n  dup1\n  revert\ntag_1:\n  pop\n  dataSize(sub_0)\n  dup1\n  dataOffset(sub_0)\n  0x00\n  codecopy\n  0x00\n  return\nstop\n\nsub_0: assembly {\n        /* \"test.sol\":119:933  contract SimpleStorage {... */\n      mstore(0x40, 0x80)\n      callvalue\n      dup1\n      iszero\n      tag_1\n      jumpi\n      0x00\n      dup1\n      revert\n    tag_1:\n      pop\n      jumpi(tag_2, lt(calldatasize, 0x04))\n      shr(0xe0, calldataload(0x00))\n      dup1\n      0x6f760f41\n      gt\n      tag_11\n      jumpi\n      dup1\n      0x6f760f41\n      eq\n      tag_7\n      jumpi\n      dup1\n      0x8bab8dd5\n      eq\n      tag_8\n      jumpi\n      dup1\n      0x9e7a13ad\n      eq\n      tag_9\n      jumpi\n      dup1\n      0xd5aedd33\n      eq\n      tag_10\n      jumpi\n      jump(tag_2)\n    tag_11:\n      dup1\n      0x2c230024\n      eq\n      tag_3\n      jumpi\n      dup1\n      0x2e64cec1\n      eq\n      tag_4\n      jumpi\n      dup1\n      0x471f7cdf\n      eq\n      tag_5\n      jumpi\n      dup1\n      0x6057361d\n      eq\n      tag_6\n      jumpi\n    tag_2:\n      0x00\n      dup1\n      revert\n        /* \"test.sol\":650:738  function retrieveBytes() public view returns (bytes32) {... */\n    tag_3:\n      tag_12\n      tag_13\n      jump\t// in\n    tag_12:\n      mload(0x40)\n      tag_14\n      swap2\n      swap1\n      tag_15\n      jump\t// in\n    tag_14:\n      mload(0x40)\n      dup1\n      swap2\n      sub\n      swap1\n      return\n        /* \"test.sol\":557:644  function retrieve() public view returns (uint256){... */\n    tag_4:\n      tag_16\n      tag_17\n      jump\t// in\n    tag_16:\n      mload(0x40)\n      tag_18\n      swap2\n      swap1\n      tag_19\n      jump\t// in\n    tag_18:\n      mload(0x40)\n      dup1\n      swap2\n      sub\n      swap1\n      return\n        /* \"test.sol\":149:178  uint256 public favoriteNumber */\n    tag_5:\n      tag_20\n      tag_21\n      jump\t// in\n    tag_20:\n      mload(0x40)\n      tag_22\n      swap2\n      swap1\n      tag_19\n      jump\t// in\n    tag_22:\n      mload(0x40)\n      dup1\n      swap2\n      sub\n      swap1\n      return\n        /* \"test.sol\":455:551  function store(uint256 _favoriteNumber) public {... */\n    tag_6:\n      tag_23\n      0x04\n      dup1\n      calldatasize\n      sub\n      dup2\n      add\n      swap1\n      tag_24\n      swap2\n      swap1\n      tag_25\n      jump\t// in\n    tag_24:\n      tag_26\n      jump\t// in\n    tag_23:\n      stop\n        /* \"test.sol\":744:931  function addPerson(string memory _name, uint256 _favoriteNumber) public {... */\n    tag_7:\n      tag_27\n      0x04\n      dup1\n      calldatasize\n      sub\n      dup2\n      add\n      swap1\n      tag_28\n      swap2\n      swap1\n      tag_29\n      jump\t// in\n    tag_28:\n      tag_30\n      jump\t// in\n    tag_27:\n      stop\n        /* \"test.sol\":394:448  mapping(string => uint256) public nameToFavoriteNumber */\n    tag_8:\n      tag_31\n      0x04\n      dup1\n      calldatasize\n      sub\n      dup2\n      add\n      swap1\n      tag_32\n      swap2\n      swap1\n      tag_33\n      jump\t// in\n    tag_32:\n      tag_34\n      jump\t// in\n    tag_31:\n      mload(0x40)\n      tag_35\n      swap2\n      swap1\n      tag_19\n      jump\t// in\n    tag_35:\n      mload(0x40)\n      dup1\n      swap2\n      sub\n      swap1\n      return\n        /* \"test.sol\":365:387  People[] public people */\n    tag_9:\n      tag_36\n      0x04\n      dup1\n      calldatasize\n      sub\n      dup2\n      add\n      swap1\n      tag_37\n      swap2\n      swap1\n      tag_25\n      jump\t// in\n    tag_37:\n      tag_38\n      jump\t// in\n    tag_36:\n      mload(0x40)\n      tag_39\n      swap3\n      swap2\n      swap1\n      tag_40\n      jump\t// in\n    tag_39:\n      mload(0x40)\n      dup1\n      swap2\n      sub\n      swap1\n      return\n        /* \"test.sol\":212:246  bytes32 public testBytes = \"simon\" */\n    tag_10:\n      tag_41\n      tag_42\n      jump\t// in\n    tag_41:\n      mload(0x40)\n      tag_43\n      swap2\n      swap1\n      tag_15\n      jump\t// in\n    tag_43:\n      mload(0x40)\n      dup1\n      swap2\n      sub\n      swap1\n      return\n        /* \"test.sol\":650:738  function retrieveBytes() public view returns (bytes32) {... */\n    tag_13:\n        /* \"test.sol\":696:703  bytes32 */\n      0x00\n        /* \"test.sol\":722:731  testBytes */\n      sload(0x02)\n        /* \"test.sol\":715:731  return testBytes */\n      swap1\n      pop\n        /* \"test.sol\":650:738  function retrieveBytes() public view returns (bytes32) {... */\n      swap1\n      jump\t// out\n        /* \"test.sol\":557:644  function retrieve() public view returns (uint256){... */\n    tag_17:\n        /* \"test.sol\":598:605  uint256 */\n      0x00\n        /* \"test.sol\":623:637  favoriteNumber */\n      dup1\n      sload\n        /* \"test.sol\":616:637  return favoriteNumber */\n      swap1\n      pop\n        /* \"test.sol\":557:644  function retrieve() public view returns (uint256){... */\n      swap1\n      jump\t// out\n        /* \"test.sol\":149:178  uint256 public favoriteNumber */\n    tag_21:\n      sload(0x00)\n      dup2\n      jump\t// out\n        /* \"test.sol\":455:551  function store(uint256 _favoriteNumber) public {... */\n    tag_26:\n        /* \"test.sol\":529:544  _favoriteNumber */\n      dup1\n        /* \"test.sol\":512:526  favoriteNumber */\n      0x00\n        /* \"test.sol\":512:544  favoriteNumber = _favoriteNumber */\n      dup2\n      swap1\n      sstore\n      pop\n        /* \"test.sol\":455:551  function store(uint256 _favoriteNumber) public {... */\n      pop\n      jump\t// out\n        /* \"test.sol\":744:931  function addPerson(string memory _name, uint256 _favoriteNumber) public {... */\n    tag_30:\n        /* \"test.sol\":826:832  people */\n      0x03\n        /* \"test.sol\":838:868  People(_favoriteNumber, _name) */\n      mload(0x40)\n      dup1\n      0x40\n      add\n      0x40\n      mstore\n      dup1\n        /* \"test.sol\":845:860  _favoriteNumber */\n      dup4\n        /* \"test.sol\":838:868  People(_favoriteNumber, _name) */\n      dup2\n      mstore\n      0x20\n      add\n        /* \"test.sol\":862:867  _name */\n      dup5\n        /* \"test.sol\":838:868  People(_favoriteNumber, _name) */\n      dup2\n      mstore\n      pop\n        /* \"test.sol\":826:869  people.push(People(_favoriteNumber, _name)) */\n      swap1\n      dup1\n      0x01\n      dup2\n      sload\n      add\n      dup1\n      dup3\n      sstore\n      dup1\n      swap2\n      pop\n      pop\n      0x01\n      swap1\n      sub\n      swap1\n      0x00\n      mstore\n      keccak256(0x00, 0x20)\n      swap1\n      0x02\n      mul\n      add\n      0x00\n      swap1\n      swap2\n      swap1\n      swap2\n      swap1\n      swap2\n      pop\n      0x00\n      dup3\n      add\n      mload\n      dup2\n      0x00\n      add\n      sstore\n      0x20\n      dup3\n      add\n      mload\n      dup2\n      0x01\n      add\n      swap1\n      dup2\n      tag_49\n      swap2\n      swap1\n      tag_50\n      jump\t// in\n    tag_49:\n      pop\n      pop\n      pop\n        /* \"test.sol\":909:924  _favoriteNumber */\n      dup1\n        /* \"test.sol\":879:899  nameToFavoriteNumber */\n      0x04\n        /* \"test.sol\":900:905  _name */\n      dup4\n        /* \"test.sol\":879:906  nameToFavoriteNumber[_name] */\n      mload(0x40)\n      tag_51\n      swap2\n      swap1\n      tag_52\n      jump\t// in\n    tag_51:\n      swap1\n      dup2\n      mstore\n      0x20\n      add\n      mload(0x40)\n      dup1\n      swap2\n      sub\n      swap1\n      keccak256\n        /* \"test.sol\":879:924  nameToFavoriteNumber[_name] = _favoriteNumber */\n      dup2\n      swap1\n      sstore\n      pop\n        /* \"test.sol\":744:931  function addPerson(string memory _name, uint256 _favoriteNumber) public {... */\n      pop\n      pop\n      jump\t// out\n        /* \"test.sol\":394:448  mapping(string => uint256) public nameToFavoriteNumber */\n    tag_34:\n      0x04\n      dup2\n      dup1\n      mload\n      0x20\n      dup2\n      add\n      dup3\n      add\n      dup1\n      mload\n      dup5\n      dup3\n      mstore\n      0x20\n      dup4\n      add\n      0x20\n      dup6\n      add\n      keccak256\n      dup2\n      dup4\n      mstore\n      dup1\n      swap6\n      pop\n      pop\n      pop\n      pop\n      pop\n      pop\n      0x00\n      swap2\n      pop\n      swap1\n      pop\n      sload\n      dup2\n      jump\t// out\n        /* \"test.sol\":365:387  People[] public people */\n    tag_38:\n      0x03\n      dup2\n      dup2\n      sload\n      dup2\n      lt\n      tag_53\n      jumpi\n      0x00\n      dup1\n      revert\n    tag_53:\n      swap1\n      0x00\n      mstore\n      keccak256(0x00, 0x20)\n      swap1\n      0x02\n      mul\n      add\n      0x00\n      swap2\n      pop\n      swap1\n      pop\n      dup1\n      0x00\n      add\n      sload\n      swap1\n      dup1\n      0x01\n      add\n      dup1\n      sload\n      tag_55\n      swap1\n      tag_56\n      jump\t// in\n    tag_55:\n      dup1\n      0x1f\n      add\n      0x20\n      dup1\n      swap2\n      div\n      mul\n      0x20\n      add\n      mload(0x40)\n      swap1\n      dup2\n      add\n      0x40\n      mstore\n      dup1\n      swap3\n      swap2\n      swap1\n      dup2\n      dup2\n      mstore\n      0x20\n      add\n      dup3\n      dup1\n      sload\n      tag_57\n      swap1\n      tag_56\n      jump\t// in\n    tag_57:\n      dup1\n      iszero\n      tag_58\n      jumpi\n      dup1\n      0x1f\n      lt\n      tag_59\n      jumpi\n      0x0100\n      dup1\n      dup4\n      sload\n      div\n      mul\n      dup4\n      mstore\n      swap2\n      0x20\n      add\n      swap2\n      jump(tag_58)\n    tag_59:\n      dup3\n      add\n      swap2\n      swap1\n      0x00\n      mstore\n      keccak256(0x00, 0x20)\n      swap1\n    tag_60:\n      dup2\n      sload\n      dup2\n      mstore\n      swap1\n      0x01\n      add\n      swap1\n      0x20\n      add\n      dup1\n      dup4\n      gt\n      tag_60\n      jumpi\n      dup3\n      swap1\n      sub\n      0x1f\n      and\n      dup3\n      add\n      swap2\n    tag_58:\n      pop\n      pop\n      pop\n      pop\n      pop\n      swap1\n      pop\n      dup3\n      jump\t// out\n        /* \"test.sol\":212:246  bytes32 public testBytes = \"simon\" */\n    tag_42:\n      sload(0x02)\n      dup2\n      jump\t// out\n        /* \"#utility.yul\":7:84   */\n    tag_61:\n        /* \"#utility.yul\":44:51   */\n      0x00\n        /* \"#utility.yul\":73:78   */\n      dup2\n        /* \"#utility.yul\":62:78   */\n      swap1\n      pop\n        /* \"#utility.yul\":7:84   */\n      swap2\n      swap1\n      pop\n      jump\t// out\n        /* \"#utility.yul\":90:208   */\n    tag_62:\n        /* \"#utility.yul\":177:201   */\n      tag_105\n        /* \"#utility.yul\":195:200   */\n      dup2\n        /* \"#utility.yul\":177:201   */\n      tag_61\n      jump\t// in\n    tag_105:\n        /* \"#utility.yul\":172:175   */\n      dup3\n        /* \"#utility.yul\":165:202   */\n      mstore\n        /* \"#utility.yul\":90:208   */\n      pop\n      pop\n      jump\t// out\n        /* \"#utility.yul\":214:436   */\n    tag_15:\n        /* \"#utility.yul\":307:311   */\n      0x00\n        /* \"#utility.yul\":345:347   */\n      0x20\n        /* \"#utility.yul\":334:343   */\n      dup3\n        /* \"#utility.yul\":330:348   */\n      add\n        /* \"#utility.yul\":322:348   */\n      swap1\n      pop\n        /* \"#utility.yul\":358:429   */\n      tag_107\n        /* \"#utility.yul\":426:427   */\n      0x00\n        /* \"#utility.yul\":415:424   */\n      dup4\n        /* \"#utility.yul\":411:428   */\n      add\n        /* \"#utility.yul\":402:408   */\n      dup5\n        /* \"#utility.yul\":358:429   */\n      tag_62\n      jump\t// in\n    tag_107:\n        /* \"#utility.yul\":214:436   */\n      swap3\n      swap2\n      pop\n      pop\n      jump\t// out\n        /* \"#utility.yul\":442:519   */\n    tag_63:\n        /* \"#utility.yul\":479:486   */\n      0x00\n        /* \"#utility.yul\":508:513   */\n      dup2\n        /* \"#utility.yul\":497:513   */\n      swap1\n      pop\n        /* \"#utility.yul\":442:519   */\n      swap2\n      swap1\n      pop\n      jump\t// out\n        /* \"#utility.yul\":525:643   */\n    tag_64:\n        /* \"#utility.yul\":612:636   */\n      tag_110\n        /* \"#utility.yul\":630:635   */\n      dup2\n        /* \"#utility.yul\":612:636   */\n      tag_63\n      jump\t// in\n    tag_110:\n        /* \"#utility.yul\":607:610   */\n      dup3\n        /* \"#utility.yul\":600:637   */\n      mstore\n        /* \"#utility.yul\":525:643   */\n      pop\n      pop\n      jump\t// out\n        /* \"#utility.yul\":649:871   */\n    tag_19:\n        /* \"#utility.yul\":742:746   */\n      0x00\n        /* \"#utility.yul\":780:782   */\n      0x20\n        /* \"#utility.yul\":769:778   */\n      dup3\n        /* \"#utility.yul\":765:783   */\n      add\n        /* \"#utility.yul\":757:783   */\n      swap1\n      pop\n        /* \"#utility.yul\":793:864   */\n      tag_112\n        /* \"#utility.yul\":861:862   */\n      0x00\n        /* \"#utility.yul\":850:859   */\n      dup4\n        /* \"#utility.yul\":846:863   */\n      add\n        /* \"#utility.yul\":837:843   */\n      dup5\n        /* \"#utility.yul\":793:864   */\n      tag_64\n      jump\t// in\n    tag_112:\n        /* \"#utility.yul\":649:871   */\n      swap3\n      swap2\n      pop\n      pop\n      jump\t// out\n        /* \"#utility.yul\":877:952   */\n    tag_65:\n        /* \"#utility.yul\":910:916   */\n      0x00\n        /* \"#utility.yul\":943:945   */\n      0x40\n        /* \"#utility.yul\":937:946   */\n      mload\n        /* \"#utility.yul\":927:946   */\n      swap1\n      pop\n        /* \"#utility.yul\":877:952   */\n      swap1\n      jump\t// out\n        /* \"#utility.yul\":958:1075   */\n    tag_66:\n        /* \"#utility.yul\":1067:1068   */\n      0x00\n        /* \"#utility.yul\":1064:1065   */\n      dup1\n        /* \"#utility.yul\":1057:1069   */\n      revert\n        /* \"#utility.yul\":1081:1198   */\n    tag_67:\n        /* \"#utility.yul\":1190:1191   */\n      0x00\n        /* \"#utility.yul\":1187:1188   */\n      dup1\n        /* \"#utility.yul\":1180:1192   */\n      revert\n        /* \"#utility.yul\":1204:1326   */\n    tag_68:\n        /* \"#utility.yul\":1277:1301   */\n      tag_117\n        /* \"#utility.yul\":1295:1300   */\n      dup2\n        /* \"#utility.yul\":1277:1301   */\n      tag_63\n      jump\t// in\n    tag_117:\n        /* \"#utility.yul\":1270:1275   */\n      dup2\n        /* \"#utility.yul\":1267:1302   */\n      eq\n        /* \"#utility.yul\":1257:1320   */\n      tag_118\n      jumpi\n        /* \"#utility.yul\":1316:1317   */\n      0x00\n        /* \"#utility.yul\":1313:1314   */\n      dup1\n        /* \"#utility.yul\":1306:1318   */\n      revert\n        /* \"#utility.yul\":1257:1320   */\n    tag_118:\n        /* \"#utility.yul\":1204:1326   */\n      pop\n      jump\t// out\n        /* \"#utility.yul\":1332:1471   */\n    tag_69:\n        /* \"#utility.yul\":1378:1383   */\n      0x00\n        /* \"#utility.yul\":1416:1422   */\n      dup2\n        /* \"#utility.yul\":1403:1423   */\n      calldataload\n        /* \"#utility.yul\":1394:1423   */\n      swap1\n      pop\n        /* \"#utility.yul\":1432:1465   */\n      tag_120\n        /* \"#utility.yul\":1459:1464   */\n      dup2\n        /* \"#utility.yul\":1432:1465   */\n      tag_68\n      jump\t// in\n    tag_120:\n        /* \"#utility.yul\":1332:1471   */\n      swap3\n      swap2\n      pop\n      pop\n      jump\t// out\n        /* \"#utility.yul\":1477:1806   */\n    tag_25:\n        /* \"#utility.yul\":1536:1542   */\n      0x00\n        /* \"#utility.yul\":1585:1587   */\n      0x20\n        /* \"#utility.yul\":1573:1582   */\n      dup3\n        /* \"#utility.yul\":1564:1571   */\n      dup5\n        /* \"#utility.yul\":1560:1583   */\n      sub\n        /* \"#utility.yul\":1556:1588   */\n      slt\n        /* \"#utility.yul\":1553:1672   */\n      iszero\n      tag_122\n      jumpi\n        /* \"#utility.yul\":1591:1670   */\n      tag_123\n      tag_66\n      jump\t// in\n    tag_123:\n        /* \"#utility.yul\":1553:1672   */\n    tag_122:\n        /* \"#utility.yul\":1711:1712   */\n      0x00\n        /* \"#utility.yul\":1736:1789   */\n      tag_124\n        /* \"#utility.yul\":1781:1788   */\n      dup5\n        /* \"#utility.yul\":1772:1778   */\n      dup3\n        /* \"#utility.yul\":1761:1770   */\n      dup6\n        /* \"#utility.yul\":1757:1779   */\n      add\n        /* \"#utility.yul\":1736:1789   */\n      tag_69\n      jump\t// in\n    tag_124:\n        /* \"#utility.yul\":1726:1789   */\n      swap2\n      pop\n        /* \"#utility.yul\":1682:1799   */\n      pop\n        /* \"#utility.yul\":1477:1806   */\n      swap3\n      swap2\n      pop\n      pop\n      jump\t// out\n        /* \"#utility.yul\":1812:1929   */\n    tag_70:\n        /* \"#utility.yul\":1921:1922   */\n      0x00\n        /* \"#utility.yul\":1918:1919   */\n      dup1\n        /* \"#utility.yul\":1911:1923   */\n      revert\n        /* \"#utility.yul\":1935:2052   */\n    tag_71:\n        /* \"#utility.yul\":2044:2045   */\n      0x00\n        /* \"#utility.yul\":2041:2042   */\n      dup1\n        /* \"#utility.yul\":2034:2046   */\n      revert\n        /* \"#utility.yul\":2058:2160   */\n    tag_72:\n        /* \"#utility.yul\":2099:2105   */\n      0x00\n        /* \"#utility.yul\":2150:2152   */\n      0x1f\n        /* \"#utility.yul\":2146:2153   */\n      not\n        /* \"#utility.yul\":2141:2143   */\n      0x1f\n        /* \"#utility.yul\":2134:2139   */\n      dup4\n        /* \"#utility.yul\":2130:2144   */\n      add\n        /* \"#utility.yul\":2126:2154   */\n      and\n        /* \"#utility.yul\":2116:2154   */\n      swap1\n      pop\n        /* \"#utility.yul\":2058:2160   */\n      swap2\n      swap1\n      pop\n      jump\t// out\n        /* \"#utility.yul\":2166:2346   */\n    tag_73:\n        /* \"#utility.yul\":2214:2291   */\n      0x4e487b7100000000000000000000000000000000000000000000000000000000\n        /* \"#utility.yul\":2211:2212   */\n      0x00\n        /* \"#utility.yul\":2204:2292   */\n      mstore\n        /* \"#utility.yul\":2311:2315   */\n      0x41\n        /* \"#utility.yul\":2308:2309   */\n      0x04\n        /* \"#utility.yul\":2301:2316   */\n      mstore\n        /* \"#utility.yul\":2335:2339   */\n      0x24\n        /* \"#utility.yul\":2332:2333   */\n      0x00\n        /* \"#utility.yul\":2325:2340   */\n      revert\n        /* \"#utility.yul\":2352:2633   */\n    tag_74:\n        /* \"#utility.yul\":2435:2462   */\n      tag_130\n        /* \"#utility.yul\":2457:2461   */\n      dup3\n        /* \"#utility.yul\":2435:2462   */\n      tag_72\n      jump\t// in\n    tag_130:\n        /* \"#utility.yul\":2427:2433   */\n      dup2\n        /* \"#utility.yul\":2423:2463   */\n      add\n        /* \"#utility.yul\":2565:2571   */\n      dup2\n        /* \"#utility.yul\":2553:2563   */\n      dup2\n        /* \"#utility.yul\":2550:2572   */\n      lt\n        /* \"#utility.yul\":2529:2547   */\n      0xffffffffffffffff\n        /* \"#utility.yul\":2517:2527   */\n      dup3\n        /* \"#utility.yul\":2514:2548   */\n      gt\n        /* \"#utility.yul\":2511:2573   */\n      or\n        /* \"#utility.yul\":2508:2596   */\n      iszero\n      tag_131\n      jumpi\n        /* \"#utility.yul\":2576:2594   */\n      tag_132\n      tag_73\n      jump\t// in\n    tag_132:\n        /* \"#utility.yul\":2508:2596   */\n    tag_131:\n        /* \"#utility.yul\":2616:2626   */\n      dup1\n        /* \"#utility.yul\":2612:2614   */\n      0x40\n        /* \"#utility.yul\":2605:2627   */\n      mstore\n        /* \"#utility.yul\":2395:2633   */\n      pop\n        /* \"#utility.yul\":2352:2633   */\n      pop\n      pop\n      jump\t// out\n        /* \"#utility.yul\":2639:2768   */\n    tag_75:\n        /* \"#utility.yul\":2673:2679   */\n      0x00\n        /* \"#utility.yul\":2700:2720   */\n      tag_134\n      tag_65\n      jump\t// in\n    tag_134:\n        /* \"#utility.yul\":2690:2720   */\n      swap1\n      pop\n        /* \"#utility.yul\":2729:2762   */\n      tag_135\n        /* \"#utility.yul\":2757:2761   */\n      dup3\n        /* \"#utility.yul\":2749:2755   */\n      dup3\n        /* \"#utility.yul\":2729:2762   */\n      tag_74\n      jump\t// in\n    tag_135:\n        /* \"#utility.yul\":2639:2768   */\n      swap2\n      swap1\n      pop\n      jump\t// out\n        /* \"#utility.yul\":2774:3082   */\n    tag_76:\n        /* \"#utility.yul\":2836:2840   */\n      0x00\n        /* \"#utility.yul\":2926:2944   */\n      0xffffffffffffffff\n        /* \"#utility.yul\":2918:2924   */\n      dup3\n        /* \"#utility.yul\":2915:2945   */\n      gt\n        /* \"#utility.yul\":2912:2968   */\n      iszero\n      tag_137\n      jumpi\n        /* \"#utility.yul\":2948:2966   */\n      tag_138\n      tag_73\n      jump\t// in\n    tag_138:\n        /* \"#utility.yul\":2912:2968   */\n    tag_137:\n        /* \"#utility.yul\":2986:3015   */\n      tag_139\n        /* \"#utility.yul\":3008:3014   */\n      dup3\n        /* \"#utility.yul\":2986:3015   */\n      tag_72\n      jump\t// in\n    tag_139:\n        /* \"#utility.yul\":2978:3015   */\n      swap1\n      pop\n        /* \"#utility.yul\":3070:3074   */\n      0x20\n        /* \"#utility.yul\":3064:3068   */\n      dup2\n        /* \"#utility.yul\":3060:3075   */\n      add\n        /* \"#utility.yul\":3052:3075   */\n      swap1\n      pop\n        /* \"#utility.yul\":2774:3082   */\n      swap2\n      swap1\n      pop\n      jump\t// out\n        /* \"#utility.yul\":3088:3234   */\n    tag_77:\n        /* \"#utility.yul\":3185:3191   */\n      dup3\n        /* \"#utility.yul\":3180:3183   */\n      dup2\n        /* \"#utility.yul\":3175:3178   */\n      dup4\n        /* \"#utility.yul\":3162:3192   */\n      calldatacopy\n        /* \"#utility.yul\":3226:3227   */\n      0x00\n        /* \"#utility.yul\":3217:3223   */\n      dup4\n        /* \"#utility.yul\":3212:3215   */\n      dup4\n        /* \"#utility.yul\":3208:3224   */\n      add\n        /* \"#utility.yul\":3201:3228   */\n      mstore\n        /* \"#utility.yul\":3088:3234   */\n      pop\n      pop\n      pop\n      jump\t// out\n        /* \"#utility.yul\":3240:3665   */\n    tag_78:\n        /* \"#utility.yul\":3318:3323   */\n      0x00\n        /* \"#utility.yul\":3343:3409   */\n      tag_142\n        /* \"#utility.yul\":3359:3408   */\n      tag_143\n        /* \"#utility.yul\":3401:3407   */\n      dup5\n        /* \"#utility.yul\":3359:3408   */\n      tag_76\n      jump\t// in\n    tag_143:\n        /* \"#utility.yul\":3343:3409   */\n      tag_75\n      jump\t// in\n    tag_142:\n        /* \"#utility.yul\":3334:3409   */\n      swap1\n      pop\n        /* \"#utility.yul\":3432:3438   */\n      dup3\n        /* \"#utility.yul\":3425:3430   */\n      dup2\n        /* \"#utility.yul\":3418:3439   */\n      mstore\n        /* \"#utility.yul\":3470:3474   */\n      0x20\n        /* \"#utility.yul\":3463:3468   */\n      dup2\n        /* \"#utility.yul\":3459:3475   */\n      add\n        /* \"#utility.yul\":3508:3511   */\n      dup5\n        /* \"#utility.yul\":3499:3505   */\n      dup5\n        /* \"#utility.yul\":3494:3497   */\n      dup5\n        /* \"#utility.yul\":3490:3506   */\n      add\n        /* \"#utility.yul\":3487:3512   */\n      gt\n        /* \"#utility.yul\":3484:3596   */\n      iszero\n      tag_144\n      jumpi\n        /* \"#utility.yul\":3515:3594   */\n      tag_145\n      tag_71\n      jump\t// in\n    tag_145:\n        /* \"#utility.yul\":3484:3596   */\n    tag_144:\n        /* \"#utility.yul\":3605:3659   */\n      tag_146\n        /* \"#utility.yul\":3652:3658   */\n      dup5\n        /* \"#utility.yul\":3647:3650   */\n      dup3\n        /* \"#utility.yul\":3642:3645   */\n      dup6\n        /* \"#utility.yul\":3605:3659   */\n      tag_77\n      jump\t// in\n    tag_146:\n        /* \"#utility.yul\":3324:3665   */\n      pop\n        /* \"#utility.yul\":3240:3665   */\n      swap4\n      swap3\n      pop\n      pop\n      pop\n      jump\t// out\n        /* \"#utility.yul\":3685:4025   */\n    tag_79:\n        /* \"#utility.yul\":3741:3746   */\n      0x00\n        /* \"#utility.yul\":3790:3793   */\n      dup3\n        /* \"#utility.yul\":3783:3787   */\n      0x1f\n        /* \"#utility.yul\":3775:3781   */\n      dup4\n        /* \"#utility.yul\":3771:3788   */\n      add\n        /* \"#utility.yul\":3767:3794   */\n      slt\n        /* \"#utility.yul\":3757:3879   */\n      tag_148\n      jumpi\n        /* \"#utility.yul\":3798:3877   */\n      tag_149\n      tag_70\n      jump\t// in\n    tag_149:\n        /* \"#utility.yul\":3757:3879   */\n    tag_148:\n        /* \"#utility.yul\":3915:3921   */\n      dup2\n        /* \"#utility.yul\":3902:3922   */\n      calldataload\n        /* \"#utility.yul\":3940:4019   */\n      tag_150\n        /* \"#utility.yul\":4015:4018   */\n      dup5\n        /* \"#utility.yul\":4007:4013   */\n      dup3\n        /* \"#utility.yul\":4000:4004   */\n      0x20\n        /* \"#utility.yul\":3992:3998   */\n      dup7\n        /* \"#utility.yul\":3988:4005   */\n      add\n        /* \"#utility.yul\":3940:4019   */\n      tag_78\n      jump\t// in\n    tag_150:\n        /* \"#utility.yul\":3931:4019   */\n      swap2\n      pop\n        /* \"#utility.yul\":3747:4025   */\n      pop\n        /* \"#utility.yul\":3685:4025   */\n      swap3\n      swap2\n      pop\n      pop\n      jump\t// out\n        /* \"#utility.yul\":4031:4685   */\n    tag_29:\n        /* \"#utility.yul\":4109:4115   */\n      0x00\n        /* \"#utility.yul\":4117:4123   */\n      dup1\n        /* \"#utility.yul\":4166:4168   */\n      0x40\n        /* \"#utility.yul\":4154:4163   */\n      dup4\n        /* \"#utility.yul\":4145:4152   */\n      dup6\n        /* \"#utility.yul\":4141:4164   */\n      sub\n        /* \"#utility.yul\":4137:4169   */\n      slt\n        /* \"#utility.yul\":4134:4253   */\n      iszero\n      tag_152\n      jumpi\n        /* \"#utility.yul\":4172:4251   */\n      tag_153\n      tag_66\n      jump\t// in\n    tag_153:\n        /* \"#utility.yul\":4134:4253   */\n    tag_152:\n        /* \"#utility.yul\":4320:4321   */\n      0x00\n        /* \"#utility.yul\":4309:4318   */\n      dup4\n        /* \"#utility.yul\":4305:4322   */\n      add\n        /* \"#utility.yul\":4292:4323   */\n      calldataload\n        /* \"#utility.yul\":4350:4368   */\n      0xffffffffffffffff\n        /* \"#utility.yul\":4342:4348   */\n      dup2\n        /* \"#utility.yul\":4339:4369   */\n      gt\n        /* \"#utility.yul\":4336:4453   */\n      iszero\n      tag_154\n      jumpi\n        /* \"#utility.yul\":4372:4451   */\n      tag_155\n      tag_67\n      jump\t// in\n    tag_155:\n        /* \"#utility.yul\":4336:4453   */\n    tag_154:\n        /* \"#utility.yul\":4477:4540   */\n      tag_156\n        /* \"#utility.yul\":4532:4539   */\n      dup6\n        /* \"#utility.yul\":4523:4529   */\n      dup3\n        /* \"#utility.yul\":4512:4521   */\n      dup7\n        /* \"#utility.yul\":4508:4530   */\n      add\n        /* \"#utility.yul\":4477:4540   */\n      tag_79\n      jump\t// in\n    tag_156:\n        /* \"#utility.yul\":4467:4540   */\n      swap3\n      pop\n        /* \"#utility.yul\":4263:4550   */\n      pop\n        /* \"#utility.yul\":4589:4591   */\n      0x20\n        /* \"#utility.yul\":4615:4668   */\n      tag_157\n        /* \"#utility.yul\":4660:4667   */\n      dup6\n        /* \"#utility.yul\":4651:4657   */\n      dup3\n        /* \"#utility.yul\":4640:4649   */\n      dup7\n        /* \"#utility.yul\":4636:4658   */\n      add\n        /* \"#utility.yul\":4615:4668   */\n      tag_69\n      jump\t// in\n    tag_157:\n        /* \"#utility.yul\":4605:4668   */\n      swap2\n      pop\n        /* \"#utility.yul\":4560:4678   */\n      pop\n        /* \"#utility.yul\":4031:4685   */\n      swap3\n      pop\n      swap3\n      swap1\n      pop\n      jump\t// out\n        /* \"#utility.yul\":4691:5200   */\n    tag_33:\n        /* \"#utility.yul\":4760:4766   */\n      0x00\n        /* \"#utility.yul\":4809:4811   */\n      0x20\n        /* \"#utility.yul\":4797:4806   */\n      dup3\n        /* \"#utility.yul\":4788:4795   */\n      dup5\n        /* \"#utility.yul\":4784:4807   */\n      sub\n        /* \"#utility.yul\":4780:4812   */\n      slt\n        /* \"#utility.yul\":4777:4896   */\n      iszero\n      tag_159\n      jumpi\n        /* \"#utility.yul\":4815:4894   */\n      tag_160\n      tag_66\n      jump\t// in\n    tag_160:\n        /* \"#utility.yul\":4777:4896   */\n    tag_159:\n        /* \"#utility.yul\":4963:4964   */\n      0x00\n        /* \"#utility.yul\":4952:4961   */\n      dup3\n        /* \"#utility.yul\":4948:4965   */\n      add\n        /* \"#utility.yul\":4935:4966   */\n      calldataload\n        /* \"#utility.yul\":4993:5011   */\n      0xffffffffffffffff\n        /* \"#utility.yul\":4985:4991   */\n      dup2\n        /* \"#utility.yul\":4982:5012   */\n      gt\n        /* \"#utility.yul\":4979:5096   */\n      iszero\n      tag_161\n      jumpi\n        /* \"#utility.yul\":5015:5094   */\n      tag_162\n      tag_67\n      jump\t// in\n    tag_162:\n        /* \"#utility.yul\":4979:5096   */\n    tag_161:\n        /* \"#utility.yul\":5120:5183   */\n      tag_163\n        /* \"#utility.yul\":5175:5182   */\n      dup5\n        /* \"#utility.yul\":5166:5172   */\n      dup3\n        /* \"#utility.yul\":5155:5164   */\n      dup6\n        /* \"#utility.yul\":5151:5173   */\n      add\n        /* \"#utility.yul\":5120:5183   */\n      tag_79\n      jump\t// in\n    tag_163:\n        /* \"#utility.yul\":5110:5183   */\n      swap2\n      pop\n        /* \"#utility.yul\":4906:5193   */\n      pop\n        /* \"#utility.yul\":4691:5200   */\n      swap3\n      swap2\n      pop\n      pop\n      jump\t// out\n        /* \"#utility.yul\":5206:5305   */\n    tag_80:\n        /* \"#utility.yul\":5258:5264   */\n      0x00\n        /* \"#utility.yul\":5292:5297   */\n      dup2\n        /* \"#utility.yul\":5286:5298   */\n      mload\n        /* \"#utility.yul\":5276:5298   */\n      swap1\n      pop\n        /* \"#utility.yul\":5206:5305   */\n      swap2\n      swap1\n      pop\n      jump\t// out\n        /* \"#utility.yul\":5311:5480   */\n    tag_81:\n        /* \"#utility.yul\":5395:5406   */\n      0x00\n        /* \"#utility.yul\":5429:5435   */\n      dup3\n        /* \"#utility.yul\":5424:5427   */\n      dup3\n        /* \"#utility.yul\":5417:5436   */\n      mstore\n        /* \"#utility.yul\":5469:5473   */\n      0x20\n        /* \"#utility.yul\":5464:5467   */\n      dup3\n        /* \"#utility.yul\":5460:5474   */\n      add\n        /* \"#utility.yul\":5445:5474   */\n      swap1\n      pop\n        /* \"#utility.yul\":5311:5480   */\n      swap3\n      swap2\n      pop\n      pop\n      jump\t// out\n        /* \"#utility.yul\":5486:5732   */\n    tag_82:\n        /* \"#utility.yul\":5567:5568   */\n      0x00\n        /* \"#utility.yul\":5577:5690   */\n    tag_167:\n        /* \"#utility.yul\":5591:5597   */\n      dup4\n        /* \"#utility.yul\":5588:5589   */\n      dup2\n        /* \"#utility.yul\":5585:5598   */\n      lt\n        /* \"#utility.yul\":5577:5690   */\n      iszero\n      tag_169\n      jumpi\n        /* \"#utility.yul\":5676:5677   */\n      dup1\n        /* \"#utility.yul\":5671:5674   */\n      dup3\n        /* \"#utility.yul\":5667:5678   */\n      add\n        /* \"#utility.yul\":5661:5679   */\n      mload\n        /* \"#utility.yul\":5657:5658   */\n      dup2\n        /* \"#utility.yul\":5652:5655   */\n      dup5\n        /* \"#utility.yul\":5648:5659   */\n      add\n        /* \"#utility.yul\":5641:5680   */\n      mstore\n        /* \"#utility.yul\":5613:5615   */\n      0x20\n        /* \"#utility.yul\":5610:5611   */\n      dup2\n        /* \"#utility.yul\":5606:5616   */\n      add\n        /* \"#utility.yul\":5601:5616   */\n      swap1\n      pop\n        /* \"#utility.yul\":5577:5690   */\n      jump(tag_167)\n    tag_169:\n        /* \"#utility.yul\":5724:5725   */\n      0x00\n        /* \"#utility.yul\":5715:5721   */\n      dup5\n        /* \"#utility.yul\":5710:5713   */\n      dup5\n        /* \"#utility.yul\":5706:5722   */\n      add\n        /* \"#utility.yul\":5699:5726   */\n      mstore\n        /* \"#utility.yul\":5548:5732   */\n      pop\n        /* \"#utility.yul\":5486:5732   */\n      pop\n      pop\n      pop\n      jump\t// out\n        /* \"#utility.yul\":5738:6115   */\n    tag_83:\n        /* \"#utility.yul\":5826:5829   */\n      0x00\n        /* \"#utility.yul\":5854:5893   */\n      tag_171\n        /* \"#utility.yul\":5887:5892   */\n      dup3\n        /* \"#utility.yul\":5854:5893   */\n      tag_80\n      jump\t// in\n    tag_171:\n        /* \"#utility.yul\":5909:5980   */\n      tag_172\n        /* \"#utility.yul\":5973:5979   */\n      dup2\n        /* \"#utility.yul\":5968:5971   */\n      dup6\n        /* \"#utility.yul\":5909:5980   */\n      tag_81\n      jump\t// in\n    tag_172:\n        /* \"#utility.yul\":5902:5980   */\n      swap4\n      pop\n        /* \"#utility.yul\":5989:6054   */\n      tag_173\n        /* \"#utility.yul\":6047:6053   */\n      dup2\n        /* \"#utility.yul\":6042:6045   */\n      dup6\n        /* \"#utility.yul\":6035:6039   */\n      0x20\n        /* \"#utility.yul\":6028:6033   */\n      dup7\n        /* \"#utility.yul\":6024:6040   */\n      add\n        /* \"#utility.yul\":5989:6054   */\n      tag_82\n      jump\t// in\n    tag_173:\n        /* \"#utility.yul\":6079:6108   */\n      tag_174\n        /* \"#utility.yul\":6101:6107   */\n      dup2\n        /* \"#utility.yul\":6079:6108   */\n      tag_72\n      jump\t// in\n    tag_174:\n        /* \"#utility.yul\":6074:6077   */\n      dup5\n        /* \"#utility.yul\":6070:6109   */\n      add\n        /* \"#utility.yul\":6063:6109   */\n      swap2\n      pop\n        /* \"#utility.yul\":5830:6115   */\n      pop\n        /* \"#utility.yul\":5738:6115   */\n      swap3\n      swap2\n      pop\n      pop\n      jump\t// out\n        /* \"#utility.yul\":6121:6544   */\n    tag_40:\n        /* \"#utility.yul\":6262:6266   */\n      0x00\n        /* \"#utility.yul\":6300:6302   */\n      0x40\n        /* \"#utility.yul\":6289:6298   */\n      dup3\n        /* \"#utility.yul\":6285:6303   */\n      add\n        /* \"#utility.yul\":6277:6303   */\n      swap1\n      pop\n        /* \"#utility.yul\":6313:6384   */\n      tag_176\n        /* \"#utility.yul\":6381:6382   */\n      0x00\n        /* \"#utility.yul\":6370:6379   */\n      dup4\n        /* \"#utility.yul\":6366:6383   */\n      add\n        /* \"#utility.yul\":6357:6363   */\n      dup6\n        /* \"#utility.yul\":6313:6384   */\n      tag_64\n      jump\t// in\n    tag_176:\n        /* \"#utility.yul\":6431:6440   */\n      dup2\n        /* \"#utility.yul\":6425:6429   */\n      dup2\n        /* \"#utility.yul\":6421:6441   */\n      sub\n        /* \"#utility.yul\":6416:6418   */\n      0x20\n        /* \"#utility.yul\":6405:6414   */\n      dup4\n        /* \"#utility.yul\":6401:6419   */\n      add\n        /* \"#utility.yul\":6394:6442   */\n      mstore\n        /* \"#utility.yul\":6459:6537   */\n      tag_177\n        /* \"#utility.yul\":6532:6536   */\n      dup2\n        /* \"#utility.yul\":6523:6529   */\n      dup5\n        /* \"#utility.yul\":6459:6537   */\n      tag_83\n      jump\t// in\n    tag_177:\n        /* \"#utility.yul\":6451:6537   */\n      swap1\n      pop\n        /* \"#utility.yul\":6121:6544   */\n      swap4\n      swap3\n      pop\n      pop\n      pop\n      jump\t// out\n        /* \"#utility.yul\":6550:6730   */\n    tag_84:\n        /* \"#utility.yul\":6598:6675   */\n      0x4e487b7100000000000000000000000000000000000000000000000000000000\n        /* \"#utility.yul\":6595:6596   */\n      0x00\n        /* \"#utility.yul\":6588:6676   */\n      mstore\n        /* \"#utility.yul\":6695:6699   */\n      0x22\n        /* \"#utility.yul\":6692:6693   */\n      0x04\n        /* \"#utility.yul\":6685:6700   */\n      mstore\n        /* \"#utility.yul\":6719:6723   */\n      0x24\n        /* \"#utility.yul\":6716:6717   */\n      0x00\n        /* \"#utility.yul\":6709:6724   */\n      revert\n        /* \"#utility.yul\":6736:7056   */\n    tag_56:\n        /* \"#utility.yul\":6780:6786   */\n      0x00\n        /* \"#utility.yul\":6817:6818   */\n      0x02\n        /* \"#utility.yul\":6811:6815   */\n      dup3\n        /* \"#utility.yul\":6807:6819   */\n      div\n        /* \"#utility.yul\":6797:6819   */\n      swap1\n      pop\n        /* \"#utility.yul\":6864:6865   */\n      0x01\n        /* \"#utility.yul\":6858:6862   */\n      dup3\n        /* \"#utility.yul\":6854:6866   */\n      and\n        /* \"#utility.yul\":6885:6903   */\n      dup1\n        /* \"#utility.yul\":6875:6956   */\n      tag_180\n      jumpi\n        /* \"#utility.yul\":6941:6945   */\n      0x7f\n        /* \"#utility.yul\":6933:6939   */\n      dup3\n        /* \"#utility.yul\":6929:6946   */\n      and\n        /* \"#utility.yul\":6919:6946   */\n      swap2\n      pop\n        /* \"#utility.yul\":6875:6956   */\n    tag_180:\n        /* \"#utility.yul\":7003:7005   */\n      0x20\n        /* \"#utility.yul\":6995:7001   */\n      dup3\n        /* \"#utility.yul\":6992:7006   */\n      lt\n        /* \"#utility.yul\":6972:6990   */\n      dup2\n        /* \"#utility.yul\":6969:7007   */\n      sub\n        /* \"#utility.yul\":6966:7050   */\n      tag_181\n      jumpi\n        /* \"#utility.yul\":7022:7040   */\n      tag_182\n      tag_84\n      jump\t// in\n    tag_182:\n        /* \"#utility.yul\":6966:7050   */\n    tag_181:\n        /* \"#utility.yul\":6787:7056   */\n      pop\n        /* \"#utility.yul\":6736:7056   */\n      swap2\n      swap1\n      pop\n      jump\t// out\n        /* \"#utility.yul\":7062:7203   */\n    tag_85:\n        /* \"#utility.yul\":7111:7115   */\n      0x00\n        /* \"#utility.yul\":7134:7137   */\n      dup2\n        /* \"#utility.yul\":7126:7137   */\n      swap1\n      pop\n        /* \"#utility.yul\":7157:7160   */\n      dup2\n        /* \"#utility.yul\":7154:7155   */\n      0x00\n        /* \"#utility.yul\":7147:7161   */\n      mstore\n        /* \"#utility.yul\":7191:7195   */\n      0x20\n        /* \"#utility.yul\":7188:7189   */\n      0x00\n        /* \"#utility.yul\":7178:7196   */\n      keccak256\n        /* \"#utility.yul\":7170:7196   */\n      swap1\n      pop\n        /* \"#utility.yul\":7062:7203   */\n      swap2\n      swap1\n      pop\n      jump\t// out\n        /* \"#utility.yul\":7209:7302   */\n    tag_86:\n        /* \"#utility.yul\":7246:7252   */\n      0x00\n        /* \"#utility.yul\":7293:7295   */\n      0x20\n        /* \"#utility.yul\":7288:7290   */\n      0x1f\n        /* \"#utility.yul\":7281:7286   */\n      dup4\n        /* \"#utility.yul\":7277:7291   */\n      add\n        /* \"#utility.yul\":7273:7296   */\n      div\n        /* \"#utility.yul\":7263:7296   */\n      swap1\n      pop\n        /* \"#utility.yul\":7209:7302   */\n      swap2\n      swap1\n      pop\n      jump\t// out\n        /* \"#utility.yul\":7308:7415   */\n    tag_87:\n        /* \"#utility.yul\":7352:7360   */\n      0x00\n        /* \"#utility.yul\":7402:7407   */\n      dup3\n        /* \"#utility.yul\":7396:7400   */\n      dup3\n        /* \"#utility.yul\":7392:7408   */\n      shl\n        /* \"#utility.yul\":7371:7408   */\n      swap1\n      pop\n        /* \"#utility.yul\":7308:7415   */\n      swap3\n      swap2\n      pop\n      pop\n      jump\t// out\n        /* \"#utility.yul\":7421:7814   */\n    tag_88:\n        /* \"#utility.yul\":7490:7496   */\n      0x00\n        /* \"#utility.yul\":7540:7541   */\n      0x08\n        /* \"#utility.yul\":7528:7538   */\n      dup4\n        /* \"#utility.yul\":7524:7542   */\n      mul\n        /* \"#utility.yul\":7563:7660   */\n      tag_187\n        /* \"#utility.yul\":7593:7659   */\n      0xffffffffffffffffffffffffffffffffffffffffffffffffffffffffffffffff\n        /* \"#utility.yul\":7582:7591   */\n      dup3\n        /* \"#utility.yul\":7563:7660   */\n      tag_87\n      jump\t// in\n    tag_187:\n        /* \"#utility.yul\":7681:7720   */\n      tag_188\n        /* \"#utility.yul\":7711:7719   */\n      dup7\n        /* \"#utility.yul\":7700:7709   */\n      dup4\n        /* \"#utility.yul\":7681:7720   */\n      tag_87\n      jump\t// in\n    tag_188:\n        /* \"#utility.yul\":7669:7720   */\n      swap6\n      pop\n        /* \"#utility.yul\":7753:7757   */\n      dup1\n        /* \"#utility.yul\":7749:7758   */\n      not\n        /* \"#utility.yul\":7742:7747   */\n      dup5\n        /* \"#utility.yul\":7738:7759   */\n      and\n        /* \"#utility.yul\":7729:7759   */\n      swap4\n      pop\n        /* \"#utility.yul\":7802:7806   */\n      dup1\n        /* \"#utility.yul\":7792:7800   */\n      dup7\n        /* \"#utility.yul\":7788:7807   */\n      and\n        /* \"#utility.yul\":7781:7786   */\n      dup5\n        /* \"#utility.yul\":7778:7808   */\n      or\n        /* \"#utility.yul\":7768:7808   */\n      swap3\n      pop\n        /* \"#utility.yul\":7497:7814   */\n      pop\n      pop\n        /* \"#utility.yul\":7421:7814   */\n      swap4\n      swap3\n      pop\n      pop\n      pop\n      jump\t// out\n        /* \"#utility.yul\":7820:7880   */\n    tag_89:\n        /* \"#utility.yul\":7848:7851   */\n      0x00\n        /* \"#utility.yul\":7869:7874   */\n      dup2\n        /* \"#utility.yul\":7862:7874   */\n      swap1\n      pop\n        /* \"#utility.yul\":7820:7880   */\n      swap2\n      swap1\n      pop\n      jump\t// out\n        /* \"#utility.yul\":7886:8028   */\n    tag_90:\n        /* \"#utility.yul\":7936:7945   */\n      0x00\n        /* \"#utility.yul\":7969:8022   */\n      tag_191\n        /* \"#utility.yul\":7987:8021   */\n      tag_192\n        /* \"#utility.yul\":7996:8020   */\n      tag_193\n        /* \"#utility.yul\":8014:8019   */\n      dup5\n        /* \"#utility.yul\":7996:8020   */\n      tag_63\n      jump\t// in\n    tag_193:\n        /* \"#utility.yul\":7987:8021   */\n      tag_89\n      jump\t// in\n    tag_192:\n        /* \"#utility.yul\":7969:8022   */\n      tag_63\n      jump\t// in\n    tag_191:\n        /* \"#utility.yul\":7956:8022   */\n      swap1\n      pop\n        /* \"#utility.yul\":7886:8028   */\n      swap2\n      swap1\n      pop\n      jump\t// out\n        /* \"#utility.yul\":8034:8109   */\n    tag_91:\n        /* \"#utility.yul\":8077:8080   */\n      0x00\n        /* \"#utility.yul\":8098:8103   */\n      dup2\n        /* \"#utility.yul\":8091:8103   */\n      swap1\n      pop\n        /* \"#utility.yul\":8034:8109   */\n      swap2\n      swap1\n      pop\n      jump\t// out\n        /* \"#utility.yul\":8115:8384   */\n    tag_92:\n        /* \"#utility.yul\":8225:8264   */\n      tag_196\n        /* \"#utility.yul\":8256:8263   */\n      dup4\n        /* \"#utility.yul\":8225:8264   */\n      tag_90\n      jump\t// in\n    tag_196:\n        /* \"#utility.yul\":8286:8377   */\n      tag_197\n        /* \"#utility.yul\":8335:8376   */\n      tag_198\n        /* \"#utility.yul\":8359:8375   */\n      dup3\n        /* \"#utility.yul\":8335:8376   */\n      tag_91\n      jump\t// in\n    tag_198:\n        /* \"#utility.yul\":8327:8333   */\n      dup5\n        /* \"#utility.yul\":8320:8324   */\n      dup5\n        /* \"#utility.yul\":8314:8325   */\n      sload\n        /* \"#utility.yul\":8286:8377   */\n      tag_88\n      jump\t// in\n    tag_197:\n        /* \"#utility.yul\":8280:8284   */\n      dup3\n        /* \"#utility.yul\":8273:8378   */\n      sstore\n        /* \"#utility.yul\":8191:8384   */\n      pop\n        /* \"#utility.yul\":8115:8384   */\n      pop\n      pop\n      pop\n      jump\t// out\n        /* \"#utility.yul\":8390:8463   */\n    tag_93:\n        /* \"#utility.yul\":8435:8438   */\n      0x00\n        /* \"#utility.yul\":8390:8463   */\n      swap1\n      jump\t// out\n        /* \"#utility.yul\":8469:8658   */\n    tag_94:\n        /* \"#utility.yul\":8546:8578   */\n      tag_201\n      tag_93\n      jump\t// in\n    tag_201:\n        /* \"#utility.yul\":8587:8652   */\n      tag_202\n        /* \"#utility.yul\":8645:8651   */\n      dup2\n        /* \"#utility.yul\":8637:8643   */\n      dup5\n        /* \"#utility.yul\":8631:8635   */\n      dup5\n        /* \"#utility.yul\":8587:8652   */\n      tag_92\n      jump\t// in\n    tag_202:\n        /* \"#utility.yul\":8522:8658   */\n      pop\n        /* \"#utility.yul\":8469:8658   */\n      pop\n      pop\n      jump\t// out\n        /* \"#utility.yul\":8664:8850   */\n    tag_95:\n        /* \"#utility.yul\":8724:8844   */\n    tag_204:\n        /* \"#utility.yul\":8741:8744   */\n      dup2\n        /* \"#utility.yul\":8734:8739   */\n      dup2\n        /* \"#utility.yul\":8731:8745   */\n      lt\n        /* \"#utility.yul\":8724:8844   */\n      iszero\n      tag_206\n      jumpi\n        /* \"#utility.yul\":8795:8834   */\n      tag_207\n        /* \"#utility.yul\":8832:8833   */\n      0x00\n        /* \"#utility.yul\":8825:8830   */\n      dup3\n        /* \"#utility.yul\":8795:8834   */\n      tag_94\n      jump\t// in\n    tag_207:\n        /* \"#utility.yul\":8768:8769   */\n      0x01\n        /* \"#utility.yul\":8761:8766   */\n      dup2\n        /* \"#utility.yul\":8757:8770   */\n      add\n        /* \"#utility.yul\":8748:8770   */\n      swap1\n      pop\n        /* \"#utility.yul\":8724:8844   */\n      jump(tag_204)\n    tag_206:\n        /* \"#utility.yul\":8664:8850   */\n      pop\n      pop\n      jump\t// out\n        /* \"#utility.yul\":8856:9399   */\n    tag_96:\n        /* \"#utility.yul\":8957:8959   */\n      0x1f\n        /* \"#utility.yul\":8952:8955   */\n      dup3\n        /* \"#utility.yul\":8949:8960   */\n      gt\n        /* \"#utility.yul\":8946:9392   */\n      iszero\n      tag_209\n      jumpi\n        /* \"#utility.yul\":8991:9029   */\n      tag_210\n        /* \"#utility.yul\":9023:9028   */\n      dup2\n        /* \"#utility.yul\":8991:9029   */\n      tag_85\n      jump\t// in\n    tag_210:\n        /* \"#utility.yul\":9075:9104   */\n      tag_211\n        /* \"#utility.yul\":9093:9103   */\n      dup5\n        /* \"#utility.yul\":9075:9104   */\n      tag_86\n      jump\t// in\n    tag_211:\n        /* \"#utility.yul\":9065:9073   */\n      dup2\n        /* \"#utility.yul\":9061:9105   */\n      add\n        /* \"#utility.yul\":9258:9260   */\n      0x20\n        /* \"#utility.yul\":9246:9256   */\n      dup6\n        /* \"#utility.yul\":9243:9261   */\n      lt\n        /* \"#utility.yul\":9240:9289   */\n      iszero\n      tag_212\n      jumpi\n        /* \"#utility.yul\":9279:9287   */\n      dup2\n        /* \"#utility.yul\":9264:9287   */\n      swap1\n      pop\n        /* \"#utility.yul\":9240:9289   */\n    tag_212:\n        /* \"#utility.yul\":9302:9382   */\n      tag_213\n        /* \"#utility.yul\":9358:9380   */\n      tag_214\n        /* \"#utility.yul\":9376:9379   */\n      dup6\n        /* \"#utility.yul\":9358:9380   */\n      tag_86\n      jump\t// in\n    tag_214:\n        /* \"#utility.yul\":9348:9356   */\n      dup4\n        /* \"#utility.yul\":9344:9381   */\n      add\n        /* \"#utility.yul\":9331:9342   */\n      dup3\n        /* \"#utility.yul\":9302:9382   */\n      tag_95\n      jump\t// in\n    tag_213:\n        /* \"#utility.yul\":8961:9392   */\n      pop\n      pop\n        /* \"#utility.yul\":8946:9392   */\n    tag_209:\n        /* \"#utility.yul\":8856:9399   */\n      pop\n      pop\n      pop\n      jump\t// out\n        /* \"#utility.yul\":9405:9522   */\n    tag_97:\n        /* \"#utility.yul\":9459:9467   */\n      0x00\n        /* \"#utility.yul\":9509:9514   */\n      dup3\n        /* \"#utility.yul\":9503:9507   */\n      dup3\n        /* \"#utility.yul\":9499:9515   */\n      shr\n        /* \"#utility.yul\":9478:9515   */\n      swap1\n      pop\n        /* \"#utility.yul\":9405:9522   */\n      swap3\n      swap2\n      pop\n      pop\n      jump\t// out\n        /* \"#utility.yul\":9528:9697   */\n    tag_98:\n        /* \"#utility.yul\":9572:9578   */\n      0x00\n        /* \"#utility.yul\":9605:9656   */\n      tag_217\n        /* \"#utility.yul\":9653:9654   */\n      0x00\n        /* \"#utility.yul\":9649:9655   */\n      not\n        /* \"#utility.yul\":9641:9646   */\n      dup5\n        /* \"#utility.yul\":9638:9639   */\n      0x08\n        /* \"#utility.yul\":9634:9647   */\n      mul\n        /* \"#utility.yul\":9605:9656   */\n      tag_97\n      jump\t// in\n    tag_217:\n        /* \"#utility.yul\":9601:9657   */\n      not\n        /* \"#utility.yul\":9686:9690   */\n      dup1\n        /* \"#utility.yul\":9680:9684   */\n      dup4\n        /* \"#utility.yul\":9676:9691   */\n      and\n        /* \"#utility.yul\":9666:9691   */\n      swap2\n      pop\n        /* \"#utility.yul\":9579:9697   */\n      pop\n        /* \"#utility.yul\":9528:9697   */\n      swap3\n      swap2\n      pop\n      pop\n      jump\t// out\n        /* \"#utility.yul\":9702:9997   */\n    tag_99:\n        /* \"#utility.yul\":9778:9782   */\n      0x00\n        /* \"#utility.yul\":9924:9953   */\n      tag_219\n        /* \"#utility.yul\":9949:9952   */\n      dup4\n        /* \"#utility.yul\":9943:9947   */\n      dup4\n        /* \"#utility.yul\":9924:9953   */\n      tag_98\n      jump\t// in\n    tag_219:\n        /* \"#utility.yul\":9916:9953   */\n      swap2\n      pop\n        /* \"#utility.yul\":9986:9989   */\n      dup3\n        /* \"#utility.yul\":9983:9984   */\n      0x02\n        /* \"#utility.yul\":9979:9990   */\n      mul\n        /* \"#utility.yul\":9973:9977   */\n      dup3\n        /* \"#utility.yul\":9970:9991   */\n      or\n        /* \"#utility.yul\":9962:9991   */\n      swap1\n      pop\n        /* \"#utility.yul\":9702:9997   */\n      swap3\n      swap2\n      pop\n      pop\n      jump\t// out\n        /* \"#utility.yul\":10002:11397   */\n    tag_50:\n        /* \"#utility.yul\":10119:10156   */\n      tag_221\n        /* \"#utility.yul\":10152:10155   */\n      dup3\n        /* \"#utility.yul\":10119:10156   */\n      tag_80\n      jump\t// in\n    tag_221:\n        /* \"#utility.yul\":10221:10239   */\n      0xffffffffffffffff\n        /* \"#utility.yul\":10213:10219   */\n      dup2\n        /* \"#utility.yul\":10210:10240   */\n      gt\n        /* \"#utility.yul\":10207:10263   */\n      iszero\n      tag_222\n      jumpi\n        /* \"#utility.yul\":10243:10261   */\n      tag_223\n      tag_73\n      jump\t// in\n    tag_223:\n        /* \"#utility.yul\":10207:10263   */\n    tag_222:\n        /* \"#utility.yul\":10287:10325   */\n      tag_224\n        /* \"#utility.yul\":10319:10323   */\n      dup3\n        /* \"#utility.yul\":10313:10324   */\n      sload\n        /* \"#utility.yul\":10287:10325   */\n      tag_56\n      jump\t// in\n    tag_224:\n        /* \"#utility.yul\":10372:10439   */\n      tag_225\n        /* \"#utility.yul\":10432:10438   */\n      dup3\n        /* \"#utility.yul\":10424:10430   */\n      dup3\n        /* \"#utility.yul\":10418:10422   */\n      dup6\n        /* \"#utility.yul\":10372:10439   */\n      tag_96\n      jump\t// in\n    tag_225:\n        /* \"#utility.yul\":10466:10467   */\n      0x00\n        /* \"#utility.yul\":10490:10494   */\n      0x20\n        /* \"#utility.yul\":10477:10494   */\n      swap1\n      pop\n        /* \"#utility.yul\":10522:10524   */\n      0x1f\n        /* \"#utility.yul\":10514:10520   */\n      dup4\n        /* \"#utility.yul\":10511:10525   */\n      gt\n        /* \"#utility.yul\":10539:10540   */\n      0x01\n        /* \"#utility.yul\":10534:11152   */\n      dup2\n      eq\n      tag_227\n      jumpi\n        /* \"#utility.yul\":11196:11197   */\n      0x00\n        /* \"#utility.yul\":11213:11219   */\n      dup5\n        /* \"#utility.yul\":11210:11287   */\n      iszero\n      tag_228\n      jumpi\n        /* \"#utility.yul\":11262:11271   */\n      dup3\n        /* \"#utility.yul\":11257:11260   */\n      dup8\n        /* \"#utility.yul\":11253:11272   */\n      add\n        /* \"#utility.yul\":11247:11273   */\n      mload\n        /* \"#utility.yul\":11238:11273   */\n      swap1\n      pop\n        /* \"#utility.yul\":11210:11287   */\n    tag_228:\n        /* \"#utility.yul\":11313:11380   */\n      tag_229\n        /* \"#utility.yul\":11373:11379   */\n      dup6\n        /* \"#utility.yul\":11366:11371   */\n      dup3\n        /* \"#utility.yul\":11313:11380   */\n      tag_99\n      jump\t// in\n    tag_229:\n        /* \"#utility.yul\":11307:11311   */\n      dup7\n        /* \"#utility.yul\":11300:11381   */\n      sstore\n        /* \"#utility.yul\":11169:11391   */\n      pop\n        /* \"#utility.yul\":10504:11391   */\n      jump(tag_226)\n        /* \"#utility.yul\":10534:11152   */\n    tag_227:\n        /* \"#utility.yul\":10586:10590   */\n      0x1f\n        /* \"#utility.yul\":10582:10591   */\n      not\n        /* \"#utility.yul\":10574:10580   */\n      dup5\n        /* \"#utility.yul\":10570:10592   */\n      and\n        /* \"#utility.yul\":10620:10657   */\n      tag_230\n        /* \"#utility.yul\":10652:10656   */\n      dup7\n        /* \"#utility.yul\":10620:10657   */\n      tag_85\n      jump\t// in\n    tag_230:\n        /* \"#utility.yul\":10679:10680   */\n      0x00\n        /* \"#utility.yul\":10693:10901   */\n    tag_231:\n        /* \"#utility.yul\":10707:10714   */\n      dup3\n        /* \"#utility.yul\":10704:10705   */\n      dup2\n        /* \"#utility.yul\":10701:10715   */\n      lt\n        /* \"#utility.yul\":10693:10901   */\n      iszero\n      tag_233\n      jumpi\n        /* \"#utility.yul\":10786:10795   */\n      dup5\n        /* \"#utility.yul\":10781:10784   */\n      dup10\n        /* \"#utility.yul\":10777:10796   */\n      add\n        /* \"#utility.yul\":10771:10797   */\n      mload\n        /* \"#utility.yul\":10763:10769   */\n      dup3\n        /* \"#utility.yul\":10756:10798   */\n      sstore\n        /* \"#utility.yul\":10837:10838   */\n      0x01\n        /* \"#utility.yul\":10829:10835   */\n      dup3\n        /* \"#utility.yul\":10825:10839   */\n      add\n        /* \"#utility.yul\":10815:10839   */\n      swap2\n      pop\n        /* \"#utility.yul\":10884:10886   */\n      0x20\n        /* \"#utility.yul\":10873:10882   */\n      dup6\n        /* \"#utility.yul\":10869:10887   */\n      add\n        /* \"#utility.yul\":10856:10887   */\n      swap5\n      pop\n        /* \"#utility.yul\":10730:10734   */\n      0x20\n        /* \"#utility.yul\":10727:10728   */\n      dup2\n        /* \"#utility.yul\":10723:10735   */\n      add\n        /* \"#utility.yul\":10718:10735   */\n      swap1\n      pop\n        /* \"#utility.yul\":10693:10901   */\n      jump(tag_231)\n    tag_233:\n        /* \"#utility.yul\":10929:10935   */\n      dup7\n        /* \"#utility.yul\":10920:10927   */\n      dup4\n        /* \"#utility.yul\":10917:10936   */\n      lt\n        /* \"#utility.yul\":10914:11093   */\n      iszero\n      tag_234\n      jumpi\n        /* \"#utility.yul\":10987:10996   */\n      dup5\n        /* \"#utility.yul\":10982:10985   */\n      dup10\n        /* \"#utility.yul\":10978:10997   */\n      add\n        /* \"#utility.yul\":10972:10998   */\n      mload\n        /* \"#utility.yul\":11030:11078   */\n      tag_235\n        /* \"#utility.yul\":11072:11076   */\n      0x1f\n        /* \"#utility.yul\":11064:11070   */\n      dup10\n        /* \"#utility.yul\":11060:11077   */\n      and\n        /* \"#utility.yul\":11049:11058   */\n      dup3\n        /* \"#utility.yul\":11030:11078   */\n      tag_98\n      jump\t// in\n    tag_235:\n        /* \"#utility.yul\":11022:11028   */\n      dup4\n        /* \"#utility.yul\":11015:11079   */\n      sstore\n        /* \"#utility.yul\":10937:11093   */\n      pop\n        /* \"#utility.yul\":10914:11093   */\n    tag_234:\n        /* \"#utility.yul\":11139:11140   */\n      0x01\n        /* \"#utility.yul\":11135:11136   */\n      0x02\n        /* \"#utility.yul\":11127:11133   */\n      dup9\n        /* \"#utility.yul\":11123:11137   */\n      mul\n        /* \"#utility.yul\":11119:11141   */\n      add\n        /* \"#utility.yul\":11113:11117   */\n      dup9\n        /* \"#utility.yul\":11106:11142   */\n      sstore\n        /* \"#utility.yul\":10541:11152   */\n      pop\n      pop\n      pop\n        /* \"#utility.yul\":10504:11391   */\n    tag_226:\n      pop\n        /* \"#utility.yul\":10094:11397   */\n      pop\n      pop\n      pop\n        /* \"#utility.yul\":10002:11397   */\n      pop\n      pop\n      jump\t// out\n        /* \"#utility.yul\":11403:11551   */\n    tag_100:\n        /* \"#utility.yul\":11505:11516   */\n      0x00\n        /* \"#utility.yul\":11542:11545   */\n      dup2\n        /* \"#utility.yul\":11527:11545   */\n      swap1\n      pop\n        /* \"#utility.yul\":11403:11551   */\n      swap3\n      swap2\n      pop\n      pop\n      jump\t// out\n        /* \"#utility.yul\":11557:11947   */\n    tag_101:\n        /* \"#utility.yul\":11663:11666   */\n      0x00\n        /* \"#utility.yul\":11691:11730   */\n      tag_238\n        /* \"#utility.yul\":11724:11729   */\n      dup3\n        /* \"#utility.yul\":11691:11730   */\n      tag_80\n      jump\t// in\n    tag_238:\n        /* \"#utility.yul\":11746:11835   */\n      tag_239\n        /* \"#utility.yul\":11828:11834   */\n      dup2\n        /* \"#utility.yul\":11823:11826   */\n      dup6\n        /* \"#utility.yul\":11746:11835   */\n      tag_100\n      jump\t// in\n    tag_239:\n        /* \"#utility.yul\":11739:11835   */\n      swap4\n      pop\n        /* \"#utility.yul\":11844:11909   */\n      tag_240\n        /* \"#utility.yul\":11902:11908   */\n      dup2\n        /* \"#utility.yul\":11897:11900   */\n      dup6\n        /* \"#utility.yul\":11890:11894   */\n      0x20\n        /* \"#utility.yul\":11883:11888   */\n      dup7\n        /* \"#utility.yul\":11879:11895   */\n      add\n        /* \"#utility.yul\":11844:11909   */\n      tag_82\n      jump\t// in\n    tag_240:\n        /* \"#utility.yul\":11934:11940   */\n      dup1\n        /* \"#utility.yul\":11929:11932   */\n      dup5\n        /* \"#utility.yul\":11925:11941   */\n      add\n        /* \"#utility.yul\":11918:11941   */\n      swap2\n      pop\n        /* \"#utility.yul\":11667:11947   */\n      pop\n        /* \"#utility.yul\":11557:11947   */\n      swap3\n      swap2\n      pop\n      pop\n      jump\t// out\n        /* \"#utility.yul\":11953:12228   */\n    tag_52:\n        /* \"#utility.yul\":12085:12088   */\n      0x00\n        /* \"#utility.yul\":12107:12202   */\n      tag_242\n        /* \"#utility.yul\":12198:12201   */\n      dup3\n        /* \"#utility.yul\":12189:12195   */\n      dup5\n        /* \"#utility.yul\":12107:12202   */\n      tag_101\n      jump\t// in\n    tag_242:\n        /* \"#utility.yul\":12100:12202   */\n      swap2\n      pop\n        /* \"#utility.yul\":12219:12222   */\n      dup2\n        /* \"#utility.yul\":12212:12222   */\n      swap1\n      pop\n        /* \"#utility.yul\":11953:12228   */\n      swap3\n      swap2\n      pop\n      pop\n      jump\t// out\n\n    auxdata: 0xa2646970667358221220d5e128fb0047399a88f0ac903d6cccd610bd2253807c26b6f5d5d5caba14327764736f6c63430008100033\n}\n",
				"bytecode": {
					"linkReferences": {},
					"object": "60806040527f73696d6f6e00000000000000000000000000000000000000000000000000000060025534801561003457600080fd5b50610a10806100446000396000f3fe608060405234801561001057600080fd5b50600436106100885760003560e01c80636f760f411161005b5780636f760f41146101035780638bab8dd51461011f5780639e7a13ad1461014f578063d5aedd331461018057610088565b80632c2300241461008d5780632e64cec1146100ab578063471f7cdf146100c95780636057361d146100e7575b600080fd5b61009561019e565b6040516100a29190610353565b60405180910390f35b6100b36101a8565b6040516100c09190610387565b60405180910390f35b6100d16101b1565b6040516100de9190610387565b60405180910390f35b61010160048036038101906100fc91906103e2565b6101b7565b005b61011d60048036038101906101189190610555565b6101c1565b005b610139600480360381019061013491906105b1565b61024a565b6040516101469190610387565b60405180910390f35b610169600480360381019061016491906103e2565b610278565b604051610177929190610679565b60405180910390f35b610188610334565b6040516101959190610353565b60405180910390f35b6000600254905090565b60008054905090565b60005481565b8060008190555050565b6003604051806040016040528083815260200184815250908060018154018082558091505060019003906000526020600020906002020160009091909190915060008201518160000155602082015181600101908161022091906108b5565b5050508060048360405161023491906109c3565b9081526020016040518091039020819055505050565b6004818051602081018201805184825260208301602085012081835280955050505050506000915090505481565b6003818154811061028857600080fd5b90600052602060002090600202016000915090508060000154908060010180546102b1906106d8565b80601f01602080910402602001604051908101604052809291908181526020018280546102dd906106d8565b801561032a5780601f106102ff5761010080835404028352916020019161032a565b820191906000526020600020905b81548152906001019060200180831161030d57829003601f168201915b5050505050905082565b60025481565b6000819050919050565b61034d8161033a565b82525050565b60006020820190506103686000830184610344565b92915050565b6000819050919050565b6103818161036e565b82525050565b600060208201905061039c6000830184610378565b92915050565b6000604051905090565b600080fd5b600080fd5b6103bf8161036e565b81146103ca57600080fd5b50565b6000813590506103dc816103b6565b92915050565b6000602082840312156103f8576103f76103ac565b5b6000610406848285016103cd565b91505092915050565b600080fd5b600080fd5b6000601f19601f8301169050919050565b7f4e487b7100000000000000000000000000000000000000000000000000000000600052604160045260246000fd5b61046282610419565b810181811067ffffffffffffffff821117156104815761048061042a565b5b80604052505050565b60006104946103a2565b90506104a08282610459565b919050565b600067ffffffffffffffff8211156104c0576104bf61042a565b5b6104c982610419565b9050602081019050919050565b82818337600083830152505050565b60006104f86104f3846104a5565b61048a565b90508281526020810184848401111561051457610513610414565b5b61051f8482856104d6565b509392505050565b600082601f83011261053c5761053b61040f565b5b813561054c8482602086016104e5565b91505092915050565b6000806040838503121561056c5761056b6103ac565b5b600083013567ffffffffffffffff81111561058a576105896103b1565b5b61059685828601610527565b92505060206105a7858286016103cd565b9150509250929050565b6000602082840312156105c7576105c66103ac565b5b600082013567ffffffffffffffff8111156105e5576105e46103b1565b5b6105f184828501610527565b91505092915050565b600081519050919050565b600082825260208201905092915050565b60005b83811015610634578082015181840152602081019050610619565b60008484015250505050565b600061064b826105fa565b6106558185610605565b9350610665818560208601610616565b61066e81610419565b840191505092915050565b600060408201905061068e6000830185610378565b81810360208301526106a08184610640565b90509392505050565b7f4e487b7100000000000000000000000000000000000000000000000000000000600052602260045260246000fd5b600060028204905060018216806106f057607f821691505b602082108103610703576107026106a9565b5b50919050565b60008190508160005260206000209050919050565b60006020601f8301049050919050565b600082821b905092915050565b60006008830261076b7fffffffffffffffffffffffffffffffffffffffffffffffffffffffffffffffff8261072e565b610775868361072e565b95508019841693508086168417925050509392505050565b6000819050919050565b60006107b26107ad6107a88461036e565b61078d565b61036e565b9050919050565b6000819050919050565b6107cc83610797565b6107e06107d8826107b9565b84845461073b565b825550505050565b600090565b6107f56107e8565b6108008184846107c3565b505050565b5b81811015610824576108196000826107ed565b600181019050610806565b5050565b601f8211156108695761083a81610709565b6108438461071e565b81016020851015610852578190505b61086661085e8561071e565b830182610805565b50505b505050565b600082821c905092915050565b600061088c6000198460080261086e565b1980831691505092915050565b60006108a5838361087b565b9150826002028217905092915050565b6108be826105fa565b67ffffffffffffffff8111156108d7576108d661042a565b5b6108e182546106d8565b6108ec828285610828565b600060209050601f83116001811461091f576000841561090d578287015190505b6109178582610899565b86555061097f565b601f19841661092d86610709565b60005b8281101561095557848901518255600182019150602085019450602081019050610930565b86831015610972578489015161096e601f89168261087b565b8355505b6001600288020188555050505b505050505050565b600081905092915050565b600061099d826105fa565b6109a78185610987565b93506109b7818560208601610616565b80840191505092915050565b60006109cf8284610992565b91508190509291505056fea2646970667358221220d5e128fb0047399a88f0ac903d6cccd610bd2253807c26b6f5d5d5caba14327764736f6c63430008100033",
					"opcodes": "PUSH1 0x80 PUSH1 0x40 MSTORE PUSH32 0x73696D6F6E000000000000000000000000000000000000000000000000000000 PUSH1 0x2 SSTORE CALLVALUE DUP1 ISZERO PUSH2 0x34 JUMPI PUSH1 0x0 DUP1 REVERT JUMPDEST POP PUSH2 0xA10 DUP1 PUSH2 0x44 PUSH1 0x0 CODECOPY PUSH1 0x0 RETURN INVALID PUSH1 0x80 PUSH1 0x40 MSTORE CALLVALUE DUP1 ISZERO PUSH2 0x10 JUMPI PUSH1 0x0 DUP1 REVERT JUMPDEST POP PUSH1 0x4 CALLDATASIZE LT PUSH2 0x88 JUMPI PUSH1 0x0 CALLDATALOAD PUSH1 0xE0 SHR DUP1 PUSH4 0x6F760F41 GT PUSH2 0x5B JUMPI DUP1 PUSH4 0x6F760F41 EQ PUSH2 0x103 JUMPI DUP1 PUSH4 0x8BAB8DD5 EQ PUSH2 0x11F JUMPI DUP1 PUSH4 0x9E7A13AD EQ PUSH2 0x14F JUMPI DUP1 PUSH4 0xD5AEDD33 EQ PUSH2 0x180 JUMPI PUSH2 0x88 JUMP JUMPDEST DUP1 PUSH4 0x2C230024 EQ PUSH2 0x8D JUMPI DUP1 PUSH4 0x2E64CEC1 EQ PUSH2 0xAB JUMPI DUP1 PUSH4 0x471F7CDF EQ PUSH2 0xC9 JUMPI DUP1 PUSH4 0x6057361D EQ PUSH2 0xE7 JUMPI JUMPDEST PUSH1 0x0 DUP1 REVERT JUMPDEST PUSH2 0x95 PUSH2 0x19E JUMP JUMPDEST PUSH1 0x40 MLOAD PUSH2 0xA2 SWAP2 SWAP1 PUSH2 0x353 JUMP JUMPDEST PUSH1 0x40 MLOAD DUP1 SWAP2 SUB SWAP1 RETURN JUMPDEST PUSH2 0xB3 PUSH2 0x1A8 JUMP JUMPDEST PUSH1 0x40 MLOAD PUSH2 0xC0 SWAP2 SWAP1 PUSH2 0x387 JUMP JUMPDEST PUSH1 0x40 MLOAD DUP1 SWAP2 SUB SWAP1 RETURN JUMPDEST PUSH2 0xD1 PUSH2 0x1B1 JUMP JUMPDEST PUSH1 0x40 MLOAD PUSH2 0xDE SWAP2 SWAP1 PUSH2 0x387 JUMP JUMPDEST PUSH1 0x40 MLOAD DUP1 SWAP2 SUB SWAP1 RETURN JUMPDEST PUSH2 0x101 PUSH1 0x4 DUP1 CALLDATASIZE SUB DUP2 ADD SWAP1 PUSH2 0xFC SWAP2 SWAP1 PUSH2 0x3E2 JUMP JUMPDEST PUSH2 0x1B7 JUMP JUMPDEST STOP JUMPDEST PUSH2 0x11D PUSH1 0x4 DUP1 CALLDATASIZE SUB DUP2 ADD SWAP1 PUSH2 0x118 SWAP2 SWAP1 PUSH2 0x555 JUMP JUMPDEST PUSH2 0x1C1 JUMP JUMPDEST STOP JUMPDEST PUSH2 0x139 PUSH1 0x4 DUP1 CALLDATASIZE SUB DUP2 ADD SWAP1 PUSH2 0x134 SWAP2 SWAP1 PUSH2 0x5B1 JUMP JUMPDEST PUSH2 0x24A JUMP JUMPDEST PUSH1 0x40 MLOAD PUSH2 0x146 SWAP2 SWAP1 PUSH2 0x387 JUMP JUMPDEST PUSH1 0x40 MLOAD DUP1 SWAP2 SUB SWAP1 RETURN JUMPDEST PUSH2 0x169 PUSH1 0x4 DUP1 CALLDATASIZE SUB DUP2 ADD SWAP1 PUSH2 0x164 SWAP2 SWAP1 PUSH2 0x3E2 JUMP JUMPDEST PUSH2 0x278 JUMP JUMPDEST PUSH1 0x40 MLOAD PUSH2 0x177 SWAP3 SWAP2 SWAP1 PUSH2 0x679 JUMP JUMPDEST PUSH1 0x40 MLOAD DUP1 SWAP2 SUB SWAP1 RETURN JUMPDEST PUSH2 0x188 PUSH2 0x334 JUMP JUMPDEST PUSH1 0x40 MLOAD PUSH2 0x195 SWAP2 SWAP1 PUSH2 0x353 JUMP JUMPDEST PUSH1 0x40 MLOAD DUP1 SWAP2 SUB SWAP1 RETURN JUMPDEST PUSH1 0x0 PUSH1 0x2 SLOAD SWAP1 POP SWAP1 JUMP JUMPDEST PUSH1 0x0 DUP1 SLOAD SWAP1 POP SWAP1 JUMP JUMPDEST PUSH1 0x0 SLOAD DUP2 JUMP JUMPDEST DUP1 PUSH1 0x0 DUP2 SWAP1 SSTORE POP POP JUMP JUMPDEST PUSH1 0x3 PUSH1 0x40 MLOAD DUP1 PUSH1 0x40 ADD PUSH1 0x40 MSTORE DUP1 DUP4 DUP2 MSTORE PUSH1 0x20 ADD DUP5 DUP2 MSTORE POP SWAP1 DUP1 PUSH1 0x1 DUP2 SLOAD ADD DUP1 DUP3 SSTORE DUP1 SWAP2 POP POP PUSH1 0x1 SWAP1 SUB SWAP1 PUSH1 0x0 MSTORE PUSH1 0x20 PUSH1 0x0 KECCAK256 SWAP1 PUSH1 0x2 MUL ADD PUSH1 0x0 SWAP1 SWAP2 SWAP1 SWAP2 SWAP1 SWAP2 POP PUSH1 0x0 DUP3 ADD MLOAD DUP2 PUSH1 0x0 ADD SSTORE PUSH1 0x20 DUP3 ADD MLOAD DUP2 PUSH1 0x1 ADD SWAP1 DUP2 PUSH2 0x220 SWAP2 SWAP1 PUSH2 0x8B5 JUMP JUMPDEST POP POP POP DUP1 PUSH1 0x4 DUP4 PUSH1 0x40 MLOAD PUSH2 0x234 SWAP2 SWAP1 PUSH2 0x9C3 JUMP JUMPDEST SWAP1 DUP2 MSTORE PUSH1 0x20 ADD PUSH1 0x40 MLOAD DUP1 SWAP2 SUB SWAP1 KECCAK256 DUP2 SWAP1 SSTORE POP POP POP JUMP JUMPDEST PUSH1 0x4 DUP2 DUP1 MLOAD PUSH1 0x20 DUP2 ADD DUP3 ADD DUP1 MLOAD DUP5 DUP3 MSTORE PUSH1 0x20 DUP4 ADD PUSH1 0x20 DUP6 ADD KECCAK256 DUP2 DUP4 MSTORE DUP1 SWAP6 POP POP POP POP POP POP PUSH1 0x0 SWAP2 POP SWAP1 POP SLOAD DUP2 JUMP JUMPDEST PUSH1 0x3 DUP2 DUP2 SLOAD DUP2 LT PUSH2 0x288 JUMPI PUSH1 0x0 DUP1 REVERT JUMPDEST SWAP1 PUSH1 0x0 MSTORE PUSH1 0x20 PUSH1 0x0 KECCAK256 SWAP1 PUSH1 0x2 MUL ADD PUSH1 0x0 SWAP2 POP SWAP1 POP DUP1 PUSH1 0x0 ADD SLOAD SWAP1 DUP1 PUSH1 0x1 ADD DUP1 SLOAD PUSH2 0x2B1 SWAP1 PUSH2 0x6D8 JUMP JUMPDEST DUP1 PUSH1 0x1F ADD PUSH1 0x20 DUP1 SWAP2 DIV MUL PUSH1 0x20 ADD PUSH1 0x40 MLOAD SWAP1 DUP2 ADD PUSH1 0x40 MSTORE DUP1 SWAP3 SWAP2 SWAP1 DUP2 DUP2 MSTORE PUSH1 0x20 ADD DUP3 DUP1 SLOAD PUSH2 0x2DD SWAP1 PUSH2 0x6D8 JUMP JUMPDEST DUP1 ISZERO PUSH2 0x32A JUMPI DUP1 PUSH1 0x1F LT PUSH2 0x2FF JUMPI PUSH2 0x100 DUP1 DUP4 SLOAD DIV MUL DUP4 MSTORE SWAP2 PUSH1 0x20 ADD SWAP2 PUSH2 0x32A JUMP JUMPDEST DUP3 ADD SWAP2 SWAP1 PUSH1 0x0 MSTORE PUSH1 0x20 PUSH1 0x0 KECCAK256 SWAP1 JUMPDEST DUP2 SLOAD DUP2 MSTORE SWAP1 PUSH1 0x1 ADD SWAP1 PUSH1 0x20 ADD DUP1 DUP4 GT PUSH2 0x30D JUMPI DUP3 SWAP1 SUB PUSH1 0x1F AND DUP3 ADD SWAP2 JUMPDEST POP POP POP POP POP SWAP1 POP DUP3 JUMP JUMPDEST PUSH1 0x2 SLOAD DUP2 JUMP JUMPDEST PUSH1 0x0 DUP2 SWAP1 POP SWAP2 SWAP1 POP JUMP JUMPDEST PUSH2 0x34D DUP2 PUSH2 0x33A JUMP JUMPDEST DUP3 MSTORE POP POP JUMP JUMPDEST PUSH1 0x0 PUSH1 0x20 DUP3 ADD SWAP1 POP PUSH2 0x368 PUSH1 0x0 DUP4 ADD DUP5 PUSH2 0x344 JUMP JUMPDEST SWAP3 SWAP2 POP POP JUMP JUMPDEST PUSH1 0x0 DUP2 SWAP1 POP SWAP2 SWAP1 POP JUMP JUMPDEST PUSH2 0x381 DUP2 PUSH2 0x36E JUMP JUMPDEST DUP3 MSTORE POP POP JUMP JUMPDEST PUSH1 0x0 PUSH1 0x20 DUP3 ADD SWAP1 POP PUSH2 0x39C PUSH1 0x0 DUP4 ADD DUP5 PUSH2 0x378 JUMP JUMPDEST SWAP3 SWAP2 POP POP JUMP JUMPDEST PUSH1 0x0 PUSH1 0x40 MLOAD SWAP1 POP SWAP1 JUMP JUMPDEST PUSH1 0x0 DUP1 REVERT JUMPDEST PUSH1 0x0 DUP1 REVERT JUMPDEST PUSH2 0x3BF DUP2 PUSH2 0x36E JUMP JUMPDEST DUP2 EQ PUSH2 0x3CA JUMPI PUSH1 0x0 DUP1 REVERT JUMPDEST POP JUMP JUMPDEST PUSH1 0x0 DUP2 CALLDATALOAD SWAP1 POP PUSH2 0x3DC DUP2 PUSH2 0x3B6 JUMP JUMPDEST SWAP3 SWAP2 POP POP JUMP JUMPDEST PUSH1 0x0 PUSH1 0x20 DUP3 DUP5 SUB SLT ISZERO PUSH2 0x3F8 JUMPI PUSH2 0x3F7 PUSH2 0x3AC JUMP JUMPDEST JUMPDEST PUSH1 0x0 PUSH2 0x406 DUP5 DUP3 DUP6 ADD PUSH2 0x3CD JUMP JUMPDEST SWAP2 POP POP SWAP3 SWAP2 POP POP JUMP JUMPDEST PUSH1 0x0 DUP1 REVERT JUMPDEST PUSH1 0x0 DUP1 REVERT JUMPDEST PUSH1 0x0 PUSH1 0x1F NOT PUSH1 0x1F DUP4 ADD AND SWAP1 POP SWAP2 SWAP1 POP JUMP JUMPDEST PUSH32 0x4E487B7100000000000000000000000000000000000000000000000000000000 PUSH1 0x0 MSTORE PUSH1 0x41 PUSH1 0x4 MSTORE PUSH1 0x24 PUSH1 0x0 REVERT JUMPDEST PUSH2 0x462 DUP3 PUSH2 0x419 JUMP JUMPDEST DUP2 ADD DUP2 DUP2 LT PUSH8 0xFFFFFFFFFFFFFFFF DUP3 GT OR ISZERO PUSH2 0x481 JUMPI PUSH2 0x480 PUSH2 0x42A JUMP JUMPDEST JUMPDEST DUP1 PUSH1 0x40 MSTORE POP POP POP JUMP JUMPDEST PUSH1 0x0 PUSH2 0x494 PUSH2 0x3A2 JUMP JUMPDEST SWAP1 POP PUSH2 0x4A0 DUP3 DUP3 PUSH2 0x459 JUMP JUMPDEST SWAP2 SWAP1 POP JUMP JUMPDEST PUSH1 0x0 PUSH8 0xFFFFFFFFFFFFFFFF DUP3 GT ISZERO PUSH2 0x4C0 JUMPI PUSH2 0x4BF PUSH2 0x42A JUMP JUMPDEST JUMPDEST PUSH2 0x4C9 DUP3 PUSH2 0x419 JUMP JUMPDEST SWAP1 POP PUSH1 0x20 DUP2 ADD SWAP1 POP SWAP2 SWAP1 POP JUMP JUMPDEST DUP3 DUP2 DUP4 CALLDATACOPY PUSH1 0x0 DUP4 DUP4 ADD MSTORE POP POP POP JUMP JUMPDEST PUSH1 0x0 PUSH2 0x4F8 PUSH2 0x4F3 DUP5 PUSH2 0x4A5 JUMP JUMPDEST PUSH2 0x48A JUMP JUMPDEST SWAP1 POP DUP3 DUP2 MSTORE PUSH1 0x20 DUP2 ADD DUP5 DUP5 DUP5 ADD GT ISZERO PUSH2 0x514 JUMPI PUSH2 0x513 PUSH2 0x414 JUMP JUMPDEST JUMPDEST PUSH2 0x51F DUP5 DUP3 DUP6 PUSH2 0x4D6 JUMP JUMPDEST POP SWAP4 SWAP3 POP POP POP JUMP JUMPDEST PUSH1 0x0 DUP3 PUSH1 0x1F DUP4 ADD SLT PUSH2 0x53C JUMPI PUSH2 0x53B PUSH2 0x40F JUMP JUMPDEST JUMPDEST DUP2 CALLDATALOAD PUSH2 0x54C DUP5 DUP3 PUSH1 0x20 DUP7 ADD PUSH2 0x4E5 JUMP JUMPDEST SWAP2 POP POP SWAP3 SWAP2 POP POP JUMP JUMPDEST PUSH1 0x0 DUP1 PUSH1 0x40 DUP4 DUP6 SUB SLT ISZERO PUSH2 0x56C JUMPI PUSH2 0x56B PUSH2 0x3AC JUMP JUMPDEST JUMPDEST PUSH1 0x0 DUP4 ADD CALLDATALOAD PUSH8 0xFFFFFFFFFFFFFFFF DUP2 GT ISZERO PUSH2 0x58A JUMPI PUSH2 0x589 PUSH2 0x3B1 JUMP JUMPDEST JUMPDEST PUSH2 0x596 DUP6 DUP3 DUP7 ADD PUSH2 0x527 JUMP JUMPDEST SWAP3 POP POP PUSH1 0x20 PUSH2 0x5A7 DUP6 DUP3 DUP7 ADD PUSH2 0x3CD JUMP JUMPDEST SWAP2 POP POP SWAP3 POP SWAP3 SWAP1 POP JUMP JUMPDEST PUSH1 0x0 PUSH1 0x20 DUP3 DUP5 SUB SLT ISZERO PUSH2 0x5C7 JUMPI PUSH2 0x5C6 PUSH2 0x3AC JUMP JUMPDEST JUMPDEST PUSH1 0x0 DUP3 ADD CALLDATALOAD PUSH8 0xFFFFFFFFFFFFFFFF DUP2 GT ISZERO PUSH2 0x5E5 JUMPI PUSH2 0x5E4 PUSH2 0x3B1 JUMP JUMPDEST JUMPDEST PUSH2 0x5F1 DUP5 DUP3 DUP6 ADD PUSH2 0x527 JUMP JUMPDEST SWAP2 POP POP SWAP3 SWAP2 POP POP JUMP JUMPDEST PUSH1 0x0 DUP2 MLOAD SWAP1 POP SWAP2 SWAP1 POP JUMP JUMPDEST PUSH1 0x0 DUP3 DUP3 MSTORE PUSH1 0x20 DUP3 ADD SWAP1 POP SWAP3 SWAP2 POP POP JUMP JUMPDEST PUSH1 0x0 JUMPDEST DUP4 DUP2 LT ISZERO PUSH2 0x634 JUMPI DUP1 DUP3 ADD MLOAD DUP2 DUP5 ADD MSTORE PUSH1 0x20 DUP2 ADD SWAP1 POP PUSH2 0x619 JUMP JUMPDEST PUSH1 0x0 DUP5 DUP5 ADD MSTORE POP POP POP POP JUMP JUMPDEST PUSH1 0x0 PUSH2 0x64B DUP3 PUSH2 0x5FA JUMP JUMPDEST PUSH2 0x655 DUP2 DUP6 PUSH2 0x605 JUMP JUMPDEST SWAP4 POP PUSH2 0x665 DUP2 DUP6 PUSH1 0x20 DUP7 ADD PUSH2 0x616 JUMP JUMPDEST PUSH2 0x66E DUP2 PUSH2 0x419 JUMP JUMPDEST DUP5 ADD SWAP2 POP POP SWAP3 SWAP2 POP POP JUMP JUMPDEST PUSH1 0x0 PUSH1 0x40 DUP3 ADD SWAP1 POP PUSH2 0x68E PUSH1 0x0 DUP4 ADD DUP6 PUSH2 0x378 JUMP JUMPDEST DUP2 DUP2 SUB PUSH1 0x20 DUP4 ADD MSTORE PUSH2 0x6A0 DUP2 DUP5 PUSH2 0x640 JUMP JUMPDEST SWAP1 POP SWAP4 SWAP3 POP POP POP JUMP JUMPDEST PUSH32 0x4E487B7100000000000000000000000000000000000000000000000000000000 PUSH1 0x0 MSTORE PUSH1 0x22 PUSH1 0x4 MSTORE PUSH1 0x24 PUSH1 0x0 REVERT JUMPDEST PUSH1 0x0 PUSH1 0x2 DUP3 DIV SWAP1 POP PUSH1 0x1 DUP3 AND DUP1 PUSH2 0x6F0 JUMPI PUSH1 0x7F DUP3 AND SWAP2 POP JUMPDEST PUSH1 0x20 DUP3 LT DUP2 SUB PUSH2 0x703 JUMPI PUSH2 0x702 PUSH2 0x6A9 JUMP JUMPDEST JUMPDEST POP SWAP2 SWAP1 POP JUMP JUMPDEST PUSH1 0x0 DUP2 SWAP1 POP DUP2 PUSH1 0x0 MSTORE PUSH1 0x20 PUSH1 0x0 KECCAK256 SWAP1 POP SWAP2 SWAP1 POP JUMP JUMPDEST PUSH1 0x0 PUSH1 0x20 PUSH1 0x1F DUP4 ADD DIV SWAP1 POP SWAP2 SWAP1 POP JUMP JUMPDEST PUSH1 0x0 DUP3 DUP3 SHL SWAP1 POP SWAP3 SWAP2 POP POP JUMP JUMPDEST PUSH1 0x0 PUSH1 0x8 DUP4 MUL PUSH2 0x76B PUSH32 0xFFFFFFFFFFFFFFFFFFFFFFFFFFFFFFFFFFFFFFFFFFFFFFFFFFFFFFFFFFFFFFFF DUP3 PUSH2 0x72E JUMP JUMPDEST PUSH2 0x775 DUP7 DUP4 PUSH2 0x72E JUMP JUMPDEST SWAP6 POP DUP1 NOT DUP5 AND SWAP4 POP DUP1 DUP7 AND DUP5 OR SWAP3 POP POP POP SWAP4 SWAP3 POP POP POP JUMP JUMPDEST PUSH1 0x0 DUP2 SWAP1 POP SWAP2 SWAP1 POP JUMP JUMPDEST PUSH1 0x0 PUSH2 0x7B2 PUSH2 0x7AD PUSH2 0x7A8 DUP5 PUSH2 0x36E JUMP JUMPDEST PUSH2 0x78D JUMP JUMPDEST PUSH2 0x36E JUMP JUMPDEST SWAP1 POP SWAP2 SWAP1 POP JUMP JUMPDEST PUSH1 0x0 DUP2 SWAP1 POP SWAP2 SWAP1 POP JUMP JUMPDEST PUSH2 0x7CC DUP4 PUSH2 0x797 JUMP JUMPDEST PUSH2 0x7E0 PUSH2 0x7D8 DUP3 PUSH2 0x7B9 JUMP JUMPDEST DUP5 DUP5 SLOAD PUSH2 0x73B JUMP JUMPDEST DUP3 SSTORE POP POP POP POP JUMP JUMPDEST PUSH1 0x0 SWAP1 JUMP JUMPDEST PUSH2 0x7F5 PUSH2 0x7E8 JUMP JUMPDEST PUSH2 0x800 DUP2 DUP5 DUP5 PUSH2 0x7C3 JUMP JUMPDEST POP POP POP JUMP JUMPDEST JUMPDEST DUP2 DUP2 LT ISZERO PUSH2 0x824 JUMPI PUSH2 0x819 PUSH1 0x0 DUP3 PUSH2 0x7ED JUMP JUMPDEST PUSH1 0x1 DUP2 ADD SWAP1 POP PUSH2 0x806 JUMP JUMPDEST POP POP JUMP JUMPDEST PUSH1 0x1F DUP3 GT ISZERO PUSH2 0x869 JUMPI PUSH2 0x83A DUP2 PUSH2 0x709 JUMP JUMPDEST PUSH2 0x843 DUP5 PUSH2 0x71E JUMP JUMPDEST DUP2 ADD PUSH1 0x20 DUP6 LT ISZERO PUSH2 0x852 JUMPI DUP2 SWAP1 POP JUMPDEST PUSH2 0x866 PUSH2 0x85E DUP6 PUSH2 0x71E JUMP JUMPDEST DUP4 ADD DUP3 PUSH2 0x805 JUMP JUMPDEST POP POP JUMPDEST POP POP POP JUMP JUMPDEST PUSH1 0x0 DUP3 DUP3 SHR SWAP1 POP SWAP3 SWAP2 POP POP JUMP JUMPDEST PUSH1 0x0 PUSH2 0x88C PUSH1 0x0 NOT DUP5 PUSH1 0x8 MUL PUSH2 0x86E JUMP JUMPDEST NOT DUP1 DUP4 AND SWAP2 POP POP SWAP3 SWAP2 POP POP JUMP JUMPDEST PUSH1 0x0 PUSH2 0x8A5 DUP4 DUP4 PUSH2 0x87B JUMP JUMPDEST SWAP2 POP DUP3 PUSH1 0x2 MUL DUP3 OR SWAP1 POP SWAP3 SWAP2 POP POP JUMP JUMPDEST PUSH2 0x8BE DUP3 PUSH2 0x5FA JUMP JUMPDEST PUSH8 0xFFFFFFFFFFFFFFFF DUP2 GT ISZERO PUSH2 0x8D7 JUMPI PUSH2 0x8D6 PUSH2 0x42A JUMP JUMPDEST JUMPDEST PUSH2 0x8E1 DUP3 SLOAD PUSH2 0x6D8 JUMP JUMPDEST PUSH2 0x8EC DUP3 DUP3 DUP6 PUSH2 0x828 JUMP JUMPDEST PUSH1 0x0 PUSH1 0x20 SWAP1 POP PUSH1 0x1F DUP4 GT PUSH1 0x1 DUP2 EQ PUSH2 0x91F JUMPI PUSH1 0x0 DUP5 ISZERO PUSH2 0x90D JUMPI DUP3 DUP8 ADD MLOAD SWAP1 POP JUMPDEST PUSH2 0x917 DUP6 DUP3 PUSH2 0x899 JUMP JUMPDEST DUP7 SSTORE POP PUSH2 0x97F JUMP JUMPDEST PUSH1 0x1F NOT DUP5 AND PUSH2 0x92D DUP7 PUSH2 0x709 JUMP JUMPDEST PUSH1 0x0 JUMPDEST DUP3 DUP2 LT ISZERO PUSH2 0x955 JUMPI DUP5 DUP10 ADD MLOAD DUP3 SSTORE PUSH1 0x1 DUP3 ADD SWAP2 POP PUSH1 0x20 DUP6 ADD SWAP5 POP PUSH1 0x20 DUP2 ADD SWAP1 POP PUSH2 0x930 JUMP JUMPDEST DUP7 DUP4 LT ISZERO PUSH2 0x972 JUMPI DUP5 DUP10 ADD MLOAD PUSH2 0x96E PUSH1 0x1F DUP10 AND DUP3 PUSH2 0x87B JUMP JUMPDEST DUP4 SSTORE POP JUMPDEST PUSH1 0x1 PUSH1 0x2 DUP9 MUL ADD DUP9 SSTORE POP POP POP JUMPDEST POP POP POP POP POP POP JUMP JUMPDEST PUSH1 0x0 DUP2 SWAP1 POP SWAP3 SWAP2 POP POP JUMP JUMPDEST PUSH1 0x0 PUSH2 0x99D DUP3 PUSH2 0x5FA JUMP JUMPDEST PUSH2 0x9A7 DUP2 DUP6 PUSH2 0x987 JUMP JUMPDEST SWAP4 POP PUSH2 0x9B7 DUP2 DUP6 PUSH1 0x20 DUP7 ADD PUSH2 0x616 JUMP JUMPDEST DUP1 DUP5 ADD SWAP2 POP POP SWAP3 SWAP2 POP POP JUMP JUMPDEST PUSH1 0x0 PUSH2 0x9CF DUP3 DUP5 PUSH2 0x992 JUMP JUMPDEST SWAP2 POP DUP2 SWAP1 POP SWAP3 SWAP2 POP POP JUMP INVALID LOG2 PUSH5 0x6970667358 0x22 SLT KECCAK256 0xD5 0xE1 0x28 0xFB STOP SELFBALANCE CODECOPY SWAP11 DUP9 CREATE 0xAC SWAP1 RETURNDATASIZE PUSH13 0xCCD610BD2253807C26B6F5D5D5 0xCA 0xBA EQ ORIGIN PUSH24 0x64736F6C6343000810003300000000000000000000000000 "
				},
				"gasEstimates": {
					"creation": {
						"codeDepositCost": "515200",
						"executionCost": "22655",
						"totalCost": "537855"
					},
					"external": {
						"addPerson(string,uint256)": "infinite",
						"favoriteNumber()": "2474",
						"nameToFavoriteNumber(string)": "infinite",
						"people(uint256)": "infinite",
						"retrieve()": "2460",
						"retrieveBytes()": "2438",
						"store(uint256)": "22587",
						"testBytes()": "2495"
					}
				},
				"methodIdentifiers": {
					"addPerson(string,uint256)": "6f760f41",
					"favoriteNumber()": "471f7cdf",
					"nameToFavoriteNumber(string)": "8bab8dd5",
					"people(uint256)": "9e7a13ad",
					"retrieve()": "2e64cec1",
					"retrieveBytes()": "2c230024",
					"store(uint256)": "6057361d",
					"testBytes()": "d5aedd33"
				}
			},
			"storageLayout": {
				"storage": [
					{
						"astId": 3,
						"contract": "test.sol:SimpleStorage",
						"label": "favoriteNumber",
						"offset": 0,
						"slot": "0",
						"type": "t_uint256"
					},
					{
						"astId": 5,
						"contract": "test.sol:SimpleStorage",
						"label": "hasFavoriteNumber",
						"offset": 0,
						"slot": "1",
						"type": "t_bool"
					},
					{
						"astId": 8,
						"contract": "test.sol:SimpleStorage",
						"label": "testBytes",
						"offset": 0,
						"slot": "2",
						"type": "t_bytes32"
					},
					{
						"astId": 17,
						"contract": "test.sol:SimpleStorage",
						"label": "people",
						"offset": 0,
						"slot": "3",
						"type": "t_array(t_struct(People)13_storage)dyn_storage"
					},
					{
						"astId": 21,
						"contract": "test.sol:SimpleStorage",
						"label": "nameToFavoriteNumber",
						"offset": 0,
						"slot": "4",
						"type": "t_mapping(t_string_memory_ptr,t_uint256)"
					}
				],
				"types": {
					"t_array(t_struct(People)13_storage)dyn_storage": {
						"base": "t_struct(People)13_storage",
						"encoding": "dynamic_array",
						"label": "struct SimpleStorage.People[]",
						"numberOfBytes": "32"
					},
					"t_bool": {
						"encoding": "inplace",
						"label": "bool",
						"numberOfBytes": "1"
					},
					"t_bytes32": {
						"encoding": "inplace",
						"label": "bytes32",
						"numberOfBytes": "32"
					},
					"t_mapping(t_string_memory_ptr,t_uint256)": {
						"encoding": "mapping",
						"key": "t_string_memory_ptr",
						"label": "mapping(string => uint256)",
						"numberOfBytes": "32",
						"value": "t_uint256"
					},
					"t_string_memory_ptr": {
						"encoding": "bytes",
						"label": "string",
						"numberOfBytes": "32"
					},
					"t_string_storage": {
						"encoding": "bytes",
						"label": "string",
						"numberOfBytes": "32"
					},
					"t_struct(People)13_storage": {
						"encoding": "inplace",
						"label": "struct SimpleStorage.People",
						"members": [
							{
								"astId": 10,
								"contract": "test.sol:SimpleStorage",
								"label": "favoriteNumber",
								"offset": 0,
								"slot": "0",
								"type": "t_uint256"
							},
							{
								"astId": 12,
								"contract": "test.sol:SimpleStorage",
								"label": "name",
								"offset": 0,
								"slot": "1",
								"type": "t_string_storage"
							}
						],
						"numberOfBytes": "64"
					},
					"t_uint256": {
						"encoding": "inplace",
						"label": "uint256",
						"numberOfBytes": "32"
					}
				}
			},
			"userdoc": {
				"kind": "user",
				"methods": {},
				"version": 1
			}
		}
	}
}