{
	"test.sol": {
		"SimpleStorage": {
			"abi": [
				{
					"inputs": [
						{
							"internalType": "string",
							"name": "_name",
							"type": "string"
						},
						{
							"internalType": "uint256",
							"name": "_favoriteNumber",
							"type": "uint256"
						}
					],
					"name": "addPerson",
					"outputs": [],
					"stateMutability": "nonpayable",
					"type": "function"
				},
				{
					"inputs": [],
					"name": "favoriteNumber",
					"outputs": [
						{
							"internalType": "uint256",
							"name": "",
							"type": "uint256"
						}
					],
					"stateMutability": "view",
					"type": "function"
				},
				{
					"inputs": [
						{
							"internalType": "string",
							"name": "",
							"type": "string"
						}
					],
					"name": "nameToFavoriteNumber",
					"outputs": [
						{
							"internalType": "uint256",
							"name": "",
							"type": "uint256"
						}
					],
					"stateMutability": "view",
					"type": "function"
				},
				{
					"inputs": [
						{
							"internalType": "uint256",
							"name": "",
							"type": "uint256"
						}
					],
					"name": "people",
					"outputs": [
						{
							"internalType": "uint256",
							"name": "favoriteNumber",
							"type": "uint256"
						},
						{
							"internalType": "string",
							"name": "name",
							"type": "string"
						}
					],
					"stateMutability": "view",
					"type": "function"
				},
				{
					"inputs": [],
					"name": "retrieve",
					"outputs": [
						{
							"internalType": "uint256",
							"name": "",
							"type": "uint256"
						}
					],
					"stateMutability": "view",
					"type": "function"
				},
				{
					"inputs": [
						{
							"internalType": "uint256",
							"name": "_favoriteNumber",
							"type": "uint256"
						}
					],
					"name": "store",
					"outputs": [],
					"stateMutability": "nonpayable",
					"type": "function"
				},
				{
					"inputs": [],
					"name": "testBytes",
					"outputs": [
						{
							"internalType": "bytes32",
							"name": "",
							"type": "bytes32"
						}
					],
					"stateMutability": "view",
					"type": "function"
				}
			],
			"devdoc": {
				"kind": "dev",
				"methods": {},
				"version": 1
			},
			"evm": {
				"assembly": "    /* \"test.sol\":119:839  contract SimpleStorage {... */\n  mstore(0x40, 0x80)\n    /* \"test.sol\":212:246  bytes32 public testBytes = \"simon\" */\n  sstore(0x02, 0x73696d6f6e000000000000000000000000000000000000000000000000000000)\n    /* \"test.sol\":119:839  contract SimpleStorage {... */\n  callvalue\n  dup1\n  iszero\n  tag_1\n  jumpi\n  0x00\n  dup1\n  revert\ntag_1:\n  pop\n  dataSize(sub_0)\n  dup1\n  dataOffset(sub_0)\n  0x00\n  codecopy\n  0x00\n  return\nstop\n\nsub_0: assembly {\n        /* \"test.sol\":119:839  contract SimpleStorage {... */\n      mstore(0x40, 0x80)\n      callvalue\n      dup1\n      iszero\n      tag_1\n      jumpi\n      0x00\n      dup1\n      revert\n    tag_1:\n      pop\n      jumpi(tag_2, lt(calldatasize, 0x04))\n      shr(0xe0, calldataload(0x00))\n      dup1\n      0x6f760f41\n      gt\n      tag_10\n      jumpi\n      dup1\n      0x6f760f41\n      eq\n      tag_6\n      jumpi\n      dup1\n      0x8bab8dd5\n      eq\n      tag_7\n      jumpi\n      dup1\n      0x9e7a13ad\n      eq\n      tag_8\n      jumpi\n      dup1\n      0xd5aedd33\n      eq\n      tag_9\n      jumpi\n      jump(tag_2)\n    tag_10:\n      dup1\n      0x2e64cec1\n      eq\n      tag_3\n      jumpi\n      dup1\n      0x471f7cdf\n      eq\n      tag_4\n      jumpi\n      dup1\n      0x6057361d\n      eq\n      tag_5\n      jumpi\n    tag_2:\n      0x00\n      dup1\n      revert\n        /* \"test.sol\":557:644  function retrieve() public view returns (uint256){... */\n    tag_3:\n      tag_11\n      tag_12\n      jump\t// in\n    tag_11:\n      mload(0x40)\n      tag_13\n      swap2\n      swap1\n      tag_14\n      jump\t// in\n    tag_13:\n      mload(0x40)\n      dup1\n      swap2\n      sub\n      swap1\n      return\n        /* \"test.sol\":149:178  uint256 public favoriteNumber */\n    tag_4:\n      tag_15\n      tag_16\n      jump\t// in\n    tag_15:\n      mload(0x40)\n      tag_17\n      swap2\n      swap1\n      tag_14\n      jump\t// in\n    tag_17:\n      mload(0x40)\n      dup1\n      swap2\n      sub\n      swap1\n      return\n        /* \"test.sol\":455:551  function store(uint256 _favoriteNumber) public {... */\n    tag_5:\n      tag_18\n      0x04\n      dup1\n      calldatasize\n      sub\n      dup2\n      add\n      swap1\n      tag_19\n      swap2\n      swap1\n      tag_20\n      jump\t// in\n    tag_19:\n      tag_21\n      jump\t// in\n    tag_18:\n      stop\n        /* \"test.sol\":650:837  function addPerson(string memory _name, uint256 _favoriteNumber) public {... */\n    tag_6:\n      tag_22\n      0x04\n      dup1\n      calldatasize\n      sub\n      dup2\n      add\n      swap1\n      tag_23\n      swap2\n      swap1\n      tag_24\n      jump\t// in\n    tag_23:\n      tag_25\n      jump\t// in\n    tag_22:\n      stop\n        /* \"test.sol\":394:448  mapping(string => uint256) public nameToFavoriteNumber */\n    tag_7:\n      tag_26\n      0x04\n      dup1\n      calldatasize\n      sub\n      dup2\n      add\n      swap1\n      tag_27\n      swap2\n      swap1\n      tag_28\n      jump\t// in\n    tag_27:\n      tag_29\n      jump\t// in\n    tag_26:\n      mload(0x40)\n      tag_30\n      swap2\n      swap1\n      tag_14\n      jump\t// in\n    tag_30:\n      mload(0x40)\n      dup1\n      swap2\n      sub\n      swap1\n      return\n        /* \"test.sol\":365:387  People[] public people */\n    tag_8:\n      tag_31\n      0x04\n      dup1\n      calldatasize\n      sub\n      dup2\n      add\n      swap1\n      tag_32\n      swap2\n      swap1\n      tag_20\n      jump\t// in\n    tag_32:\n      tag_33\n      jump\t// in\n    tag_31:\n      mload(0x40)\n      tag_34\n      swap3\n      swap2\n      swap1\n      tag_35\n      jump\t// in\n    tag_34:\n      mload(0x40)\n      dup1\n      swap2\n      sub\n      swap1\n      return\n        /* \"test.sol\":212:246  bytes32 public testBytes = \"simon\" */\n    tag_9:\n      tag_36\n      tag_37\n      jump\t// in\n    tag_36:\n      mload(0x40)\n      tag_38\n      swap2\n      swap1\n      tag_39\n      jump\t// in\n    tag_38:\n      mload(0x40)\n      dup1\n      swap2\n      sub\n      swap1\n      return\n        /* \"test.sol\":557:644  function retrieve() public view returns (uint256){... */\n    tag_12:\n        /* \"test.sol\":598:605  uint256 */\n      0x00\n        /* \"test.sol\":623:637  favoriteNumber */\n      dup1\n      sload\n        /* \"test.sol\":616:637  return favoriteNumber */\n      swap1\n      pop\n        /* \"test.sol\":557:644  function retrieve() public view returns (uint256){... */\n      swap1\n      jump\t// out\n        /* \"test.sol\":149:178  uint256 public favoriteNumber */\n    tag_16:\n      sload(0x00)\n      dup2\n      jump\t// out\n        /* \"test.sol\":455:551  function store(uint256 _favoriteNumber) public {... */\n    tag_21:\n        /* \"test.sol\":529:544  _favoriteNumber */\n      dup1\n        /* \"test.sol\":512:526  favoriteNumber */\n      0x00\n        /* \"test.sol\":512:544  favoriteNumber = _favoriteNumber */\n      dup2\n      swap1\n      sstore\n      pop\n        /* \"test.sol\":455:551  function store(uint256 _favoriteNumber) public {... */\n      pop\n      jump\t// out\n        /* \"test.sol\":650:837  function addPerson(string memory _name, uint256 _favoriteNumber) public {... */\n    tag_25:\n        /* \"test.sol\":732:738  people */\n      0x03\n        /* \"test.sol\":744:774  People(_favoriteNumber, _name) */\n      mload(0x40)\n      dup1\n      0x40\n      add\n      0x40\n      mstore\n      dup1\n        /* \"test.sol\":751:766  _favoriteNumber */\n      dup4\n        /* \"test.sol\":744:774  People(_favoriteNumber, _name) */\n      dup2\n      mstore\n      0x20\n      add\n        /* \"test.sol\":768:773  _name */\n      dup5\n        /* \"test.sol\":744:774  People(_favoriteNumber, _name) */\n      dup2\n      mstore\n      pop\n        /* \"test.sol\":732:775  people.push(People(_favoriteNumber, _name)) */\n      swap1\n      dup1\n      0x01\n      dup2\n      sload\n      add\n      dup1\n      dup3\n      sstore\n      dup1\n      swap2\n      pop\n      pop\n      0x01\n      swap1\n      sub\n      swap1\n      0x00\n      mstore\n      keccak256(0x00, 0x20)\n      swap1\n      0x02\n      mul\n      add\n      0x00\n      swap1\n      swap2\n      swap1\n      swap2\n      swap1\n      swap2\n      pop\n      0x00\n      dup3\n      add\n      mload\n      dup2\n      0x00\n      add\n      sstore\n      0x20\n      dup3\n      add\n      mload\n      dup2\n      0x01\n      add\n      swap1\n      dup2\n      tag_44\n      swap2\n      swap1\n      tag_45\n      jump\t// in\n    tag_44:\n      pop\n      pop\n      pop\n        /* \"test.sol\":815:830  _favoriteNumber */\n      dup1\n        /* \"test.sol\":785:805  nameToFavoriteNumber */\n      0x04\n        /* \"test.sol\":806:811  _name */\n      dup4\n        /* \"test.sol\":785:812  nameToFavoriteNumber[_name] */\n      mload(0x40)\n      tag_46\n      swap2\n      swap1\n      tag_47\n      jump\t// in\n    tag_46:\n      swap1\n      dup2\n      mstore\n      0x20\n      add\n      mload(0x40)\n      dup1\n      swap2\n      sub\n      swap1\n      keccak256\n        /* \"test.sol\":785:830  nameToFavoriteNumber[_name] = _favoriteNumber */\n      dup2\n      swap1\n      sstore\n      pop\n        /* \"test.sol\":650:837  function addPerson(string memory _name, uint256 _favoriteNumber) public {... */\n      pop\n      pop\n      jump\t// out\n        /* \"test.sol\":394:448  mapping(string => uint256) public nameToFavoriteNumber */\n    tag_29:\n      0x04\n      dup2\n      dup1\n      mload\n      0x20\n      dup2\n      add\n      dup3\n      add\n      dup1\n      mload\n      dup5\n      dup3\n      mstore\n      0x20\n      dup4\n      add\n      0x20\n      dup6\n      add\n      keccak256\n      dup2\n      dup4\n      mstore\n      dup1\n      swap6\n      pop\n      pop\n      pop\n      pop\n      pop\n      pop\n      0x00\n      swap2\n      pop\n      swap1\n      pop\n      sload\n      dup2\n      jump\t// out\n        /* \"test.sol\":365:387  People[] public people */\n    tag_33:\n      0x03\n      dup2\n      dup2\n      sload\n      dup2\n      lt\n      tag_48\n      jumpi\n      0x00\n      dup1\n      revert\n    tag_48:\n      swap1\n      0x00\n      mstore\n      keccak256(0x00, 0x20)\n      swap1\n      0x02\n      mul\n      add\n      0x00\n      swap2\n      pop\n      swap1\n      pop\n      dup1\n      0x00\n      add\n      sload\n      swap1\n      dup1\n      0x01\n      add\n      dup1\n      sload\n      tag_50\n      swap1\n      tag_51\n      jump\t// in\n    tag_50:\n      dup1\n      0x1f\n      add\n      0x20\n      dup1\n      swap2\n      div\n      mul\n      0x20\n      add\n      mload(0x40)\n      swap1\n      dup2\n      add\n      0x40\n      mstore\n      dup1\n      swap3\n      swap2\n      swap1\n      dup2\n      dup2\n      mstore\n      0x20\n      add\n      dup3\n      dup1\n      sload\n      tag_52\n      swap1\n      tag_51\n      jump\t// in\n    tag_52:\n      dup1\n      iszero\n      tag_53\n      jumpi\n      dup1\n      0x1f\n      lt\n      tag_54\n      jumpi\n      0x0100\n      dup1\n      dup4\n      sload\n      div\n      mul\n      dup4\n      mstore\n      swap2\n      0x20\n      add\n      swap2\n      jump(tag_53)\n    tag_54:\n      dup3\n      add\n      swap2\n      swap1\n      0x00\n      mstore\n      keccak256(0x00, 0x20)\n      swap1\n    tag_55:\n      dup2\n      sload\n      dup2\n      mstore\n      swap1\n      0x01\n      add\n      swap1\n      0x20\n      add\n      dup1\n      dup4\n      gt\n      tag_55\n      jumpi\n      dup3\n      swap1\n      sub\n      0x1f\n      and\n      dup3\n      add\n      swap2\n    tag_53:\n      pop\n      pop\n      pop\n      pop\n      pop\n      swap1\n      pop\n      dup3\n      jump\t// out\n        /* \"test.sol\":212:246  bytes32 public testBytes = \"simon\" */\n    tag_37:\n      sload(0x02)\n      dup2\n      jump\t// out\n        /* \"#utility.yul\":7:84   */\n    tag_56:\n        /* \"#utility.yul\":44:51   */\n      0x00\n        /* \"#utility.yul\":73:78   */\n      dup2\n        /* \"#utility.yul\":62:78   */\n      swap1\n      pop\n        /* \"#utility.yul\":7:84   */\n      swap2\n      swap1\n      pop\n      jump\t// out\n        /* \"#utility.yul\":90:208   */\n    tag_57:\n        /* \"#utility.yul\":177:201   */\n      tag_100\n        /* \"#utility.yul\":195:200   */\n      dup2\n        /* \"#utility.yul\":177:201   */\n      tag_56\n      jump\t// in\n    tag_100:\n        /* \"#utility.yul\":172:175   */\n      dup3\n        /* \"#utility.yul\":165:202   */\n      mstore\n        /* \"#utility.yul\":90:208   */\n      pop\n      pop\n      jump\t// out\n        /* \"#utility.yul\":214:436   */\n    tag_14:\n        /* \"#utility.yul\":307:311   */\n      0x00\n        /* \"#utility.yul\":345:347   */\n      0x20\n        /* \"#utility.yul\":334:343   */\n      dup3\n        /* \"#utility.yul\":330:348   */\n      add\n        /* \"#utility.yul\":322:348   */\n      swap1\n      pop\n        /* \"#utility.yul\":358:429   */\n      tag_102\n        /* \"#utility.yul\":426:427   */\n      0x00\n        /* \"#utility.yul\":415:424   */\n      dup4\n        /* \"#utility.yul\":411:428   */\n      add\n        /* \"#utility.yul\":402:408   */\n      dup5\n        /* \"#utility.yul\":358:429   */\n      tag_57\n      jump\t// in\n    tag_102:\n        /* \"#utility.yul\":214:436   */\n      swap3\n      swap2\n      pop\n      pop\n      jump\t// out\n        /* \"#utility.yul\":442:517   */\n    tag_58:\n        /* \"#utility.yul\":475:481   */\n      0x00\n        /* \"#utility.yul\":508:510   */\n      0x40\n        /* \"#utility.yul\":502:511   */\n      mload\n        /* \"#utility.yul\":492:511   */\n      swap1\n      pop\n        /* \"#utility.yul\":442:517   */\n      swap1\n      jump\t// out\n        /* \"#utility.yul\":523:640   */\n    tag_59:\n        /* \"#utility.yul\":632:633   */\n      0x00\n        /* \"#utility.yul\":629:630   */\n      dup1\n        /* \"#utility.yul\":622:634   */\n      revert\n        /* \"#utility.yul\":646:763   */\n    tag_60:\n        /* \"#utility.yul\":755:756   */\n      0x00\n        /* \"#utility.yul\":752:753   */\n      dup1\n        /* \"#utility.yul\":745:757   */\n      revert\n        /* \"#utility.yul\":769:891   */\n    tag_61:\n        /* \"#utility.yul\":842:866   */\n      tag_107\n        /* \"#utility.yul\":860:865   */\n      dup2\n        /* \"#utility.yul\":842:866   */\n      tag_56\n      jump\t// in\n    tag_107:\n        /* \"#utility.yul\":835:840   */\n      dup2\n        /* \"#utility.yul\":832:867   */\n      eq\n        /* \"#utility.yul\":822:885   */\n      tag_108\n      jumpi\n        /* \"#utility.yul\":881:882   */\n      0x00\n        /* \"#utility.yul\":878:879   */\n      dup1\n        /* \"#utility.yul\":871:883   */\n      revert\n        /* \"#utility.yul\":822:885   */\n    tag_108:\n        /* \"#utility.yul\":769:891   */\n      pop\n      jump\t// out\n        /* \"#utility.yul\":897:1036   */\n    tag_62:\n        /* \"#utility.yul\":943:948   */\n      0x00\n        /* \"#utility.yul\":981:987   */\n      dup2\n        /* \"#utility.yul\":968:988   */\n      calldataload\n        /* \"#utility.yul\":959:988   */\n      swap1\n      pop\n        /* \"#utility.yul\":997:1030   */\n      tag_110\n        /* \"#utility.yul\":1024:1029   */\n      dup2\n        /* \"#utility.yul\":997:1030   */\n      tag_61\n      jump\t// in\n    tag_110:\n        /* \"#utility.yul\":897:1036   */\n      swap3\n      swap2\n      pop\n      pop\n      jump\t// out\n        /* \"#utility.yul\":1042:1371   */\n    tag_20:\n        /* \"#utility.yul\":1101:1107   */\n      0x00\n        /* \"#utility.yul\":1150:1152   */\n      0x20\n        /* \"#utility.yul\":1138:1147   */\n      dup3\n        /* \"#utility.yul\":1129:1136   */\n      dup5\n        /* \"#utility.yul\":1125:1148   */\n      sub\n        /* \"#utility.yul\":1121:1153   */\n      slt\n        /* \"#utility.yul\":1118:1237   */\n      iszero\n      tag_112\n      jumpi\n        /* \"#utility.yul\":1156:1235   */\n      tag_113\n      tag_59\n      jump\t// in\n    tag_113:\n        /* \"#utility.yul\":1118:1237   */\n    tag_112:\n        /* \"#utility.yul\":1276:1277   */\n      0x00\n        /* \"#utility.yul\":1301:1354   */\n      tag_114\n        /* \"#utility.yul\":1346:1353   */\n      dup5\n        /* \"#utility.yul\":1337:1343   */\n      dup3\n        /* \"#utility.yul\":1326:1335   */\n      dup6\n        /* \"#utility.yul\":1322:1344   */\n      add\n        /* \"#utility.yul\":1301:1354   */\n      tag_62\n      jump\t// in\n    tag_114:\n        /* \"#utility.yul\":1291:1354   */\n      swap2\n      pop\n        /* \"#utility.yul\":1247:1364   */\n      pop\n        /* \"#utility.yul\":1042:1371   */\n      swap3\n      swap2\n      pop\n      pop\n      jump\t// out\n        /* \"#utility.yul\":1377:1494   */\n    tag_63:\n        /* \"#utility.yul\":1486:1487   */\n      0x00\n        /* \"#utility.yul\":1483:1484   */\n      dup1\n        /* \"#utility.yul\":1476:1488   */\n      revert\n        /* \"#utility.yul\":1500:1617   */\n    tag_64:\n        /* \"#utility.yul\":1609:1610   */\n      0x00\n        /* \"#utility.yul\":1606:1607   */\n      dup1\n        /* \"#utility.yul\":1599:1611   */\n      revert\n        /* \"#utility.yul\":1623:1725   */\n    tag_65:\n        /* \"#utility.yul\":1664:1670   */\n      0x00\n        /* \"#utility.yul\":1715:1717   */\n      0x1f\n        /* \"#utility.yul\":1711:1718   */\n      not\n        /* \"#utility.yul\":1706:1708   */\n      0x1f\n        /* \"#utility.yul\":1699:1704   */\n      dup4\n        /* \"#utility.yul\":1695:1709   */\n      add\n        /* \"#utility.yul\":1691:1719   */\n      and\n        /* \"#utility.yul\":1681:1719   */\n      swap1\n      pop\n        /* \"#utility.yul\":1623:1725   */\n      swap2\n      swap1\n      pop\n      jump\t// out\n        /* \"#utility.yul\":1731:1911   */\n    tag_66:\n        /* \"#utility.yul\":1779:1856   */\n      0x4e487b7100000000000000000000000000000000000000000000000000000000\n        /* \"#utility.yul\":1776:1777   */\n      0x00\n        /* \"#utility.yul\":1769:1857   */\n      mstore\n        /* \"#utility.yul\":1876:1880   */\n      0x41\n        /* \"#utility.yul\":1873:1874   */\n      0x04\n        /* \"#utility.yul\":1866:1881   */\n      mstore\n        /* \"#utility.yul\":1900:1904   */\n      0x24\n        /* \"#utility.yul\":1897:1898   */\n      0x00\n        /* \"#utility.yul\":1890:1905   */\n      revert\n        /* \"#utility.yul\":1917:2198   */\n    tag_67:\n        /* \"#utility.yul\":2000:2027   */\n      tag_120\n        /* \"#utility.yul\":2022:2026   */\n      dup3\n        /* \"#utility.yul\":2000:2027   */\n      tag_65\n      jump\t// in\n    tag_120:\n        /* \"#utility.yul\":1992:1998   */\n      dup2\n        /* \"#utility.yul\":1988:2028   */\n      add\n        /* \"#utility.yul\":2130:2136   */\n      dup2\n        /* \"#utility.yul\":2118:2128   */\n      dup2\n        /* \"#utility.yul\":2115:2137   */\n      lt\n        /* \"#utility.yul\":2094:2112   */\n      0xffffffffffffffff\n        /* \"#utility.yul\":2082:2092   */\n      dup3\n        /* \"#utility.yul\":2079:2113   */\n      gt\n        /* \"#utility.yul\":2076:2138   */\n      or\n        /* \"#utility.yul\":2073:2161   */\n      iszero\n      tag_121\n      jumpi\n        /* \"#utility.yul\":2141:2159   */\n      tag_122\n      tag_66\n      jump\t// in\n    tag_122:\n        /* \"#utility.yul\":2073:2161   */\n    tag_121:\n        /* \"#utility.yul\":2181:2191   */\n      dup1\n        /* \"#utility.yul\":2177:2179   */\n      0x40\n        /* \"#utility.yul\":2170:2192   */\n      mstore\n        /* \"#utility.yul\":1960:2198   */\n      pop\n        /* \"#utility.yul\":1917:2198   */\n      pop\n      pop\n      jump\t// out\n        /* \"#utility.yul\":2204:2333   */\n    tag_68:\n        /* \"#utility.yul\":2238:2244   */\n      0x00\n        /* \"#utility.yul\":2265:2285   */\n      tag_124\n      tag_58\n      jump\t// in\n    tag_124:\n        /* \"#utility.yul\":2255:2285   */\n      swap1\n      pop\n        /* \"#utility.yul\":2294:2327   */\n      tag_125\n        /* \"#utility.yul\":2322:2326   */\n      dup3\n        /* \"#utility.yul\":2314:2320   */\n      dup3\n        /* \"#utility.yul\":2294:2327   */\n      tag_67\n      jump\t// in\n    tag_125:\n        /* \"#utility.yul\":2204:2333   */\n      swap2\n      swap1\n      pop\n      jump\t// out\n        /* \"#utility.yul\":2339:2647   */\n    tag_69:\n        /* \"#utility.yul\":2401:2405   */\n      0x00\n        /* \"#utility.yul\":2491:2509   */\n      0xffffffffffffffff\n        /* \"#utility.yul\":2483:2489   */\n      dup3\n        /* \"#utility.yul\":2480:2510   */\n      gt\n        /* \"#utility.yul\":2477:2533   */\n      iszero\n      tag_127\n      jumpi\n        /* \"#utility.yul\":2513:2531   */\n      tag_128\n      tag_66\n      jump\t// in\n    tag_128:\n        /* \"#utility.yul\":2477:2533   */\n    tag_127:\n        /* \"#utility.yul\":2551:2580   */\n      tag_129\n        /* \"#utility.yul\":2573:2579   */\n      dup3\n        /* \"#utility.yul\":2551:2580   */\n      tag_65\n      jump\t// in\n    tag_129:\n        /* \"#utility.yul\":2543:2580   */\n      swap1\n      pop\n        /* \"#utility.yul\":2635:2639   */\n      0x20\n        /* \"#utility.yul\":2629:2633   */\n      dup2\n        /* \"#utility.yul\":2625:2640   */\n      add\n        /* \"#utility.yul\":2617:2640   */\n      swap1\n      pop\n        /* \"#utility.yul\":2339:2647   */\n      swap2\n      swap1\n      pop\n      jump\t// out\n        /* \"#utility.yul\":2653:2799   */\n    tag_70:\n        /* \"#utility.yul\":2750:2756   */\n      dup3\n        /* \"#utility.yul\":2745:2748   */\n      dup2\n        /* \"#utility.yul\":2740:2743   */\n      dup4\n        /* \"#utility.yul\":2727:2757   */\n      calldatacopy\n        /* \"#utility.yul\":2791:2792   */\n      0x00\n        /* \"#utility.yul\":2782:2788   */\n      dup4\n        /* \"#utility.yul\":2777:2780   */\n      dup4\n        /* \"#utility.yul\":2773:2789   */\n      add\n        /* \"#utility.yul\":2766:2793   */\n      mstore\n        /* \"#utility.yul\":2653:2799   */\n      pop\n      pop\n      pop\n      jump\t// out\n        /* \"#utility.yul\":2805:3230   */\n    tag_71:\n        /* \"#utility.yul\":2883:2888   */\n      0x00\n        /* \"#utility.yul\":2908:2974   */\n      tag_132\n        /* \"#utility.yul\":2924:2973   */\n      tag_133\n        /* \"#utility.yul\":2966:2972   */\n      dup5\n        /* \"#utility.yul\":2924:2973   */\n      tag_69\n      jump\t// in\n    tag_133:\n        /* \"#utility.yul\":2908:2974   */\n      tag_68\n      jump\t// in\n    tag_132:\n        /* \"#utility.yul\":2899:2974   */\n      swap1\n      pop\n        /* \"#utility.yul\":2997:3003   */\n      dup3\n        /* \"#utility.yul\":2990:2995   */\n      dup2\n        /* \"#utility.yul\":2983:3004   */\n      mstore\n        /* \"#utility.yul\":3035:3039   */\n      0x20\n        /* \"#utility.yul\":3028:3033   */\n      dup2\n        /* \"#utility.yul\":3024:3040   */\n      add\n        /* \"#utility.yul\":3073:3076   */\n      dup5\n        /* \"#utility.yul\":3064:3070   */\n      dup5\n        /* \"#utility.yul\":3059:3062   */\n      dup5\n        /* \"#utility.yul\":3055:3071   */\n      add\n        /* \"#utility.yul\":3052:3077   */\n      gt\n        /* \"#utility.yul\":3049:3161   */\n      iszero\n      tag_134\n      jumpi\n        /* \"#utility.yul\":3080:3159   */\n      tag_135\n      tag_64\n      jump\t// in\n    tag_135:\n        /* \"#utility.yul\":3049:3161   */\n    tag_134:\n        /* \"#utility.yul\":3170:3224   */\n      tag_136\n        /* \"#utility.yul\":3217:3223   */\n      dup5\n        /* \"#utility.yul\":3212:3215   */\n      dup3\n        /* \"#utility.yul\":3207:3210   */\n      dup6\n        /* \"#utility.yul\":3170:3224   */\n      tag_70\n      jump\t// in\n    tag_136:\n        /* \"#utility.yul\":2889:3230   */\n      pop\n        /* \"#utility.yul\":2805:3230   */\n      swap4\n      swap3\n      pop\n      pop\n      pop\n      jump\t// out\n        /* \"#utility.yul\":3250:3590   */\n    tag_72:\n        /* \"#utility.yul\":3306:3311   */\n      0x00\n        /* \"#utility.yul\":3355:3358   */\n      dup3\n        /* \"#utility.yul\":3348:3352   */\n      0x1f\n        /* \"#utility.yul\":3340:3346   */\n      dup4\n        /* \"#utility.yul\":3336:3353   */\n      add\n        /* \"#utility.yul\":3332:3359   */\n      slt\n        /* \"#utility.yul\":3322:3444   */\n      tag_138\n      jumpi\n        /* \"#utility.yul\":3363:3442   */\n      tag_139\n      tag_63\n      jump\t// in\n    tag_139:\n        /* \"#utility.yul\":3322:3444   */\n    tag_138:\n        /* \"#utility.yul\":3480:3486   */\n      dup2\n        /* \"#utility.yul\":3467:3487   */\n      calldataload\n        /* \"#utility.yul\":3505:3584   */\n      tag_140\n        /* \"#utility.yul\":3580:3583   */\n      dup5\n        /* \"#utility.yul\":3572:3578   */\n      dup3\n        /* \"#utility.yul\":3565:3569   */\n      0x20\n        /* \"#utility.yul\":3557:3563   */\n      dup7\n        /* \"#utility.yul\":3553:3570   */\n      add\n        /* \"#utility.yul\":3505:3584   */\n      tag_71\n      jump\t// in\n    tag_140:\n        /* \"#utility.yul\":3496:3584   */\n      swap2\n      pop\n        /* \"#utility.yul\":3312:3590   */\n      pop\n        /* \"#utility.yul\":3250:3590   */\n      swap3\n      swap2\n      pop\n      pop\n      jump\t// out\n        /* \"#utility.yul\":3596:4250   */\n    tag_24:\n        /* \"#utility.yul\":3674:3680   */\n      0x00\n        /* \"#utility.yul\":3682:3688   */\n      dup1\n        /* \"#utility.yul\":3731:3733   */\n      0x40\n        /* \"#utility.yul\":3719:3728   */\n      dup4\n        /* \"#utility.yul\":3710:3717   */\n      dup6\n        /* \"#utility.yul\":3706:3729   */\n      sub\n        /* \"#utility.yul\":3702:3734   */\n      slt\n        /* \"#utility.yul\":3699:3818   */\n      iszero\n      tag_142\n      jumpi\n        /* \"#utility.yul\":3737:3816   */\n      tag_143\n      tag_59\n      jump\t// in\n    tag_143:\n        /* \"#utility.yul\":3699:3818   */\n    tag_142:\n        /* \"#utility.yul\":3885:3886   */\n      0x00\n        /* \"#utility.yul\":3874:3883   */\n      dup4\n        /* \"#utility.yul\":3870:3887   */\n      add\n        /* \"#utility.yul\":3857:3888   */\n      calldataload\n        /* \"#utility.yul\":3915:3933   */\n      0xffffffffffffffff\n        /* \"#utility.yul\":3907:3913   */\n      dup2\n        /* \"#utility.yul\":3904:3934   */\n      gt\n        /* \"#utility.yul\":3901:4018   */\n      iszero\n      tag_144\n      jumpi\n        /* \"#utility.yul\":3937:4016   */\n      tag_145\n      tag_60\n      jump\t// in\n    tag_145:\n        /* \"#utility.yul\":3901:4018   */\n    tag_144:\n        /* \"#utility.yul\":4042:4105   */\n      tag_146\n        /* \"#utility.yul\":4097:4104   */\n      dup6\n        /* \"#utility.yul\":4088:4094   */\n      dup3\n        /* \"#utility.yul\":4077:4086   */\n      dup7\n        /* \"#utility.yul\":4073:4095   */\n      add\n        /* \"#utility.yul\":4042:4105   */\n      tag_72\n      jump\t// in\n    tag_146:\n        /* \"#utility.yul\":4032:4105   */\n      swap3\n      pop\n        /* \"#utility.yul\":3828:4115   */\n      pop\n        /* \"#utility.yul\":4154:4156   */\n      0x20\n        /* \"#utility.yul\":4180:4233   */\n      tag_147\n        /* \"#utility.yul\":4225:4232   */\n      dup6\n        /* \"#utility.yul\":4216:4222   */\n      dup3\n        /* \"#utility.yul\":4205:4214   */\n      dup7\n        /* \"#utility.yul\":4201:4223   */\n      add\n        /* \"#utility.yul\":4180:4233   */\n      tag_62\n      jump\t// in\n    tag_147:\n        /* \"#utility.yul\":4170:4233   */\n      swap2\n      pop\n        /* \"#utility.yul\":4125:4243   */\n      pop\n        /* \"#utility.yul\":3596:4250   */\n      swap3\n      pop\n      swap3\n      swap1\n      pop\n      jump\t// out\n        /* \"#utility.yul\":4256:4765   */\n    tag_28:\n        /* \"#utility.yul\":4325:4331   */\n      0x00\n        /* \"#utility.yul\":4374:4376   */\n      0x20\n        /* \"#utility.yul\":4362:4371   */\n      dup3\n        /* \"#utility.yul\":4353:4360   */\n      dup5\n        /* \"#utility.yul\":4349:4372   */\n      sub\n        /* \"#utility.yul\":4345:4377   */\n      slt\n        /* \"#utility.yul\":4342:4461   */\n      iszero\n      tag_149\n      jumpi\n        /* \"#utility.yul\":4380:4459   */\n      tag_150\n      tag_59\n      jump\t// in\n    tag_150:\n        /* \"#utility.yul\":4342:4461   */\n    tag_149:\n        /* \"#utility.yul\":4528:4529   */\n      0x00\n        /* \"#utility.yul\":4517:4526   */\n      dup3\n        /* \"#utility.yul\":4513:4530   */\n      add\n        /* \"#utility.yul\":4500:4531   */\n      calldataload\n        /* \"#utility.yul\":4558:4576   */\n      0xffffffffffffffff\n        /* \"#utility.yul\":4550:4556   */\n      dup2\n        /* \"#utility.yul\":4547:4577   */\n      gt\n        /* \"#utility.yul\":4544:4661   */\n      iszero\n      tag_151\n      jumpi\n        /* \"#utility.yul\":4580:4659   */\n      tag_152\n      tag_60\n      jump\t// in\n    tag_152:\n        /* \"#utility.yul\":4544:4661   */\n    tag_151:\n        /* \"#utility.yul\":4685:4748   */\n      tag_153\n        /* \"#utility.yul\":4740:4747   */\n      dup5\n        /* \"#utility.yul\":4731:4737   */\n      dup3\n        /* \"#utility.yul\":4720:4729   */\n      dup6\n        /* \"#utility.yul\":4716:4738   */\n      add\n        /* \"#utility.yul\":4685:4748   */\n      tag_72\n      jump\t// in\n    tag_153:\n        /* \"#utility.yul\":4675:4748   */\n      swap2\n      pop\n        /* \"#utility.yul\":4471:4758   */\n      pop\n        /* \"#utility.yul\":4256:4765   */\n      swap3\n      swap2\n      pop\n      pop\n      jump\t// out\n        /* \"#utility.yul\":4771:4870   */\n    tag_73:\n        /* \"#utility.yul\":4823:4829   */\n      0x00\n        /* \"#utility.yul\":4857:4862   */\n      dup2\n        /* \"#utility.yul\":4851:4863   */\n      mload\n        /* \"#utility.yul\":4841:4863   */\n      swap1\n      pop\n        /* \"#utility.yul\":4771:4870   */\n      swap2\n      swap1\n      pop\n      jump\t// out\n        /* \"#utility.yul\":4876:5045   */\n    tag_74:\n        /* \"#utility.yul\":4960:4971   */\n      0x00\n        /* \"#utility.yul\":4994:5000   */\n      dup3\n        /* \"#utility.yul\":4989:4992   */\n      dup3\n        /* \"#utility.yul\":4982:5001   */\n      mstore\n        /* \"#utility.yul\":5034:5038   */\n      0x20\n        /* \"#utility.yul\":5029:5032   */\n      dup3\n        /* \"#utility.yul\":5025:5039   */\n      add\n        /* \"#utility.yul\":5010:5039   */\n      swap1\n      pop\n        /* \"#utility.yul\":4876:5045   */\n      swap3\n      swap2\n      pop\n      pop\n      jump\t// out\n        /* \"#utility.yul\":5051:5297   */\n    tag_75:\n        /* \"#utility.yul\":5132:5133   */\n      0x00\n        /* \"#utility.yul\":5142:5255   */\n    tag_157:\n        /* \"#utility.yul\":5156:5162   */\n      dup4\n        /* \"#utility.yul\":5153:5154   */\n      dup2\n        /* \"#utility.yul\":5150:5163   */\n      lt\n        /* \"#utility.yul\":5142:5255   */\n      iszero\n      tag_159\n      jumpi\n        /* \"#utility.yul\":5241:5242   */\n      dup1\n        /* \"#utility.yul\":5236:5239   */\n      dup3\n        /* \"#utility.yul\":5232:5243   */\n      add\n        /* \"#utility.yul\":5226:5244   */\n      mload\n        /* \"#utility.yul\":5222:5223   */\n      dup2\n        /* \"#utility.yul\":5217:5220   */\n      dup5\n        /* \"#utility.yul\":5213:5224   */\n      add\n        /* \"#utility.yul\":5206:5245   */\n      mstore\n        /* \"#utility.yul\":5178:5180   */\n      0x20\n        /* \"#utility.yul\":5175:5176   */\n      dup2\n        /* \"#utility.yul\":5171:5181   */\n      add\n        /* \"#utility.yul\":5166:5181   */\n      swap1\n      pop\n        /* \"#utility.yul\":5142:5255   */\n      jump(tag_157)\n    tag_159:\n        /* \"#utility.yul\":5289:5290   */\n      0x00\n        /* \"#utility.yul\":5280:5286   */\n      dup5\n        /* \"#utility.yul\":5275:5278   */\n      dup5\n        /* \"#utility.yul\":5271:5287   */\n      add\n        /* \"#utility.yul\":5264:5291   */\n      mstore\n        /* \"#utility.yul\":5113:5297   */\n      pop\n        /* \"#utility.yul\":5051:5297   */\n      pop\n      pop\n      pop\n      jump\t// out\n        /* \"#utility.yul\":5303:5680   */\n    tag_76:\n        /* \"#utility.yul\":5391:5394   */\n      0x00\n        /* \"#utility.yul\":5419:5458   */\n      tag_161\n        /* \"#utility.yul\":5452:5457   */\n      dup3\n        /* \"#utility.yul\":5419:5458   */\n      tag_73\n      jump\t// in\n    tag_161:\n        /* \"#utility.yul\":5474:5545   */\n      tag_162\n        /* \"#utility.yul\":5538:5544   */\n      dup2\n        /* \"#utility.yul\":5533:5536   */\n      dup6\n        /* \"#utility.yul\":5474:5545   */\n      tag_74\n      jump\t// in\n    tag_162:\n        /* \"#utility.yul\":5467:5545   */\n      swap4\n      pop\n        /* \"#utility.yul\":5554:5619   */\n      tag_163\n        /* \"#utility.yul\":5612:5618   */\n      dup2\n        /* \"#utility.yul\":5607:5610   */\n      dup6\n        /* \"#utility.yul\":5600:5604   */\n      0x20\n        /* \"#utility.yul\":5593:5598   */\n      dup7\n        /* \"#utility.yul\":5589:5605   */\n      add\n        /* \"#utility.yul\":5554:5619   */\n      tag_75\n      jump\t// in\n    tag_163:\n        /* \"#utility.yul\":5644:5673   */\n      tag_164\n        /* \"#utility.yul\":5666:5672   */\n      dup2\n        /* \"#utility.yul\":5644:5673   */\n      tag_65\n      jump\t// in\n    tag_164:\n        /* \"#utility.yul\":5639:5642   */\n      dup5\n        /* \"#utility.yul\":5635:5674   */\n      add\n        /* \"#utility.yul\":5628:5674   */\n      swap2\n      pop\n        /* \"#utility.yul\":5395:5680   */\n      pop\n        /* \"#utility.yul\":5303:5680   */\n      swap3\n      swap2\n      pop\n      pop\n      jump\t// out\n        /* \"#utility.yul\":5686:6109   */\n    tag_35:\n        /* \"#utility.yul\":5827:5831   */\n      0x00\n        /* \"#utility.yul\":5865:5867   */\n      0x40\n        /* \"#utility.yul\":5854:5863   */\n      dup3\n        /* \"#utility.yul\":5850:5868   */\n      add\n        /* \"#utility.yul\":5842:5868   */\n      swap1\n      pop\n        /* \"#utility.yul\":5878:5949   */\n      tag_166\n        /* \"#utility.yul\":5946:5947   */\n      0x00\n        /* \"#utility.yul\":5935:5944   */\n      dup4\n        /* \"#utility.yul\":5931:5948   */\n      add\n        /* \"#utility.yul\":5922:5928   */\n      dup6\n        /* \"#utility.yul\":5878:5949   */\n      tag_57\n      jump\t// in\n    tag_166:\n        /* \"#utility.yul\":5996:6005   */\n      dup2\n        /* \"#utility.yul\":5990:5994   */\n      dup2\n        /* \"#utility.yul\":5986:6006   */\n      sub\n        /* \"#utility.yul\":5981:5983   */\n      0x20\n        /* \"#utility.yul\":5970:5979   */\n      dup4\n        /* \"#utility.yul\":5966:5984   */\n      add\n        /* \"#utility.yul\":5959:6007   */\n      mstore\n        /* \"#utility.yul\":6024:6102   */\n      tag_167\n        /* \"#utility.yul\":6097:6101   */\n      dup2\n        /* \"#utility.yul\":6088:6094   */\n      dup5\n        /* \"#utility.yul\":6024:6102   */\n      tag_76\n      jump\t// in\n    tag_167:\n        /* \"#utility.yul\":6016:6102   */\n      swap1\n      pop\n        /* \"#utility.yul\":5686:6109   */\n      swap4\n      swap3\n      pop\n      pop\n      pop\n      jump\t// out\n        /* \"#utility.yul\":6115:6192   */\n    tag_77:\n        /* \"#utility.yul\":6152:6159   */\n      0x00\n        /* \"#utility.yul\":6181:6186   */\n      dup2\n        /* \"#utility.yul\":6170:6186   */\n      swap1\n      pop\n        /* \"#utility.yul\":6115:6192   */\n      swap2\n      swap1\n      pop\n      jump\t// out\n        /* \"#utility.yul\":6198:6316   */\n    tag_78:\n        /* \"#utility.yul\":6285:6309   */\n      tag_170\n        /* \"#utility.yul\":6303:6308   */\n      dup2\n        /* \"#utility.yul\":6285:6309   */\n      tag_77\n      jump\t// in\n    tag_170:\n        /* \"#utility.yul\":6280:6283   */\n      dup3\n        /* \"#utility.yul\":6273:6310   */\n      mstore\n        /* \"#utility.yul\":6198:6316   */\n      pop\n      pop\n      jump\t// out\n        /* \"#utility.yul\":6322:6544   */\n    tag_39:\n        /* \"#utility.yul\":6415:6419   */\n      0x00\n        /* \"#utility.yul\":6453:6455   */\n      0x20\n        /* \"#utility.yul\":6442:6451   */\n      dup3\n        /* \"#utility.yul\":6438:6456   */\n      add\n        /* \"#utility.yul\":6430:6456   */\n      swap1\n      pop\n        /* \"#utility.yul\":6466:6537   */\n      tag_172\n        /* \"#utility.yul\":6534:6535   */\n      0x00\n        /* \"#utility.yul\":6523:6532   */\n      dup4\n        /* \"#utility.yul\":6519:6536   */\n      add\n        /* \"#utility.yul\":6510:6516   */\n      dup5\n        /* \"#utility.yul\":6466:6537   */\n      tag_78\n      jump\t// in\n    tag_172:\n        /* \"#utility.yul\":6322:6544   */\n      swap3\n      swap2\n      pop\n      pop\n      jump\t// out\n        /* \"#utility.yul\":6550:6730   */\n    tag_79:\n        /* \"#utility.yul\":6598:6675   */\n      0x4e487b7100000000000000000000000000000000000000000000000000000000\n        /* \"#utility.yul\":6595:6596   */\n      0x00\n        /* \"#utility.yul\":6588:6676   */\n      mstore\n        /* \"#utility.yul\":6695:6699   */\n      0x22\n        /* \"#utility.yul\":6692:6693   */\n      0x04\n        /* \"#utility.yul\":6685:6700   */\n      mstore\n        /* \"#utility.yul\":6719:6723   */\n      0x24\n        /* \"#utility.yul\":6716:6717   */\n      0x00\n        /* \"#utility.yul\":6709:6724   */\n      revert\n        /* \"#utility.yul\":6736:7056   */\n    tag_51:\n        /* \"#utility.yul\":6780:6786   */\n      0x00\n        /* \"#utility.yul\":6817:6818   */\n      0x02\n        /* \"#utility.yul\":6811:6815   */\n      dup3\n        /* \"#utility.yul\":6807:6819   */\n      div\n        /* \"#utility.yul\":6797:6819   */\n      swap1\n      pop\n        /* \"#utility.yul\":6864:6865   */\n      0x01\n        /* \"#utility.yul\":6858:6862   */\n      dup3\n        /* \"#utility.yul\":6854:6866   */\n      and\n        /* \"#utility.yul\":6885:6903   */\n      dup1\n        /* \"#utility.yul\":6875:6956   */\n      tag_175\n      jumpi\n        /* \"#utility.yul\":6941:6945   */\n      0x7f\n        /* \"#utility.yul\":6933:6939   */\n      dup3\n        /* \"#utility.yul\":6929:6946   */\n      and\n        /* \"#utility.yul\":6919:6946   */\n      swap2\n      pop\n        /* \"#utility.yul\":6875:6956   */\n    tag_175:\n        /* \"#utility.yul\":7003:7005   */\n      0x20\n        /* \"#utility.yul\":6995:7001   */\n      dup3\n        /* \"#utility.yul\":6992:7006   */\n      lt\n        /* \"#utility.yul\":6972:6990   */\n      dup2\n        /* \"#utility.yul\":6969:7007   */\n      sub\n        /* \"#utility.yul\":6966:7050   */\n      tag_176\n      jumpi\n        /* \"#utility.yul\":7022:7040   */\n      tag_177\n      tag_79\n      jump\t// in\n    tag_177:\n        /* \"#utility.yul\":6966:7050   */\n    tag_176:\n        /* \"#utility.yul\":6787:7056   */\n      pop\n        /* \"#utility.yul\":6736:7056   */\n      swap2\n      swap1\n      pop\n      jump\t// out\n        /* \"#utility.yul\":7062:7203   */\n    tag_80:\n        /* \"#utility.yul\":7111:7115   */\n      0x00\n        /* \"#utility.yul\":7134:7137   */\n      dup2\n        /* \"#utility.yul\":7126:7137   */\n      swap1\n      pop\n        /* \"#utility.yul\":7157:7160   */\n      dup2\n        /* \"#utility.yul\":7154:7155   */\n      0x00\n        /* \"#utility.yul\":7147:7161   */\n      mstore\n        /* \"#utility.yul\":7191:7195   */\n      0x20\n        /* \"#utility.yul\":7188:7189   */\n      0x00\n        /* \"#utility.yul\":7178:7196   */\n      keccak256\n        /* \"#utility.yul\":7170:7196   */\n      swap1\n      pop\n        /* \"#utility.yul\":7062:7203   */\n      swap2\n      swap1\n      pop\n      jump\t// out\n        /* \"#utility.yul\":7209:7302   */\n    tag_81:\n        /* \"#utility.yul\":7246:7252   */\n      0x00\n        /* \"#utility.yul\":7293:7295   */\n      0x20\n        /* \"#utility.yul\":7288:7290   */\n      0x1f\n        /* \"#utility.yul\":7281:7286   */\n      dup4\n        /* \"#utility.yul\":7277:7291   */\n      add\n        /* \"#utility.yul\":7273:7296   */\n      div\n        /* \"#utility.yul\":7263:7296   */\n      swap1\n      pop\n        /* \"#utility.yul\":7209:7302   */\n      swap2\n      swap1\n      pop\n      jump\t// out\n        /* \"#utility.yul\":7308:7415   */\n    tag_82:\n        /* \"#utility.yul\":7352:7360   */\n      0x00\n        /* \"#utility.yul\":7402:7407   */\n      dup3\n        /* \"#utility.yul\":7396:7400   */\n      dup3\n        /* \"#utility.yul\":7392:7408   */\n      shl\n        /* \"#utility.yul\":7371:7408   */\n      swap1\n      pop\n        /* \"#utility.yul\":7308:7415   */\n      swap3\n      swap2\n      pop\n      pop\n      jump\t// out\n        /* \"#utility.yul\":7421:7814   */\n    tag_83:\n        /* \"#utility.yul\":7490:7496   */\n      0x00\n        /* \"#utility.yul\":7540:7541   */\n      0x08\n        /* \"#utility.yul\":7528:7538   */\n      dup4\n        /* \"#utility.yul\":7524:7542   */\n      mul\n        /* \"#utility.yul\":7563:7660   */\n      tag_182\n        /* \"#utility.yul\":7593:7659   */\n      0xffffffffffffffffffffffffffffffffffffffffffffffffffffffffffffffff\n        /* \"#utility.yul\":7582:7591   */\n      dup3\n        /* \"#utility.yul\":7563:7660   */\n      tag_82\n      jump\t// in\n    tag_182:\n        /* \"#utility.yul\":7681:7720   */\n      tag_183\n        /* \"#utility.yul\":7711:7719   */\n      dup7\n        /* \"#utility.yul\":7700:7709   */\n      dup4\n        /* \"#utility.yul\":7681:7720   */\n      tag_82\n      jump\t// in\n    tag_183:\n        /* \"#utility.yul\":7669:7720   */\n      swap6\n      pop\n        /* \"#utility.yul\":7753:7757   */\n      dup1\n        /* \"#utility.yul\":7749:7758   */\n      not\n        /* \"#utility.yul\":7742:7747   */\n      dup5\n        /* \"#utility.yul\":7738:7759   */\n      and\n        /* \"#utility.yul\":7729:7759   */\n      swap4\n      pop\n        /* \"#utility.yul\":7802:7806   */\n      dup1\n        /* \"#utility.yul\":7792:7800   */\n      dup7\n        /* \"#utility.yul\":7788:7807   */\n      and\n        /* \"#utility.yul\":7781:7786   */\n      dup5\n        /* \"#utility.yul\":7778:7808   */\n      or\n        /* \"#utility.yul\":7768:7808   */\n      swap3\n      pop\n        /* \"#utility.yul\":7497:7814   */\n      pop\n      pop\n        /* \"#utility.yul\":7421:7814   */\n      swap4\n      swap3\n      pop\n      pop\n      pop\n      jump\t// out\n        /* \"#utility.yul\":7820:7880   */\n    tag_84:\n        /* \"#utility.yul\":7848:7851   */\n      0x00\n        /* \"#utility.yul\":7869:7874   */\n      dup2\n        /* \"#utility.yul\":7862:7874   */\n      swap1\n      pop\n        /* \"#utility.yul\":7820:7880   */\n      swap2\n      swap1\n      pop\n      jump\t// out\n        /* \"#utility.yul\":7886:8028   */\n    tag_85:\n        /* \"#utility.yul\":7936:7945   */\n      0x00\n        /* \"#utility.yul\":7969:8022   */\n      tag_186\n        /* \"#utility.yul\":7987:8021   */\n      tag_187\n        /* \"#utility.yul\":7996:8020   */\n      tag_188\n        /* \"#utility.yul\":8014:8019   */\n      dup5\n        /* \"#utility.yul\":7996:8020   */\n      tag_56\n      jump\t// in\n    tag_188:\n        /* \"#utility.yul\":7987:8021   */\n      tag_84\n      jump\t// in\n    tag_187:\n        /* \"#utility.yul\":7969:8022   */\n      tag_56\n      jump\t// in\n    tag_186:\n        /* \"#utility.yul\":7956:8022   */\n      swap1\n      pop\n        /* \"#utility.yul\":7886:8028   */\n      swap2\n      swap1\n      pop\n      jump\t// out\n        /* \"#utility.yul\":8034:8109   */\n    tag_86:\n        /* \"#utility.yul\":8077:8080   */\n      0x00\n        /* \"#utility.yul\":8098:8103   */\n      dup2\n        /* \"#utility.yul\":8091:8103   */\n      swap1\n      pop\n        /* \"#utility.yul\":8034:8109   */\n      swap2\n      swap1\n      pop\n      jump\t// out\n        /* \"#utility.yul\":8115:8384   */\n    tag_87:\n        /* \"#utility.yul\":8225:8264   */\n      tag_191\n        /* \"#utility.yul\":8256:8263   */\n      dup4\n        /* \"#utility.yul\":8225:8264   */\n      tag_85\n      jump\t// in\n    tag_191:\n        /* \"#utility.yul\":8286:8377   */\n      tag_192\n        /* \"#utility.yul\":8335:8376   */\n      tag_193\n        /* \"#utility.yul\":8359:8375   */\n      dup3\n        /* \"#utility.yul\":8335:8376   */\n      tag_86\n      jump\t// in\n    tag_193:\n        /* \"#utility.yul\":8327:8333   */\n      dup5\n        /* \"#utility.yul\":8320:8324   */\n      dup5\n        /* \"#utility.yul\":8314:8325   */\n      sload\n        /* \"#utility.yul\":8286:8377   */\n      tag_83\n      jump\t// in\n    tag_192:\n        /* \"#utility.yul\":8280:8284   */\n      dup3\n        /* \"#utility.yul\":8273:8378   */\n      sstore\n        /* \"#utility.yul\":8191:8384   */\n      pop\n        /* \"#utility.yul\":8115:8384   */\n      pop\n      pop\n      pop\n      jump\t// out\n        /* \"#utility.yul\":8390:8463   */\n    tag_88:\n        /* \"#utility.yul\":8435:8438   */\n      0x00\n        /* \"#utility.yul\":8390:8463   */\n      swap1\n      jump\t// out\n        /* \"#utility.yul\":8469:8658   */\n    tag_89:\n        /* \"#utility.yul\":8546:8578   */\n      tag_196\n      tag_88\n      jump\t// in\n    tag_196:\n        /* \"#utility.yul\":8587:8652   */\n      tag_197\n        /* \"#utility.yul\":8645:8651   */\n      dup2\n        /* \"#utility.yul\":8637:8643   */\n      dup5\n        /* \"#utility.yul\":8631:8635   */\n      dup5\n        /* \"#utility.yul\":8587:8652   */\n      tag_87\n      jump\t// in\n    tag_197:\n        /* \"#utility.yul\":8522:8658   */\n      pop\n        /* \"#utility.yul\":8469:8658   */\n      pop\n      pop\n      jump\t// out\n        /* \"#utility.yul\":8664:8850   */\n    tag_90:\n        /* \"#utility.yul\":8724:8844   */\n    tag_199:\n        /* \"#utility.yul\":8741:8744   */\n      dup2\n        /* \"#utility.yul\":8734:8739   */\n      dup2\n        /* \"#utility.yul\":8731:8745   */\n      lt\n        /* \"#utility.yul\":8724:8844   */\n      iszero\n      tag_201\n      jumpi\n        /* \"#utility.yul\":8795:8834   */\n      tag_202\n        /* \"#utility.yul\":8832:8833   */\n      0x00\n        /* \"#utility.yul\":8825:8830   */\n      dup3\n        /* \"#utility.yul\":8795:8834   */\n      tag_89\n      jump\t// in\n    tag_202:\n        /* \"#utility.yul\":8768:8769   */\n      0x01\n        /* \"#utility.yul\":8761:8766   */\n      dup2\n        /* \"#utility.yul\":8757:8770   */\n      add\n        /* \"#utility.yul\":8748:8770   */\n      swap1\n      pop\n        /* \"#utility.yul\":8724:8844   */\n      jump(tag_199)\n    tag_201:\n        /* \"#utility.yul\":8664:8850   */\n      pop\n      pop\n      jump\t// out\n        /* \"#utility.yul\":8856:9399   */\n    tag_91:\n        /* \"#utility.yul\":8957:8959   */\n      0x1f\n        /* \"#utility.yul\":8952:8955   */\n      dup3\n        /* \"#utility.yul\":8949:8960   */\n      gt\n        /* \"#utility.yul\":8946:9392   */\n      iszero\n      tag_204\n      jumpi\n        /* \"#utility.yul\":8991:9029   */\n      tag_205\n        /* \"#utility.yul\":9023:9028   */\n      dup2\n        /* \"#utility.yul\":8991:9029   */\n      tag_80\n      jump\t// in\n    tag_205:\n        /* \"#utility.yul\":9075:9104   */\n      tag_206\n        /* \"#utility.yul\":9093:9103   */\n      dup5\n        /* \"#utility.yul\":9075:9104   */\n      tag_81\n      jump\t// in\n    tag_206:\n        /* \"#utility.yul\":9065:9073   */\n      dup2\n        /* \"#utility.yul\":9061:9105   */\n      add\n        /* \"#utility.yul\":9258:9260   */\n      0x20\n        /* \"#utility.yul\":9246:9256   */\n      dup6\n        /* \"#utility.yul\":9243:9261   */\n      lt\n        /* \"#utility.yul\":9240:9289   */\n      iszero\n      tag_207\n      jumpi\n        /* \"#utility.yul\":9279:9287   */\n      dup2\n        /* \"#utility.yul\":9264:9287   */\n      swap1\n      pop\n        /* \"#utility.yul\":9240:9289   */\n    tag_207:\n        /* \"#utility.yul\":9302:9382   */\n      tag_208\n        /* \"#utility.yul\":9358:9380   */\n      tag_209\n        /* \"#utility.yul\":9376:9379   */\n      dup6\n        /* \"#utility.yul\":9358:9380   */\n      tag_81\n      jump\t// in\n    tag_209:\n        /* \"#utility.yul\":9348:9356   */\n      dup4\n        /* \"#utility.yul\":9344:9381   */\n      add\n        /* \"#utility.yul\":9331:9342   */\n      dup3\n        /* \"#utility.yul\":9302:9382   */\n      tag_90\n      jump\t// in\n    tag_208:\n        /* \"#utility.yul\":8961:9392   */\n      pop\n      pop\n        /* \"#utility.yul\":8946:9392   */\n    tag_204:\n        /* \"#utility.yul\":8856:9399   */\n      pop\n      pop\n      pop\n      jump\t// out\n        /* \"#utility.yul\":9405:9522   */\n    tag_92:\n        /* \"#utility.yul\":9459:9467   */\n      0x00\n        /* \"#utility.yul\":9509:9514   */\n      dup3\n        /* \"#utility.yul\":9503:9507   */\n      dup3\n        /* \"#utility.yul\":9499:9515   */\n      shr\n        /* \"#utility.yul\":9478:9515   */\n      swap1\n      pop\n        /* \"#utility.yul\":9405:9522   */\n      swap3\n      swap2\n      pop\n      pop\n      jump\t// out\n        /* \"#utility.yul\":9528:9697   */\n    tag_93:\n        /* \"#utility.yul\":9572:9578   */\n      0x00\n        /* \"#utility.yul\":9605:9656   */\n      tag_212\n        /* \"#utility.yul\":9653:9654   */\n      0x00\n        /* \"#utility.yul\":9649:9655   */\n      not\n        /* \"#utility.yul\":9641:9646   */\n      dup5\n        /* \"#utility.yul\":9638:9639   */\n      0x08\n        /* \"#utility.yul\":9634:9647   */\n      mul\n        /* \"#utility.yul\":9605:9656   */\n      tag_92\n      jump\t// in\n    tag_212:\n        /* \"#utility.yul\":9601:9657   */\n      not\n        /* \"#utility.yul\":9686:9690   */\n      dup1\n        /* \"#utility.yul\":9680:9684   */\n      dup4\n        /* \"#utility.yul\":9676:9691   */\n      and\n        /* \"#utility.yul\":9666:9691   */\n      swap2\n      pop\n        /* \"#utility.yul\":9579:9697   */\n      pop\n        /* \"#utility.yul\":9528:9697   */\n      swap3\n      swap2\n      pop\n      pop\n      jump\t// out\n        /* \"#utility.yul\":9702:9997   */\n    tag_94:\n        /* \"#utility.yul\":9778:9782   */\n      0x00\n        /* \"#utility.yul\":9924:9953   */\n      tag_214\n        /* \"#utility.yul\":9949:9952   */\n      dup4\n        /* \"#utility.yul\":9943:9947   */\n      dup4\n        /* \"#utility.yul\":9924:9953   */\n      tag_93\n      jump\t// in\n    tag_214:\n        /* \"#utility.yul\":9916:9953   */\n      swap2\n      pop\n        /* \"#utility.yul\":9986:9989   */\n      dup3\n        /* \"#utility.yul\":9983:9984   */\n      0x02\n        /* \"#utility.yul\":9979:9990   */\n      mul\n        /* \"#utility.yul\":9973:9977   */\n      dup3\n        /* \"#utility.yul\":9970:9991   */\n      or\n        /* \"#utility.yul\":9962:9991   */\n      swap1\n      pop\n        /* \"#utility.yul\":9702:9997   */\n      swap3\n      swap2\n      pop\n      pop\n      jump\t// out\n        /* \"#utility.yul\":10002:11397   */\n    tag_45:\n        /* \"#utility.yul\":10119:10156   */\n      tag_216\n        /* \"#utility.yul\":10152:10155   */\n      dup3\n        /* \"#utility.yul\":10119:10156   */\n      tag_73\n      jump\t// in\n    tag_216:\n        /* \"#utility.yul\":10221:10239   */\n      0xffffffffffffffff\n        /* \"#utility.yul\":10213:10219   */\n      dup2\n        /* \"#utility.yul\":10210:10240   */\n      gt\n        /* \"#utility.yul\":10207:10263   */\n      iszero\n      tag_217\n      jumpi\n        /* \"#utility.yul\":10243:10261   */\n      tag_218\n      tag_66\n      jump\t// in\n    tag_218:\n        /* \"#utility.yul\":10207:10263   */\n    tag_217:\n        /* \"#utility.yul\":10287:10325   */\n      tag_219\n        /* \"#utility.yul\":10319:10323   */\n      dup3\n        /* \"#utility.yul\":10313:10324   */\n      sload\n        /* \"#utility.yul\":10287:10325   */\n      tag_51\n      jump\t// in\n    tag_219:\n        /* \"#utility.yul\":10372:10439   */\n      tag_220\n        /* \"#utility.yul\":10432:10438   */\n      dup3\n        /* \"#utility.yul\":10424:10430   */\n      dup3\n        /* \"#utility.yul\":10418:10422   */\n      dup6\n        /* \"#utility.yul\":10372:10439   */\n      tag_91\n      jump\t// in\n    tag_220:\n        /* \"#utility.yul\":10466:10467   */\n      0x00\n        /* \"#utility.yul\":10490:10494   */\n      0x20\n        /* \"#utility.yul\":10477:10494   */\n      swap1\n      pop\n        /* \"#utility.yul\":10522:10524   */\n      0x1f\n        /* \"#utility.yul\":10514:10520   */\n      dup4\n        /* \"#utility.yul\":10511:10525   */\n      gt\n        /* \"#utility.yul\":10539:10540   */\n      0x01\n        /* \"#utility.yul\":10534:11152   */\n      dup2\n      eq\n      tag_222\n      jumpi\n        /* \"#utility.yul\":11196:11197   */\n      0x00\n        /* \"#utility.yul\":11213:11219   */\n      dup5\n        /* \"#utility.yul\":11210:11287   */\n      iszero\n      tag_223\n      jumpi\n        /* \"#utility.yul\":11262:11271   */\n      dup3\n        /* \"#utility.yul\":11257:11260   */\n      dup8\n        /* \"#utility.yul\":11253:11272   */\n      add\n        /* \"#utility.yul\":11247:11273   */\n      mload\n        /* \"#utility.yul\":11238:11273   */\n      swap1\n      pop\n        /* \"#utility.yul\":11210:11287   */\n    tag_223:\n        /* \"#utility.yul\":11313:11380   */\n      tag_224\n        /* \"#utility.yul\":11373:11379   */\n      dup6\n        /* \"#utility.yul\":11366:11371   */\n      dup3\n        /* \"#utility.yul\":11313:11380   */\n      tag_94\n      jump\t// in\n    tag_224:\n        /* \"#utility.yul\":11307:11311   */\n      dup7\n        /* \"#utility.yul\":11300:11381   */\n      sstore\n        /* \"#utility.yul\":11169:11391   */\n      pop\n        /* \"#utility.yul\":10504:11391   */\n      jump(tag_221)\n        /* \"#utility.yul\":10534:11152   */\n    tag_222:\n        /* \"#utility.yul\":10586:10590   */\n      0x1f\n        /* \"#utility.yul\":10582:10591   */\n      not\n        /* \"#utility.yul\":10574:10580   */\n      dup5\n        /* \"#utility.yul\":10570:10592   */\n      and\n        /* \"#utility.yul\":10620:10657   */\n      tag_225\n        /* \"#utility.yul\":10652:10656   */\n      dup7\n        /* \"#utility.yul\":10620:10657   */\n      tag_80\n      jump\t// in\n    tag_225:\n        /* \"#utility.yul\":10679:10680   */\n      0x00\n        /* \"#utility.yul\":10693:10901   */\n    tag_226:\n        /* \"#utility.yul\":10707:10714   */\n      dup3\n        /* \"#utility.yul\":10704:10705   */\n      dup2\n        /* \"#utility.yul\":10701:10715   */\n      lt\n        /* \"#utility.yul\":10693:10901   */\n      iszero\n      tag_228\n      jumpi\n        /* \"#utility.yul\":10786:10795   */\n      dup5\n        /* \"#utility.yul\":10781:10784   */\n      dup10\n        /* \"#utility.yul\":10777:10796   */\n      add\n        /* \"#utility.yul\":10771:10797   */\n      mload\n        /* \"#utility.yul\":10763:10769   */\n      dup3\n        /* \"#utility.yul\":10756:10798   */\n      sstore\n        /* \"#utility.yul\":10837:10838   */\n      0x01\n        /* \"#utility.yul\":10829:10835   */\n      dup3\n        /* \"#utility.yul\":10825:10839   */\n      add\n        /* \"#utility.yul\":10815:10839   */\n      swap2\n      pop\n        /* \"#utility.yul\":10884:10886   */\n      0x20\n        /* \"#utility.yul\":10873:10882   */\n      dup6\n        /* \"#utility.yul\":10869:10887   */\n      add\n        /* \"#utility.yul\":10856:10887   */\n      swap5\n      pop\n        /* \"#utility.yul\":10730:10734   */\n      0x20\n        /* \"#utility.yul\":10727:10728   */\n      dup2\n        /* \"#utility.yul\":10723:10735   */\n      add\n        /* \"#utility.yul\":10718:10735   */\n      swap1\n      pop\n        /* \"#utility.yul\":10693:10901   */\n      jump(tag_226)\n    tag_228:\n        /* \"#utility.yul\":10929:10935   */\n      dup7\n        /* \"#utility.yul\":10920:10927   */\n      dup4\n        /* \"#utility.yul\":10917:10936   */\n      lt\n        /* \"#utility.yul\":10914:11093   */\n      iszero\n      tag_229\n      jumpi\n        /* \"#utility.yul\":10987:10996   */\n      dup5\n        /* \"#utility.yul\":10982:10985   */\n      dup10\n        /* \"#utility.yul\":10978:10997   */\n      add\n        /* \"#utility.yul\":10972:10998   */\n      mload\n        /* \"#utility.yul\":11030:11078   */\n      tag_230\n        /* \"#utility.yul\":11072:11076   */\n      0x1f\n        /* \"#utility.yul\":11064:11070   */\n      dup10\n        /* \"#utility.yul\":11060:11077   */\n      and\n        /* \"#utility.yul\":11049:11058   */\n      dup3\n        /* \"#utility.yul\":11030:11078   */\n      tag_93\n      jump\t// in\n    tag_230:\n        /* \"#utility.yul\":11022:11028   */\n      dup4\n        /* \"#utility.yul\":11015:11079   */\n      sstore\n        /* \"#utility.yul\":10937:11093   */\n      pop\n        /* \"#utility.yul\":10914:11093   */\n    tag_229:\n        /* \"#utility.yul\":11139:11140   */\n      0x01\n        /* \"#utility.yul\":11135:11136   */\n      0x02\n        /* \"#utility.yul\":11127:11133   */\n      dup9\n        /* \"#utility.yul\":11123:11137   */\n      mul\n        /* \"#utility.yul\":11119:11141   */\n      add\n        /* \"#utility.yul\":11113:11117   */\n      dup9\n        /* \"#utility.yul\":11106:11142   */\n      sstore\n        /* \"#utility.yul\":10541:11152   */\n      pop\n      pop\n      pop\n        /* \"#utility.yul\":10504:11391   */\n    tag_221:\n      pop\n        /* \"#utility.yul\":10094:11397   */\n      pop\n      pop\n      pop\n        /* \"#utility.yul\":10002:11397   */\n      pop\n      pop\n      jump\t// out\n        /* \"#utility.yul\":11403:11551   */\n    tag_95:\n        /* \"#utility.yul\":11505:11516   */\n      0x00\n        /* \"#utility.yul\":11542:11545   */\n      dup2\n        /* \"#utility.yul\":11527:11545   */\n      swap1\n      pop\n        /* \"#utility.yul\":11403:11551   */\n      swap3\n      swap2\n      pop\n      pop\n      jump\t// out\n        /* \"#utility.yul\":11557:11947   */\n    tag_96:\n        /* \"#utility.yul\":11663:11666   */\n      0x00\n        /* \"#utility.yul\":11691:11730   */\n      tag_233\n        /* \"#utility.yul\":11724:11729   */\n      dup3\n        /* \"#utility.yul\":11691:11730   */\n      tag_73\n      jump\t// in\n    tag_233:\n        /* \"#utility.yul\":11746:11835   */\n      tag_234\n        /* \"#utility.yul\":11828:11834   */\n      dup2\n        /* \"#utility.yul\":11823:11826   */\n      dup6\n        /* \"#utility.yul\":11746:11835   */\n      tag_95\n      jump\t// in\n    tag_234:\n        /* \"#utility.yul\":11739:11835   */\n      swap4\n      pop\n        /* \"#utility.yul\":11844:11909   */\n      tag_235\n        /* \"#utility.yul\":11902:11908   */\n      dup2\n        /* \"#utility.yul\":11897:11900   */\n      dup6\n        /* \"#utility.yul\":11890:11894   */\n      0x20\n        /* \"#utility.yul\":11883:11888   */\n      dup7\n        /* \"#utility.yul\":11879:11895   */\n      add\n        /* \"#utility.yul\":11844:11909   */\n      tag_75\n      jump\t// in\n    tag_235:\n        /* \"#utility.yul\":11934:11940   */\n      dup1\n        /* \"#utility.yul\":11929:11932   */\n      dup5\n        /* \"#utility.yul\":11925:11941   */\n      add\n        /* \"#utility.yul\":11918:11941   */\n      swap2\n      pop\n        /* \"#utility.yul\":11667:11947   */\n      pop\n        /* \"#utility.yul\":11557:11947   */\n      swap3\n      swap2\n      pop\n      pop\n      jump\t// out\n        /* \"#utility.yul\":11953:12228   */\n    tag_47:\n        /* \"#utility.yul\":12085:12088   */\n      0x00\n        /* \"#utility.yul\":12107:12202   */\n      tag_237\n        /* \"#utility.yul\":12198:12201   */\n      dup3\n        /* \"#utility.yul\":12189:12195   */\n      dup5\n        /* \"#utility.yul\":12107:12202   */\n      tag_96\n      jump\t// in\n    tag_237:\n        /* \"#utility.yul\":12100:12202   */\n      swap2\n      pop\n        /* \"#utility.yul\":12219:12222   */\n      dup2\n        /* \"#utility.yul\":12212:12222   */\n      swap1\n      pop\n        /* \"#utility.yul\":11953:12228   */\n      swap3\n      swap2\n      pop\n      pop\n      jump\t// out\n\n    auxdata: 0xa2646970667358221220e9a5ab1506203a083d2530d92cbe4d592b1c847a080324b666d46ea6fa85119864736f6c63430008100033\n}\n",
				"bytecode": {
					"linkReferences": {},
					"object": "60806040527f73696d6f6e00000000000000000000000000000000000000000000000000000060025534801561003457600080fd5b506109dd806100446000396000f3fe608060405234801561001057600080fd5b506004361061007d5760003560e01c80636f760f411161005b5780636f760f41146100da5780638bab8dd5146100f65780639e7a13ad14610126578063d5aedd33146101575761007d565b80632e64cec114610082578063471f7cdf146100a05780636057361d146100be575b600080fd5b61008a610175565b6040516100979190610320565b60405180910390f35b6100a861017e565b6040516100b59190610320565b60405180910390f35b6100d860048036038101906100d3919061037b565b610184565b005b6100f460048036038101906100ef91906104ee565b61018e565b005b610110600480360381019061010b919061054a565b610217565b60405161011d9190610320565b60405180910390f35b610140600480360381019061013b919061037b565b610245565b60405161014e929190610612565b60405180910390f35b61015f610301565b60405161016c919061065b565b60405180910390f35b60008054905090565b60005481565b8060008190555050565b600360405180604001604052808381526020018481525090806001815401808255809150506001900390600052602060002090600202016000909190919091506000820151816000015560208201518160010190816101ed9190610882565b505050806004836040516102019190610990565b9081526020016040518091039020819055505050565b6004818051602081018201805184825260208301602085012081835280955050505050506000915090505481565b6003818154811061025557600080fd5b906000526020600020906002020160009150905080600001549080600101805461027e906106a5565b80601f01602080910402602001604051908101604052809291908181526020018280546102aa906106a5565b80156102f75780601f106102cc576101008083540402835291602001916102f7565b820191906000526020600020905b8154815290600101906020018083116102da57829003601f168201915b5050505050905082565b60025481565b6000819050919050565b61031a81610307565b82525050565b60006020820190506103356000830184610311565b92915050565b6000604051905090565b600080fd5b600080fd5b61035881610307565b811461036357600080fd5b50565b6000813590506103758161034f565b92915050565b60006020828403121561039157610390610345565b5b600061039f84828501610366565b91505092915050565b600080fd5b600080fd5b6000601f19601f8301169050919050565b7f4e487b7100000000000000000000000000000000000000000000000000000000600052604160045260246000fd5b6103fb826103b2565b810181811067ffffffffffffffff8211171561041a576104196103c3565b5b80604052505050565b600061042d61033b565b905061043982826103f2565b919050565b600067ffffffffffffffff821115610459576104586103c3565b5b610462826103b2565b9050602081019050919050565b82818337600083830152505050565b600061049161048c8461043e565b610423565b9050828152602081018484840111156104ad576104ac6103ad565b5b6104b884828561046f565b509392505050565b600082601f8301126104d5576104d46103a8565b5b81356104e584826020860161047e565b91505092915050565b6000806040838503121561050557610504610345565b5b600083013567ffffffffffffffff8111156105235761052261034a565b5b61052f858286016104c0565b925050602061054085828601610366565b9150509250929050565b6000602082840312156105605761055f610345565b5b600082013567ffffffffffffffff81111561057e5761057d61034a565b5b61058a848285016104c0565b91505092915050565b600081519050919050565b600082825260208201905092915050565b60005b838110156105cd5780820151818401526020810190506105b2565b60008484015250505050565b60006105e482610593565b6105ee818561059e565b93506105fe8185602086016105af565b610607816103b2565b840191505092915050565b60006040820190506106276000830185610311565b818103602083015261063981846105d9565b90509392505050565b6000819050919050565b61065581610642565b82525050565b6000602082019050610670600083018461064c565b92915050565b7f4e487b7100000000000000000000000000000000000000000000000000000000600052602260045260246000fd5b600060028204905060018216806106bd57607f821691505b6020821081036106d0576106cf610676565b5b50919050565b60008190508160005260206000209050919050565b60006020601f8301049050919050565b600082821b905092915050565b6000600883026107387fffffffffffffffffffffffffffffffffffffffffffffffffffffffffffffffff826106fb565b61074286836106fb565b95508019841693508086168417925050509392505050565b6000819050919050565b600061077f61077a61077584610307565b61075a565b610307565b9050919050565b6000819050919050565b61079983610764565b6107ad6107a582610786565b848454610708565b825550505050565b600090565b6107c26107b5565b6107cd818484610790565b505050565b5b818110156107f1576107e66000826107ba565b6001810190506107d3565b5050565b601f82111561083657610807816106d6565b610810846106eb565b8101602085101561081f578190505b61083361082b856106eb565b8301826107d2565b50505b505050565b600082821c905092915050565b60006108596000198460080261083b565b1980831691505092915050565b60006108728383610848565b9150826002028217905092915050565b61088b82610593565b67ffffffffffffffff8111156108a4576108a36103c3565b5b6108ae82546106a5565b6108b98282856107f5565b600060209050601f8311600181146108ec57600084156108da578287015190505b6108e48582610866565b86555061094c565b601f1984166108fa866106d6565b60005b82811015610922578489015182556001820191506020850194506020810190506108fd565b8683101561093f578489015161093b601f891682610848565b8355505b6001600288020188555050505b505050505050565b600081905092915050565b600061096a82610593565b6109748185610954565b93506109848185602086016105af565b80840191505092915050565b600061099c828461095f565b91508190509291505056fea2646970667358221220e9a5ab1506203a083d2530d92cbe4d592b1c847a080324b666d46ea6fa85119864736f6c63430008100033",
					"opcodes": "PUSH1 0x80 PUSH1 0x40 MSTORE PUSH32 0x73696D6F6E000000000000000000000000000000000000000000000000000000 PUSH1 0x2 SSTORE CALLVALUE DUP1 ISZERO PUSH2 0x34 JUMPI PUSH1 0x0 DUP1 REVERT JUMPDEST POP PUSH2 0x9DD DUP1 PUSH2 0x44 PUSH1 0x0 CODECOPY PUSH1 0x0 RETURN INVALID PUSH1 0x80 PUSH1 0x40 MSTORE CALLVALUE DUP1 ISZERO PUSH2 0x10 JUMPI PUSH1 0x0 DUP1 REVERT JUMPDEST POP PUSH1 0x4 CALLDATASIZE LT PUSH2 0x7D JUMPI PUSH1 0x0 CALLDATALOAD PUSH1 0xE0 SHR DUP1 PUSH4 0x6F760F41 GT PUSH2 0x5B JUMPI DUP1 PUSH4 0x6F760F41 EQ PUSH2 0xDA JUMPI DUP1 PUSH4 0x8BAB8DD5 EQ PUSH2 0xF6 JUMPI DUP1 PUSH4 0x9E7A13AD EQ PUSH2 0x126 JUMPI DUP1 PUSH4 0xD5AEDD33 EQ PUSH2 0x157 JUMPI PUSH2 0x7D JUMP JUMPDEST DUP1 PUSH4 0x2E64CEC1 EQ PUSH2 0x82 JUMPI DUP1 PUSH4 0x471F7CDF EQ PUSH2 0xA0 JUMPI DUP1 PUSH4 0x6057361D EQ PUSH2 0xBE JUMPI JUMPDEST PUSH1 0x0 DUP1 REVERT JUMPDEST PUSH2 0x8A PUSH2 0x175 JUMP JUMPDEST PUSH1 0x40 MLOAD PUSH2 0x97 SWAP2 SWAP1 PUSH2 0x320 JUMP JUMPDEST PUSH1 0x40 MLOAD DUP1 SWAP2 SUB SWAP1 RETURN JUMPDEST PUSH2 0xA8 PUSH2 0x17E JUMP JUMPDEST PUSH1 0x40 MLOAD PUSH2 0xB5 SWAP2 SWAP1 PUSH2 0x320 JUMP JUMPDEST PUSH1 0x40 MLOAD DUP1 SWAP2 SUB SWAP1 RETURN JUMPDEST PUSH2 0xD8 PUSH1 0x4 DUP1 CALLDATASIZE SUB DUP2 ADD SWAP1 PUSH2 0xD3 SWAP2 SWAP1 PUSH2 0x37B JUMP JUMPDEST PUSH2 0x184 JUMP JUMPDEST STOP JUMPDEST PUSH2 0xF4 PUSH1 0x4 DUP1 CALLDATASIZE SUB DUP2 ADD SWAP1 PUSH2 0xEF SWAP2 SWAP1 PUSH2 0x4EE JUMP JUMPDEST PUSH2 0x18E JUMP JUMPDEST STOP JUMPDEST PUSH2 0x110 PUSH1 0x4 DUP1 CALLDATASIZE SUB DUP2 ADD SWAP1 PUSH2 0x10B SWAP2 SWAP1 PUSH2 0x54A JUMP JUMPDEST PUSH2 0x217 JUMP JUMPDEST PUSH1 0x40 MLOAD PUSH2 0x11D SWAP2 SWAP1 PUSH2 0x320 JUMP JUMPDEST PUSH1 0x40 MLOAD DUP1 SWAP2 SUB SWAP1 RETURN JUMPDEST PUSH2 0x140 PUSH1 0x4 DUP1 CALLDATASIZE SUB DUP2 ADD SWAP1 PUSH2 0x13B SWAP2 SWAP1 PUSH2 0x37B JUMP JUMPDEST PUSH2 0x245 JUMP JUMPDEST PUSH1 0x40 MLOAD PUSH2 0x14E SWAP3 SWAP2 SWAP1 PUSH2 0x612 JUMP JUMPDEST PUSH1 0x40 MLOAD DUP1 SWAP2 SUB SWAP1 RETURN JUMPDEST PUSH2 0x15F PUSH2 0x301 JUMP JUMPDEST PUSH1 0x40 MLOAD PUSH2 0x16C SWAP2 SWAP1 PUSH2 0x65B JUMP JUMPDEST PUSH1 0x40 MLOAD DUP1 SWAP2 SUB SWAP1 RETURN JUMPDEST PUSH1 0x0 DUP1 SLOAD SWAP1 POP SWAP1 JUMP JUMPDEST PUSH1 0x0 SLOAD DUP2 JUMP JUMPDEST DUP1 PUSH1 0x0 DUP2 SWAP1 SSTORE POP POP JUMP JUMPDEST PUSH1 0x3 PUSH1 0x40 MLOAD DUP1 PUSH1 0x40 ADD PUSH1 0x40 MSTORE DUP1 DUP4 DUP2 MSTORE PUSH1 0x20 ADD DUP5 DUP2 MSTORE POP SWAP1 DUP1 PUSH1 0x1 DUP2 SLOAD ADD DUP1 DUP3 SSTORE DUP1 SWAP2 POP POP PUSH1 0x1 SWAP1 SUB SWAP1 PUSH1 0x0 MSTORE PUSH1 0x20 PUSH1 0x0 KECCAK256 SWAP1 PUSH1 0x2 MUL ADD PUSH1 0x0 SWAP1 SWAP2 SWAP1 SWAP2 SWAP1 SWAP2 POP PUSH1 0x0 DUP3 ADD MLOAD DUP2 PUSH1 0x0 ADD SSTORE PUSH1 0x20 DUP3 ADD MLOAD DUP2 PUSH1 0x1 ADD SWAP1 DUP2 PUSH2 0x1ED SWAP2 SWAP1 PUSH2 0x882 JUMP JUMPDEST POP POP POP DUP1 PUSH1 0x4 DUP4 PUSH1 0x40 MLOAD PUSH2 0x201 SWAP2 SWAP1 PUSH2 0x990 JUMP JUMPDEST SWAP1 DUP2 MSTORE PUSH1 0x20 ADD PUSH1 0x40 MLOAD DUP1 SWAP2 SUB SWAP1 KECCAK256 DUP2 SWAP1 SSTORE POP POP POP JUMP JUMPDEST PUSH1 0x4 DUP2 DUP1 MLOAD PUSH1 0x20 DUP2 ADD DUP3 ADD DUP1 MLOAD DUP5 DUP3 MSTORE PUSH1 0x20 DUP4 ADD PUSH1 0x20 DUP6 ADD KECCAK256 DUP2 DUP4 MSTORE DUP1 SWAP6 POP POP POP POP POP POP PUSH1 0x0 SWAP2 POP SWAP1 POP SLOAD DUP2 JUMP JUMPDEST PUSH1 0x3 DUP2 DUP2 SLOAD DUP2 LT PUSH2 0x255 JUMPI PUSH1 0x0 DUP1 REVERT JUMPDEST SWAP1 PUSH1 0x0 MSTORE PUSH1 0x20 PUSH1 0x0 KECCAK256 SWAP1 PUSH1 0x2 MUL ADD PUSH1 0x0 SWAP2 POP SWAP1 POP DUP1 PUSH1 0x0 ADD SLOAD SWAP1 DUP1 PUSH1 0x1 ADD DUP1 SLOAD PUSH2 0x27E SWAP1 PUSH2 0x6A5 JUMP JUMPDEST DUP1 PUSH1 0x1F ADD PUSH1 0x20 DUP1 SWAP2 DIV MUL PUSH1 0x20 ADD PUSH1 0x40 MLOAD SWAP1 DUP2 ADD PUSH1 0x40 MSTORE DUP1 SWAP3 SWAP2 SWAP1 DUP2 DUP2 MSTORE PUSH1 0x20 ADD DUP3 DUP1 SLOAD PUSH2 0x2AA SWAP1 PUSH2 0x6A5 JUMP JUMPDEST DUP1 ISZERO PUSH2 0x2F7 JUMPI DUP1 PUSH1 0x1F LT PUSH2 0x2CC JUMPI PUSH2 0x100 DUP1 DUP4 SLOAD DIV MUL DUP4 MSTORE SWAP2 PUSH1 0x20 ADD SWAP2 PUSH2 0x2F7 JUMP JUMPDEST DUP3 ADD SWAP2 SWAP1 PUSH1 0x0 MSTORE PUSH1 0x20 PUSH1 0x0 KECCAK256 SWAP1 JUMPDEST DUP2 SLOAD DUP2 MSTORE SWAP1 PUSH1 0x1 ADD SWAP1 PUSH1 0x20 ADD DUP1 DUP4 GT PUSH2 0x2DA JUMPI DUP3 SWAP1 SUB PUSH1 0x1F AND DUP3 ADD SWAP2 JUMPDEST POP POP POP POP POP SWAP1 POP DUP3 JUMP JUMPDEST PUSH1 0x2 SLOAD DUP2 JUMP JUMPDEST PUSH1 0x0 DUP2 SWAP1 POP SWAP2 SWAP1 POP JUMP JUMPDEST PUSH2 0x31A DUP2 PUSH2 0x307 JUMP JUMPDEST DUP3 MSTORE POP POP JUMP JUMPDEST PUSH1 0x0 PUSH1 0x20 DUP3 ADD SWAP1 POP PUSH2 0x335 PUSH1 0x0 DUP4 ADD DUP5 PUSH2 0x311 JUMP JUMPDEST SWAP3 SWAP2 POP POP JUMP JUMPDEST PUSH1 0x0 PUSH1 0x40 MLOAD SWAP1 POP SWAP1 JUMP JUMPDEST PUSH1 0x0 DUP1 REVERT JUMPDEST PUSH1 0x0 DUP1 REVERT JUMPDEST PUSH2 0x358 DUP2 PUSH2 0x307 JUMP JUMPDEST DUP2 EQ PUSH2 0x363 JUMPI PUSH1 0x0 DUP1 REVERT JUMPDEST POP JUMP JUMPDEST PUSH1 0x0 DUP2 CALLDATALOAD SWAP1 POP PUSH2 0x375 DUP2 PUSH2 0x34F JUMP JUMPDEST SWAP3 SWAP2 POP POP JUMP JUMPDEST PUSH1 0x0 PUSH1 0x20 DUP3 DUP5 SUB SLT ISZERO PUSH2 0x391 JUMPI PUSH2 0x390 PUSH2 0x345 JUMP JUMPDEST JUMPDEST PUSH1 0x0 PUSH2 0x39F DUP5 DUP3 DUP6 ADD PUSH2 0x366 JUMP JUMPDEST SWAP2 POP POP SWAP3 SWAP2 POP POP JUMP JUMPDEST PUSH1 0x0 DUP1 REVERT JUMPDEST PUSH1 0x0 DUP1 REVERT JUMPDEST PUSH1 0x0 PUSH1 0x1F NOT PUSH1 0x1F DUP4 ADD AND SWAP1 POP SWAP2 SWAP1 POP JUMP JUMPDEST PUSH32 0x4E487B7100000000000000000000000000000000000000000000000000000000 PUSH1 0x0 MSTORE PUSH1 0x41 PUSH1 0x4 MSTORE PUSH1 0x24 PUSH1 0x0 REVERT JUMPDEST PUSH2 0x3FB DUP3 PUSH2 0x3B2 JUMP JUMPDEST DUP2 ADD DUP2 DUP2 LT PUSH8 0xFFFFFFFFFFFFFFFF DUP3 GT OR ISZERO PUSH2 0x41A JUMPI PUSH2 0x419 PUSH2 0x3C3 JUMP JUMPDEST JUMPDEST DUP1 PUSH1 0x40 MSTORE POP POP POP JUMP JUMPDEST PUSH1 0x0 PUSH2 0x42D PUSH2 0x33B JUMP JUMPDEST SWAP1 POP PUSH2 0x439 DUP3 DUP3 PUSH2 0x3F2 JUMP JUMPDEST SWAP2 SWAP1 POP JUMP JUMPDEST PUSH1 0x0 PUSH8 0xFFFFFFFFFFFFFFFF DUP3 GT ISZERO PUSH2 0x459 JUMPI PUSH2 0x458 PUSH2 0x3C3 JUMP JUMPDEST JUMPDEST PUSH2 0x462 DUP3 PUSH2 0x3B2 JUMP JUMPDEST SWAP1 POP PUSH1 0x20 DUP2 ADD SWAP1 POP SWAP2 SWAP1 POP JUMP JUMPDEST DUP3 DUP2 DUP4 CALLDATACOPY PUSH1 0x0 DUP4 DUP4 ADD MSTORE POP POP POP JUMP JUMPDEST PUSH1 0x0 PUSH2 0x491 PUSH2 0x48C DUP5 PUSH2 0x43E JUMP JUMPDEST PUSH2 0x423 JUMP JUMPDEST SWAP1 POP DUP3 DUP2 MSTORE PUSH1 0x20 DUP2 ADD DUP5 DUP5 DUP5 ADD GT ISZERO PUSH2 0x4AD JUMPI PUSH2 0x4AC PUSH2 0x3AD JUMP JUMPDEST JUMPDEST PUSH2 0x4B8 DUP5 DUP3 DUP6 PUSH2 0x46F JUMP JUMPDEST POP SWAP4 SWAP3 POP POP POP JUMP JUMPDEST PUSH1 0x0 DUP3 PUSH1 0x1F DUP4 ADD SLT PUSH2 0x4D5 JUMPI PUSH2 0x4D4 PUSH2 0x3A8 JUMP JUMPDEST JUMPDEST DUP2 CALLDATALOAD PUSH2 0x4E5 DUP5 DUP3 PUSH1 0x20 DUP7 ADD PUSH2 0x47E JUMP JUMPDEST SWAP2 POP POP SWAP3 SWAP2 POP POP JUMP JUMPDEST PUSH1 0x0 DUP1 PUSH1 0x40 DUP4 DUP6 SUB SLT ISZERO PUSH2 0x505 JUMPI PUSH2 0x504 PUSH2 0x345 JUMP JUMPDEST JUMPDEST PUSH1 0x0 DUP4 ADD CALLDATALOAD PUSH8 0xFFFFFFFFFFFFFFFF DUP2 GT ISZERO PUSH2 0x523 JUMPI PUSH2 0x522 PUSH2 0x34A JUMP JUMPDEST JUMPDEST PUSH2 0x52F DUP6 DUP3 DUP7 ADD PUSH2 0x4C0 JUMP JUMPDEST SWAP3 POP POP PUSH1 0x20 PUSH2 0x540 DUP6 DUP3 DUP7 ADD PUSH2 0x366 JUMP JUMPDEST SWAP2 POP POP SWAP3 POP SWAP3 SWAP1 POP JUMP JUMPDEST PUSH1 0x0 PUSH1 0x20 DUP3 DUP5 SUB SLT ISZERO PUSH2 0x560 JUMPI PUSH2 0x55F PUSH2 0x345 JUMP JUMPDEST JUMPDEST PUSH1 0x0 DUP3 ADD CALLDATALOAD PUSH8 0xFFFFFFFFFFFFFFFF DUP2 GT ISZERO PUSH2 0x57E JUMPI PUSH2 0x57D PUSH2 0x34A JUMP JUMPDEST JUMPDEST PUSH2 0x58A DUP5 DUP3 DUP6 ADD PUSH2 0x4C0 JUMP JUMPDEST SWAP2 POP POP SWAP3 SWAP2 POP POP JUMP JUMPDEST PUSH1 0x0 DUP2 MLOAD SWAP1 POP SWAP2 SWAP1 POP JUMP JUMPDEST PUSH1 0x0 DUP3 DUP3 MSTORE PUSH1 0x20 DUP3 ADD SWAP1 POP SWAP3 SWAP2 POP POP JUMP JUMPDEST PUSH1 0x0 JUMPDEST DUP4 DUP2 LT ISZERO PUSH2 0x5CD JUMPI DUP1 DUP3 ADD MLOAD DUP2 DUP5 ADD MSTORE PUSH1 0x20 DUP2 ADD SWAP1 POP PUSH2 0x5B2 JUMP JUMPDEST PUSH1 0x0 DUP5 DUP5 ADD MSTORE POP POP POP POP JUMP JUMPDEST PUSH1 0x0 PUSH2 0x5E4 DUP3 PUSH2 0x593 JUMP JUMPDEST PUSH2 0x5EE DUP2 DUP6 PUSH2 0x59E JUMP JUMPDEST SWAP4 POP PUSH2 0x5FE DUP2 DUP6 PUSH1 0x20 DUP7 ADD PUSH2 0x5AF JUMP JUMPDEST PUSH2 0x607 DUP2 PUSH2 0x3B2 JUMP JUMPDEST DUP5 ADD SWAP2 POP POP SWAP3 SWAP2 POP POP JUMP JUMPDEST PUSH1 0x0 PUSH1 0x40 DUP3 ADD SWAP1 POP PUSH2 0x627 PUSH1 0x0 DUP4 ADD DUP6 PUSH2 0x311 JUMP JUMPDEST DUP2 DUP2 SUB PUSH1 0x20 DUP4 ADD MSTORE PUSH2 0x639 DUP2 DUP5 PUSH2 0x5D9 JUMP JUMPDEST SWAP1 POP SWAP4 SWAP3 POP POP POP JUMP JUMPDEST PUSH1 0x0 DUP2 SWAP1 POP SWAP2 SWAP1 POP JUMP JUMPDEST PUSH2 0x655 DUP2 PUSH2 0x642 JUMP JUMPDEST DUP3 MSTORE POP POP JUMP JUMPDEST PUSH1 0x0 PUSH1 0x20 DUP3 ADD SWAP1 POP PUSH2 0x670 PUSH1 0x0 DUP4 ADD DUP5 PUSH2 0x64C JUMP JUMPDEST SWAP3 SWAP2 POP POP JUMP JUMPDEST PUSH32 0x4E487B7100000000000000000000000000000000000000000000000000000000 PUSH1 0x0 MSTORE PUSH1 0x22 PUSH1 0x4 MSTORE PUSH1 0x24 PUSH1 0x0 REVERT JUMPDEST PUSH1 0x0 PUSH1 0x2 DUP3 DIV SWAP1 POP PUSH1 0x1 DUP3 AND DUP1 PUSH2 0x6BD JUMPI PUSH1 0x7F DUP3 AND SWAP2 POP JUMPDEST PUSH1 0x20 DUP3 LT DUP2 SUB PUSH2 0x6D0 JUMPI PUSH2 0x6CF PUSH2 0x676 JUMP JUMPDEST JUMPDEST POP SWAP2 SWAP1 POP JUMP JUMPDEST PUSH1 0x0 DUP2 SWAP1 POP DUP2 PUSH1 0x0 MSTORE PUSH1 0x20 PUSH1 0x0 KECCAK256 SWAP1 POP SWAP2 SWAP1 POP JUMP JUMPDEST PUSH1 0x0 PUSH1 0x20 PUSH1 0x1F DUP4 ADD DIV SWAP1 POP SWAP2 SWAP1 POP JUMP JUMPDEST PUSH1 0x0 DUP3 DUP3 SHL SWAP1 POP SWAP3 SWAP2 POP POP JUMP JUMPDEST PUSH1 0x0 PUSH1 0x8 DUP4 MUL PUSH2 0x738 PUSH32 0xFFFFFFFFFFFFFFFFFFFFFFFFFFFFFFFFFFFFFFFFFFFFFFFFFFFFFFFFFFFFFFFF DUP3 PUSH2 0x6FB JUMP JUMPDEST PUSH2 0x742 DUP7 DUP4 PUSH2 0x6FB JUMP JUMPDEST SWAP6 POP DUP1 NOT DUP5 AND SWAP4 POP DUP1 DUP7 AND DUP5 OR SWAP3 POP POP POP SWAP4 SWAP3 POP POP POP JUMP JUMPDEST PUSH1 0x0 DUP2 SWAP1 POP SWAP2 SWAP1 POP JUMP JUMPDEST PUSH1 0x0 PUSH2 0x77F PUSH2 0x77A PUSH2 0x775 DUP5 PUSH2 0x307 JUMP JUMPDEST PUSH2 0x75A JUMP JUMPDEST PUSH2 0x307 JUMP JUMPDEST SWAP1 POP SWAP2 SWAP1 POP JUMP JUMPDEST PUSH1 0x0 DUP2 SWAP1 POP SWAP2 SWAP1 POP JUMP JUMPDEST PUSH2 0x799 DUP4 PUSH2 0x764 JUMP JUMPDEST PUSH2 0x7AD PUSH2 0x7A5 DUP3 PUSH2 0x786 JUMP JUMPDEST DUP5 DUP5 SLOAD PUSH2 0x708 JUMP JUMPDEST DUP3 SSTORE POP POP POP POP JUMP JUMPDEST PUSH1 0x0 SWAP1 JUMP JUMPDEST PUSH2 0x7C2 PUSH2 0x7B5 JUMP JUMPDEST PUSH2 0x7CD DUP2 DUP5 DUP5 PUSH2 0x790 JUMP JUMPDEST POP POP POP JUMP JUMPDEST JUMPDEST DUP2 DUP2 LT ISZERO PUSH2 0x7F1 JUMPI PUSH2 0x7E6 PUSH1 0x0 DUP3 PUSH2 0x7BA JUMP JUMPDEST PUSH1 0x1 DUP2 ADD SWAP1 POP PUSH2 0x7D3 JUMP JUMPDEST POP POP JUMP JUMPDEST PUSH1 0x1F DUP3 GT ISZERO PUSH2 0x836 JUMPI PUSH2 0x807 DUP2 PUSH2 0x6D6 JUMP JUMPDEST PUSH2 0x810 DUP5 PUSH2 0x6EB JUMP JUMPDEST DUP2 ADD PUSH1 0x20 DUP6 LT ISZERO PUSH2 0x81F JUMPI DUP2 SWAP1 POP JUMPDEST PUSH2 0x833 PUSH2 0x82B DUP6 PUSH2 0x6EB JUMP JUMPDEST DUP4 ADD DUP3 PUSH2 0x7D2 JUMP JUMPDEST POP POP JUMPDEST POP POP POP JUMP JUMPDEST PUSH1 0x0 DUP3 DUP3 SHR SWAP1 POP SWAP3 SWAP2 POP POP JUMP JUMPDEST PUSH1 0x0 PUSH2 0x859 PUSH1 0x0 NOT DUP5 PUSH1 0x8 MUL PUSH2 0x83B JUMP JUMPDEST NOT DUP1 DUP4 AND SWAP2 POP POP SWAP3 SWAP2 POP POP JUMP JUMPDEST PUSH1 0x0 PUSH2 0x872 DUP4 DUP4 PUSH2 0x848 JUMP JUMPDEST SWAP2 POP DUP3 PUSH1 0x2 MUL DUP3 OR SWAP1 POP SWAP3 SWAP2 POP POP JUMP JUMPDEST PUSH2 0x88B DUP3 PUSH2 0x593 JUMP JUMPDEST PUSH8 0xFFFFFFFFFFFFFFFF DUP2 GT ISZERO PUSH2 0x8A4 JUMPI PUSH2 0x8A3 PUSH2 0x3C3 JUMP JUMPDEST JUMPDEST PUSH2 0x8AE DUP3 SLOAD PUSH2 0x6A5 JUMP JUMPDEST PUSH2 0x8B9 DUP3 DUP3 DUP6 PUSH2 0x7F5 JUMP JUMPDEST PUSH1 0x0 PUSH1 0x20 SWAP1 POP PUSH1 0x1F DUP4 GT PUSH1 0x1 DUP2 EQ PUSH2 0x8EC JUMPI PUSH1 0x0 DUP5 ISZERO PUSH2 0x8DA JUMPI DUP3 DUP8 ADD MLOAD SWAP1 POP JUMPDEST PUSH2 0x8E4 DUP6 DUP3 PUSH2 0x866 JUMP JUMPDEST DUP7 SSTORE POP PUSH2 0x94C JUMP JUMPDEST PUSH1 0x1F NOT DUP5 AND PUSH2 0x8FA DUP7 PUSH2 0x6D6 JUMP JUMPDEST PUSH1 0x0 JUMPDEST DUP3 DUP2 LT ISZERO PUSH2 0x922 JUMPI DUP5 DUP10 ADD MLOAD DUP3 SSTORE PUSH1 0x1 DUP3 ADD SWAP2 POP PUSH1 0x20 DUP6 ADD SWAP5 POP PUSH1 0x20 DUP2 ADD SWAP1 POP PUSH2 0x8FD JUMP JUMPDEST DUP7 DUP4 LT ISZERO PUSH2 0x93F JUMPI DUP5 DUP10 ADD MLOAD PUSH2 0x93B PUSH1 0x1F DUP10 AND DUP3 PUSH2 0x848 JUMP JUMPDEST DUP4 SSTORE POP JUMPDEST PUSH1 0x1 PUSH1 0x2 DUP9 MUL ADD DUP9 SSTORE POP POP POP JUMPDEST POP POP POP POP POP POP JUMP JUMPDEST PUSH1 0x0 DUP2 SWAP1 POP SWAP3 SWAP2 POP POP JUMP JUMPDEST PUSH1 0x0 PUSH2 0x96A DUP3 PUSH2 0x593 JUMP JUMPDEST PUSH2 0x974 DUP2 DUP6 PUSH2 0x954 JUMP JUMPDEST SWAP4 POP PUSH2 0x984 DUP2 DUP6 PUSH1 0x20 DUP7 ADD PUSH2 0x5AF JUMP JUMPDEST DUP1 DUP5 ADD SWAP2 POP POP SWAP3 SWAP2 POP POP JUMP JUMPDEST PUSH1 0x0 PUSH2 0x99C DUP3 DUP5 PUSH2 0x95F JUMP JUMPDEST SWAP2 POP DUP2 SWAP1 POP SWAP3 SWAP2 POP POP JUMP INVALID LOG2 PUSH5 0x6970667358 0x22 SLT KECCAK256 0xE9 0xA5 0xAB ISZERO MOD KECCAK256 GASPRICE ADDMOD RETURNDATASIZE 0x25 ADDRESS 0xD9 0x2C 0xBE 0x4D MSIZE 0x2B SHR DUP5 PUSH27 0x80324B666D46EA6FA85119864736F6C6343000810003300000000 "
				},
				"gasEstimates": {
					"creation": {
						"codeDepositCost": "505000",
						"executionCost": "22643",
						"totalCost": "527643"
					},
					"external": {
						"addPerson(string,uint256)": "infinite",
						"favoriteNumber()": "2452",
						"nameToFavoriteNumber(string)": "infinite",
						"people(uint256)": "infinite",
						"retrieve()": "2438",
						"store(uint256)": "22565",
						"testBytes()": "2495"
					}
				},
				"methodIdentifiers": {
					"addPerson(string,uint256)": "6f760f41",
					"favoriteNumber()": "471f7cdf",
					"nameToFavoriteNumber(string)": "8bab8dd5",
					"people(uint256)": "9e7a13ad",
					"retrieve()": "2e64cec1",
					"store(uint256)": "6057361d",
					"testBytes()": "d5aedd33"
				}
			},
			"storageLayout": {
				"storage": [
					{
						"astId": 3,
						"contract": "test.sol:SimpleStorage",
						"label": "favoriteNumber",
						"offset": 0,
						"slot": "0",
						"type": "t_uint256"
					},
					{
						"astId": 5,
						"contract": "test.sol:SimpleStorage",
						"label": "hasFavoriteNumber",
						"offset": 0,
						"slot": "1",
						"type": "t_bool"
					},
					{
						"astId": 8,
						"contract": "test.sol:SimpleStorage",
						"label": "testBytes",
						"offset": 0,
						"slot": "2",
						"type": "t_bytes32"
					},
					{
						"astId": 17,
						"contract": "test.sol:SimpleStorage",
						"label": "people",
						"offset": 0,
						"slot": "3",
						"type": "t_array(t_struct(People)13_storage)dyn_storage"
					},
					{
						"astId": 21,
						"contract": "test.sol:SimpleStorage",
						"label": "nameToFavoriteNumber",
						"offset": 0,
						"slot": "4",
						"type": "t_mapping(t_string_memory_ptr,t_uint256)"
					}
				],
				"types": {
					"t_array(t_struct(People)13_storage)dyn_storage": {
						"base": "t_struct(People)13_storage",
						"encoding": "dynamic_array",
						"label": "struct SimpleStorage.People[]",
						"numberOfBytes": "32"
					},
					"t_bool": {
						"encoding": "inplace",
						"label": "bool",
						"numberOfBytes": "1"
					},
					"t_bytes32": {
						"encoding": "inplace",
						"label": "bytes32",
						"numberOfBytes": "32"
					},
					"t_mapping(t_string_memory_ptr,t_uint256)": {
						"encoding": "mapping",
						"key": "t_string_memory_ptr",
						"label": "mapping(string => uint256)",
						"numberOfBytes": "32",
						"value": "t_uint256"
					},
					"t_string_memory_ptr": {
						"encoding": "bytes",
						"label": "string",
						"numberOfBytes": "32"
					},
					"t_string_storage": {
						"encoding": "bytes",
						"label": "string",
						"numberOfBytes": "32"
					},
					"t_struct(People)13_storage": {
						"encoding": "inplace",
						"label": "struct SimpleStorage.People",
						"members": [
							{
								"astId": 10,
								"contract": "test.sol:SimpleStorage",
								"label": "favoriteNumber",
								"offset": 0,
								"slot": "0",
								"type": "t_uint256"
							},
							{
								"astId": 12,
								"contract": "test.sol:SimpleStorage",
								"label": "name",
								"offset": 0,
								"slot": "1",
								"type": "t_string_storage"
							}
						],
						"numberOfBytes": "64"
					},
					"t_uint256": {
						"encoding": "inplace",
						"label": "uint256",
						"numberOfBytes": "32"
					}
				}
			},
			"userdoc": {
				"kind": "user",
				"methods": {},
				"version": 1
			}
		}
	}
}