{
	"Contracts/Gas.sol": {
		"GasSaving": {
			"abi": [
				{
					"inputs": [
						{
							"internalType": "uint256[]",
							"name": "nums",
							"type": "uint256[]"
						}
					],
					"name": "sumIfEvenAndLessThan99",
					"outputs": [],
					"stateMutability": "nonpayable",
					"type": "function"
				},
				{
					"inputs": [],
					"name": "total",
					"outputs": [
						{
							"internalType": "uint256",
							"name": "",
							"type": "uint256"
						}
					],
					"stateMutability": "view",
					"type": "function"
				}
			],
			"devdoc": {
				"kind": "dev",
				"methods": {},
				"version": 1
			},
			"evm": {
				"assembly": "    /* \"Contracts/Gas.sol\":101:1466  contract GasSaving {... */\n  mstore(0x40, 0x80)\n  callvalue\n  dup1\n  iszero\n  tag_1\n  jumpi\n  0x00\n  dup1\n  revert\ntag_1:\n  pop\n  dataSize(sub_0)\n  dup1\n  dataOffset(sub_0)\n  0x00\n  codecopy\n  0x00\n  return\nstop\n\nsub_0: assembly {\n        /* \"Contracts/Gas.sol\":101:1466  contract GasSaving {... */\n      mstore(0x40, 0x80)\n      callvalue\n      dup1\n      iszero\n      tag_1\n      jumpi\n      0x00\n      dup1\n      revert\n    tag_1:\n      pop\n      jumpi(tag_2, lt(calldatasize, 0x04))\n      shr(0xe0, calldataload(0x00))\n      dup1\n      0x2ddbd13a\n      eq\n      tag_3\n      jumpi\n      dup1\n      0xc9762ec2\n      eq\n      tag_4\n      jumpi\n    tag_2:\n      0x00\n      dup1\n      revert\n        /* \"Contracts/Gas.sol\":485:502  uint public total */\n    tag_3:\n      tag_5\n      tag_6\n      jump\t// in\n    tag_5:\n      mload(0x40)\n      tag_7\n      swap2\n      swap1\n      tag_8\n      jump\t// in\n    tag_7:\n      mload(0x40)\n      dup1\n      swap2\n      sub\n      swap1\n      return\n        /* \"Contracts/Gas.sol\":533:1464  function sumIfEvenAndLessThan99(uint[] memory nums ) external {... */\n    tag_4:\n      tag_9\n      0x04\n      dup1\n      calldatasize\n      sub\n      dup2\n      add\n      swap1\n      tag_10\n      swap2\n      swap1\n      tag_11\n      jump\t// in\n    tag_10:\n      tag_12\n      jump\t// in\n    tag_9:\n      stop\n        /* \"Contracts/Gas.sol\":485:502  uint public total */\n    tag_6:\n      sload(0x00)\n      dup2\n      jump\t// out\n        /* \"Contracts/Gas.sol\":533:1464  function sumIfEvenAndLessThan99(uint[] memory nums ) external {... */\n    tag_12:\n        /* \"Contracts/Gas.sol\":601:612  uint _total */\n      0x00\n        /* \"Contracts/Gas.sol\":615:620  total */\n      dup1\n      sload\n        /* \"Contracts/Gas.sol\":601:620  uint _total = total */\n      swap1\n      pop\n        /* \"Contracts/Gas.sol\":816:827  uint length */\n      0x00\n        /* \"Contracts/Gas.sol\":830:834  nums */\n      dup3\n        /* \"Contracts/Gas.sol\":830:841  nums.length */\n      mload\n        /* \"Contracts/Gas.sol\":816:841  uint length = nums.length */\n      swap1\n      pop\n        /* \"Contracts/Gas.sol\":852:858  uint i */\n      0x00\n        /* \"Contracts/Gas.sol\":847:1440  for (uint i = 0; i < length ; ++ i) {... */\n    tag_14:\n        /* \"Contracts/Gas.sol\":868:874  length */\n      dup2\n        /* \"Contracts/Gas.sol\":864:865  i */\n      dup2\n        /* \"Contracts/Gas.sol\":864:874  i < length */\n      lt\n        /* \"Contracts/Gas.sol\":847:1440  for (uint i = 0; i < length ; ++ i) {... */\n      iszero\n      tag_15\n      jumpi\n        /* \"Contracts/Gas.sol\":1057:1065  uint num */\n      0x00\n        /* \"Contracts/Gas.sol\":1068:1072  nums */\n      dup5\n        /* \"Contracts/Gas.sol\":1073:1074  i */\n      dup3\n        /* \"Contracts/Gas.sol\":1068:1075  nums[i] */\n      dup2\n      mload\n      dup2\n      lt\n      tag_17\n      jumpi\n      tag_18\n      tag_19\n      jump\t// in\n    tag_18:\n    tag_17:\n      0x20\n      mul\n      0x20\n      add\n      add\n      mload\n        /* \"Contracts/Gas.sol\":1057:1075  uint num = nums[i] */\n      swap1\n      pop\n        /* \"Contracts/Gas.sol\":883:1440  {... */\n      pop\n        /* \"Contracts/Gas.sol\":877:881  ++ i */\n      dup1\n      tag_20\n      swap1\n      tag_21\n      jump\t// in\n    tag_20:\n      swap1\n      pop\n        /* \"Contracts/Gas.sol\":847:1440  for (uint i = 0; i < length ; ++ i) {... */\n      jump(tag_14)\n    tag_15:\n      pop\n        /* \"Contracts/Gas.sol\":1453:1459  _total */\n      dup2\n        /* \"Contracts/Gas.sol\":1445:1450  total */\n      0x00\n        /* \"Contracts/Gas.sol\":1445:1459  total = _total */\n      dup2\n      swap1\n      sstore\n      pop\n        /* \"Contracts/Gas.sol\":595:1464  {... */\n      pop\n      pop\n        /* \"Contracts/Gas.sol\":533:1464  function sumIfEvenAndLessThan99(uint[] memory nums ) external {... */\n      pop\n      jump\t// out\n        /* \"#utility.yul\":24:746   */\n    tag_23:\n        /* \"#utility.yul\":120:125   */\n      0x00\n        /* \"#utility.yul\":145:226   */\n      tag_25\n        /* \"#utility.yul\":161:225   */\n      tag_26\n        /* \"#utility.yul\":218:224   */\n      dup5\n        /* \"#utility.yul\":161:225   */\n      tag_27\n      jump\t// in\n    tag_26:\n        /* \"#utility.yul\":145:226   */\n      tag_28\n      jump\t// in\n    tag_25:\n        /* \"#utility.yul\":136:226   */\n      swap1\n      pop\n        /* \"#utility.yul\":246:251   */\n      dup1\n        /* \"#utility.yul\":275:281   */\n      dup4\n        /* \"#utility.yul\":268:273   */\n      dup3\n        /* \"#utility.yul\":261:282   */\n      mstore\n        /* \"#utility.yul\":309:313   */\n      0x20\n        /* \"#utility.yul\":302:307   */\n      dup3\n        /* \"#utility.yul\":298:314   */\n      add\n        /* \"#utility.yul\":291:314   */\n      swap1\n      pop\n        /* \"#utility.yul\":335:341   */\n      dup3\n        /* \"#utility.yul\":385:388   */\n      dup6\n        /* \"#utility.yul\":377:381   */\n      0x20\n        /* \"#utility.yul\":369:375   */\n      dup7\n        /* \"#utility.yul\":365:382   */\n      mul\n        /* \"#utility.yul\":360:363   */\n      dup3\n        /* \"#utility.yul\":356:383   */\n      add\n        /* \"#utility.yul\":353:389   */\n      gt\n        /* \"#utility.yul\":350:493   */\n      iszero\n      tag_29\n      jumpi\n        /* \"#utility.yul\":404:483   */\n      tag_30\n      tag_31\n      jump\t// in\n    tag_30:\n        /* \"#utility.yul\":350:493   */\n    tag_29:\n        /* \"#utility.yul\":517:518   */\n      0x00\n        /* \"#utility.yul\":502:740   */\n    tag_32:\n        /* \"#utility.yul\":527:533   */\n      dup6\n        /* \"#utility.yul\":524:525   */\n      dup2\n        /* \"#utility.yul\":521:534   */\n      lt\n        /* \"#utility.yul\":502:740   */\n      iszero\n      tag_34\n      jumpi\n        /* \"#utility.yul\":595:598   */\n      dup2\n        /* \"#utility.yul\":624:661   */\n      tag_35\n        /* \"#utility.yul\":657:660   */\n      dup9\n        /* \"#utility.yul\":645:655   */\n      dup3\n        /* \"#utility.yul\":624:661   */\n      tag_36\n      jump\t// in\n    tag_35:\n        /* \"#utility.yul\":619:622   */\n      dup5\n        /* \"#utility.yul\":612:662   */\n      mstore\n        /* \"#utility.yul\":691:695   */\n      0x20\n        /* \"#utility.yul\":686:689   */\n      dup5\n        /* \"#utility.yul\":682:696   */\n      add\n        /* \"#utility.yul\":675:696   */\n      swap4\n      pop\n        /* \"#utility.yul\":725:729   */\n      0x20\n        /* \"#utility.yul\":720:723   */\n      dup4\n        /* \"#utility.yul\":716:730   */\n      add\n        /* \"#utility.yul\":709:730   */\n      swap3\n      pop\n        /* \"#utility.yul\":562:740   */\n      pop\n        /* \"#utility.yul\":549:550   */\n      0x01\n        /* \"#utility.yul\":546:547   */\n      dup2\n        /* \"#utility.yul\":542:551   */\n      add\n        /* \"#utility.yul\":537:551   */\n      swap1\n      pop\n        /* \"#utility.yul\":502:740   */\n      jump(tag_32)\n    tag_34:\n        /* \"#utility.yul\":506:520   */\n      pop\n        /* \"#utility.yul\":126:746   */\n      pop\n      pop\n        /* \"#utility.yul\":24:746   */\n      swap4\n      swap3\n      pop\n      pop\n      pop\n      jump\t// out\n        /* \"#utility.yul\":769:1139   */\n    tag_37:\n        /* \"#utility.yul\":840:845   */\n      0x00\n        /* \"#utility.yul\":889:892   */\n      dup3\n        /* \"#utility.yul\":882:886   */\n      0x1f\n        /* \"#utility.yul\":874:880   */\n      dup4\n        /* \"#utility.yul\":870:887   */\n      add\n        /* \"#utility.yul\":866:893   */\n      slt\n        /* \"#utility.yul\":856:978   */\n      tag_39\n      jumpi\n        /* \"#utility.yul\":897:976   */\n      tag_40\n      tag_41\n      jump\t// in\n    tag_40:\n        /* \"#utility.yul\":856:978   */\n    tag_39:\n        /* \"#utility.yul\":1014:1020   */\n      dup2\n        /* \"#utility.yul\":1001:1021   */\n      calldataload\n        /* \"#utility.yul\":1039:1133   */\n      tag_42\n        /* \"#utility.yul\":1129:1132   */\n      dup5\n        /* \"#utility.yul\":1121:1127   */\n      dup3\n        /* \"#utility.yul\":1114:1118   */\n      0x20\n        /* \"#utility.yul\":1106:1112   */\n      dup7\n        /* \"#utility.yul\":1102:1119   */\n      add\n        /* \"#utility.yul\":1039:1133   */\n      tag_23\n      jump\t// in\n    tag_42:\n        /* \"#utility.yul\":1030:1133   */\n      swap2\n      pop\n        /* \"#utility.yul\":846:1139   */\n      pop\n        /* \"#utility.yul\":769:1139   */\n      swap3\n      swap2\n      pop\n      pop\n      jump\t// out\n        /* \"#utility.yul\":1145:1284   */\n    tag_36:\n        /* \"#utility.yul\":1191:1196   */\n      0x00\n        /* \"#utility.yul\":1229:1235   */\n      dup2\n        /* \"#utility.yul\":1216:1236   */\n      calldataload\n        /* \"#utility.yul\":1207:1236   */\n      swap1\n      pop\n        /* \"#utility.yul\":1245:1278   */\n      tag_44\n        /* \"#utility.yul\":1272:1277   */\n      dup2\n        /* \"#utility.yul\":1245:1278   */\n      tag_45\n      jump\t// in\n    tag_44:\n        /* \"#utility.yul\":1145:1284   */\n      swap3\n      swap2\n      pop\n      pop\n      jump\t// out\n        /* \"#utility.yul\":1290:1829   */\n    tag_11:\n        /* \"#utility.yul\":1374:1380   */\n      0x00\n        /* \"#utility.yul\":1423:1425   */\n      0x20\n        /* \"#utility.yul\":1411:1420   */\n      dup3\n        /* \"#utility.yul\":1402:1409   */\n      dup5\n        /* \"#utility.yul\":1398:1421   */\n      sub\n        /* \"#utility.yul\":1394:1426   */\n      slt\n        /* \"#utility.yul\":1391:1510   */\n      iszero\n      tag_47\n      jumpi\n        /* \"#utility.yul\":1429:1508   */\n      tag_48\n      tag_49\n      jump\t// in\n    tag_48:\n        /* \"#utility.yul\":1391:1510   */\n    tag_47:\n        /* \"#utility.yul\":1577:1578   */\n      0x00\n        /* \"#utility.yul\":1566:1575   */\n      dup3\n        /* \"#utility.yul\":1562:1579   */\n      add\n        /* \"#utility.yul\":1549:1580   */\n      calldataload\n        /* \"#utility.yul\":1607:1625   */\n      0xffffffffffffffff\n        /* \"#utility.yul\":1599:1605   */\n      dup2\n        /* \"#utility.yul\":1596:1626   */\n      gt\n        /* \"#utility.yul\":1593:1710   */\n      iszero\n      tag_50\n      jumpi\n        /* \"#utility.yul\":1629:1708   */\n      tag_51\n      tag_52\n      jump\t// in\n    tag_51:\n        /* \"#utility.yul\":1593:1710   */\n    tag_50:\n        /* \"#utility.yul\":1734:1812   */\n      tag_53\n        /* \"#utility.yul\":1804:1811   */\n      dup5\n        /* \"#utility.yul\":1795:1801   */\n      dup3\n        /* \"#utility.yul\":1784:1793   */\n      dup6\n        /* \"#utility.yul\":1780:1802   */\n      add\n        /* \"#utility.yul\":1734:1812   */\n      tag_37\n      jump\t// in\n    tag_53:\n        /* \"#utility.yul\":1724:1812   */\n      swap2\n      pop\n        /* \"#utility.yul\":1520:1822   */\n      pop\n        /* \"#utility.yul\":1290:1829   */\n      swap3\n      swap2\n      pop\n      pop\n      jump\t// out\n        /* \"#utility.yul\":1835:1953   */\n    tag_54:\n        /* \"#utility.yul\":1922:1946   */\n      tag_56\n        /* \"#utility.yul\":1940:1945   */\n      dup2\n        /* \"#utility.yul\":1922:1946   */\n      tag_57\n      jump\t// in\n    tag_56:\n        /* \"#utility.yul\":1917:1920   */\n      dup3\n        /* \"#utility.yul\":1910:1947   */\n      mstore\n        /* \"#utility.yul\":1835:1953   */\n      pop\n      pop\n      jump\t// out\n        /* \"#utility.yul\":1959:2181   */\n    tag_8:\n        /* \"#utility.yul\":2052:2056   */\n      0x00\n        /* \"#utility.yul\":2090:2092   */\n      0x20\n        /* \"#utility.yul\":2079:2088   */\n      dup3\n        /* \"#utility.yul\":2075:2093   */\n      add\n        /* \"#utility.yul\":2067:2093   */\n      swap1\n      pop\n        /* \"#utility.yul\":2103:2174   */\n      tag_59\n        /* \"#utility.yul\":2171:2172   */\n      0x00\n        /* \"#utility.yul\":2160:2169   */\n      dup4\n        /* \"#utility.yul\":2156:2173   */\n      add\n        /* \"#utility.yul\":2147:2153   */\n      dup5\n        /* \"#utility.yul\":2103:2174   */\n      tag_54\n      jump\t// in\n    tag_59:\n        /* \"#utility.yul\":1959:2181   */\n      swap3\n      swap2\n      pop\n      pop\n      jump\t// out\n        /* \"#utility.yul\":2187:2316   */\n    tag_28:\n        /* \"#utility.yul\":2221:2227   */\n      0x00\n        /* \"#utility.yul\":2248:2268   */\n      tag_61\n      tag_62\n      jump\t// in\n    tag_61:\n        /* \"#utility.yul\":2238:2268   */\n      swap1\n      pop\n        /* \"#utility.yul\":2277:2310   */\n      tag_63\n        /* \"#utility.yul\":2305:2309   */\n      dup3\n        /* \"#utility.yul\":2297:2303   */\n      dup3\n        /* \"#utility.yul\":2277:2310   */\n      tag_64\n      jump\t// in\n    tag_63:\n        /* \"#utility.yul\":2187:2316   */\n      swap2\n      swap1\n      pop\n      jump\t// out\n        /* \"#utility.yul\":2322:2397   */\n    tag_62:\n        /* \"#utility.yul\":2355:2361   */\n      0x00\n        /* \"#utility.yul\":2388:2390   */\n      0x40\n        /* \"#utility.yul\":2382:2391   */\n      mload\n        /* \"#utility.yul\":2372:2391   */\n      swap1\n      pop\n        /* \"#utility.yul\":2322:2397   */\n      swap1\n      jump\t// out\n        /* \"#utility.yul\":2403:2714   */\n    tag_27:\n        /* \"#utility.yul\":2480:2484   */\n      0x00\n        /* \"#utility.yul\":2570:2588   */\n      0xffffffffffffffff\n        /* \"#utility.yul\":2562:2568   */\n      dup3\n        /* \"#utility.yul\":2559:2589   */\n      gt\n        /* \"#utility.yul\":2556:2612   */\n      iszero\n      tag_67\n      jumpi\n        /* \"#utility.yul\":2592:2610   */\n      tag_68\n      tag_69\n      jump\t// in\n    tag_68:\n        /* \"#utility.yul\":2556:2612   */\n    tag_67:\n        /* \"#utility.yul\":2642:2646   */\n      0x20\n        /* \"#utility.yul\":2634:2640   */\n      dup3\n        /* \"#utility.yul\":2630:2647   */\n      mul\n        /* \"#utility.yul\":2622:2647   */\n      swap1\n      pop\n        /* \"#utility.yul\":2702:2706   */\n      0x20\n        /* \"#utility.yul\":2696:2700   */\n      dup2\n        /* \"#utility.yul\":2692:2707   */\n      add\n        /* \"#utility.yul\":2684:2707   */\n      swap1\n      pop\n        /* \"#utility.yul\":2403:2714   */\n      swap2\n      swap1\n      pop\n      jump\t// out\n        /* \"#utility.yul\":2720:2797   */\n    tag_57:\n        /* \"#utility.yul\":2757:2764   */\n      0x00\n        /* \"#utility.yul\":2786:2791   */\n      dup2\n        /* \"#utility.yul\":2775:2791   */\n      swap1\n      pop\n        /* \"#utility.yul\":2720:2797   */\n      swap2\n      swap1\n      pop\n      jump\t// out\n        /* \"#utility.yul\":2803:3084   */\n    tag_64:\n        /* \"#utility.yul\":2886:2913   */\n      tag_72\n        /* \"#utility.yul\":2908:2912   */\n      dup3\n        /* \"#utility.yul\":2886:2913   */\n      tag_73\n      jump\t// in\n    tag_72:\n        /* \"#utility.yul\":2878:2884   */\n      dup2\n        /* \"#utility.yul\":2874:2914   */\n      add\n        /* \"#utility.yul\":3016:3022   */\n      dup2\n        /* \"#utility.yul\":3004:3014   */\n      dup2\n        /* \"#utility.yul\":3001:3023   */\n      lt\n        /* \"#utility.yul\":2980:2998   */\n      0xffffffffffffffff\n        /* \"#utility.yul\":2968:2978   */\n      dup3\n        /* \"#utility.yul\":2965:2999   */\n      gt\n        /* \"#utility.yul\":2962:3024   */\n      or\n        /* \"#utility.yul\":2959:3047   */\n      iszero\n      tag_74\n      jumpi\n        /* \"#utility.yul\":3027:3045   */\n      tag_75\n      tag_69\n      jump\t// in\n    tag_75:\n        /* \"#utility.yul\":2959:3047   */\n    tag_74:\n        /* \"#utility.yul\":3067:3077   */\n      dup1\n        /* \"#utility.yul\":3063:3065   */\n      0x40\n        /* \"#utility.yul\":3056:3078   */\n      mstore\n        /* \"#utility.yul\":2846:3084   */\n      pop\n        /* \"#utility.yul\":2803:3084   */\n      pop\n      pop\n      jump\t// out\n        /* \"#utility.yul\":3090:3323   */\n    tag_21:\n        /* \"#utility.yul\":3129:3132   */\n      0x00\n        /* \"#utility.yul\":3152:3176   */\n      tag_77\n        /* \"#utility.yul\":3170:3175   */\n      dup3\n        /* \"#utility.yul\":3152:3176   */\n      tag_57\n      jump\t// in\n    tag_77:\n        /* \"#utility.yul\":3143:3176   */\n      swap2\n      pop\n        /* \"#utility.yul\":3198:3264   */\n      0xffffffffffffffffffffffffffffffffffffffffffffffffffffffffffffffff\n        /* \"#utility.yul\":3191:3196   */\n      dup3\n        /* \"#utility.yul\":3188:3265   */\n      eq\n        /* \"#utility.yul\":3185:3288   */\n      iszero\n      tag_78\n      jumpi\n        /* \"#utility.yul\":3268:3286   */\n      tag_79\n      tag_80\n      jump\t// in\n    tag_79:\n        /* \"#utility.yul\":3185:3288   */\n    tag_78:\n        /* \"#utility.yul\":3315:3316   */\n      0x01\n        /* \"#utility.yul\":3308:3313   */\n      dup3\n        /* \"#utility.yul\":3304:3317   */\n      add\n        /* \"#utility.yul\":3297:3317   */\n      swap1\n      pop\n        /* \"#utility.yul\":3090:3323   */\n      swap2\n      swap1\n      pop\n      jump\t// out\n        /* \"#utility.yul\":3329:3509   */\n    tag_80:\n        /* \"#utility.yul\":3377:3454   */\n      0x4e487b7100000000000000000000000000000000000000000000000000000000\n        /* \"#utility.yul\":3374:3375   */\n      0x00\n        /* \"#utility.yul\":3367:3455   */\n      mstore\n        /* \"#utility.yul\":3474:3478   */\n      0x11\n        /* \"#utility.yul\":3471:3472   */\n      0x04\n        /* \"#utility.yul\":3464:3479   */\n      mstore\n        /* \"#utility.yul\":3498:3502   */\n      0x24\n        /* \"#utility.yul\":3495:3496   */\n      0x00\n        /* \"#utility.yul\":3488:3503   */\n      revert\n        /* \"#utility.yul\":3515:3695   */\n    tag_19:\n        /* \"#utility.yul\":3563:3640   */\n      0x4e487b7100000000000000000000000000000000000000000000000000000000\n        /* \"#utility.yul\":3560:3561   */\n      0x00\n        /* \"#utility.yul\":3553:3641   */\n      mstore\n        /* \"#utility.yul\":3660:3664   */\n      0x32\n        /* \"#utility.yul\":3657:3658   */\n      0x04\n        /* \"#utility.yul\":3650:3665   */\n      mstore\n        /* \"#utility.yul\":3684:3688   */\n      0x24\n        /* \"#utility.yul\":3681:3682   */\n      0x00\n        /* \"#utility.yul\":3674:3689   */\n      revert\n        /* \"#utility.yul\":3701:3881   */\n    tag_69:\n        /* \"#utility.yul\":3749:3826   */\n      0x4e487b7100000000000000000000000000000000000000000000000000000000\n        /* \"#utility.yul\":3746:3747   */\n      0x00\n        /* \"#utility.yul\":3739:3827   */\n      mstore\n        /* \"#utility.yul\":3846:3850   */\n      0x41\n        /* \"#utility.yul\":3843:3844   */\n      0x04\n        /* \"#utility.yul\":3836:3851   */\n      mstore\n        /* \"#utility.yul\":3870:3874   */\n      0x24\n        /* \"#utility.yul\":3867:3868   */\n      0x00\n        /* \"#utility.yul\":3860:3875   */\n      revert\n        /* \"#utility.yul\":3887:4004   */\n    tag_41:\n        /* \"#utility.yul\":3996:3997   */\n      0x00\n        /* \"#utility.yul\":3993:3994   */\n      dup1\n        /* \"#utility.yul\":3986:3998   */\n      revert\n        /* \"#utility.yul\":4010:4127   */\n    tag_31:\n        /* \"#utility.yul\":4119:4120   */\n      0x00\n        /* \"#utility.yul\":4116:4117   */\n      dup1\n        /* \"#utility.yul\":4109:4121   */\n      revert\n        /* \"#utility.yul\":4133:4250   */\n    tag_52:\n        /* \"#utility.yul\":4242:4243   */\n      0x00\n        /* \"#utility.yul\":4239:4240   */\n      dup1\n        /* \"#utility.yul\":4232:4244   */\n      revert\n        /* \"#utility.yul\":4256:4373   */\n    tag_49:\n        /* \"#utility.yul\":4365:4366   */\n      0x00\n        /* \"#utility.yul\":4362:4363   */\n      dup1\n        /* \"#utility.yul\":4355:4367   */\n      revert\n        /* \"#utility.yul\":4379:4481   */\n    tag_73:\n        /* \"#utility.yul\":4420:4426   */\n      0x00\n        /* \"#utility.yul\":4471:4473   */\n      0x1f\n        /* \"#utility.yul\":4467:4474   */\n      not\n        /* \"#utility.yul\":4462:4464   */\n      0x1f\n        /* \"#utility.yul\":4455:4460   */\n      dup4\n        /* \"#utility.yul\":4451:4465   */\n      add\n        /* \"#utility.yul\":4447:4475   */\n      and\n        /* \"#utility.yul\":4437:4475   */\n      swap1\n      pop\n        /* \"#utility.yul\":4379:4481   */\n      swap2\n      swap1\n      pop\n      jump\t// out\n        /* \"#utility.yul\":4487:4609   */\n    tag_45:\n        /* \"#utility.yul\":4560:4584   */\n      tag_90\n        /* \"#utility.yul\":4578:4583   */\n      dup2\n        /* \"#utility.yul\":4560:4584   */\n      tag_57\n      jump\t// in\n    tag_90:\n        /* \"#utility.yul\":4553:4558   */\n      dup2\n        /* \"#utility.yul\":4550:4585   */\n      eq\n        /* \"#utility.yul\":4540:4603   */\n      tag_91\n      jumpi\n        /* \"#utility.yul\":4599:4600   */\n      0x00\n        /* \"#utility.yul\":4596:4597   */\n      dup1\n        /* \"#utility.yul\":4589:4601   */\n      revert\n        /* \"#utility.yul\":4540:4603   */\n    tag_91:\n        /* \"#utility.yul\":4487:4609   */\n      pop\n      jump\t// out\n\n    auxdata: 0xa2646970667358221220f62c7117cb20976ffeb0b4cfc1a3ca4114c451d5cfabc3d4024c5eb0140721b864736f6c63430008070033\n}\n",
				"bytecode": {
					"linkReferences": {},
					"object": "608060405234801561001057600080fd5b506103ca806100206000396000f3fe608060405234801561001057600080fd5b50600436106100365760003560e01c80632ddbd13a1461003b578063c9762ec214610059575b600080fd5b610043610075565b60405161005091906101db565b60405180910390f35b610073600480360381019061006e9190610183565b61007b565b005b60005481565b60008054905060008251905060005b818110156100c35760008482815181106100a7576100a66102fa565b5b6020026020010151905050806100bc90610282565b905061008a565b5081600081905550505050565b60006100e36100de8461021b565b6101f6565b905080838252602082019050828560208602820111156101065761010561035d565b5b60005b85811015610136578161011c888261016e565b845260208401935060208301925050600181019050610109565b5050509392505050565b600082601f83011261015557610154610358565b5b81356101658482602086016100d0565b91505092915050565b60008135905061017d8161037d565b92915050565b60006020828403121561019957610198610367565b5b600082013567ffffffffffffffff8111156101b7576101b6610362565b5b6101c384828501610140565b91505092915050565b6101d581610247565b82525050565b60006020820190506101f060008301846101cc565b92915050565b6000610200610211565b905061020c8282610251565b919050565b6000604051905090565b600067ffffffffffffffff82111561023657610235610329565b5b602082029050602081019050919050565b6000819050919050565b61025a8261036c565b810181811067ffffffffffffffff8211171561027957610278610329565b5b80604052505050565b600061028d82610247565b91507fffffffffffffffffffffffffffffffffffffffffffffffffffffffffffffffff8214156102c0576102bf6102cb565b5b600182019050919050565b7f4e487b7100000000000000000000000000000000000000000000000000000000600052601160045260246000fd5b7f4e487b7100000000000000000000000000000000000000000000000000000000600052603260045260246000fd5b7f4e487b7100000000000000000000000000000000000000000000000000000000600052604160045260246000fd5b600080fd5b600080fd5b600080fd5b600080fd5b6000601f19601f8301169050919050565b61038681610247565b811461039157600080fd5b5056fea2646970667358221220f62c7117cb20976ffeb0b4cfc1a3ca4114c451d5cfabc3d4024c5eb0140721b864736f6c63430008070033",
					"opcodes": "PUSH1 0x80 PUSH1 0x40 MSTORE CALLVALUE DUP1 ISZERO PUSH2 0x10 JUMPI PUSH1 0x0 DUP1 REVERT JUMPDEST POP PUSH2 0x3CA DUP1 PUSH2 0x20 PUSH1 0x0 CODECOPY PUSH1 0x0 RETURN INVALID PUSH1 0x80 PUSH1 0x40 MSTORE CALLVALUE DUP1 ISZERO PUSH2 0x10 JUMPI PUSH1 0x0 DUP1 REVERT JUMPDEST POP PUSH1 0x4 CALLDATASIZE LT PUSH2 0x36 JUMPI PUSH1 0x0 CALLDATALOAD PUSH1 0xE0 SHR DUP1 PUSH4 0x2DDBD13A EQ PUSH2 0x3B JUMPI DUP1 PUSH4 0xC9762EC2 EQ PUSH2 0x59 JUMPI JUMPDEST PUSH1 0x0 DUP1 REVERT JUMPDEST PUSH2 0x43 PUSH2 0x75 JUMP JUMPDEST PUSH1 0x40 MLOAD PUSH2 0x50 SWAP2 SWAP1 PUSH2 0x1DB JUMP JUMPDEST PUSH1 0x40 MLOAD DUP1 SWAP2 SUB SWAP1 RETURN JUMPDEST PUSH2 0x73 PUSH1 0x4 DUP1 CALLDATASIZE SUB DUP2 ADD SWAP1 PUSH2 0x6E SWAP2 SWAP1 PUSH2 0x183 JUMP JUMPDEST PUSH2 0x7B JUMP JUMPDEST STOP JUMPDEST PUSH1 0x0 SLOAD DUP2 JUMP JUMPDEST PUSH1 0x0 DUP1 SLOAD SWAP1 POP PUSH1 0x0 DUP3 MLOAD SWAP1 POP PUSH1 0x0 JUMPDEST DUP2 DUP2 LT ISZERO PUSH2 0xC3 JUMPI PUSH1 0x0 DUP5 DUP3 DUP2 MLOAD DUP2 LT PUSH2 0xA7 JUMPI PUSH2 0xA6 PUSH2 0x2FA JUMP JUMPDEST JUMPDEST PUSH1 0x20 MUL PUSH1 0x20 ADD ADD MLOAD SWAP1 POP POP DUP1 PUSH2 0xBC SWAP1 PUSH2 0x282 JUMP JUMPDEST SWAP1 POP PUSH2 0x8A JUMP JUMPDEST POP DUP2 PUSH1 0x0 DUP2 SWAP1 SSTORE POP POP POP POP JUMP JUMPDEST PUSH1 0x0 PUSH2 0xE3 PUSH2 0xDE DUP5 PUSH2 0x21B JUMP JUMPDEST PUSH2 0x1F6 JUMP JUMPDEST SWAP1 POP DUP1 DUP4 DUP3 MSTORE PUSH1 0x20 DUP3 ADD SWAP1 POP DUP3 DUP6 PUSH1 0x20 DUP7 MUL DUP3 ADD GT ISZERO PUSH2 0x106 JUMPI PUSH2 0x105 PUSH2 0x35D JUMP JUMPDEST JUMPDEST PUSH1 0x0 JUMPDEST DUP6 DUP2 LT ISZERO PUSH2 0x136 JUMPI DUP2 PUSH2 0x11C DUP9 DUP3 PUSH2 0x16E JUMP JUMPDEST DUP5 MSTORE PUSH1 0x20 DUP5 ADD SWAP4 POP PUSH1 0x20 DUP4 ADD SWAP3 POP POP PUSH1 0x1 DUP2 ADD SWAP1 POP PUSH2 0x109 JUMP JUMPDEST POP POP POP SWAP4 SWAP3 POP POP POP JUMP JUMPDEST PUSH1 0x0 DUP3 PUSH1 0x1F DUP4 ADD SLT PUSH2 0x155 JUMPI PUSH2 0x154 PUSH2 0x358 JUMP JUMPDEST JUMPDEST DUP2 CALLDATALOAD PUSH2 0x165 DUP5 DUP3 PUSH1 0x20 DUP7 ADD PUSH2 0xD0 JUMP JUMPDEST SWAP2 POP POP SWAP3 SWAP2 POP POP JUMP JUMPDEST PUSH1 0x0 DUP2 CALLDATALOAD SWAP1 POP PUSH2 0x17D DUP2 PUSH2 0x37D JUMP JUMPDEST SWAP3 SWAP2 POP POP JUMP JUMPDEST PUSH1 0x0 PUSH1 0x20 DUP3 DUP5 SUB SLT ISZERO PUSH2 0x199 JUMPI PUSH2 0x198 PUSH2 0x367 JUMP JUMPDEST JUMPDEST PUSH1 0x0 DUP3 ADD CALLDATALOAD PUSH8 0xFFFFFFFFFFFFFFFF DUP2 GT ISZERO PUSH2 0x1B7 JUMPI PUSH2 0x1B6 PUSH2 0x362 JUMP JUMPDEST JUMPDEST PUSH2 0x1C3 DUP5 DUP3 DUP6 ADD PUSH2 0x140 JUMP JUMPDEST SWAP2 POP POP SWAP3 SWAP2 POP POP JUMP JUMPDEST PUSH2 0x1D5 DUP2 PUSH2 0x247 JUMP JUMPDEST DUP3 MSTORE POP POP JUMP JUMPDEST PUSH1 0x0 PUSH1 0x20 DUP3 ADD SWAP1 POP PUSH2 0x1F0 PUSH1 0x0 DUP4 ADD DUP5 PUSH2 0x1CC JUMP JUMPDEST SWAP3 SWAP2 POP POP JUMP JUMPDEST PUSH1 0x0 PUSH2 0x200 PUSH2 0x211 JUMP JUMPDEST SWAP1 POP PUSH2 0x20C DUP3 DUP3 PUSH2 0x251 JUMP JUMPDEST SWAP2 SWAP1 POP JUMP JUMPDEST PUSH1 0x0 PUSH1 0x40 MLOAD SWAP1 POP SWAP1 JUMP JUMPDEST PUSH1 0x0 PUSH8 0xFFFFFFFFFFFFFFFF DUP3 GT ISZERO PUSH2 0x236 JUMPI PUSH2 0x235 PUSH2 0x329 JUMP JUMPDEST JUMPDEST PUSH1 0x20 DUP3 MUL SWAP1 POP PUSH1 0x20 DUP2 ADD SWAP1 POP SWAP2 SWAP1 POP JUMP JUMPDEST PUSH1 0x0 DUP2 SWAP1 POP SWAP2 SWAP1 POP JUMP JUMPDEST PUSH2 0x25A DUP3 PUSH2 0x36C JUMP JUMPDEST DUP2 ADD DUP2 DUP2 LT PUSH8 0xFFFFFFFFFFFFFFFF DUP3 GT OR ISZERO PUSH2 0x279 JUMPI PUSH2 0x278 PUSH2 0x329 JUMP JUMPDEST JUMPDEST DUP1 PUSH1 0x40 MSTORE POP POP POP JUMP JUMPDEST PUSH1 0x0 PUSH2 0x28D DUP3 PUSH2 0x247 JUMP JUMPDEST SWAP2 POP PUSH32 0xFFFFFFFFFFFFFFFFFFFFFFFFFFFFFFFFFFFFFFFFFFFFFFFFFFFFFFFFFFFFFFFF DUP3 EQ ISZERO PUSH2 0x2C0 JUMPI PUSH2 0x2BF PUSH2 0x2CB JUMP JUMPDEST JUMPDEST PUSH1 0x1 DUP3 ADD SWAP1 POP SWAP2 SWAP1 POP JUMP JUMPDEST PUSH32 0x4E487B7100000000000000000000000000000000000000000000000000000000 PUSH1 0x0 MSTORE PUSH1 0x11 PUSH1 0x4 MSTORE PUSH1 0x24 PUSH1 0x0 REVERT JUMPDEST PUSH32 0x4E487B7100000000000000000000000000000000000000000000000000000000 PUSH1 0x0 MSTORE PUSH1 0x32 PUSH1 0x4 MSTORE PUSH1 0x24 PUSH1 0x0 REVERT JUMPDEST PUSH32 0x4E487B7100000000000000000000000000000000000000000000000000000000 PUSH1 0x0 MSTORE PUSH1 0x41 PUSH1 0x4 MSTORE PUSH1 0x24 PUSH1 0x0 REVERT JUMPDEST PUSH1 0x0 DUP1 REVERT JUMPDEST PUSH1 0x0 DUP1 REVERT JUMPDEST PUSH1 0x0 DUP1 REVERT JUMPDEST PUSH1 0x0 DUP1 REVERT JUMPDEST PUSH1 0x0 PUSH1 0x1F NOT PUSH1 0x1F DUP4 ADD AND SWAP1 POP SWAP2 SWAP1 POP JUMP JUMPDEST PUSH2 0x386 DUP2 PUSH2 0x247 JUMP JUMPDEST DUP2 EQ PUSH2 0x391 JUMPI PUSH1 0x0 DUP1 REVERT JUMPDEST POP JUMP INVALID LOG2 PUSH5 0x6970667358 0x22 SLT KECCAK256 0xF6 0x2C PUSH18 0x17CB20976FFEB0B4CFC1A3CA4114C451D5CF 0xAB 0xC3 0xD4 MUL 0x4C 0x5E 0xB0 EQ SMOD 0x21 0xB8 PUSH5 0x736F6C6343 STOP ADDMOD SMOD STOP CALLER "
				},
				"gasEstimates": {
					"creation": {
						"codeDepositCost": "194000",
						"executionCost": "238",
						"totalCost": "194238"
					},
					"external": {
						"sumIfEvenAndLessThan99(uint256[])": "infinite",
						"total()": "2407"
					}
				},
				"methodIdentifiers": {
					"sumIfEvenAndLessThan99(uint256[])": "c9762ec2",
					"total()": "2ddbd13a"
				}
			},
			"userdoc": {
				"kind": "user",
				"methods": {},
				"version": 1
			}
		}
	}
}