{
	"Contracts/Gas.sol": {
		"GasSaving": {
			"abi": [
				{
					"inputs": [
						{
							"internalType": "uint256[]",
							"name": "nums",
							"type": "uint256[]"
						}
					],
					"name": "sumIfEvenAndLessThan99",
					"outputs": [],
					"stateMutability": "nonpayable",
					"type": "function"
				},
				{
					"inputs": [],
					"name": "total",
					"outputs": [
						{
							"internalType": "uint256",
							"name": "",
							"type": "uint256"
						}
					],
					"stateMutability": "view",
					"type": "function"
				}
			],
			"devdoc": {
				"kind": "dev",
				"methods": {},
				"version": 1
			},
			"evm": {
				"assembly": "    /* \"Contracts/Gas.sol\":101:617  contract GasSaving {... */\n  mstore(0x40, 0x80)\n  callvalue\n  dup1\n  iszero\n  tag_1\n  jumpi\n  0x00\n  dup1\n  revert\ntag_1:\n  pop\n  dataSize(sub_0)\n  dup1\n  dataOffset(sub_0)\n  0x00\n  codecopy\n  0x00\n  return\nstop\n\nsub_0: assembly {\n        /* \"Contracts/Gas.sol\":101:617  contract GasSaving {... */\n      mstore(0x40, 0x80)\n      callvalue\n      dup1\n      iszero\n      tag_1\n      jumpi\n      0x00\n      dup1\n      revert\n    tag_1:\n      pop\n      jumpi(tag_2, lt(calldatasize, 0x04))\n      shr(0xe0, calldataload(0x00))\n      dup1\n      0x2ddbd13a\n      eq\n      tag_3\n      jumpi\n      dup1\n      0xc9762ec2\n      eq\n      tag_4\n      jumpi\n    tag_2:\n      0x00\n      dup1\n      revert\n        /* \"Contracts/Gas.sol\":295:312  uint public total */\n    tag_3:\n      tag_5\n      tag_6\n      jump\t// in\n    tag_5:\n      mload(0x40)\n      tag_7\n      swap2\n      swap1\n      tag_8\n      jump\t// in\n    tag_7:\n      mload(0x40)\n      dup1\n      swap2\n      sub\n      swap1\n      return\n        /* \"Contracts/Gas.sol\":343:615  function sumIfEvenAndLessThan99(uint[] calldata nums ) external {... */\n    tag_4:\n      tag_9\n      0x04\n      dup1\n      calldatasize\n      sub\n      dup2\n      add\n      swap1\n      tag_10\n      swap2\n      swap1\n      tag_11\n      jump\t// in\n    tag_10:\n      tag_12\n      jump\t// in\n    tag_9:\n      stop\n        /* \"Contracts/Gas.sol\":295:312  uint public total */\n    tag_6:\n      sload(0x00)\n      dup2\n      jump\t// out\n        /* \"Contracts/Gas.sol\":343:615  function sumIfEvenAndLessThan99(uint[] calldata nums ) external {... */\n    tag_12:\n        /* \"Contracts/Gas.sol\":418:424  uint i */\n      0x00\n        /* \"Contracts/Gas.sol\":413:610  for (uint i = 0; i < nums.length ; i+= 1) {... */\n    tag_14:\n        /* \"Contracts/Gas.sol\":434:438  nums */\n      dup3\n      dup3\n        /* \"Contracts/Gas.sol\":434:445  nums.length */\n      swap1\n      pop\n        /* \"Contracts/Gas.sol\":430:431  i */\n      dup2\n        /* \"Contracts/Gas.sol\":430:445  i < nums.length */\n      lt\n        /* \"Contracts/Gas.sol\":413:610  for (uint i = 0; i < nums.length ; i+= 1) {... */\n      iszero\n      tag_15\n      jumpi\n        /* \"Contracts/Gas.sol\":463:474  bool isEven */\n      0x00\n        /* \"Contracts/Gas.sol\":492:493  0 */\n      dup1\n        /* \"Contracts/Gas.sol\":487:488  2 */\n      0x02\n        /* \"Contracts/Gas.sol\":477:481  nums */\n      dup6\n      dup6\n        /* \"Contracts/Gas.sol\":482:483  i */\n      dup6\n        /* \"Contracts/Gas.sol\":477:484  nums[i] */\n      dup2\n      dup2\n      lt\n      tag_17\n      jumpi\n      tag_18\n      tag_19\n      jump\t// in\n    tag_18:\n    tag_17:\n      swap1\n      pop\n      0x20\n      mul\n      add\n      calldataload\n        /* \"Contracts/Gas.sol\":477:488  nums[i] % 2 */\n      tag_20\n      swap2\n      swap1\n      tag_21\n      jump\t// in\n    tag_20:\n        /* \"Contracts/Gas.sol\":477:493  nums[i] % 2 == 0 */\n      eq\n        /* \"Contracts/Gas.sol\":463:493  bool isEven = nums[i] % 2 == 0 */\n      swap1\n      pop\n        /* \"Contracts/Gas.sol\":501:518  bool isLessThan99 */\n      0x00\n        /* \"Contracts/Gas.sol\":531:533  99 */\n      0x63\n        /* \"Contracts/Gas.sol\":521:525  nums */\n      dup6\n      dup6\n        /* \"Contracts/Gas.sol\":526:527  i */\n      dup6\n        /* \"Contracts/Gas.sol\":521:528  nums[i] */\n      dup2\n      dup2\n      lt\n      tag_22\n      jumpi\n      tag_23\n      tag_19\n      jump\t// in\n    tag_23:\n    tag_22:\n      swap1\n      pop\n      0x20\n      mul\n      add\n      calldataload\n        /* \"Contracts/Gas.sol\":521:533  nums[i] < 99 */\n      lt\n        /* \"Contracts/Gas.sol\":501:533  bool isLessThan99 = nums[i] < 99 */\n      swap1\n      pop\n        /* \"Contracts/Gas.sol\":545:551  isEven */\n      dup2\n        /* \"Contracts/Gas.sol\":545:567  isEven && isLessThan99 */\n      dup1\n      iszero\n      tag_24\n      jumpi\n      pop\n        /* \"Contracts/Gas.sol\":555:567  isLessThan99 */\n      dup1\n        /* \"Contracts/Gas.sol\":545:567  isEven && isLessThan99 */\n    tag_24:\n        /* \"Contracts/Gas.sol\":541:604  if (isEven && isLessThan99) {... */\n      iszero\n      tag_25\n      jumpi\n        /* \"Contracts/Gas.sol\":588:592  nums */\n      dup5\n      dup5\n        /* \"Contracts/Gas.sol\":593:594  i */\n      dup5\n        /* \"Contracts/Gas.sol\":588:595  nums[i] */\n      dup2\n      dup2\n      lt\n      tag_26\n      jumpi\n      tag_27\n      tag_19\n      jump\t// in\n    tag_27:\n    tag_26:\n      swap1\n      pop\n      0x20\n      mul\n      add\n      calldataload\n        /* \"Contracts/Gas.sol\":579:584  total */\n      0x00\n      dup1\n        /* \"Contracts/Gas.sol\":579:595  total += nums[i] */\n      dup3\n      dup3\n      sload\n      tag_28\n      swap2\n      swap1\n      tag_29\n      jump\t// in\n    tag_28:\n      swap3\n      pop\n      pop\n      dup2\n      swap1\n      sstore\n      pop\n        /* \"Contracts/Gas.sol\":541:604  if (isEven && isLessThan99) {... */\n    tag_25:\n        /* \"Contracts/Gas.sol\":455:610  {... */\n      pop\n      pop\n        /* \"Contracts/Gas.sol\":452:453  1 */\n      0x01\n        /* \"Contracts/Gas.sol\":448:453  i+= 1 */\n      dup2\n      tag_30\n      swap2\n      swap1\n      tag_29\n      jump\t// in\n    tag_30:\n      swap1\n      pop\n        /* \"Contracts/Gas.sol\":413:610  for (uint i = 0; i < nums.length ; i+= 1) {... */\n      jump(tag_14)\n    tag_15:\n      pop\n        /* \"Contracts/Gas.sol\":343:615  function sumIfEvenAndLessThan99(uint[] calldata nums ) external {... */\n      pop\n      pop\n      jump\t// out\n        /* \"#utility.yul\":24:592   */\n    tag_32:\n        /* \"#utility.yul\":97:105   */\n      0x00\n        /* \"#utility.yul\":107:113   */\n      dup1\n        /* \"#utility.yul\":157:160   */\n      dup4\n        /* \"#utility.yul\":150:154   */\n      0x1f\n        /* \"#utility.yul\":142:148   */\n      dup5\n        /* \"#utility.yul\":138:155   */\n      add\n        /* \"#utility.yul\":134:161   */\n      slt\n        /* \"#utility.yul\":124:246   */\n      tag_34\n      jumpi\n        /* \"#utility.yul\":165:244   */\n      tag_35\n      tag_36\n      jump\t// in\n    tag_35:\n        /* \"#utility.yul\":124:246   */\n    tag_34:\n        /* \"#utility.yul\":278:284   */\n      dup3\n        /* \"#utility.yul\":265:285   */\n      calldataload\n        /* \"#utility.yul\":255:285   */\n      swap1\n      pop\n        /* \"#utility.yul\":308:326   */\n      0xffffffffffffffff\n        /* \"#utility.yul\":300:306   */\n      dup2\n        /* \"#utility.yul\":297:327   */\n      gt\n        /* \"#utility.yul\":294:411   */\n      iszero\n      tag_37\n      jumpi\n        /* \"#utility.yul\":330:409   */\n      tag_38\n      tag_39\n      jump\t// in\n    tag_38:\n        /* \"#utility.yul\":294:411   */\n    tag_37:\n        /* \"#utility.yul\":444:448   */\n      0x20\n        /* \"#utility.yul\":436:442   */\n      dup4\n        /* \"#utility.yul\":432:449   */\n      add\n        /* \"#utility.yul\":420:449   */\n      swap2\n      pop\n        /* \"#utility.yul\":498:501   */\n      dup4\n        /* \"#utility.yul\":490:494   */\n      0x20\n        /* \"#utility.yul\":482:488   */\n      dup3\n        /* \"#utility.yul\":478:495   */\n      mul\n        /* \"#utility.yul\":468:476   */\n      dup4\n        /* \"#utility.yul\":464:496   */\n      add\n        /* \"#utility.yul\":461:502   */\n      gt\n        /* \"#utility.yul\":458:586   */\n      iszero\n      tag_40\n      jumpi\n        /* \"#utility.yul\":505:584   */\n      tag_41\n      tag_42\n      jump\t// in\n    tag_41:\n        /* \"#utility.yul\":458:586   */\n    tag_40:\n        /* \"#utility.yul\":24:592   */\n      swap3\n      pop\n      swap3\n      swap1\n      pop\n      jump\t// out\n        /* \"#utility.yul\":598:1157   */\n    tag_11:\n        /* \"#utility.yul\":684:690   */\n      0x00\n        /* \"#utility.yul\":692:698   */\n      dup1\n        /* \"#utility.yul\":741:743   */\n      0x20\n        /* \"#utility.yul\":729:738   */\n      dup4\n        /* \"#utility.yul\":720:727   */\n      dup6\n        /* \"#utility.yul\":716:739   */\n      sub\n        /* \"#utility.yul\":712:744   */\n      slt\n        /* \"#utility.yul\":709:828   */\n      iszero\n      tag_44\n      jumpi\n        /* \"#utility.yul\":747:826   */\n      tag_45\n      tag_46\n      jump\t// in\n    tag_45:\n        /* \"#utility.yul\":709:828   */\n    tag_44:\n        /* \"#utility.yul\":895:896   */\n      0x00\n        /* \"#utility.yul\":884:893   */\n      dup4\n        /* \"#utility.yul\":880:897   */\n      add\n        /* \"#utility.yul\":867:898   */\n      calldataload\n        /* \"#utility.yul\":925:943   */\n      0xffffffffffffffff\n        /* \"#utility.yul\":917:923   */\n      dup2\n        /* \"#utility.yul\":914:944   */\n      gt\n        /* \"#utility.yul\":911:1028   */\n      iszero\n      tag_47\n      jumpi\n        /* \"#utility.yul\":947:1026   */\n      tag_48\n      tag_49\n      jump\t// in\n    tag_48:\n        /* \"#utility.yul\":911:1028   */\n    tag_47:\n        /* \"#utility.yul\":1060:1140   */\n      tag_50\n        /* \"#utility.yul\":1132:1139   */\n      dup6\n        /* \"#utility.yul\":1123:1129   */\n      dup3\n        /* \"#utility.yul\":1112:1121   */\n      dup7\n        /* \"#utility.yul\":1108:1130   */\n      add\n        /* \"#utility.yul\":1060:1140   */\n      tag_32\n      jump\t// in\n    tag_50:\n        /* \"#utility.yul\":1042:1140   */\n      swap3\n      pop\n      swap3\n      pop\n        /* \"#utility.yul\":838:1150   */\n      pop\n        /* \"#utility.yul\":598:1157   */\n      swap3\n      pop\n      swap3\n      swap1\n      pop\n      jump\t// out\n        /* \"#utility.yul\":1163:1281   */\n    tag_51:\n        /* \"#utility.yul\":1250:1274   */\n      tag_53\n        /* \"#utility.yul\":1268:1273   */\n      dup2\n        /* \"#utility.yul\":1250:1274   */\n      tag_54\n      jump\t// in\n    tag_53:\n        /* \"#utility.yul\":1245:1248   */\n      dup3\n        /* \"#utility.yul\":1238:1275   */\n      mstore\n        /* \"#utility.yul\":1163:1281   */\n      pop\n      pop\n      jump\t// out\n        /* \"#utility.yul\":1287:1509   */\n    tag_8:\n        /* \"#utility.yul\":1380:1384   */\n      0x00\n        /* \"#utility.yul\":1418:1420   */\n      0x20\n        /* \"#utility.yul\":1407:1416   */\n      dup3\n        /* \"#utility.yul\":1403:1421   */\n      add\n        /* \"#utility.yul\":1395:1421   */\n      swap1\n      pop\n        /* \"#utility.yul\":1431:1502   */\n      tag_56\n        /* \"#utility.yul\":1499:1500   */\n      0x00\n        /* \"#utility.yul\":1488:1497   */\n      dup4\n        /* \"#utility.yul\":1484:1501   */\n      add\n        /* \"#utility.yul\":1475:1481   */\n      dup5\n        /* \"#utility.yul\":1431:1502   */\n      tag_51\n      jump\t// in\n    tag_56:\n        /* \"#utility.yul\":1287:1509   */\n      swap3\n      swap2\n      pop\n      pop\n      jump\t// out\n        /* \"#utility.yul\":1596:1901   */\n    tag_29:\n        /* \"#utility.yul\":1636:1639   */\n      0x00\n        /* \"#utility.yul\":1655:1675   */\n      tag_60\n        /* \"#utility.yul\":1673:1674   */\n      dup3\n        /* \"#utility.yul\":1655:1675   */\n      tag_54\n      jump\t// in\n    tag_60:\n        /* \"#utility.yul\":1650:1675   */\n      swap2\n      pop\n        /* \"#utility.yul\":1689:1709   */\n      tag_61\n        /* \"#utility.yul\":1707:1708   */\n      dup4\n        /* \"#utility.yul\":1689:1709   */\n      tag_54\n      jump\t// in\n    tag_61:\n        /* \"#utility.yul\":1684:1709   */\n      swap3\n      pop\n        /* \"#utility.yul\":1843:1844   */\n      dup3\n        /* \"#utility.yul\":1775:1841   */\n      0xffffffffffffffffffffffffffffffffffffffffffffffffffffffffffffffff\n        /* \"#utility.yul\":1771:1845   */\n      sub\n        /* \"#utility.yul\":1768:1769   */\n      dup3\n        /* \"#utility.yul\":1765:1846   */\n      gt\n        /* \"#utility.yul\":1762:1869   */\n      iszero\n      tag_62\n      jumpi\n        /* \"#utility.yul\":1849:1867   */\n      tag_63\n      tag_64\n      jump\t// in\n    tag_63:\n        /* \"#utility.yul\":1762:1869   */\n    tag_62:\n        /* \"#utility.yul\":1893:1894   */\n      dup3\n        /* \"#utility.yul\":1890:1891   */\n      dup3\n        /* \"#utility.yul\":1886:1895   */\n      add\n        /* \"#utility.yul\":1879:1895   */\n      swap1\n      pop\n        /* \"#utility.yul\":1596:1901   */\n      swap3\n      swap2\n      pop\n      pop\n      jump\t// out\n        /* \"#utility.yul\":1907:1984   */\n    tag_54:\n        /* \"#utility.yul\":1944:1951   */\n      0x00\n        /* \"#utility.yul\":1973:1978   */\n      dup2\n        /* \"#utility.yul\":1962:1978   */\n      swap1\n      pop\n        /* \"#utility.yul\":1907:1984   */\n      swap2\n      swap1\n      pop\n      jump\t// out\n        /* \"#utility.yul\":1990:2166   */\n    tag_21:\n        /* \"#utility.yul\":2022:2023   */\n      0x00\n        /* \"#utility.yul\":2039:2059   */\n      tag_67\n        /* \"#utility.yul\":2057:2058   */\n      dup3\n        /* \"#utility.yul\":2039:2059   */\n      tag_54\n      jump\t// in\n    tag_67:\n        /* \"#utility.yul\":2034:2059   */\n      swap2\n      pop\n        /* \"#utility.yul\":2073:2093   */\n      tag_68\n        /* \"#utility.yul\":2091:2092   */\n      dup4\n        /* \"#utility.yul\":2073:2093   */\n      tag_54\n      jump\t// in\n    tag_68:\n        /* \"#utility.yul\":2068:2093   */\n      swap3\n      pop\n        /* \"#utility.yul\":2112:2113   */\n      dup3\n        /* \"#utility.yul\":2102:2137   */\n      tag_69\n      jumpi\n        /* \"#utility.yul\":2117:2135   */\n      tag_70\n      tag_71\n      jump\t// in\n    tag_70:\n        /* \"#utility.yul\":2102:2137   */\n    tag_69:\n        /* \"#utility.yul\":2158:2159   */\n      dup3\n        /* \"#utility.yul\":2155:2156   */\n      dup3\n        /* \"#utility.yul\":2151:2160   */\n      mod\n        /* \"#utility.yul\":2146:2160   */\n      swap1\n      pop\n        /* \"#utility.yul\":1990:2166   */\n      swap3\n      swap2\n      pop\n      pop\n      jump\t// out\n        /* \"#utility.yul\":2172:2352   */\n    tag_64:\n        /* \"#utility.yul\":2220:2297   */\n      0x4e487b7100000000000000000000000000000000000000000000000000000000\n        /* \"#utility.yul\":2217:2218   */\n      0x00\n        /* \"#utility.yul\":2210:2298   */\n      mstore\n        /* \"#utility.yul\":2317:2321   */\n      0x11\n        /* \"#utility.yul\":2314:2315   */\n      0x04\n        /* \"#utility.yul\":2307:2322   */\n      mstore\n        /* \"#utility.yul\":2341:2345   */\n      0x24\n        /* \"#utility.yul\":2338:2339   */\n      0x00\n        /* \"#utility.yul\":2331:2346   */\n      revert\n        /* \"#utility.yul\":2358:2538   */\n    tag_71:\n        /* \"#utility.yul\":2406:2483   */\n      0x4e487b7100000000000000000000000000000000000000000000000000000000\n        /* \"#utility.yul\":2403:2404   */\n      0x00\n        /* \"#utility.yul\":2396:2484   */\n      mstore\n        /* \"#utility.yul\":2503:2507   */\n      0x12\n        /* \"#utility.yul\":2500:2501   */\n      0x04\n        /* \"#utility.yul\":2493:2508   */\n      mstore\n        /* \"#utility.yul\":2527:2531   */\n      0x24\n        /* \"#utility.yul\":2524:2525   */\n      0x00\n        /* \"#utility.yul\":2517:2532   */\n      revert\n        /* \"#utility.yul\":2544:2724   */\n    tag_19:\n        /* \"#utility.yul\":2592:2669   */\n      0x4e487b7100000000000000000000000000000000000000000000000000000000\n        /* \"#utility.yul\":2589:2590   */\n      0x00\n        /* \"#utility.yul\":2582:2670   */\n      mstore\n        /* \"#utility.yul\":2689:2693   */\n      0x32\n        /* \"#utility.yul\":2686:2687   */\n      0x04\n        /* \"#utility.yul\":2679:2694   */\n      mstore\n        /* \"#utility.yul\":2713:2717   */\n      0x24\n        /* \"#utility.yul\":2710:2711   */\n      0x00\n        /* \"#utility.yul\":2703:2718   */\n      revert\n        /* \"#utility.yul\":2730:2847   */\n    tag_39:\n        /* \"#utility.yul\":2839:2840   */\n      0x00\n        /* \"#utility.yul\":2836:2837   */\n      dup1\n        /* \"#utility.yul\":2829:2841   */\n      revert\n        /* \"#utility.yul\":2853:2970   */\n    tag_36:\n        /* \"#utility.yul\":2962:2963   */\n      0x00\n        /* \"#utility.yul\":2959:2960   */\n      dup1\n        /* \"#utility.yul\":2952:2964   */\n      revert\n        /* \"#utility.yul\":2976:3093   */\n    tag_42:\n        /* \"#utility.yul\":3085:3086   */\n      0x00\n        /* \"#utility.yul\":3082:3083   */\n      dup1\n        /* \"#utility.yul\":3075:3087   */\n      revert\n        /* \"#utility.yul\":3099:3216   */\n    tag_49:\n        /* \"#utility.yul\":3208:3209   */\n      0x00\n        /* \"#utility.yul\":3205:3206   */\n      dup1\n        /* \"#utility.yul\":3198:3210   */\n      revert\n        /* \"#utility.yul\":3222:3339   */\n    tag_46:\n        /* \"#utility.yul\":3331:3332   */\n      0x00\n        /* \"#utility.yul\":3328:3329   */\n      dup1\n        /* \"#utility.yul\":3321:3333   */\n      revert\n\n    auxdata: 0xa26469706673582212203becdfb2d8fd9ce6a65411eb8bfed9da2edbd22ee2e1cc01bc409a4a953e581464736f6c63430008070033\n}\n",
				"bytecode": {
					"linkReferences": {},
					"object": "608060405234801561001057600080fd5b5061036c806100206000396000f3fe608060405234801561001057600080fd5b50600436106100365760003560e01c80632ddbd13a1461003b578063c9762ec214610059575b600080fd5b610043610075565b60405161005091906101e4565b60405180910390f35b610073600480360381019061006e9190610188565b61007b565b005b60005481565b60005b8282905081101561012d5760008060028585858181106100a1576100a06102ee565b5b905060200201356100b2919061025f565b149050600060638585858181106100cc576100cb6102ee565b5b905060200201351090508180156100e05750805b15610117578484848181106100f8576100f76102ee565b5b9050602002013560008082825461010f91906101ff565b925050819055505b505060018161012691906101ff565b905061007e565b505050565b60008083601f84011261014857610147610322565b5b8235905067ffffffffffffffff8111156101655761016461031d565b5b60208301915083602082028301111561018157610180610327565b5b9250929050565b6000806020838503121561019f5761019e610331565b5b600083013567ffffffffffffffff8111156101bd576101bc61032c565b5b6101c985828601610132565b92509250509250929050565b6101de81610255565b82525050565b60006020820190506101f960008301846101d5565b92915050565b600061020a82610255565b915061021583610255565b9250827fffffffffffffffffffffffffffffffffffffffffffffffffffffffffffffffff0382111561024a57610249610290565b5b828201905092915050565b6000819050919050565b600061026a82610255565b915061027583610255565b925082610285576102846102bf565b5b828206905092915050565b7f4e487b7100000000000000000000000000000000000000000000000000000000600052601160045260246000fd5b7f4e487b7100000000000000000000000000000000000000000000000000000000600052601260045260246000fd5b7f4e487b7100000000000000000000000000000000000000000000000000000000600052603260045260246000fd5b600080fd5b600080fd5b600080fd5b600080fd5b600080fdfea26469706673582212203becdfb2d8fd9ce6a65411eb8bfed9da2edbd22ee2e1cc01bc409a4a953e581464736f6c63430008070033",
					"opcodes": "PUSH1 0x80 PUSH1 0x40 MSTORE CALLVALUE DUP1 ISZERO PUSH2 0x10 JUMPI PUSH1 0x0 DUP1 REVERT JUMPDEST POP PUSH2 0x36C DUP1 PUSH2 0x20 PUSH1 0x0 CODECOPY PUSH1 0x0 RETURN INVALID PUSH1 0x80 PUSH1 0x40 MSTORE CALLVALUE DUP1 ISZERO PUSH2 0x10 JUMPI PUSH1 0x0 DUP1 REVERT JUMPDEST POP PUSH1 0x4 CALLDATASIZE LT PUSH2 0x36 JUMPI PUSH1 0x0 CALLDATALOAD PUSH1 0xE0 SHR DUP1 PUSH4 0x2DDBD13A EQ PUSH2 0x3B JUMPI DUP1 PUSH4 0xC9762EC2 EQ PUSH2 0x59 JUMPI JUMPDEST PUSH1 0x0 DUP1 REVERT JUMPDEST PUSH2 0x43 PUSH2 0x75 JUMP JUMPDEST PUSH1 0x40 MLOAD PUSH2 0x50 SWAP2 SWAP1 PUSH2 0x1E4 JUMP JUMPDEST PUSH1 0x40 MLOAD DUP1 SWAP2 SUB SWAP1 RETURN JUMPDEST PUSH2 0x73 PUSH1 0x4 DUP1 CALLDATASIZE SUB DUP2 ADD SWAP1 PUSH2 0x6E SWAP2 SWAP1 PUSH2 0x188 JUMP JUMPDEST PUSH2 0x7B JUMP JUMPDEST STOP JUMPDEST PUSH1 0x0 SLOAD DUP2 JUMP JUMPDEST PUSH1 0x0 JUMPDEST DUP3 DUP3 SWAP1 POP DUP2 LT ISZERO PUSH2 0x12D JUMPI PUSH1 0x0 DUP1 PUSH1 0x2 DUP6 DUP6 DUP6 DUP2 DUP2 LT PUSH2 0xA1 JUMPI PUSH2 0xA0 PUSH2 0x2EE JUMP JUMPDEST JUMPDEST SWAP1 POP PUSH1 0x20 MUL ADD CALLDATALOAD PUSH2 0xB2 SWAP2 SWAP1 PUSH2 0x25F JUMP JUMPDEST EQ SWAP1 POP PUSH1 0x0 PUSH1 0x63 DUP6 DUP6 DUP6 DUP2 DUP2 LT PUSH2 0xCC JUMPI PUSH2 0xCB PUSH2 0x2EE JUMP JUMPDEST JUMPDEST SWAP1 POP PUSH1 0x20 MUL ADD CALLDATALOAD LT SWAP1 POP DUP2 DUP1 ISZERO PUSH2 0xE0 JUMPI POP DUP1 JUMPDEST ISZERO PUSH2 0x117 JUMPI DUP5 DUP5 DUP5 DUP2 DUP2 LT PUSH2 0xF8 JUMPI PUSH2 0xF7 PUSH2 0x2EE JUMP JUMPDEST JUMPDEST SWAP1 POP PUSH1 0x20 MUL ADD CALLDATALOAD PUSH1 0x0 DUP1 DUP3 DUP3 SLOAD PUSH2 0x10F SWAP2 SWAP1 PUSH2 0x1FF JUMP JUMPDEST SWAP3 POP POP DUP2 SWAP1 SSTORE POP JUMPDEST POP POP PUSH1 0x1 DUP2 PUSH2 0x126 SWAP2 SWAP1 PUSH2 0x1FF JUMP JUMPDEST SWAP1 POP PUSH2 0x7E JUMP JUMPDEST POP POP POP JUMP JUMPDEST PUSH1 0x0 DUP1 DUP4 PUSH1 0x1F DUP5 ADD SLT PUSH2 0x148 JUMPI PUSH2 0x147 PUSH2 0x322 JUMP JUMPDEST JUMPDEST DUP3 CALLDATALOAD SWAP1 POP PUSH8 0xFFFFFFFFFFFFFFFF DUP2 GT ISZERO PUSH2 0x165 JUMPI PUSH2 0x164 PUSH2 0x31D JUMP JUMPDEST JUMPDEST PUSH1 0x20 DUP4 ADD SWAP2 POP DUP4 PUSH1 0x20 DUP3 MUL DUP4 ADD GT ISZERO PUSH2 0x181 JUMPI PUSH2 0x180 PUSH2 0x327 JUMP JUMPDEST JUMPDEST SWAP3 POP SWAP3 SWAP1 POP JUMP JUMPDEST PUSH1 0x0 DUP1 PUSH1 0x20 DUP4 DUP6 SUB SLT ISZERO PUSH2 0x19F JUMPI PUSH2 0x19E PUSH2 0x331 JUMP JUMPDEST JUMPDEST PUSH1 0x0 DUP4 ADD CALLDATALOAD PUSH8 0xFFFFFFFFFFFFFFFF DUP2 GT ISZERO PUSH2 0x1BD JUMPI PUSH2 0x1BC PUSH2 0x32C JUMP JUMPDEST JUMPDEST PUSH2 0x1C9 DUP6 DUP3 DUP7 ADD PUSH2 0x132 JUMP JUMPDEST SWAP3 POP SWAP3 POP POP SWAP3 POP SWAP3 SWAP1 POP JUMP JUMPDEST PUSH2 0x1DE DUP2 PUSH2 0x255 JUMP JUMPDEST DUP3 MSTORE POP POP JUMP JUMPDEST PUSH1 0x0 PUSH1 0x20 DUP3 ADD SWAP1 POP PUSH2 0x1F9 PUSH1 0x0 DUP4 ADD DUP5 PUSH2 0x1D5 JUMP JUMPDEST SWAP3 SWAP2 POP POP JUMP JUMPDEST PUSH1 0x0 PUSH2 0x20A DUP3 PUSH2 0x255 JUMP JUMPDEST SWAP2 POP PUSH2 0x215 DUP4 PUSH2 0x255 JUMP JUMPDEST SWAP3 POP DUP3 PUSH32 0xFFFFFFFFFFFFFFFFFFFFFFFFFFFFFFFFFFFFFFFFFFFFFFFFFFFFFFFFFFFFFFFF SUB DUP3 GT ISZERO PUSH2 0x24A JUMPI PUSH2 0x249 PUSH2 0x290 JUMP JUMPDEST JUMPDEST DUP3 DUP3 ADD SWAP1 POP SWAP3 SWAP2 POP POP JUMP JUMPDEST PUSH1 0x0 DUP2 SWAP1 POP SWAP2 SWAP1 POP JUMP JUMPDEST PUSH1 0x0 PUSH2 0x26A DUP3 PUSH2 0x255 JUMP JUMPDEST SWAP2 POP PUSH2 0x275 DUP4 PUSH2 0x255 JUMP JUMPDEST SWAP3 POP DUP3 PUSH2 0x285 JUMPI PUSH2 0x284 PUSH2 0x2BF JUMP JUMPDEST JUMPDEST DUP3 DUP3 MOD SWAP1 POP SWAP3 SWAP2 POP POP JUMP JUMPDEST PUSH32 0x4E487B7100000000000000000000000000000000000000000000000000000000 PUSH1 0x0 MSTORE PUSH1 0x11 PUSH1 0x4 MSTORE PUSH1 0x24 PUSH1 0x0 REVERT JUMPDEST PUSH32 0x4E487B7100000000000000000000000000000000000000000000000000000000 PUSH1 0x0 MSTORE PUSH1 0x12 PUSH1 0x4 MSTORE PUSH1 0x24 PUSH1 0x0 REVERT JUMPDEST PUSH32 0x4E487B7100000000000000000000000000000000000000000000000000000000 PUSH1 0x0 MSTORE PUSH1 0x32 PUSH1 0x4 MSTORE PUSH1 0x24 PUSH1 0x0 REVERT JUMPDEST PUSH1 0x0 DUP1 REVERT JUMPDEST PUSH1 0x0 DUP1 REVERT JUMPDEST PUSH1 0x0 DUP1 REVERT JUMPDEST PUSH1 0x0 DUP1 REVERT JUMPDEST PUSH1 0x0 DUP1 REVERT INVALID LOG2 PUSH5 0x6970667358 0x22 SLT KECCAK256 EXTCODESIZE 0xEC 0xDF 0xB2 0xD8 REVERT SWAP13 0xE6 0xA6 SLOAD GT 0xEB DUP12 INVALID 0xD9 0xDA 0x2E 0xDB 0xD2 0x2E 0xE2 0xE1 0xCC ADD 0xBC BLOCKHASH SWAP11 0x4A SWAP6 RETURNDATACOPY PC EQ PUSH5 0x736F6C6343 STOP ADDMOD SMOD STOP CALLER "
				},
				"gasEstimates": {
					"creation": {
						"codeDepositCost": "175200",
						"executionCost": "220",
						"totalCost": "175420"
					},
					"external": {
						"sumIfEvenAndLessThan99(uint256[])": "infinite",
						"total()": "2407"
					}
				},
				"methodIdentifiers": {
					"sumIfEvenAndLessThan99(uint256[])": "c9762ec2",
					"total()": "2ddbd13a"
				}
			},
			"userdoc": {
				"kind": "user",
				"methods": {},
				"version": 1
			}
		}
	}
}