{
	"contracts/FundMe/SafeMathTesterV6.sol": {
		"SafeMathTester": {
			"abi": [
				{
					"inputs": [],
					"name": "add",
					"outputs": [],
					"stateMutability": "nonpayable",
					"type": "function"
				},
				{
					"inputs": [],
					"name": "bigNumber",
					"outputs": [
						{
							"internalType": "uint8",
							"name": "",
							"type": "uint8"
						}
					],
					"stateMutability": "view",
					"type": "function"
				}
			],
			"devdoc": {
				"kind": "dev",
				"methods": {},
				"version": 1
			},
			"evm": {
				"assembly": "    /* \"contracts/FundMe/SafeMathTesterV6.sol\":57:260  contract SafeMathTester{... */\n  mstore(0x40, 0x80)\n    /* \"contracts/FundMe/SafeMathTesterV6.sol\":111:114  255 */\n  0xff\n    /* \"contracts/FundMe/SafeMathTesterV6.sol\":86:114  uint8 public bigNumber = 255 */\n  0x00\n  dup1\n  0x0100\n  exp\n  dup2\n  sload\n  dup2\n  0xff\n  mul\n  not\n  and\n  swap1\n  dup4\n  0xff\n  and\n  mul\n  or\n  swap1\n  sstore\n  pop\n    /* \"contracts/FundMe/SafeMathTesterV6.sol\":57:260  contract SafeMathTester{... */\n  callvalue\n  dup1\n  iszero\n  tag_1\n  jumpi\n  0x00\n  dup1\n  revert\ntag_1:\n  pop\n  dataSize(sub_0)\n  dup1\n  dataOffset(sub_0)\n  0x00\n  codecopy\n  0x00\n  return\nstop\n\nsub_0: assembly {\n        /* \"contracts/FundMe/SafeMathTesterV6.sol\":57:260  contract SafeMathTester{... */\n      mstore(0x40, 0x80)\n      callvalue\n      dup1\n      iszero\n      tag_1\n      jumpi\n      0x00\n      dup1\n      revert\n    tag_1:\n      pop\n      jumpi(tag_2, lt(calldatasize, 0x04))\n      shr(0xe0, calldataload(0x00))\n      dup1\n      0x45964e9e\n      eq\n      tag_3\n      jumpi\n      dup1\n      0x4f2be91f\n      eq\n      tag_4\n      jumpi\n    tag_2:\n      0x00\n      dup1\n      revert\n        /* \"contracts/FundMe/SafeMathTesterV6.sol\":86:114  uint8 public bigNumber = 255 */\n    tag_3:\n      tag_5\n      tag_6\n      jump\t// in\n    tag_5:\n      mload(0x40)\n      dup1\n      dup3\n      0xff\n      and\n      dup2\n      mstore\n      0x20\n      add\n      swap2\n      pop\n      pop\n      mload(0x40)\n      dup1\n      swap2\n      sub\n      swap1\n      return\n        /* \"contracts/FundMe/SafeMathTesterV6.sol\":182:258  function add() public {... */\n    tag_4:\n      tag_7\n      tag_8\n      jump\t// in\n    tag_7:\n      stop\n        /* \"contracts/FundMe/SafeMathTesterV6.sol\":86:114  uint8 public bigNumber = 255 */\n    tag_6:\n      0x00\n      dup1\n      sload\n      swap1\n      0x0100\n      exp\n      swap1\n      div\n      0xff\n      and\n      dup2\n      jump\t// out\n        /* \"contracts/FundMe/SafeMathTesterV6.sol\":182:258  function add() public {... */\n    tag_8:\n        /* \"contracts/FundMe/SafeMathTesterV6.sol\":238:239  1 */\n      0x01\n        /* \"contracts/FundMe/SafeMathTesterV6.sol\":226:235  bigNumber */\n      0x00\n      dup1\n      sload\n      swap1\n      0x0100\n      exp\n      swap1\n      div\n      0xff\n      and\n        /* \"contracts/FundMe/SafeMathTesterV6.sol\":226:239  bigNumber + 1 */\n      add\n        /* \"contracts/FundMe/SafeMathTesterV6.sol\":214:223  bigNumber */\n      0x00\n      dup1\n        /* \"contracts/FundMe/SafeMathTesterV6.sol\":214:239  bigNumber = bigNumber + 1 */\n      0x0100\n      exp\n      dup2\n      sload\n      dup2\n      0xff\n      mul\n      not\n      and\n      swap1\n      dup4\n      0xff\n      and\n      mul\n      or\n      swap1\n      sstore\n      pop\n        /* \"contracts/FundMe/SafeMathTesterV6.sol\":182:258  function add() public {... */\n      jump\t// out\n\n    auxdata: 0xa2646970667358221220433b63d6522bb5c2cc0e576c8c4771d865547274c5c8ba6b3face8b7ddb3466664736f6c634300060c0033\n}\n",
				"bytecode": {
					"linkReferences": {},
					"object": "608060405260ff6000806101000a81548160ff021916908360ff16021790555034801561002b57600080fd5b5060d18061003a6000396000f3fe6080604052348015600f57600080fd5b506004361060325760003560e01c806345964e9e1460375780634f2be91f146056575b600080fd5b603d605e565b604051808260ff16815260200191505060405180910390f35b605c606f565b005b60008054906101000a900460ff1681565b600160008054906101000a900460ff16016000806101000a81548160ff021916908360ff16021790555056fea2646970667358221220433b63d6522bb5c2cc0e576c8c4771d865547274c5c8ba6b3face8b7ddb3466664736f6c634300060c0033",
					"opcodes": "PUSH1 0x80 PUSH1 0x40 MSTORE PUSH1 0xFF PUSH1 0x0 DUP1 PUSH2 0x100 EXP DUP2 SLOAD DUP2 PUSH1 0xFF MUL NOT AND SWAP1 DUP4 PUSH1 0xFF AND MUL OR SWAP1 SSTORE POP CALLVALUE DUP1 ISZERO PUSH2 0x2B JUMPI PUSH1 0x0 DUP1 REVERT JUMPDEST POP PUSH1 0xD1 DUP1 PUSH2 0x3A PUSH1 0x0 CODECOPY PUSH1 0x0 RETURN INVALID PUSH1 0x80 PUSH1 0x40 MSTORE CALLVALUE DUP1 ISZERO PUSH1 0xF JUMPI PUSH1 0x0 DUP1 REVERT JUMPDEST POP PUSH1 0x4 CALLDATASIZE LT PUSH1 0x32 JUMPI PUSH1 0x0 CALLDATALOAD PUSH1 0xE0 SHR DUP1 PUSH4 0x45964E9E EQ PUSH1 0x37 JUMPI DUP1 PUSH4 0x4F2BE91F EQ PUSH1 0x56 JUMPI JUMPDEST PUSH1 0x0 DUP1 REVERT JUMPDEST PUSH1 0x3D PUSH1 0x5E JUMP JUMPDEST PUSH1 0x40 MLOAD DUP1 DUP3 PUSH1 0xFF AND DUP2 MSTORE PUSH1 0x20 ADD SWAP2 POP POP PUSH1 0x40 MLOAD DUP1 SWAP2 SUB SWAP1 RETURN JUMPDEST PUSH1 0x5C PUSH1 0x6F JUMP JUMPDEST STOP JUMPDEST PUSH1 0x0 DUP1 SLOAD SWAP1 PUSH2 0x100 EXP SWAP1 DIV PUSH1 0xFF AND DUP2 JUMP JUMPDEST PUSH1 0x1 PUSH1 0x0 DUP1 SLOAD SWAP1 PUSH2 0x100 EXP SWAP1 DIV PUSH1 0xFF AND ADD PUSH1 0x0 DUP1 PUSH2 0x100 EXP DUP2 SLOAD DUP2 PUSH1 0xFF MUL NOT AND SWAP1 DUP4 PUSH1 0xFF AND MUL OR SWAP1 SSTORE POP JUMP INVALID LOG2 PUSH5 0x6970667358 0x22 SLT KECCAK256 NUMBER EXTCODESIZE PUSH4 0xD6522BB5 0xC2 0xCC 0xE JUMPI PUSH13 0x8C4771D865547274C5C8BA6B3F 0xAC 0xE8 0xB7 0xDD 0xB3 CHAINID PUSH7 0x64736F6C634300 MOD 0xC STOP CALLER "
				},
				"gasEstimates": {
					"creation": {
						"codeDepositCost": "41800",
						"executionCost": "20960",
						"totalCost": "62760"
					},
					"external": {
						"add()": "21850",
						"bigNumber()": "1022"
					}
				},
				"methodIdentifiers": {
					"add()": "4f2be91f",
					"bigNumber()": "45964e9e"
				}
			},
			"storageLayout": {
				"storage": [
					{
						"astId": 4,
						"contract": "contracts/FundMe/SafeMathTesterV6.sol:SafeMathTester",
						"label": "bigNumber",
						"offset": 0,
						"slot": "0",
						"type": "t_uint8"
					}
				],
				"types": {
					"t_uint8": {
						"encoding": "inplace",
						"label": "uint8",
						"numberOfBytes": "1"
					}
				}
			},
			"userdoc": {
				"kind": "user",
				"methods": {},
				"version": 1
			}
		}
	}
}