{
	"contracts/FundMe/FundMe.sol": {
		"FundMe": {
			"abi": [
				{
					"inputs": [],
					"stateMutability": "nonpayable",
					"type": "constructor"
				},
				{
					"inputs": [
						{
							"internalType": "address",
							"name": "",
							"type": "address"
						}
					],
					"name": "addressToAmountFunded",
					"outputs": [
						{
							"internalType": "uint256",
							"name": "",
							"type": "uint256"
						}
					],
					"stateMutability": "view",
					"type": "function"
				},
				{
					"inputs": [],
					"name": "contract_owner",
					"outputs": [
						{
							"internalType": "address",
							"name": "",
							"type": "address"
						}
					],
					"stateMutability": "view",
					"type": "function"
				},
				{
					"inputs": [],
					"name": "fund",
					"outputs": [],
					"stateMutability": "payable",
					"type": "function"
				},
				{
					"inputs": [
						{
							"internalType": "uint256",
							"name": "",
							"type": "uint256"
						}
					],
					"name": "funders",
					"outputs": [
						{
							"internalType": "address",
							"name": "",
							"type": "address"
						}
					],
					"stateMutability": "view",
					"type": "function"
				},
				{
					"inputs": [],
					"name": "minimumUsd",
					"outputs": [
						{
							"internalType": "uint256",
							"name": "",
							"type": "uint256"
						}
					],
					"stateMutability": "view",
					"type": "function"
				},
				{
					"inputs": [],
					"name": "withdraw",
					"outputs": [],
					"stateMutability": "nonpayable",
					"type": "function"
				}
			],
			"devdoc": {
				"kind": "dev",
				"methods": {},
				"version": 1
			},
			"evm": {
				"assembly": "    /* \"contracts/FundMe/FundMe.sol\":165:1660  contract FundMe {... */\n  mstore(0x40, 0x80)\n    /* \"contracts/FundMe/FundMe.sol\":253:262  50 * 1e18 */\n  0x02b5e3af16b1880000\n    /* \"contracts/FundMe/FundMe.sol\":225:262  uint256 public minimumUsd = 50 * 1e18 */\n  0x00\n  sstore\n    /* \"contracts/FundMe/FundMe.sol\":320:378  constructor() {... */\n  callvalue\n  dup1\n  iszero\n  tag_1\n  jumpi\n  0x00\n  dup1\n  revert\ntag_1:\n  pop\n    /* \"contracts/FundMe/FundMe.sol\":361:371  msg.sender */\n  caller\n    /* \"contracts/FundMe/FundMe.sol\":344:358  contract_owner */\n  0x01\n  0x00\n    /* \"contracts/FundMe/FundMe.sol\":344:371  contract_owner = msg.sender */\n  0x0100\n  exp\n  dup2\n  sload\n  dup2\n  0xffffffffffffffffffffffffffffffffffffffff\n  mul\n  not\n  and\n  swap1\n  dup4\n  0xffffffffffffffffffffffffffffffffffffffff\n  and\n  mul\n  or\n  swap1\n  sstore\n  pop\n    /* \"contracts/FundMe/FundMe.sol\":165:1660  contract FundMe {... */\n  dataSize(sub_0)\n  dup1\n  dataOffset(sub_0)\n  0x00\n  codecopy\n  0x00\n  return\nstop\n\nsub_0: assembly {\n        /* \"contracts/FundMe/FundMe.sol\":165:1660  contract FundMe {... */\n      mstore(0x40, 0x80)\n      jumpi(tag_1, lt(calldatasize, 0x04))\n      shr(0xe0, calldataload(0x00))\n      dup1\n      0x098de820\n      eq\n      tag_2\n      jumpi\n      dup1\n      0x384f58eb\n      eq\n      tag_3\n      jumpi\n      dup1\n      0x3ccfd60b\n      eq\n      tag_4\n      jumpi\n      dup1\n      0x3e47d6f3\n      eq\n      tag_5\n      jumpi\n      dup1\n      0xb60d4288\n      eq\n      tag_6\n      jumpi\n      dup1\n      0xdc0d3dff\n      eq\n      tag_7\n      jumpi\n    tag_1:\n      0x00\n      dup1\n      revert\n        /* \"contracts/FundMe/FundMe.sol\":225:262  uint256 public minimumUsd = 50 * 1e18 */\n    tag_2:\n      callvalue\n      dup1\n      iszero\n      tag_8\n      jumpi\n      0x00\n      dup1\n      revert\n    tag_8:\n      pop\n      tag_9\n      tag_10\n      jump\t// in\n    tag_9:\n      mload(0x40)\n      tag_11\n      swap2\n      swap1\n      tag_12\n      jump\t// in\n    tag_11:\n      mload(0x40)\n      dup1\n      swap2\n      sub\n      swap1\n      return\n        /* \"contracts/FundMe/FundMe.sol\":284:313  address public contract_owner */\n    tag_3:\n      callvalue\n      dup1\n      iszero\n      tag_13\n      jumpi\n      0x00\n      dup1\n      revert\n    tag_13:\n      pop\n      tag_14\n      tag_15\n      jump\t// in\n    tag_14:\n      mload(0x40)\n      tag_16\n      swap2\n      swap1\n      tag_17\n      jump\t// in\n    tag_16:\n      mload(0x40)\n      dup1\n      swap2\n      sub\n      swap1\n      return\n        /* \"contracts/FundMe/FundMe.sol\":1013:1658  function withdraw() public {... */\n    tag_4:\n      callvalue\n      dup1\n      iszero\n      tag_18\n      jumpi\n      0x00\n      dup1\n      revert\n    tag_18:\n      pop\n      tag_19\n      tag_20\n      jump\t// in\n    tag_19:\n      stop\n        /* \"contracts/FundMe/FundMe.sol\":414:470  mapping(address => uint256) public addressToAmountFunded */\n    tag_5:\n      callvalue\n      dup1\n      iszero\n      tag_21\n      jumpi\n      0x00\n      dup1\n      revert\n    tag_21:\n      pop\n      tag_22\n      0x04\n      dup1\n      calldatasize\n      sub\n      dup2\n      add\n      swap1\n      tag_23\n      swap2\n      swap1\n      tag_24\n      jump\t// in\n    tag_23:\n      tag_25\n      jump\t// in\n    tag_22:\n      mload(0x40)\n      tag_26\n      swap2\n      swap1\n      tag_12\n      jump\t// in\n    tag_26:\n      mload(0x40)\n      dup1\n      swap2\n      sub\n      swap1\n      return\n        /* \"contracts/FundMe/FundMe.sol\":477:1007  function fund() public payable {... */\n    tag_6:\n      tag_27\n      tag_28\n      jump\t// in\n    tag_27:\n      stop\n        /* \"contracts/FundMe/FundMe.sol\":384:408  address[] public funders */\n    tag_7:\n      callvalue\n      dup1\n      iszero\n      tag_29\n      jumpi\n      0x00\n      dup1\n      revert\n    tag_29:\n      pop\n      tag_30\n      0x04\n      dup1\n      calldatasize\n      sub\n      dup2\n      add\n      swap1\n      tag_31\n      swap2\n      swap1\n      tag_32\n      jump\t// in\n    tag_31:\n      tag_33\n      jump\t// in\n    tag_30:\n      mload(0x40)\n      tag_34\n      swap2\n      swap1\n      tag_17\n      jump\t// in\n    tag_34:\n      mload(0x40)\n      dup1\n      swap2\n      sub\n      swap1\n      return\n        /* \"contracts/FundMe/FundMe.sol\":225:262  uint256 public minimumUsd = 50 * 1e18 */\n    tag_10:\n      sload(0x00)\n      dup2\n      jump\t// out\n        /* \"contracts/FundMe/FundMe.sol\":284:313  address public contract_owner */\n    tag_15:\n      0x01\n      0x00\n      swap1\n      sload\n      swap1\n      0x0100\n      exp\n      swap1\n      div\n      0xffffffffffffffffffffffffffffffffffffffff\n      and\n      dup2\n      jump\t// out\n        /* \"contracts/FundMe/FundMe.sol\":1013:1658  function withdraw() public {... */\n    tag_20:\n        /* \"contracts/FundMe/FundMe.sol\":1054:1073  uint256 funderIndex */\n      0x00\n        /* \"contracts/FundMe/FundMe.sol\":1050:1235  for(uint256 funderIndex = 0; funderIndex < funders.length ; funderIndex ++) {... */\n    tag_36:\n        /* \"contracts/FundMe/FundMe.sol\":1093:1100  funders */\n      0x02\n        /* \"contracts/FundMe/FundMe.sol\":1093:1107  funders.length */\n      dup1\n      sload\n      swap1\n      pop\n        /* \"contracts/FundMe/FundMe.sol\":1079:1090  funderIndex */\n      dup2\n        /* \"contracts/FundMe/FundMe.sol\":1079:1107  funderIndex < funders.length */\n      lt\n        /* \"contracts/FundMe/FundMe.sol\":1050:1235  for(uint256 funderIndex = 0; funderIndex < funders.length ; funderIndex ++) {... */\n      iszero\n      tag_37\n      jumpi\n        /* \"contracts/FundMe/FundMe.sol\":1140:1154  address funder */\n      0x00\n        /* \"contracts/FundMe/FundMe.sol\":1157:1164  funders */\n      0x02\n        /* \"contracts/FundMe/FundMe.sol\":1165:1176  funderIndex */\n      dup3\n        /* \"contracts/FundMe/FundMe.sol\":1157:1177  funders[funderIndex] */\n      dup2\n      sload\n      dup2\n      lt\n      tag_39\n      jumpi\n      tag_40\n      tag_41\n      jump\t// in\n    tag_40:\n    tag_39:\n      swap1\n      0x00\n      mstore\n      keccak256(0x00, 0x20)\n      add\n      0x00\n      swap1\n      sload\n      swap1\n      0x0100\n      exp\n      swap1\n      div\n      0xffffffffffffffffffffffffffffffffffffffff\n      and\n        /* \"contracts/FundMe/FundMe.sol\":1140:1177  address funder = funders[funderIndex] */\n      swap1\n      pop\n        /* \"contracts/FundMe/FundMe.sol\":1223:1224  0 */\n      0x00\n        /* \"contracts/FundMe/FundMe.sol\":1191:1212  addressToAmountFunded */\n      0x03\n        /* \"contracts/FundMe/FundMe.sol\":1191:1220  addressToAmountFunded[funder] */\n      0x00\n        /* \"contracts/FundMe/FundMe.sol\":1213:1219  funder */\n      dup4\n        /* \"contracts/FundMe/FundMe.sol\":1191:1220  addressToAmountFunded[funder] */\n      0xffffffffffffffffffffffffffffffffffffffff\n      and\n      0xffffffffffffffffffffffffffffffffffffffff\n      and\n      dup2\n      mstore\n      0x20\n      add\n      swap1\n      dup2\n      mstore\n      0x20\n      add\n      0x00\n      keccak256\n        /* \"contracts/FundMe/FundMe.sol\":1191:1224  addressToAmountFunded[funder] = 0 */\n      dup2\n      swap1\n      sstore\n      pop\n        /* \"contracts/FundMe/FundMe.sol\":1126:1235  {... */\n      pop\n        /* \"contracts/FundMe/FundMe.sol\":1110:1124  funderIndex ++ */\n      dup1\n      dup1\n      tag_43\n      swap1\n      tag_44\n      jump\t// in\n    tag_43:\n      swap2\n      pop\n      pop\n        /* \"contracts/FundMe/FundMe.sol\":1050:1235  for(uint256 funderIndex = 0; funderIndex < funders.length ; funderIndex ++) {... */\n      jump(tag_36)\n    tag_37:\n      pop\n        /* \"contracts/FundMe/FundMe.sol\":1268:1269  0 */\n      0x00\n        /* \"contracts/FundMe/FundMe.sol\":1254:1270  new address[](0) */\n      0xffffffffffffffff\n      dup2\n      gt\n      iszero\n      tag_45\n      jumpi\n      tag_46\n      tag_47\n      jump\t// in\n    tag_46:\n    tag_45:\n      mload(0x40)\n      swap1\n      dup1\n      dup3\n      mstore\n      dup1\n      0x20\n      mul\n      0x20\n      add\n      dup3\n      add\n      0x40\n      mstore\n      dup1\n      iszero\n      tag_48\n      jumpi\n      dup2\n      0x20\n      add\n      0x20\n      dup3\n      mul\n      dup1\n      calldatasize\n      dup4\n      calldatacopy\n      dup1\n      dup3\n      add\n      swap2\n      pop\n      pop\n      swap1\n      pop\n    tag_48:\n      pop\n        /* \"contracts/FundMe/FundMe.sol\":1244:1251  funders */\n      0x02\n        /* \"contracts/FundMe/FundMe.sol\":1244:1270  funders = new address[](0) */\n      swap1\n      dup1\n      mload\n      swap1\n      0x20\n      add\n      swap1\n      tag_49\n      swap3\n      swap2\n      swap1\n      tag_50\n      jump\t// in\n    tag_49:\n      pop\n        /* \"contracts/FundMe/FundMe.sol\":1527:1539  bool success */\n      0x00\n        /* \"contracts/FundMe/FundMe.sol\":1553:1563  msg.sender */\n      caller\n        /* \"contracts/FundMe/FundMe.sol\":1545:1569  payable(msg.sender).call */\n      0xffffffffffffffffffffffffffffffffffffffff\n      and\n        /* \"contracts/FundMe/FundMe.sol\":1577:1598  address(this).balance */\n      selfbalance\n        /* \"contracts/FundMe/FundMe.sol\":1545:1603  payable(msg.sender).call{value: address(this).balance}(\"\") */\n      mload(0x40)\n      tag_51\n      swap1\n      tag_52\n      jump\t// in\n    tag_51:\n      0x00\n      mload(0x40)\n      dup1\n      dup4\n      sub\n      dup2\n      dup6\n      dup8\n      gas\n      call\n      swap3\n      pop\n      pop\n      pop\n      returndatasize\n      dup1\n      0x00\n      dup2\n      eq\n      tag_55\n      jumpi\n      mload(0x40)\n      swap2\n      pop\n      and(add(returndatasize, 0x3f), not(0x1f))\n      dup3\n      add\n      0x40\n      mstore\n      returndatasize\n      dup3\n      mstore\n      returndatasize\n      0x00\n      0x20\n      dup5\n      add\n      returndatacopy\n      jump(tag_54)\n    tag_55:\n      0x60\n      swap2\n      pop\n    tag_54:\n      pop\n        /* \"contracts/FundMe/FundMe.sol\":1526:1603  (bool success, ) = payable(msg.sender).call{value: address(this).balance}(\"\") */\n      pop\n      swap1\n      pop\n        /* \"contracts/FundMe/FundMe.sol\":1621:1628  success */\n      dup1\n        /* \"contracts/FundMe/FundMe.sol\":1613:1651  require(success, \"failed to withdraw\") */\n      tag_56\n      jumpi\n      mload(0x40)\n      0x08c379a000000000000000000000000000000000000000000000000000000000\n      dup2\n      mstore\n      0x04\n      add\n      tag_57\n      swap1\n      tag_58\n      jump\t// in\n    tag_57:\n      mload(0x40)\n      dup1\n      swap2\n      sub\n      swap1\n      revert\n    tag_56:\n        /* \"contracts/FundMe/FundMe.sol\":1040:1658  {... */\n      pop\n        /* \"contracts/FundMe/FundMe.sol\":1013:1658  function withdraw() public {... */\n      jump\t// out\n        /* \"contracts/FundMe/FundMe.sol\":414:470  mapping(address => uint256) public addressToAmountFunded */\n    tag_25:\n      mstore(0x20, 0x03)\n      dup1\n      0x00\n      mstore\n      keccak256(0x00, 0x40)\n      0x00\n      swap2\n      pop\n      swap1\n      pop\n      sload\n      dup2\n      jump\t// out\n        /* \"contracts/FundMe/FundMe.sol\":477:1007  function fund() public payable {... */\n    tag_28:\n        /* \"contracts/FundMe/FundMe.sol\":872:882  minimumUsd */\n      sload(0x00)\n        /* \"contracts/FundMe/FundMe.sol\":839:868  msg.value.getConversionRate() */\n      tag_60\n        /* \"contracts/FundMe/FundMe.sol\":839:848  msg.value */\n      callvalue\n        /* \"contracts/FundMe/FundMe.sol\":839:866  msg.value.getConversionRate */\n      tag_61\n        /* \"contracts/FundMe/FundMe.sol\":839:868  msg.value.getConversionRate() */\n      jump\t// in\n    tag_60:\n        /* \"contracts/FundMe/FundMe.sol\":839:882  msg.value.getConversionRate() >= minimumUsd */\n      lt\n      iszero\n        /* \"contracts/FundMe/FundMe.sol\":831:909  require(msg.value.getConversionRate() >= minimumUsd, \"Didn't send enough ETH\") */\n      tag_62\n      jumpi\n      mload(0x40)\n      0x08c379a000000000000000000000000000000000000000000000000000000000\n      dup2\n      mstore\n      0x04\n      add\n      tag_63\n      swap1\n      tag_64\n      jump\t// in\n    tag_63:\n      mload(0x40)\n      dup1\n      swap2\n      sub\n      swap1\n      revert\n    tag_62:\n        /* \"contracts/FundMe/FundMe.sol\":921:928  funders */\n      0x02\n        /* \"contracts/FundMe/FundMe.sol\":934:944  msg.sender */\n      caller\n        /* \"contracts/FundMe/FundMe.sol\":921:945  funders.push(msg.sender) */\n      swap1\n      dup1\n      0x01\n      dup2\n      sload\n      add\n      dup1\n      dup3\n      sstore\n      dup1\n      swap2\n      pop\n      pop\n      0x01\n      swap1\n      sub\n      swap1\n      0x00\n      mstore\n      keccak256(0x00, 0x20)\n      add\n      0x00\n      swap1\n      swap2\n      swap1\n      swap2\n      swap1\n      swap2\n      0x0100\n      exp\n      dup2\n      sload\n      dup2\n      0xffffffffffffffffffffffffffffffffffffffff\n      mul\n      not\n      and\n      swap1\n      dup4\n      0xffffffffffffffffffffffffffffffffffffffff\n      and\n      mul\n      or\n      swap1\n      sstore\n      pop\n        /* \"contracts/FundMe/FundMe.sol\":991:1000  msg.value */\n      callvalue\n        /* \"contracts/FundMe/FundMe.sol\":955:976  addressToAmountFunded */\n      0x03\n        /* \"contracts/FundMe/FundMe.sol\":955:988  addressToAmountFunded[msg.sender] */\n      0x00\n        /* \"contracts/FundMe/FundMe.sol\":977:987  msg.sender */\n      caller\n        /* \"contracts/FundMe/FundMe.sol\":955:988  addressToAmountFunded[msg.sender] */\n      0xffffffffffffffffffffffffffffffffffffffff\n      and\n      0xffffffffffffffffffffffffffffffffffffffff\n      and\n      dup2\n      mstore\n      0x20\n      add\n      swap1\n      dup2\n      mstore\n      0x20\n      add\n      0x00\n      keccak256\n        /* \"contracts/FundMe/FundMe.sol\":955:1000  addressToAmountFunded[msg.sender] = msg.value */\n      dup2\n      swap1\n      sstore\n      pop\n        /* \"contracts/FundMe/FundMe.sol\":477:1007  function fund() public payable {... */\n      jump\t// out\n        /* \"contracts/FundMe/FundMe.sol\":384:408  address[] public funders */\n    tag_33:\n      0x02\n      dup2\n      dup2\n      sload\n      dup2\n      lt\n      tag_66\n      jumpi\n      0x00\n      dup1\n      revert\n    tag_66:\n      swap1\n      0x00\n      mstore\n      keccak256(0x00, 0x20)\n      add\n      0x00\n      swap2\n      pop\n      sload\n      swap1\n      0x0100\n      exp\n      swap1\n      div\n      0xffffffffffffffffffffffffffffffffffffffff\n      and\n      dup2\n      jump\t// out\n        /* \"contracts/FundMe/PriceConverter.sol\":1150:1497  function getConversionRate(uint256 ethAmount)... */\n    tag_61:\n        /* \"contracts/FundMe/PriceConverter.sol\":1243:1250  uint256 */\n      0x00\n        /* \"contracts/FundMe/PriceConverter.sol\":1266:1282  uint256 ethPrice */\n      dup1\n        /* \"contracts/FundMe/PriceConverter.sol\":1285:1295  getPrice() */\n      tag_69\n        /* \"contracts/FundMe/PriceConverter.sol\":1285:1293  getPrice */\n      tag_70\n        /* \"contracts/FundMe/PriceConverter.sol\":1285:1295  getPrice() */\n      jump\t// in\n    tag_69:\n        /* \"contracts/FundMe/PriceConverter.sol\":1266:1295  uint256 ethPrice = getPrice() */\n      swap1\n      pop\n        /* \"contracts/FundMe/PriceConverter.sol\":1305:1327  uint256 ethAmountInUsd */\n      0x00\n        /* \"contracts/FundMe/PriceConverter.sol\":1355:1374  1000000000000000000 */\n      0x0de0b6b3a7640000\n        /* \"contracts/FundMe/PriceConverter.sol\":1342:1351  ethAmount */\n      dup5\n        /* \"contracts/FundMe/PriceConverter.sol\":1331:1339  ethPrice */\n      dup4\n        /* \"contracts/FundMe/PriceConverter.sol\":1331:1351  ethPrice * ethAmount */\n      tag_71\n      swap2\n      swap1\n      tag_72\n      jump\t// in\n    tag_71:\n        /* \"contracts/FundMe/PriceConverter.sol\":1330:1374  (ethPrice * ethAmount) / 1000000000000000000 */\n      tag_73\n      swap2\n      swap1\n      tag_74\n      jump\t// in\n    tag_73:\n        /* \"contracts/FundMe/PriceConverter.sol\":1305:1374  uint256 ethAmountInUsd = (ethPrice * ethAmount) / 1000000000000000000 */\n      swap1\n      pop\n        /* \"contracts/FundMe/PriceConverter.sol\":1476:1490  ethAmountInUsd */\n      dup1\n        /* \"contracts/FundMe/PriceConverter.sol\":1469:1490  return ethAmountInUsd */\n      swap3\n      pop\n      pop\n      pop\n        /* \"contracts/FundMe/PriceConverter.sol\":1150:1497  function getConversionRate(uint256 ethAmount)... */\n      swap2\n      swap1\n      pop\n      jump\t// out\n        /* \"contracts/FundMe/PriceConverter.sol\":298:829  function getPrice() internal view returns (uint256) {... */\n    tag_70:\n        /* \"contracts/FundMe/PriceConverter.sol\":341:348  uint256 */\n      0x00\n        /* \"contracts/FundMe/PriceConverter.sol\":457:488  AggregatorV3Interface priceFeed */\n      dup1\n        /* \"contracts/FundMe/PriceConverter.sol\":526:568  0xD4a33860578De61DBAbDc8BFdb98FD742fA7028e */\n      0xd4a33860578de61dbabdc8bfdb98fd742fa7028e\n        /* \"contracts/FundMe/PriceConverter.sol\":457:578  AggregatorV3Interface priceFeed = AggregatorV3Interface(... */\n      swap1\n      pop\n        /* \"contracts/FundMe/PriceConverter.sol\":591:603  int256 price */\n      0x00\n        /* \"contracts/FundMe/PriceConverter.sol\":613:622  priceFeed */\n      dup2\n        /* \"contracts/FundMe/PriceConverter.sol\":613:638  priceFeed.latestRoundData */\n      0xffffffffffffffffffffffffffffffffffffffff\n      and\n      0xfeaf968c\n        /* \"contracts/FundMe/PriceConverter.sol\":613:640  priceFeed.latestRoundData() */\n      mload(0x40)\n      dup2\n      0xffffffff\n      and\n      0xe0\n      shl\n      dup2\n      mstore\n      0x04\n      add\n      0xa0\n      mload(0x40)\n      dup1\n      dup4\n      sub\n      dup2\n      dup7\n      gas\n      staticcall\n      iszero\n      dup1\n      iszero\n      tag_77\n      jumpi\n      returndatasize\n      0x00\n      dup1\n      returndatacopy\n      revert(0x00, returndatasize)\n    tag_77:\n      pop\n      pop\n      pop\n      pop\n      mload(0x40)\n      returndatasize\n      not(0x1f)\n      0x1f\n      dup3\n      add\n      and\n      dup3\n      add\n      dup1\n      0x40\n      mstore\n      pop\n      dup2\n      add\n      swap1\n      tag_78\n      swap2\n      swap1\n      tag_79\n      jump\t// in\n    tag_78:\n        /* \"contracts/FundMe/PriceConverter.sol\":588:640  (, int256 price, , , ) = priceFeed.latestRoundData() */\n      pop\n      pop\n      pop\n      swap2\n      pop\n      pop\n        /* \"contracts/FundMe/PriceConverter.sol\":808:812  1e10 */\n      0x02540be400\n        /* \"contracts/FundMe/PriceConverter.sol\":800:805  price */\n      dup2\n        /* \"contracts/FundMe/PriceConverter.sol\":800:812  price * 1e10 */\n      tag_80\n      swap2\n      swap1\n      tag_81\n      jump\t// in\n    tag_80:\n        /* \"contracts/FundMe/PriceConverter.sol\":785:813  return uint256(price * 1e10) */\n      swap3\n      pop\n      pop\n      pop\n        /* \"contracts/FundMe/PriceConverter.sol\":298:829  function getPrice() internal view returns (uint256) {... */\n      swap1\n      jump\t// out\n    tag_50:\n      dup3\n      dup1\n      sload\n      dup3\n      dup3\n      sstore\n      swap1\n      0x00\n      mstore\n      keccak256(0x00, 0x20)\n      swap1\n      dup2\n      add\n      swap3\n      dup3\n      iszero\n      tag_82\n      jumpi\n      swap2\n      0x20\n      mul\n      dup3\n      add\n    tag_83:\n      dup3\n      dup2\n      gt\n      iszero\n      tag_84\n      jumpi\n      dup3\n      mload\n      dup3\n      exp(0x0100, 0x00)\n      dup2\n      sload\n      dup2\n      0xffffffffffffffffffffffffffffffffffffffff\n      mul\n      not\n      and\n      swap1\n      dup4\n      0xffffffffffffffffffffffffffffffffffffffff\n      and\n      mul\n      or\n      swap1\n      sstore\n      pop\n      swap2\n      0x20\n      add\n      swap2\n      swap1\n      0x01\n      add\n      swap1\n      jump(tag_83)\n    tag_84:\n    tag_82:\n      pop\n      swap1\n      pop\n      tag_85\n      swap2\n      swap1\n      tag_86\n      jump\t// in\n    tag_85:\n      pop\n      swap1\n      jump\t// out\n    tag_86:\n    tag_87:\n      dup1\n      dup3\n      gt\n      iszero\n      tag_88\n      jumpi\n      0x00\n      dup2\n      0x00\n      swap1\n      sstore\n      pop\n      0x01\n      add\n      jump(tag_87)\n    tag_88:\n      pop\n      swap1\n      jump\t// out\n        /* \"#utility.yul\":7:84   */\n    tag_89:\n        /* \"#utility.yul\":44:51   */\n      0x00\n        /* \"#utility.yul\":73:78   */\n      dup2\n        /* \"#utility.yul\":62:78   */\n      swap1\n      pop\n        /* \"#utility.yul\":7:84   */\n      swap2\n      swap1\n      pop\n      jump\t// out\n        /* \"#utility.yul\":90:208   */\n    tag_90:\n        /* \"#utility.yul\":177:201   */\n      tag_121\n        /* \"#utility.yul\":195:200   */\n      dup2\n        /* \"#utility.yul\":177:201   */\n      tag_89\n      jump\t// in\n    tag_121:\n        /* \"#utility.yul\":172:175   */\n      dup3\n        /* \"#utility.yul\":165:202   */\n      mstore\n        /* \"#utility.yul\":90:208   */\n      pop\n      pop\n      jump\t// out\n        /* \"#utility.yul\":214:436   */\n    tag_12:\n        /* \"#utility.yul\":307:311   */\n      0x00\n        /* \"#utility.yul\":345:347   */\n      0x20\n        /* \"#utility.yul\":334:343   */\n      dup3\n        /* \"#utility.yul\":330:348   */\n      add\n        /* \"#utility.yul\":322:348   */\n      swap1\n      pop\n        /* \"#utility.yul\":358:429   */\n      tag_123\n        /* \"#utility.yul\":426:427   */\n      0x00\n        /* \"#utility.yul\":415:424   */\n      dup4\n        /* \"#utility.yul\":411:428   */\n      add\n        /* \"#utility.yul\":402:408   */\n      dup5\n        /* \"#utility.yul\":358:429   */\n      tag_90\n      jump\t// in\n    tag_123:\n        /* \"#utility.yul\":214:436   */\n      swap3\n      swap2\n      pop\n      pop\n      jump\t// out\n        /* \"#utility.yul\":442:568   */\n    tag_91:\n        /* \"#utility.yul\":479:486   */\n      0x00\n        /* \"#utility.yul\":519:561   */\n      0xffffffffffffffffffffffffffffffffffffffff\n        /* \"#utility.yul\":512:517   */\n      dup3\n        /* \"#utility.yul\":508:562   */\n      and\n        /* \"#utility.yul\":497:562   */\n      swap1\n      pop\n        /* \"#utility.yul\":442:568   */\n      swap2\n      swap1\n      pop\n      jump\t// out\n        /* \"#utility.yul\":574:670   */\n    tag_92:\n        /* \"#utility.yul\":611:618   */\n      0x00\n        /* \"#utility.yul\":640:664   */\n      tag_126\n        /* \"#utility.yul\":658:663   */\n      dup3\n        /* \"#utility.yul\":640:664   */\n      tag_91\n      jump\t// in\n    tag_126:\n        /* \"#utility.yul\":629:664   */\n      swap1\n      pop\n        /* \"#utility.yul\":574:670   */\n      swap2\n      swap1\n      pop\n      jump\t// out\n        /* \"#utility.yul\":676:794   */\n    tag_93:\n        /* \"#utility.yul\":763:787   */\n      tag_128\n        /* \"#utility.yul\":781:786   */\n      dup2\n        /* \"#utility.yul\":763:787   */\n      tag_92\n      jump\t// in\n    tag_128:\n        /* \"#utility.yul\":758:761   */\n      dup3\n        /* \"#utility.yul\":751:788   */\n      mstore\n        /* \"#utility.yul\":676:794   */\n      pop\n      pop\n      jump\t// out\n        /* \"#utility.yul\":800:1022   */\n    tag_17:\n        /* \"#utility.yul\":893:897   */\n      0x00\n        /* \"#utility.yul\":931:933   */\n      0x20\n        /* \"#utility.yul\":920:929   */\n      dup3\n        /* \"#utility.yul\":916:934   */\n      add\n        /* \"#utility.yul\":908:934   */\n      swap1\n      pop\n        /* \"#utility.yul\":944:1015   */\n      tag_130\n        /* \"#utility.yul\":1012:1013   */\n      0x00\n        /* \"#utility.yul\":1001:1010   */\n      dup4\n        /* \"#utility.yul\":997:1014   */\n      add\n        /* \"#utility.yul\":988:994   */\n      dup5\n        /* \"#utility.yul\":944:1015   */\n      tag_93\n      jump\t// in\n    tag_130:\n        /* \"#utility.yul\":800:1022   */\n      swap3\n      swap2\n      pop\n      pop\n      jump\t// out\n        /* \"#utility.yul\":1109:1226   */\n    tag_95:\n        /* \"#utility.yul\":1218:1219   */\n      0x00\n        /* \"#utility.yul\":1215:1216   */\n      dup1\n        /* \"#utility.yul\":1208:1220   */\n      revert\n        /* \"#utility.yul\":1355:1477   */\n    tag_97:\n        /* \"#utility.yul\":1428:1452   */\n      tag_135\n        /* \"#utility.yul\":1446:1451   */\n      dup2\n        /* \"#utility.yul\":1428:1452   */\n      tag_92\n      jump\t// in\n    tag_135:\n        /* \"#utility.yul\":1421:1426   */\n      dup2\n        /* \"#utility.yul\":1418:1453   */\n      eq\n        /* \"#utility.yul\":1408:1471   */\n      tag_136\n      jumpi\n        /* \"#utility.yul\":1467:1468   */\n      0x00\n        /* \"#utility.yul\":1464:1465   */\n      dup1\n        /* \"#utility.yul\":1457:1469   */\n      revert\n        /* \"#utility.yul\":1408:1471   */\n    tag_136:\n        /* \"#utility.yul\":1355:1477   */\n      pop\n      jump\t// out\n        /* \"#utility.yul\":1483:1622   */\n    tag_98:\n        /* \"#utility.yul\":1529:1534   */\n      0x00\n        /* \"#utility.yul\":1567:1573   */\n      dup2\n        /* \"#utility.yul\":1554:1574   */\n      calldataload\n        /* \"#utility.yul\":1545:1574   */\n      swap1\n      pop\n        /* \"#utility.yul\":1583:1616   */\n      tag_138\n        /* \"#utility.yul\":1610:1615   */\n      dup2\n        /* \"#utility.yul\":1583:1616   */\n      tag_97\n      jump\t// in\n    tag_138:\n        /* \"#utility.yul\":1483:1622   */\n      swap3\n      swap2\n      pop\n      pop\n      jump\t// out\n        /* \"#utility.yul\":1628:1957   */\n    tag_24:\n        /* \"#utility.yul\":1687:1693   */\n      0x00\n        /* \"#utility.yul\":1736:1738   */\n      0x20\n        /* \"#utility.yul\":1724:1733   */\n      dup3\n        /* \"#utility.yul\":1715:1722   */\n      dup5\n        /* \"#utility.yul\":1711:1734   */\n      sub\n        /* \"#utility.yul\":1707:1739   */\n      slt\n        /* \"#utility.yul\":1704:1823   */\n      iszero\n      tag_140\n      jumpi\n        /* \"#utility.yul\":1742:1821   */\n      tag_141\n      tag_95\n      jump\t// in\n    tag_141:\n        /* \"#utility.yul\":1704:1823   */\n    tag_140:\n        /* \"#utility.yul\":1862:1863   */\n      0x00\n        /* \"#utility.yul\":1887:1940   */\n      tag_142\n        /* \"#utility.yul\":1932:1939   */\n      dup5\n        /* \"#utility.yul\":1923:1929   */\n      dup3\n        /* \"#utility.yul\":1912:1921   */\n      dup6\n        /* \"#utility.yul\":1908:1930   */\n      add\n        /* \"#utility.yul\":1887:1940   */\n      tag_98\n      jump\t// in\n    tag_142:\n        /* \"#utility.yul\":1877:1940   */\n      swap2\n      pop\n        /* \"#utility.yul\":1833:1950   */\n      pop\n        /* \"#utility.yul\":1628:1957   */\n      swap3\n      swap2\n      pop\n      pop\n      jump\t// out\n        /* \"#utility.yul\":1963:2085   */\n    tag_99:\n        /* \"#utility.yul\":2036:2060   */\n      tag_144\n        /* \"#utility.yul\":2054:2059   */\n      dup2\n        /* \"#utility.yul\":2036:2060   */\n      tag_89\n      jump\t// in\n    tag_144:\n        /* \"#utility.yul\":2029:2034   */\n      dup2\n        /* \"#utility.yul\":2026:2061   */\n      eq\n        /* \"#utility.yul\":2016:2079   */\n      tag_145\n      jumpi\n        /* \"#utility.yul\":2075:2076   */\n      0x00\n        /* \"#utility.yul\":2072:2073   */\n      dup1\n        /* \"#utility.yul\":2065:2077   */\n      revert\n        /* \"#utility.yul\":2016:2079   */\n    tag_145:\n        /* \"#utility.yul\":1963:2085   */\n      pop\n      jump\t// out\n        /* \"#utility.yul\":2091:2230   */\n    tag_100:\n        /* \"#utility.yul\":2137:2142   */\n      0x00\n        /* \"#utility.yul\":2175:2181   */\n      dup2\n        /* \"#utility.yul\":2162:2182   */\n      calldataload\n        /* \"#utility.yul\":2153:2182   */\n      swap1\n      pop\n        /* \"#utility.yul\":2191:2224   */\n      tag_147\n        /* \"#utility.yul\":2218:2223   */\n      dup2\n        /* \"#utility.yul\":2191:2224   */\n      tag_99\n      jump\t// in\n    tag_147:\n        /* \"#utility.yul\":2091:2230   */\n      swap3\n      swap2\n      pop\n      pop\n      jump\t// out\n        /* \"#utility.yul\":2236:2565   */\n    tag_32:\n        /* \"#utility.yul\":2295:2301   */\n      0x00\n        /* \"#utility.yul\":2344:2346   */\n      0x20\n        /* \"#utility.yul\":2332:2341   */\n      dup3\n        /* \"#utility.yul\":2323:2330   */\n      dup5\n        /* \"#utility.yul\":2319:2342   */\n      sub\n        /* \"#utility.yul\":2315:2347   */\n      slt\n        /* \"#utility.yul\":2312:2431   */\n      iszero\n      tag_149\n      jumpi\n        /* \"#utility.yul\":2350:2429   */\n      tag_150\n      tag_95\n      jump\t// in\n    tag_150:\n        /* \"#utility.yul\":2312:2431   */\n    tag_149:\n        /* \"#utility.yul\":2470:2471   */\n      0x00\n        /* \"#utility.yul\":2495:2548   */\n      tag_151\n        /* \"#utility.yul\":2540:2547   */\n      dup5\n        /* \"#utility.yul\":2531:2537   */\n      dup3\n        /* \"#utility.yul\":2520:2529   */\n      dup6\n        /* \"#utility.yul\":2516:2538   */\n      add\n        /* \"#utility.yul\":2495:2548   */\n      tag_100\n      jump\t// in\n    tag_151:\n        /* \"#utility.yul\":2485:2548   */\n      swap2\n      pop\n        /* \"#utility.yul\":2441:2558   */\n      pop\n        /* \"#utility.yul\":2236:2565   */\n      swap3\n      swap2\n      pop\n      pop\n      jump\t// out\n        /* \"#utility.yul\":2571:2751   */\n    tag_41:\n        /* \"#utility.yul\":2619:2696   */\n      0x4e487b7100000000000000000000000000000000000000000000000000000000\n        /* \"#utility.yul\":2616:2617   */\n      0x00\n        /* \"#utility.yul\":2609:2697   */\n      mstore\n        /* \"#utility.yul\":2716:2720   */\n      0x32\n        /* \"#utility.yul\":2713:2714   */\n      0x04\n        /* \"#utility.yul\":2706:2721   */\n      mstore\n        /* \"#utility.yul\":2740:2744   */\n      0x24\n        /* \"#utility.yul\":2737:2738   */\n      0x00\n        /* \"#utility.yul\":2730:2745   */\n      revert\n        /* \"#utility.yul\":2757:2937   */\n    tag_101:\n        /* \"#utility.yul\":2805:2882   */\n      0x4e487b7100000000000000000000000000000000000000000000000000000000\n        /* \"#utility.yul\":2802:2803   */\n      0x00\n        /* \"#utility.yul\":2795:2883   */\n      mstore\n        /* \"#utility.yul\":2902:2906   */\n      0x11\n        /* \"#utility.yul\":2899:2900   */\n      0x04\n        /* \"#utility.yul\":2892:2907   */\n      mstore\n        /* \"#utility.yul\":2926:2930   */\n      0x24\n        /* \"#utility.yul\":2923:2924   */\n      0x00\n        /* \"#utility.yul\":2916:2931   */\n      revert\n        /* \"#utility.yul\":2943:3176   */\n    tag_44:\n        /* \"#utility.yul\":2982:2985   */\n      0x00\n        /* \"#utility.yul\":3005:3029   */\n      tag_155\n        /* \"#utility.yul\":3023:3028   */\n      dup3\n        /* \"#utility.yul\":3005:3029   */\n      tag_89\n      jump\t// in\n    tag_155:\n        /* \"#utility.yul\":2996:3029   */\n      swap2\n      pop\n        /* \"#utility.yul\":3051:3117   */\n      0xffffffffffffffffffffffffffffffffffffffffffffffffffffffffffffffff\n        /* \"#utility.yul\":3044:3049   */\n      dup3\n        /* \"#utility.yul\":3041:3118   */\n      sub\n        /* \"#utility.yul\":3038:3141   */\n      tag_156\n      jumpi\n        /* \"#utility.yul\":3121:3139   */\n      tag_157\n      tag_101\n      jump\t// in\n    tag_157:\n        /* \"#utility.yul\":3038:3141   */\n    tag_156:\n        /* \"#utility.yul\":3168:3169   */\n      0x01\n        /* \"#utility.yul\":3161:3166   */\n      dup3\n        /* \"#utility.yul\":3157:3170   */\n      add\n        /* \"#utility.yul\":3150:3170   */\n      swap1\n      pop\n        /* \"#utility.yul\":2943:3176   */\n      swap2\n      swap1\n      pop\n      jump\t// out\n        /* \"#utility.yul\":3182:3362   */\n    tag_47:\n        /* \"#utility.yul\":3230:3307   */\n      0x4e487b7100000000000000000000000000000000000000000000000000000000\n        /* \"#utility.yul\":3227:3228   */\n      0x00\n        /* \"#utility.yul\":3220:3308   */\n      mstore\n        /* \"#utility.yul\":3327:3331   */\n      0x41\n        /* \"#utility.yul\":3324:3325   */\n      0x04\n        /* \"#utility.yul\":3317:3332   */\n      mstore\n        /* \"#utility.yul\":3351:3355   */\n      0x24\n        /* \"#utility.yul\":3348:3349   */\n      0x00\n        /* \"#utility.yul\":3341:3356   */\n      revert\n        /* \"#utility.yul\":3368:3515   */\n    tag_102:\n        /* \"#utility.yul\":3469:3480   */\n      0x00\n        /* \"#utility.yul\":3506:3509   */\n      dup2\n        /* \"#utility.yul\":3491:3509   */\n      swap1\n      pop\n        /* \"#utility.yul\":3368:3515   */\n      swap3\n      swap2\n      pop\n      pop\n      jump\t// out\n        /* \"#utility.yul\":3521:3635   */\n    tag_103:\n      pop\n      jump\t// out\n        /* \"#utility.yul\":3641:4039   */\n    tag_104:\n        /* \"#utility.yul\":3800:3803   */\n      0x00\n        /* \"#utility.yul\":3821:3904   */\n      tag_162\n        /* \"#utility.yul\":3902:3903   */\n      0x00\n        /* \"#utility.yul\":3897:3900   */\n      dup4\n        /* \"#utility.yul\":3821:3904   */\n      tag_102\n      jump\t// in\n    tag_162:\n        /* \"#utility.yul\":3814:3904   */\n      swap2\n      pop\n        /* \"#utility.yul\":3913:4006   */\n      tag_163\n        /* \"#utility.yul\":4002:4005   */\n      dup3\n        /* \"#utility.yul\":3913:4006   */\n      tag_103\n      jump\t// in\n    tag_163:\n        /* \"#utility.yul\":4031:4032   */\n      0x00\n        /* \"#utility.yul\":4026:4029   */\n      dup3\n        /* \"#utility.yul\":4022:4033   */\n      add\n        /* \"#utility.yul\":4015:4033   */\n      swap1\n      pop\n        /* \"#utility.yul\":3641:4039   */\n      swap2\n      swap1\n      pop\n      jump\t// out\n        /* \"#utility.yul\":4045:4424   */\n    tag_52:\n        /* \"#utility.yul\":4229:4232   */\n      0x00\n        /* \"#utility.yul\":4251:4398   */\n      tag_165\n        /* \"#utility.yul\":4394:4397   */\n      dup3\n        /* \"#utility.yul\":4251:4398   */\n      tag_104\n      jump\t// in\n    tag_165:\n        /* \"#utility.yul\":4244:4398   */\n      swap2\n      pop\n        /* \"#utility.yul\":4415:4418   */\n      dup2\n        /* \"#utility.yul\":4408:4418   */\n      swap1\n      pop\n        /* \"#utility.yul\":4045:4424   */\n      swap2\n      swap1\n      pop\n      jump\t// out\n        /* \"#utility.yul\":4430:4599   */\n    tag_105:\n        /* \"#utility.yul\":4514:4525   */\n      0x00\n        /* \"#utility.yul\":4548:4554   */\n      dup3\n        /* \"#utility.yul\":4543:4546   */\n      dup3\n        /* \"#utility.yul\":4536:4555   */\n      mstore\n        /* \"#utility.yul\":4588:4592   */\n      0x20\n        /* \"#utility.yul\":4583:4586   */\n      dup3\n        /* \"#utility.yul\":4579:4593   */\n      add\n        /* \"#utility.yul\":4564:4593   */\n      swap1\n      pop\n        /* \"#utility.yul\":4430:4599   */\n      swap3\n      swap2\n      pop\n      pop\n      jump\t// out\n        /* \"#utility.yul\":4605:4773   */\n    tag_106:\n        /* \"#utility.yul\":4745:4765   */\n      0x6661696c656420746f2077697468647261770000000000000000000000000000\n        /* \"#utility.yul\":4741:4742   */\n      0x00\n        /* \"#utility.yul\":4733:4739   */\n      dup3\n        /* \"#utility.yul\":4729:4743   */\n      add\n        /* \"#utility.yul\":4722:4766   */\n      mstore\n        /* \"#utility.yul\":4605:4773   */\n      pop\n      jump\t// out\n        /* \"#utility.yul\":4779:5145   */\n    tag_107:\n        /* \"#utility.yul\":4921:4924   */\n      0x00\n        /* \"#utility.yul\":4942:5009   */\n      tag_169\n        /* \"#utility.yul\":5006:5008   */\n      0x12\n        /* \"#utility.yul\":5001:5004   */\n      dup4\n        /* \"#utility.yul\":4942:5009   */\n      tag_105\n      jump\t// in\n    tag_169:\n        /* \"#utility.yul\":4935:5009   */\n      swap2\n      pop\n        /* \"#utility.yul\":5018:5111   */\n      tag_170\n        /* \"#utility.yul\":5107:5110   */\n      dup3\n        /* \"#utility.yul\":5018:5111   */\n      tag_106\n      jump\t// in\n    tag_170:\n        /* \"#utility.yul\":5136:5138   */\n      0x20\n        /* \"#utility.yul\":5131:5134   */\n      dup3\n        /* \"#utility.yul\":5127:5139   */\n      add\n        /* \"#utility.yul\":5120:5139   */\n      swap1\n      pop\n        /* \"#utility.yul\":4779:5145   */\n      swap2\n      swap1\n      pop\n      jump\t// out\n        /* \"#utility.yul\":5151:5570   */\n    tag_58:\n        /* \"#utility.yul\":5317:5321   */\n      0x00\n        /* \"#utility.yul\":5355:5357   */\n      0x20\n        /* \"#utility.yul\":5344:5353   */\n      dup3\n        /* \"#utility.yul\":5340:5358   */\n      add\n        /* \"#utility.yul\":5332:5358   */\n      swap1\n      pop\n        /* \"#utility.yul\":5404:5413   */\n      dup2\n        /* \"#utility.yul\":5398:5402   */\n      dup2\n        /* \"#utility.yul\":5394:5414   */\n      sub\n        /* \"#utility.yul\":5390:5391   */\n      0x00\n        /* \"#utility.yul\":5379:5388   */\n      dup4\n        /* \"#utility.yul\":5375:5392   */\n      add\n        /* \"#utility.yul\":5368:5415   */\n      mstore\n        /* \"#utility.yul\":5432:5563   */\n      tag_172\n        /* \"#utility.yul\":5558:5562   */\n      dup2\n        /* \"#utility.yul\":5432:5563   */\n      tag_107\n      jump\t// in\n    tag_172:\n        /* \"#utility.yul\":5424:5563   */\n      swap1\n      pop\n        /* \"#utility.yul\":5151:5570   */\n      swap2\n      swap1\n      pop\n      jump\t// out\n        /* \"#utility.yul\":5576:5748   */\n    tag_108:\n        /* \"#utility.yul\":5716:5740   */\n      0x4469646e27742073656e6420656e6f7567682045544800000000000000000000\n        /* \"#utility.yul\":5712:5713   */\n      0x00\n        /* \"#utility.yul\":5704:5710   */\n      dup3\n        /* \"#utility.yul\":5700:5714   */\n      add\n        /* \"#utility.yul\":5693:5741   */\n      mstore\n        /* \"#utility.yul\":5576:5748   */\n      pop\n      jump\t// out\n        /* \"#utility.yul\":5754:6120   */\n    tag_109:\n        /* \"#utility.yul\":5896:5899   */\n      0x00\n        /* \"#utility.yul\":5917:5984   */\n      tag_175\n        /* \"#utility.yul\":5981:5983   */\n      0x16\n        /* \"#utility.yul\":5976:5979   */\n      dup4\n        /* \"#utility.yul\":5917:5984   */\n      tag_105\n      jump\t// in\n    tag_175:\n        /* \"#utility.yul\":5910:5984   */\n      swap2\n      pop\n        /* \"#utility.yul\":5993:6086   */\n      tag_176\n        /* \"#utility.yul\":6082:6085   */\n      dup3\n        /* \"#utility.yul\":5993:6086   */\n      tag_108\n      jump\t// in\n    tag_176:\n        /* \"#utility.yul\":6111:6113   */\n      0x20\n        /* \"#utility.yul\":6106:6109   */\n      dup3\n        /* \"#utility.yul\":6102:6114   */\n      add\n        /* \"#utility.yul\":6095:6114   */\n      swap1\n      pop\n        /* \"#utility.yul\":5754:6120   */\n      swap2\n      swap1\n      pop\n      jump\t// out\n        /* \"#utility.yul\":6126:6545   */\n    tag_64:\n        /* \"#utility.yul\":6292:6296   */\n      0x00\n        /* \"#utility.yul\":6330:6332   */\n      0x20\n        /* \"#utility.yul\":6319:6328   */\n      dup3\n        /* \"#utility.yul\":6315:6333   */\n      add\n        /* \"#utility.yul\":6307:6333   */\n      swap1\n      pop\n        /* \"#utility.yul\":6379:6388   */\n      dup2\n        /* \"#utility.yul\":6373:6377   */\n      dup2\n        /* \"#utility.yul\":6369:6389   */\n      sub\n        /* \"#utility.yul\":6365:6366   */\n      0x00\n        /* \"#utility.yul\":6354:6363   */\n      dup4\n        /* \"#utility.yul\":6350:6367   */\n      add\n        /* \"#utility.yul\":6343:6390   */\n      mstore\n        /* \"#utility.yul\":6407:6538   */\n      tag_178\n        /* \"#utility.yul\":6533:6537   */\n      dup2\n        /* \"#utility.yul\":6407:6538   */\n      tag_109\n      jump\t// in\n    tag_178:\n        /* \"#utility.yul\":6399:6538   */\n      swap1\n      pop\n        /* \"#utility.yul\":6126:6545   */\n      swap2\n      swap1\n      pop\n      jump\t// out\n        /* \"#utility.yul\":6551:6899   */\n    tag_72:\n        /* \"#utility.yul\":6591:6598   */\n      0x00\n        /* \"#utility.yul\":6614:6634   */\n      tag_180\n        /* \"#utility.yul\":6632:6633   */\n      dup3\n        /* \"#utility.yul\":6614:6634   */\n      tag_89\n      jump\t// in\n    tag_180:\n        /* \"#utility.yul\":6609:6634   */\n      swap2\n      pop\n        /* \"#utility.yul\":6648:6668   */\n      tag_181\n        /* \"#utility.yul\":6666:6667   */\n      dup4\n        /* \"#utility.yul\":6648:6668   */\n      tag_89\n      jump\t// in\n    tag_181:\n        /* \"#utility.yul\":6643:6668   */\n      swap3\n      pop\n        /* \"#utility.yul\":6836:6837   */\n      dup2\n        /* \"#utility.yul\":6768:6834   */\n      0xffffffffffffffffffffffffffffffffffffffffffffffffffffffffffffffff\n        /* \"#utility.yul\":6764:6838   */\n      div\n        /* \"#utility.yul\":6761:6762   */\n      dup4\n        /* \"#utility.yul\":6758:6839   */\n      gt\n        /* \"#utility.yul\":6753:6754   */\n      dup3\n        /* \"#utility.yul\":6746:6755   */\n      iszero\n        /* \"#utility.yul\":6739:6756   */\n      iszero\n        /* \"#utility.yul\":6735:6840   */\n      and\n        /* \"#utility.yul\":6732:6863   */\n      iszero\n      tag_182\n      jumpi\n        /* \"#utility.yul\":6843:6861   */\n      tag_183\n      tag_101\n      jump\t// in\n    tag_183:\n        /* \"#utility.yul\":6732:6863   */\n    tag_182:\n        /* \"#utility.yul\":6891:6892   */\n      dup3\n        /* \"#utility.yul\":6888:6889   */\n      dup3\n        /* \"#utility.yul\":6884:6893   */\n      mul\n        /* \"#utility.yul\":6873:6893   */\n      swap1\n      pop\n        /* \"#utility.yul\":6551:6899   */\n      swap3\n      swap2\n      pop\n      pop\n      jump\t// out\n        /* \"#utility.yul\":6905:7085   */\n    tag_110:\n        /* \"#utility.yul\":6953:7030   */\n      0x4e487b7100000000000000000000000000000000000000000000000000000000\n        /* \"#utility.yul\":6950:6951   */\n      0x00\n        /* \"#utility.yul\":6943:7031   */\n      mstore\n        /* \"#utility.yul\":7050:7054   */\n      0x12\n        /* \"#utility.yul\":7047:7048   */\n      0x04\n        /* \"#utility.yul\":7040:7055   */\n      mstore\n        /* \"#utility.yul\":7074:7078   */\n      0x24\n        /* \"#utility.yul\":7071:7072   */\n      0x00\n        /* \"#utility.yul\":7064:7079   */\n      revert\n        /* \"#utility.yul\":7091:7276   */\n    tag_74:\n        /* \"#utility.yul\":7131:7132   */\n      0x00\n        /* \"#utility.yul\":7148:7168   */\n      tag_186\n        /* \"#utility.yul\":7166:7167   */\n      dup3\n        /* \"#utility.yul\":7148:7168   */\n      tag_89\n      jump\t// in\n    tag_186:\n        /* \"#utility.yul\":7143:7168   */\n      swap2\n      pop\n        /* \"#utility.yul\":7182:7202   */\n      tag_187\n        /* \"#utility.yul\":7200:7201   */\n      dup4\n        /* \"#utility.yul\":7182:7202   */\n      tag_89\n      jump\t// in\n    tag_187:\n        /* \"#utility.yul\":7177:7202   */\n      swap3\n      pop\n        /* \"#utility.yul\":7221:7222   */\n      dup3\n        /* \"#utility.yul\":7211:7246   */\n      tag_188\n      jumpi\n        /* \"#utility.yul\":7226:7244   */\n      tag_189\n      tag_110\n      jump\t// in\n    tag_189:\n        /* \"#utility.yul\":7211:7246   */\n    tag_188:\n        /* \"#utility.yul\":7268:7269   */\n      dup3\n        /* \"#utility.yul\":7265:7266   */\n      dup3\n        /* \"#utility.yul\":7261:7270   */\n      div\n        /* \"#utility.yul\":7256:7270   */\n      swap1\n      pop\n        /* \"#utility.yul\":7091:7276   */\n      swap3\n      swap2\n      pop\n      pop\n      jump\t// out\n        /* \"#utility.yul\":7282:7387   */\n    tag_111:\n        /* \"#utility.yul\":7318:7325   */\n      0x00\n        /* \"#utility.yul\":7358:7380   */\n      0xffffffffffffffffffff\n        /* \"#utility.yul\":7351:7356   */\n      dup3\n        /* \"#utility.yul\":7347:7381   */\n      and\n        /* \"#utility.yul\":7336:7381   */\n      swap1\n      pop\n        /* \"#utility.yul\":7282:7387   */\n      swap2\n      swap1\n      pop\n      jump\t// out\n        /* \"#utility.yul\":7393:7513   */\n    tag_112:\n        /* \"#utility.yul\":7465:7488   */\n      tag_192\n        /* \"#utility.yul\":7482:7487   */\n      dup2\n        /* \"#utility.yul\":7465:7488   */\n      tag_111\n      jump\t// in\n    tag_192:\n        /* \"#utility.yul\":7458:7463   */\n      dup2\n        /* \"#utility.yul\":7455:7489   */\n      eq\n        /* \"#utility.yul\":7445:7507   */\n      tag_193\n      jumpi\n        /* \"#utility.yul\":7503:7504   */\n      0x00\n        /* \"#utility.yul\":7500:7501   */\n      dup1\n        /* \"#utility.yul\":7493:7505   */\n      revert\n        /* \"#utility.yul\":7445:7507   */\n    tag_193:\n        /* \"#utility.yul\":7393:7513   */\n      pop\n      jump\t// out\n        /* \"#utility.yul\":7519:7660   */\n    tag_113:\n        /* \"#utility.yul\":7575:7580   */\n      0x00\n        /* \"#utility.yul\":7606:7612   */\n      dup2\n        /* \"#utility.yul\":7600:7613   */\n      mload\n        /* \"#utility.yul\":7591:7613   */\n      swap1\n      pop\n        /* \"#utility.yul\":7622:7654   */\n      tag_195\n        /* \"#utility.yul\":7648:7653   */\n      dup2\n        /* \"#utility.yul\":7622:7654   */\n      tag_112\n      jump\t// in\n    tag_195:\n        /* \"#utility.yul\":7519:7660   */\n      swap3\n      swap2\n      pop\n      pop\n      jump\t// out\n        /* \"#utility.yul\":7666:7742   */\n    tag_114:\n        /* \"#utility.yul\":7702:7709   */\n      0x00\n        /* \"#utility.yul\":7731:7736   */\n      dup2\n        /* \"#utility.yul\":7720:7736   */\n      swap1\n      pop\n        /* \"#utility.yul\":7666:7742   */\n      swap2\n      swap1\n      pop\n      jump\t// out\n        /* \"#utility.yul\":7748:7868   */\n    tag_115:\n        /* \"#utility.yul\":7820:7843   */\n      tag_198\n        /* \"#utility.yul\":7837:7842   */\n      dup2\n        /* \"#utility.yul\":7820:7843   */\n      tag_114\n      jump\t// in\n    tag_198:\n        /* \"#utility.yul\":7813:7818   */\n      dup2\n        /* \"#utility.yul\":7810:7844   */\n      eq\n        /* \"#utility.yul\":7800:7862   */\n      tag_199\n      jumpi\n        /* \"#utility.yul\":7858:7859   */\n      0x00\n        /* \"#utility.yul\":7855:7856   */\n      dup1\n        /* \"#utility.yul\":7848:7860   */\n      revert\n        /* \"#utility.yul\":7800:7862   */\n    tag_199:\n        /* \"#utility.yul\":7748:7868   */\n      pop\n      jump\t// out\n        /* \"#utility.yul\":7874:8015   */\n    tag_116:\n        /* \"#utility.yul\":7930:7935   */\n      0x00\n        /* \"#utility.yul\":7961:7967   */\n      dup2\n        /* \"#utility.yul\":7955:7968   */\n      mload\n        /* \"#utility.yul\":7946:7968   */\n      swap1\n      pop\n        /* \"#utility.yul\":7977:8009   */\n      tag_201\n        /* \"#utility.yul\":8003:8008   */\n      dup2\n        /* \"#utility.yul\":7977:8009   */\n      tag_115\n      jump\t// in\n    tag_201:\n        /* \"#utility.yul\":7874:8015   */\n      swap3\n      swap2\n      pop\n      pop\n      jump\t// out\n        /* \"#utility.yul\":8021:8164   */\n    tag_117:\n        /* \"#utility.yul\":8078:8083   */\n      0x00\n        /* \"#utility.yul\":8109:8115   */\n      dup2\n        /* \"#utility.yul\":8103:8116   */\n      mload\n        /* \"#utility.yul\":8094:8116   */\n      swap1\n      pop\n        /* \"#utility.yul\":8125:8158   */\n      tag_203\n        /* \"#utility.yul\":8152:8157   */\n      dup2\n        /* \"#utility.yul\":8125:8158   */\n      tag_99\n      jump\t// in\n    tag_203:\n        /* \"#utility.yul\":8021:8164   */\n      swap3\n      swap2\n      pop\n      pop\n      jump\t// out\n        /* \"#utility.yul\":8170:9141   */\n    tag_79:\n        /* \"#utility.yul\":8273:8279   */\n      0x00\n        /* \"#utility.yul\":8281:8287   */\n      dup1\n        /* \"#utility.yul\":8289:8295   */\n      0x00\n        /* \"#utility.yul\":8297:8303   */\n      dup1\n        /* \"#utility.yul\":8305:8311   */\n      0x00\n        /* \"#utility.yul\":8354:8357   */\n      0xa0\n        /* \"#utility.yul\":8342:8351   */\n      dup7\n        /* \"#utility.yul\":8333:8340   */\n      dup9\n        /* \"#utility.yul\":8329:8352   */\n      sub\n        /* \"#utility.yul\":8325:8358   */\n      slt\n        /* \"#utility.yul\":8322:8442   */\n      iszero\n      tag_205\n      jumpi\n        /* \"#utility.yul\":8361:8440   */\n      tag_206\n      tag_95\n      jump\t// in\n    tag_206:\n        /* \"#utility.yul\":8322:8442   */\n    tag_205:\n        /* \"#utility.yul\":8481:8482   */\n      0x00\n        /* \"#utility.yul\":8506:8569   */\n      tag_207\n        /* \"#utility.yul\":8561:8568   */\n      dup9\n        /* \"#utility.yul\":8552:8558   */\n      dup3\n        /* \"#utility.yul\":8541:8550   */\n      dup10\n        /* \"#utility.yul\":8537:8559   */\n      add\n        /* \"#utility.yul\":8506:8569   */\n      tag_113\n      jump\t// in\n    tag_207:\n        /* \"#utility.yul\":8496:8569   */\n      swap6\n      pop\n        /* \"#utility.yul\":8452:8579   */\n      pop\n        /* \"#utility.yul\":8618:8620   */\n      0x20\n        /* \"#utility.yul\":8644:8707   */\n      tag_208\n        /* \"#utility.yul\":8699:8706   */\n      dup9\n        /* \"#utility.yul\":8690:8696   */\n      dup3\n        /* \"#utility.yul\":8679:8688   */\n      dup10\n        /* \"#utility.yul\":8675:8697   */\n      add\n        /* \"#utility.yul\":8644:8707   */\n      tag_116\n      jump\t// in\n    tag_208:\n        /* \"#utility.yul\":8634:8707   */\n      swap5\n      pop\n        /* \"#utility.yul\":8589:8717   */\n      pop\n        /* \"#utility.yul\":8756:8758   */\n      0x40\n        /* \"#utility.yul\":8782:8846   */\n      tag_209\n        /* \"#utility.yul\":8838:8845   */\n      dup9\n        /* \"#utility.yul\":8829:8835   */\n      dup3\n        /* \"#utility.yul\":8818:8827   */\n      dup10\n        /* \"#utility.yul\":8814:8836   */\n      add\n        /* \"#utility.yul\":8782:8846   */\n      tag_117\n      jump\t// in\n    tag_209:\n        /* \"#utility.yul\":8772:8846   */\n      swap4\n      pop\n        /* \"#utility.yul\":8727:8856   */\n      pop\n        /* \"#utility.yul\":8895:8897   */\n      0x60\n        /* \"#utility.yul\":8921:8985   */\n      tag_210\n        /* \"#utility.yul\":8977:8984   */\n      dup9\n        /* \"#utility.yul\":8968:8974   */\n      dup3\n        /* \"#utility.yul\":8957:8966   */\n      dup10\n        /* \"#utility.yul\":8953:8975   */\n      add\n        /* \"#utility.yul\":8921:8985   */\n      tag_117\n      jump\t// in\n    tag_210:\n        /* \"#utility.yul\":8911:8985   */\n      swap3\n      pop\n        /* \"#utility.yul\":8866:8995   */\n      pop\n        /* \"#utility.yul\":9034:9037   */\n      0x80\n        /* \"#utility.yul\":9061:9124   */\n      tag_211\n        /* \"#utility.yul\":9116:9123   */\n      dup9\n        /* \"#utility.yul\":9107:9113   */\n      dup3\n        /* \"#utility.yul\":9096:9105   */\n      dup10\n        /* \"#utility.yul\":9092:9114   */\n      add\n        /* \"#utility.yul\":9061:9124   */\n      tag_113\n      jump\t// in\n    tag_211:\n        /* \"#utility.yul\":9051:9124   */\n      swap2\n      pop\n        /* \"#utility.yul\":9005:9134   */\n      pop\n        /* \"#utility.yul\":8170:9141   */\n      swap3\n      swap6\n      pop\n      swap3\n      swap6\n      swap1\n      swap4\n      pop\n      jump\t// out\n        /* \"#utility.yul\":9147:10138   */\n    tag_81:\n        /* \"#utility.yul\":9186:9193   */\n      0x00\n        /* \"#utility.yul\":9209:9228   */\n      tag_213\n        /* \"#utility.yul\":9226:9227   */\n      dup3\n        /* \"#utility.yul\":9209:9228   */\n      tag_114\n      jump\t// in\n    tag_213:\n        /* \"#utility.yul\":9204:9228   */\n      swap2\n      pop\n        /* \"#utility.yul\":9242:9261   */\n      tag_214\n        /* \"#utility.yul\":9259:9260   */\n      dup4\n        /* \"#utility.yul\":9242:9261   */\n      tag_114\n      jump\t// in\n    tag_214:\n        /* \"#utility.yul\":9237:9261   */\n      swap3\n      pop\n        /* \"#utility.yul\":9443:9444   */\n      dup3\n        /* \"#utility.yul\":9375:9441   */\n      0x7fffffffffffffffffffffffffffffffffffffffffffffffffffffffffffffff\n        /* \"#utility.yul\":9371:9445   */\n      div\n        /* \"#utility.yul\":9368:9369   */\n      dup3\n        /* \"#utility.yul\":9365:9446   */\n      gt\n        /* \"#utility.yul\":9360:9361   */\n      0x00\n        /* \"#utility.yul\":9357:9358   */\n      dup5\n        /* \"#utility.yul\":9353:9362   */\n      sgt\n        /* \"#utility.yul\":9349:9350   */\n      0x00\n        /* \"#utility.yul\":9346:9347   */\n      dup5\n        /* \"#utility.yul\":9342:9351   */\n      sgt\n        /* \"#utility.yul\":9338:9363   */\n      and\n        /* \"#utility.yul\":9334:9447   */\n      and\n        /* \"#utility.yul\":9331:9470   */\n      iszero\n      tag_215\n      jumpi\n        /* \"#utility.yul\":9450:9468   */\n      tag_216\n      tag_101\n      jump\t// in\n    tag_216:\n        /* \"#utility.yul\":9331:9470   */\n    tag_215:\n        /* \"#utility.yul\":9654:9655   */\n      dup2\n        /* \"#utility.yul\":9586:9652   */\n      0x8000000000000000000000000000000000000000000000000000000000000000\n        /* \"#utility.yul\":9581:9656   */\n      sdiv\n        /* \"#utility.yul\":9578:9579   */\n      dup4\n        /* \"#utility.yul\":9574:9657   */\n      slt\n        /* \"#utility.yul\":9569:9570   */\n      0x00\n        /* \"#utility.yul\":9566:9567   */\n      dup5\n        /* \"#utility.yul\":9562:9571   */\n      slt\n        /* \"#utility.yul\":9558:9559   */\n      0x00\n        /* \"#utility.yul\":9555:9556   */\n      dup5\n        /* \"#utility.yul\":9551:9560   */\n      sgt\n        /* \"#utility.yul\":9547:9572   */\n      and\n        /* \"#utility.yul\":9543:9658   */\n      and\n        /* \"#utility.yul\":9540:9681   */\n      iszero\n      tag_217\n      jumpi\n        /* \"#utility.yul\":9661:9679   */\n      tag_218\n      tag_101\n      jump\t// in\n    tag_218:\n        /* \"#utility.yul\":9540:9681   */\n    tag_217:\n        /* \"#utility.yul\":9865:9866   */\n      dup3\n        /* \"#utility.yul\":9797:9863   */\n      0x8000000000000000000000000000000000000000000000000000000000000000\n        /* \"#utility.yul\":9792:9867   */\n      sdiv\n        /* \"#utility.yul\":9789:9790   */\n      dup3\n        /* \"#utility.yul\":9785:9868   */\n      slt\n        /* \"#utility.yul\":9780:9781   */\n      0x00\n        /* \"#utility.yul\":9777:9778   */\n      dup5\n        /* \"#utility.yul\":9773:9782   */\n      sgt\n        /* \"#utility.yul\":9769:9770   */\n      0x00\n        /* \"#utility.yul\":9766:9767   */\n      dup5\n        /* \"#utility.yul\":9762:9771   */\n      slt\n        /* \"#utility.yul\":9758:9783   */\n      and\n        /* \"#utility.yul\":9754:9869   */\n      and\n        /* \"#utility.yul\":9751:9892   */\n      iszero\n      tag_219\n      jumpi\n        /* \"#utility.yul\":9872:9890   */\n      tag_220\n      tag_101\n      jump\t// in\n    tag_220:\n        /* \"#utility.yul\":9751:9892   */\n    tag_219:\n        /* \"#utility.yul\":10075:10076   */\n      dup3\n        /* \"#utility.yul\":10007:10073   */\n      0x7fffffffffffffffffffffffffffffffffffffffffffffffffffffffffffffff\n        /* \"#utility.yul\":10002:10077   */\n      sdiv\n        /* \"#utility.yul\":9999:10000   */\n      dup3\n        /* \"#utility.yul\":9995:10078   */\n      slt\n        /* \"#utility.yul\":9990:9991   */\n      0x00\n        /* \"#utility.yul\":9987:9988   */\n      dup5\n        /* \"#utility.yul\":9983:9992   */\n      slt\n        /* \"#utility.yul\":9979:9980   */\n      0x00\n        /* \"#utility.yul\":9976:9977   */\n      dup5\n        /* \"#utility.yul\":9972:9981   */\n      slt\n        /* \"#utility.yul\":9968:9993   */\n      and\n        /* \"#utility.yul\":9964:10079   */\n      and\n        /* \"#utility.yul\":9961:10102   */\n      iszero\n      tag_221\n      jumpi\n        /* \"#utility.yul\":10082:10100   */\n      tag_222\n      tag_101\n      jump\t// in\n    tag_222:\n        /* \"#utility.yul\":9961:10102   */\n    tag_221:\n        /* \"#utility.yul\":10130:10131   */\n      dup3\n        /* \"#utility.yul\":10127:10128   */\n      dup3\n        /* \"#utility.yul\":10123:10132   */\n      mul\n        /* \"#utility.yul\":10112:10132   */\n      swap1\n      pop\n        /* \"#utility.yul\":9147:10138   */\n      swap3\n      swap2\n      pop\n      pop\n      jump\t// out\n\n    auxdata: 0xa2646970667358221220b1903717681e7888611a2cce222c62035e2d8ce85e4b8ed5600dad888adfc44d64736f6c63430008100033\n}\n",
				"bytecode": {
					"linkReferences": {},
					"object": "60806040526802b5e3af16b188000060005534801561001d57600080fd5b5033600160006101000a81548173ffffffffffffffffffffffffffffffffffffffff021916908373ffffffffffffffffffffffffffffffffffffffff160217905550610c648061006e6000396000f3fe6080604052600436106100555760003560e01c8063098de8201461005a578063384f58eb146100855780633ccfd60b146100b05780633e47d6f3146100c7578063b60d428814610104578063dc0d3dff1461010e575b600080fd5b34801561006657600080fd5b5061006f61014b565b60405161007c9190610623565b60405180910390f35b34801561009157600080fd5b5061009a610151565b6040516100a7919061067f565b60405180910390f35b3480156100bc57600080fd5b506100c5610177565b005b3480156100d357600080fd5b506100ee60048036038101906100e991906106cb565b610333565b6040516100fb9190610623565b60405180910390f35b61010c61034b565b005b34801561011a57600080fd5b5061013560048036038101906101309190610724565b610441565b604051610142919061067f565b60405180910390f35b60005481565b600160009054906101000a900473ffffffffffffffffffffffffffffffffffffffff1681565b60005b6002805490508110156102235760006002828154811061019d5761019c610751565b5b9060005260206000200160009054906101000a900473ffffffffffffffffffffffffffffffffffffffff1690506000600360008373ffffffffffffffffffffffffffffffffffffffff1673ffffffffffffffffffffffffffffffffffffffff1681526020019081526020016000208190555050808061021b906107af565b91505061017a565b50600067ffffffffffffffff81111561023f5761023e6107f7565b5b60405190808252806020026020018201604052801561026d5781602001602082028036833780820191505090505b5060029080519060200190610283929190610563565b5060003373ffffffffffffffffffffffffffffffffffffffff16476040516102aa90610857565b60006040518083038185875af1925050503d80600081146102e7576040519150601f19603f3d011682016040523d82523d6000602084013e6102ec565b606091505b5050905080610330576040517f08c379a0000000000000000000000000000000000000000000000000000000008152600401610327906108c9565b60405180910390fd5b50565b60036020528060005260406000206000915090505481565b60005461035734610480565b1015610398576040517f08c379a000000000000000000000000000000000000000000000000000000000815260040161038f90610935565b60405180910390fd5b6002339080600181540180825580915050600190039060005260206000200160009091909190916101000a81548173ffffffffffffffffffffffffffffffffffffffff021916908373ffffffffffffffffffffffffffffffffffffffff16021790555034600360003373ffffffffffffffffffffffffffffffffffffffff1673ffffffffffffffffffffffffffffffffffffffff16815260200190815260200160002081905550565b6002818154811061045157600080fd5b906000526020600020016000915054906101000a900473ffffffffffffffffffffffffffffffffffffffff1681565b60008061048b6104ba565b90506000670de0b6b3a764000084836104a49190610955565b6104ae91906109de565b90508092505050919050565b60008073d4a33860578de61dbabdc8bfdb98fd742fa7028e905060008173ffffffffffffffffffffffffffffffffffffffff1663feaf968c6040518163ffffffff1660e01b815260040160a060405180830381865afa158015610521573d6000803e3d6000fd5b505050506040513d601f19601f820116820180604052508101906105459190610a9c565b5050509150506402540be4008161055c9190610b17565b9250505090565b8280548282559060005260206000209081019282156105dc579160200282015b828111156105db5782518260006101000a81548173ffffffffffffffffffffffffffffffffffffffff021916908373ffffffffffffffffffffffffffffffffffffffff16021790555091602001919060010190610583565b5b5090506105e991906105ed565b5090565b5b808211156106065760008160009055506001016105ee565b5090565b6000819050919050565b61061d8161060a565b82525050565b60006020820190506106386000830184610614565b92915050565b600073ffffffffffffffffffffffffffffffffffffffff82169050919050565b60006106698261063e565b9050919050565b6106798161065e565b82525050565b60006020820190506106946000830184610670565b92915050565b600080fd5b6106a88161065e565b81146106b357600080fd5b50565b6000813590506106c58161069f565b92915050565b6000602082840312156106e1576106e061069a565b5b60006106ef848285016106b6565b91505092915050565b6107018161060a565b811461070c57600080fd5b50565b60008135905061071e816106f8565b92915050565b60006020828403121561073a5761073961069a565b5b60006107488482850161070f565b91505092915050565b7f4e487b7100000000000000000000000000000000000000000000000000000000600052603260045260246000fd5b7f4e487b7100000000000000000000000000000000000000000000000000000000600052601160045260246000fd5b60006107ba8261060a565b91507fffffffffffffffffffffffffffffffffffffffffffffffffffffffffffffffff82036107ec576107eb610780565b5b600182019050919050565b7f4e487b7100000000000000000000000000000000000000000000000000000000600052604160045260246000fd5b600081905092915050565b50565b6000610841600083610826565b915061084c82610831565b600082019050919050565b600061086282610834565b9150819050919050565b600082825260208201905092915050565b7f6661696c656420746f2077697468647261770000000000000000000000000000600082015250565b60006108b360128361086c565b91506108be8261087d565b602082019050919050565b600060208201905081810360008301526108e2816108a6565b9050919050565b7f4469646e27742073656e6420656e6f7567682045544800000000000000000000600082015250565b600061091f60168361086c565b915061092a826108e9565b602082019050919050565b6000602082019050818103600083015261094e81610912565b9050919050565b60006109608261060a565b915061096b8361060a565b9250817fffffffffffffffffffffffffffffffffffffffffffffffffffffffffffffffff04831182151516156109a4576109a3610780565b5b828202905092915050565b7f4e487b7100000000000000000000000000000000000000000000000000000000600052601260045260246000fd5b60006109e98261060a565b91506109f48361060a565b925082610a0457610a036109af565b5b828204905092915050565b600069ffffffffffffffffffff82169050919050565b610a2e81610a0f565b8114610a3957600080fd5b50565b600081519050610a4b81610a25565b92915050565b6000819050919050565b610a6481610a51565b8114610a6f57600080fd5b50565b600081519050610a8181610a5b565b92915050565b600081519050610a96816106f8565b92915050565b600080600080600060a08688031215610ab857610ab761069a565b5b6000610ac688828901610a3c565b9550506020610ad788828901610a72565b9450506040610ae888828901610a87565b9350506060610af988828901610a87565b9250506080610b0a88828901610a3c565b9150509295509295909350565b6000610b2282610a51565b9150610b2d83610a51565b9250827f7fffffffffffffffffffffffffffffffffffffffffffffffffffffffffffffff0482116000841360008413161615610b6c57610b6b610780565b5b817f80000000000000000000000000000000000000000000000000000000000000000583126000841260008413161615610ba957610ba8610780565b5b827f80000000000000000000000000000000000000000000000000000000000000000582126000841360008412161615610be657610be5610780565b5b827f7fffffffffffffffffffffffffffffffffffffffffffffffffffffffffffffff0582126000841260008412161615610c2357610c22610780565b5b82820290509291505056fea2646970667358221220b1903717681e7888611a2cce222c62035e2d8ce85e4b8ed5600dad888adfc44d64736f6c63430008100033",
					"opcodes": "PUSH1 0x80 PUSH1 0x40 MSTORE PUSH9 0x2B5E3AF16B1880000 PUSH1 0x0 SSTORE CALLVALUE DUP1 ISZERO PUSH2 0x1D JUMPI PUSH1 0x0 DUP1 REVERT JUMPDEST POP CALLER PUSH1 0x1 PUSH1 0x0 PUSH2 0x100 EXP DUP2 SLOAD DUP2 PUSH20 0xFFFFFFFFFFFFFFFFFFFFFFFFFFFFFFFFFFFFFFFF MUL NOT AND SWAP1 DUP4 PUSH20 0xFFFFFFFFFFFFFFFFFFFFFFFFFFFFFFFFFFFFFFFF AND MUL OR SWAP1 SSTORE POP PUSH2 0xC64 DUP1 PUSH2 0x6E PUSH1 0x0 CODECOPY PUSH1 0x0 RETURN INVALID PUSH1 0x80 PUSH1 0x40 MSTORE PUSH1 0x4 CALLDATASIZE LT PUSH2 0x55 JUMPI PUSH1 0x0 CALLDATALOAD PUSH1 0xE0 SHR DUP1 PUSH4 0x98DE820 EQ PUSH2 0x5A JUMPI DUP1 PUSH4 0x384F58EB EQ PUSH2 0x85 JUMPI DUP1 PUSH4 0x3CCFD60B EQ PUSH2 0xB0 JUMPI DUP1 PUSH4 0x3E47D6F3 EQ PUSH2 0xC7 JUMPI DUP1 PUSH4 0xB60D4288 EQ PUSH2 0x104 JUMPI DUP1 PUSH4 0xDC0D3DFF EQ PUSH2 0x10E JUMPI JUMPDEST PUSH1 0x0 DUP1 REVERT JUMPDEST CALLVALUE DUP1 ISZERO PUSH2 0x66 JUMPI PUSH1 0x0 DUP1 REVERT JUMPDEST POP PUSH2 0x6F PUSH2 0x14B JUMP JUMPDEST PUSH1 0x40 MLOAD PUSH2 0x7C SWAP2 SWAP1 PUSH2 0x623 JUMP JUMPDEST PUSH1 0x40 MLOAD DUP1 SWAP2 SUB SWAP1 RETURN JUMPDEST CALLVALUE DUP1 ISZERO PUSH2 0x91 JUMPI PUSH1 0x0 DUP1 REVERT JUMPDEST POP PUSH2 0x9A PUSH2 0x151 JUMP JUMPDEST PUSH1 0x40 MLOAD PUSH2 0xA7 SWAP2 SWAP1 PUSH2 0x67F JUMP JUMPDEST PUSH1 0x40 MLOAD DUP1 SWAP2 SUB SWAP1 RETURN JUMPDEST CALLVALUE DUP1 ISZERO PUSH2 0xBC JUMPI PUSH1 0x0 DUP1 REVERT JUMPDEST POP PUSH2 0xC5 PUSH2 0x177 JUMP JUMPDEST STOP JUMPDEST CALLVALUE DUP1 ISZERO PUSH2 0xD3 JUMPI PUSH1 0x0 DUP1 REVERT JUMPDEST POP PUSH2 0xEE PUSH1 0x4 DUP1 CALLDATASIZE SUB DUP2 ADD SWAP1 PUSH2 0xE9 SWAP2 SWAP1 PUSH2 0x6CB JUMP JUMPDEST PUSH2 0x333 JUMP JUMPDEST PUSH1 0x40 MLOAD PUSH2 0xFB SWAP2 SWAP1 PUSH2 0x623 JUMP JUMPDEST PUSH1 0x40 MLOAD DUP1 SWAP2 SUB SWAP1 RETURN JUMPDEST PUSH2 0x10C PUSH2 0x34B JUMP JUMPDEST STOP JUMPDEST CALLVALUE DUP1 ISZERO PUSH2 0x11A JUMPI PUSH1 0x0 DUP1 REVERT JUMPDEST POP PUSH2 0x135 PUSH1 0x4 DUP1 CALLDATASIZE SUB DUP2 ADD SWAP1 PUSH2 0x130 SWAP2 SWAP1 PUSH2 0x724 JUMP JUMPDEST PUSH2 0x441 JUMP JUMPDEST PUSH1 0x40 MLOAD PUSH2 0x142 SWAP2 SWAP1 PUSH2 0x67F JUMP JUMPDEST PUSH1 0x40 MLOAD DUP1 SWAP2 SUB SWAP1 RETURN JUMPDEST PUSH1 0x0 SLOAD DUP2 JUMP JUMPDEST PUSH1 0x1 PUSH1 0x0 SWAP1 SLOAD SWAP1 PUSH2 0x100 EXP SWAP1 DIV PUSH20 0xFFFFFFFFFFFFFFFFFFFFFFFFFFFFFFFFFFFFFFFF AND DUP2 JUMP JUMPDEST PUSH1 0x0 JUMPDEST PUSH1 0x2 DUP1 SLOAD SWAP1 POP DUP2 LT ISZERO PUSH2 0x223 JUMPI PUSH1 0x0 PUSH1 0x2 DUP3 DUP2 SLOAD DUP2 LT PUSH2 0x19D JUMPI PUSH2 0x19C PUSH2 0x751 JUMP JUMPDEST JUMPDEST SWAP1 PUSH1 0x0 MSTORE PUSH1 0x20 PUSH1 0x0 KECCAK256 ADD PUSH1 0x0 SWAP1 SLOAD SWAP1 PUSH2 0x100 EXP SWAP1 DIV PUSH20 0xFFFFFFFFFFFFFFFFFFFFFFFFFFFFFFFFFFFFFFFF AND SWAP1 POP PUSH1 0x0 PUSH1 0x3 PUSH1 0x0 DUP4 PUSH20 0xFFFFFFFFFFFFFFFFFFFFFFFFFFFFFFFFFFFFFFFF AND PUSH20 0xFFFFFFFFFFFFFFFFFFFFFFFFFFFFFFFFFFFFFFFF AND DUP2 MSTORE PUSH1 0x20 ADD SWAP1 DUP2 MSTORE PUSH1 0x20 ADD PUSH1 0x0 KECCAK256 DUP2 SWAP1 SSTORE POP POP DUP1 DUP1 PUSH2 0x21B SWAP1 PUSH2 0x7AF JUMP JUMPDEST SWAP2 POP POP PUSH2 0x17A JUMP JUMPDEST POP PUSH1 0x0 PUSH8 0xFFFFFFFFFFFFFFFF DUP2 GT ISZERO PUSH2 0x23F JUMPI PUSH2 0x23E PUSH2 0x7F7 JUMP JUMPDEST JUMPDEST PUSH1 0x40 MLOAD SWAP1 DUP1 DUP3 MSTORE DUP1 PUSH1 0x20 MUL PUSH1 0x20 ADD DUP3 ADD PUSH1 0x40 MSTORE DUP1 ISZERO PUSH2 0x26D JUMPI DUP2 PUSH1 0x20 ADD PUSH1 0x20 DUP3 MUL DUP1 CALLDATASIZE DUP4 CALLDATACOPY DUP1 DUP3 ADD SWAP2 POP POP SWAP1 POP JUMPDEST POP PUSH1 0x2 SWAP1 DUP1 MLOAD SWAP1 PUSH1 0x20 ADD SWAP1 PUSH2 0x283 SWAP3 SWAP2 SWAP1 PUSH2 0x563 JUMP JUMPDEST POP PUSH1 0x0 CALLER PUSH20 0xFFFFFFFFFFFFFFFFFFFFFFFFFFFFFFFFFFFFFFFF AND SELFBALANCE PUSH1 0x40 MLOAD PUSH2 0x2AA SWAP1 PUSH2 0x857 JUMP JUMPDEST PUSH1 0x0 PUSH1 0x40 MLOAD DUP1 DUP4 SUB DUP2 DUP6 DUP8 GAS CALL SWAP3 POP POP POP RETURNDATASIZE DUP1 PUSH1 0x0 DUP2 EQ PUSH2 0x2E7 JUMPI PUSH1 0x40 MLOAD SWAP2 POP PUSH1 0x1F NOT PUSH1 0x3F RETURNDATASIZE ADD AND DUP3 ADD PUSH1 0x40 MSTORE RETURNDATASIZE DUP3 MSTORE RETURNDATASIZE PUSH1 0x0 PUSH1 0x20 DUP5 ADD RETURNDATACOPY PUSH2 0x2EC JUMP JUMPDEST PUSH1 0x60 SWAP2 POP JUMPDEST POP POP SWAP1 POP DUP1 PUSH2 0x330 JUMPI PUSH1 0x40 MLOAD PUSH32 0x8C379A000000000000000000000000000000000000000000000000000000000 DUP2 MSTORE PUSH1 0x4 ADD PUSH2 0x327 SWAP1 PUSH2 0x8C9 JUMP JUMPDEST PUSH1 0x40 MLOAD DUP1 SWAP2 SUB SWAP1 REVERT JUMPDEST POP JUMP JUMPDEST PUSH1 0x3 PUSH1 0x20 MSTORE DUP1 PUSH1 0x0 MSTORE PUSH1 0x40 PUSH1 0x0 KECCAK256 PUSH1 0x0 SWAP2 POP SWAP1 POP SLOAD DUP2 JUMP JUMPDEST PUSH1 0x0 SLOAD PUSH2 0x357 CALLVALUE PUSH2 0x480 JUMP JUMPDEST LT ISZERO PUSH2 0x398 JUMPI PUSH1 0x40 MLOAD PUSH32 0x8C379A000000000000000000000000000000000000000000000000000000000 DUP2 MSTORE PUSH1 0x4 ADD PUSH2 0x38F SWAP1 PUSH2 0x935 JUMP JUMPDEST PUSH1 0x40 MLOAD DUP1 SWAP2 SUB SWAP1 REVERT JUMPDEST PUSH1 0x2 CALLER SWAP1 DUP1 PUSH1 0x1 DUP2 SLOAD ADD DUP1 DUP3 SSTORE DUP1 SWAP2 POP POP PUSH1 0x1 SWAP1 SUB SWAP1 PUSH1 0x0 MSTORE PUSH1 0x20 PUSH1 0x0 KECCAK256 ADD PUSH1 0x0 SWAP1 SWAP2 SWAP1 SWAP2 SWAP1 SWAP2 PUSH2 0x100 EXP DUP2 SLOAD DUP2 PUSH20 0xFFFFFFFFFFFFFFFFFFFFFFFFFFFFFFFFFFFFFFFF MUL NOT AND SWAP1 DUP4 PUSH20 0xFFFFFFFFFFFFFFFFFFFFFFFFFFFFFFFFFFFFFFFF AND MUL OR SWAP1 SSTORE POP CALLVALUE PUSH1 0x3 PUSH1 0x0 CALLER PUSH20 0xFFFFFFFFFFFFFFFFFFFFFFFFFFFFFFFFFFFFFFFF AND PUSH20 0xFFFFFFFFFFFFFFFFFFFFFFFFFFFFFFFFFFFFFFFF AND DUP2 MSTORE PUSH1 0x20 ADD SWAP1 DUP2 MSTORE PUSH1 0x20 ADD PUSH1 0x0 KECCAK256 DUP2 SWAP1 SSTORE POP JUMP JUMPDEST PUSH1 0x2 DUP2 DUP2 SLOAD DUP2 LT PUSH2 0x451 JUMPI PUSH1 0x0 DUP1 REVERT JUMPDEST SWAP1 PUSH1 0x0 MSTORE PUSH1 0x20 PUSH1 0x0 KECCAK256 ADD PUSH1 0x0 SWAP2 POP SLOAD SWAP1 PUSH2 0x100 EXP SWAP1 DIV PUSH20 0xFFFFFFFFFFFFFFFFFFFFFFFFFFFFFFFFFFFFFFFF AND DUP2 JUMP JUMPDEST PUSH1 0x0 DUP1 PUSH2 0x48B PUSH2 0x4BA JUMP JUMPDEST SWAP1 POP PUSH1 0x0 PUSH8 0xDE0B6B3A7640000 DUP5 DUP4 PUSH2 0x4A4 SWAP2 SWAP1 PUSH2 0x955 JUMP JUMPDEST PUSH2 0x4AE SWAP2 SWAP1 PUSH2 0x9DE JUMP JUMPDEST SWAP1 POP DUP1 SWAP3 POP POP POP SWAP2 SWAP1 POP JUMP JUMPDEST PUSH1 0x0 DUP1 PUSH20 0xD4A33860578DE61DBABDC8BFDB98FD742FA7028E SWAP1 POP PUSH1 0x0 DUP2 PUSH20 0xFFFFFFFFFFFFFFFFFFFFFFFFFFFFFFFFFFFFFFFF AND PUSH4 0xFEAF968C PUSH1 0x40 MLOAD DUP2 PUSH4 0xFFFFFFFF AND PUSH1 0xE0 SHL DUP2 MSTORE PUSH1 0x4 ADD PUSH1 0xA0 PUSH1 0x40 MLOAD DUP1 DUP4 SUB DUP2 DUP7 GAS STATICCALL ISZERO DUP1 ISZERO PUSH2 0x521 JUMPI RETURNDATASIZE PUSH1 0x0 DUP1 RETURNDATACOPY RETURNDATASIZE PUSH1 0x0 REVERT JUMPDEST POP POP POP POP PUSH1 0x40 MLOAD RETURNDATASIZE PUSH1 0x1F NOT PUSH1 0x1F DUP3 ADD AND DUP3 ADD DUP1 PUSH1 0x40 MSTORE POP DUP2 ADD SWAP1 PUSH2 0x545 SWAP2 SWAP1 PUSH2 0xA9C JUMP JUMPDEST POP POP POP SWAP2 POP POP PUSH5 0x2540BE400 DUP2 PUSH2 0x55C SWAP2 SWAP1 PUSH2 0xB17 JUMP JUMPDEST SWAP3 POP POP POP SWAP1 JUMP JUMPDEST DUP3 DUP1 SLOAD DUP3 DUP3 SSTORE SWAP1 PUSH1 0x0 MSTORE PUSH1 0x20 PUSH1 0x0 KECCAK256 SWAP1 DUP2 ADD SWAP3 DUP3 ISZERO PUSH2 0x5DC JUMPI SWAP2 PUSH1 0x20 MUL DUP3 ADD JUMPDEST DUP3 DUP2 GT ISZERO PUSH2 0x5DB JUMPI DUP3 MLOAD DUP3 PUSH1 0x0 PUSH2 0x100 EXP DUP2 SLOAD DUP2 PUSH20 0xFFFFFFFFFFFFFFFFFFFFFFFFFFFFFFFFFFFFFFFF MUL NOT AND SWAP1 DUP4 PUSH20 0xFFFFFFFFFFFFFFFFFFFFFFFFFFFFFFFFFFFFFFFF AND MUL OR SWAP1 SSTORE POP SWAP2 PUSH1 0x20 ADD SWAP2 SWAP1 PUSH1 0x1 ADD SWAP1 PUSH2 0x583 JUMP JUMPDEST JUMPDEST POP SWAP1 POP PUSH2 0x5E9 SWAP2 SWAP1 PUSH2 0x5ED JUMP JUMPDEST POP SWAP1 JUMP JUMPDEST JUMPDEST DUP1 DUP3 GT ISZERO PUSH2 0x606 JUMPI PUSH1 0x0 DUP2 PUSH1 0x0 SWAP1 SSTORE POP PUSH1 0x1 ADD PUSH2 0x5EE JUMP JUMPDEST POP SWAP1 JUMP JUMPDEST PUSH1 0x0 DUP2 SWAP1 POP SWAP2 SWAP1 POP JUMP JUMPDEST PUSH2 0x61D DUP2 PUSH2 0x60A JUMP JUMPDEST DUP3 MSTORE POP POP JUMP JUMPDEST PUSH1 0x0 PUSH1 0x20 DUP3 ADD SWAP1 POP PUSH2 0x638 PUSH1 0x0 DUP4 ADD DUP5 PUSH2 0x614 JUMP JUMPDEST SWAP3 SWAP2 POP POP JUMP JUMPDEST PUSH1 0x0 PUSH20 0xFFFFFFFFFFFFFFFFFFFFFFFFFFFFFFFFFFFFFFFF DUP3 AND SWAP1 POP SWAP2 SWAP1 POP JUMP JUMPDEST PUSH1 0x0 PUSH2 0x669 DUP3 PUSH2 0x63E JUMP JUMPDEST SWAP1 POP SWAP2 SWAP1 POP JUMP JUMPDEST PUSH2 0x679 DUP2 PUSH2 0x65E JUMP JUMPDEST DUP3 MSTORE POP POP JUMP JUMPDEST PUSH1 0x0 PUSH1 0x20 DUP3 ADD SWAP1 POP PUSH2 0x694 PUSH1 0x0 DUP4 ADD DUP5 PUSH2 0x670 JUMP JUMPDEST SWAP3 SWAP2 POP POP JUMP JUMPDEST PUSH1 0x0 DUP1 REVERT JUMPDEST PUSH2 0x6A8 DUP2 PUSH2 0x65E JUMP JUMPDEST DUP2 EQ PUSH2 0x6B3 JUMPI PUSH1 0x0 DUP1 REVERT JUMPDEST POP JUMP JUMPDEST PUSH1 0x0 DUP2 CALLDATALOAD SWAP1 POP PUSH2 0x6C5 DUP2 PUSH2 0x69F JUMP JUMPDEST SWAP3 SWAP2 POP POP JUMP JUMPDEST PUSH1 0x0 PUSH1 0x20 DUP3 DUP5 SUB SLT ISZERO PUSH2 0x6E1 JUMPI PUSH2 0x6E0 PUSH2 0x69A JUMP JUMPDEST JUMPDEST PUSH1 0x0 PUSH2 0x6EF DUP5 DUP3 DUP6 ADD PUSH2 0x6B6 JUMP JUMPDEST SWAP2 POP POP SWAP3 SWAP2 POP POP JUMP JUMPDEST PUSH2 0x701 DUP2 PUSH2 0x60A JUMP JUMPDEST DUP2 EQ PUSH2 0x70C JUMPI PUSH1 0x0 DUP1 REVERT JUMPDEST POP JUMP JUMPDEST PUSH1 0x0 DUP2 CALLDATALOAD SWAP1 POP PUSH2 0x71E DUP2 PUSH2 0x6F8 JUMP JUMPDEST SWAP3 SWAP2 POP POP JUMP JUMPDEST PUSH1 0x0 PUSH1 0x20 DUP3 DUP5 SUB SLT ISZERO PUSH2 0x73A JUMPI PUSH2 0x739 PUSH2 0x69A JUMP JUMPDEST JUMPDEST PUSH1 0x0 PUSH2 0x748 DUP5 DUP3 DUP6 ADD PUSH2 0x70F JUMP JUMPDEST SWAP2 POP POP SWAP3 SWAP2 POP POP JUMP JUMPDEST PUSH32 0x4E487B7100000000000000000000000000000000000000000000000000000000 PUSH1 0x0 MSTORE PUSH1 0x32 PUSH1 0x4 MSTORE PUSH1 0x24 PUSH1 0x0 REVERT JUMPDEST PUSH32 0x4E487B7100000000000000000000000000000000000000000000000000000000 PUSH1 0x0 MSTORE PUSH1 0x11 PUSH1 0x4 MSTORE PUSH1 0x24 PUSH1 0x0 REVERT JUMPDEST PUSH1 0x0 PUSH2 0x7BA DUP3 PUSH2 0x60A JUMP JUMPDEST SWAP2 POP PUSH32 0xFFFFFFFFFFFFFFFFFFFFFFFFFFFFFFFFFFFFFFFFFFFFFFFFFFFFFFFFFFFFFFFF DUP3 SUB PUSH2 0x7EC JUMPI PUSH2 0x7EB PUSH2 0x780 JUMP JUMPDEST JUMPDEST PUSH1 0x1 DUP3 ADD SWAP1 POP SWAP2 SWAP1 POP JUMP JUMPDEST PUSH32 0x4E487B7100000000000000000000000000000000000000000000000000000000 PUSH1 0x0 MSTORE PUSH1 0x41 PUSH1 0x4 MSTORE PUSH1 0x24 PUSH1 0x0 REVERT JUMPDEST PUSH1 0x0 DUP2 SWAP1 POP SWAP3 SWAP2 POP POP JUMP JUMPDEST POP JUMP JUMPDEST PUSH1 0x0 PUSH2 0x841 PUSH1 0x0 DUP4 PUSH2 0x826 JUMP JUMPDEST SWAP2 POP PUSH2 0x84C DUP3 PUSH2 0x831 JUMP JUMPDEST PUSH1 0x0 DUP3 ADD SWAP1 POP SWAP2 SWAP1 POP JUMP JUMPDEST PUSH1 0x0 PUSH2 0x862 DUP3 PUSH2 0x834 JUMP JUMPDEST SWAP2 POP DUP2 SWAP1 POP SWAP2 SWAP1 POP JUMP JUMPDEST PUSH1 0x0 DUP3 DUP3 MSTORE PUSH1 0x20 DUP3 ADD SWAP1 POP SWAP3 SWAP2 POP POP JUMP JUMPDEST PUSH32 0x6661696C656420746F2077697468647261770000000000000000000000000000 PUSH1 0x0 DUP3 ADD MSTORE POP JUMP JUMPDEST PUSH1 0x0 PUSH2 0x8B3 PUSH1 0x12 DUP4 PUSH2 0x86C JUMP JUMPDEST SWAP2 POP PUSH2 0x8BE DUP3 PUSH2 0x87D JUMP JUMPDEST PUSH1 0x20 DUP3 ADD SWAP1 POP SWAP2 SWAP1 POP JUMP JUMPDEST PUSH1 0x0 PUSH1 0x20 DUP3 ADD SWAP1 POP DUP2 DUP2 SUB PUSH1 0x0 DUP4 ADD MSTORE PUSH2 0x8E2 DUP2 PUSH2 0x8A6 JUMP JUMPDEST SWAP1 POP SWAP2 SWAP1 POP JUMP JUMPDEST PUSH32 0x4469646E27742073656E6420656E6F7567682045544800000000000000000000 PUSH1 0x0 DUP3 ADD MSTORE POP JUMP JUMPDEST PUSH1 0x0 PUSH2 0x91F PUSH1 0x16 DUP4 PUSH2 0x86C JUMP JUMPDEST SWAP2 POP PUSH2 0x92A DUP3 PUSH2 0x8E9 JUMP JUMPDEST PUSH1 0x20 DUP3 ADD SWAP1 POP SWAP2 SWAP1 POP JUMP JUMPDEST PUSH1 0x0 PUSH1 0x20 DUP3 ADD SWAP1 POP DUP2 DUP2 SUB PUSH1 0x0 DUP4 ADD MSTORE PUSH2 0x94E DUP2 PUSH2 0x912 JUMP JUMPDEST SWAP1 POP SWAP2 SWAP1 POP JUMP JUMPDEST PUSH1 0x0 PUSH2 0x960 DUP3 PUSH2 0x60A JUMP JUMPDEST SWAP2 POP PUSH2 0x96B DUP4 PUSH2 0x60A JUMP JUMPDEST SWAP3 POP DUP2 PUSH32 0xFFFFFFFFFFFFFFFFFFFFFFFFFFFFFFFFFFFFFFFFFFFFFFFFFFFFFFFFFFFFFFFF DIV DUP4 GT DUP3 ISZERO ISZERO AND ISZERO PUSH2 0x9A4 JUMPI PUSH2 0x9A3 PUSH2 0x780 JUMP JUMPDEST JUMPDEST DUP3 DUP3 MUL SWAP1 POP SWAP3 SWAP2 POP POP JUMP JUMPDEST PUSH32 0x4E487B7100000000000000000000000000000000000000000000000000000000 PUSH1 0x0 MSTORE PUSH1 0x12 PUSH1 0x4 MSTORE PUSH1 0x24 PUSH1 0x0 REVERT JUMPDEST PUSH1 0x0 PUSH2 0x9E9 DUP3 PUSH2 0x60A JUMP JUMPDEST SWAP2 POP PUSH2 0x9F4 DUP4 PUSH2 0x60A JUMP JUMPDEST SWAP3 POP DUP3 PUSH2 0xA04 JUMPI PUSH2 0xA03 PUSH2 0x9AF JUMP JUMPDEST JUMPDEST DUP3 DUP3 DIV SWAP1 POP SWAP3 SWAP2 POP POP JUMP JUMPDEST PUSH1 0x0 PUSH10 0xFFFFFFFFFFFFFFFFFFFF DUP3 AND SWAP1 POP SWAP2 SWAP1 POP JUMP JUMPDEST PUSH2 0xA2E DUP2 PUSH2 0xA0F JUMP JUMPDEST DUP2 EQ PUSH2 0xA39 JUMPI PUSH1 0x0 DUP1 REVERT JUMPDEST POP JUMP JUMPDEST PUSH1 0x0 DUP2 MLOAD SWAP1 POP PUSH2 0xA4B DUP2 PUSH2 0xA25 JUMP JUMPDEST SWAP3 SWAP2 POP POP JUMP JUMPDEST PUSH1 0x0 DUP2 SWAP1 POP SWAP2 SWAP1 POP JUMP JUMPDEST PUSH2 0xA64 DUP2 PUSH2 0xA51 JUMP JUMPDEST DUP2 EQ PUSH2 0xA6F JUMPI PUSH1 0x0 DUP1 REVERT JUMPDEST POP JUMP JUMPDEST PUSH1 0x0 DUP2 MLOAD SWAP1 POP PUSH2 0xA81 DUP2 PUSH2 0xA5B JUMP JUMPDEST SWAP3 SWAP2 POP POP JUMP JUMPDEST PUSH1 0x0 DUP2 MLOAD SWAP1 POP PUSH2 0xA96 DUP2 PUSH2 0x6F8 JUMP JUMPDEST SWAP3 SWAP2 POP POP JUMP JUMPDEST PUSH1 0x0 DUP1 PUSH1 0x0 DUP1 PUSH1 0x0 PUSH1 0xA0 DUP7 DUP9 SUB SLT ISZERO PUSH2 0xAB8 JUMPI PUSH2 0xAB7 PUSH2 0x69A JUMP JUMPDEST JUMPDEST PUSH1 0x0 PUSH2 0xAC6 DUP9 DUP3 DUP10 ADD PUSH2 0xA3C JUMP JUMPDEST SWAP6 POP POP PUSH1 0x20 PUSH2 0xAD7 DUP9 DUP3 DUP10 ADD PUSH2 0xA72 JUMP JUMPDEST SWAP5 POP POP PUSH1 0x40 PUSH2 0xAE8 DUP9 DUP3 DUP10 ADD PUSH2 0xA87 JUMP JUMPDEST SWAP4 POP POP PUSH1 0x60 PUSH2 0xAF9 DUP9 DUP3 DUP10 ADD PUSH2 0xA87 JUMP JUMPDEST SWAP3 POP POP PUSH1 0x80 PUSH2 0xB0A DUP9 DUP3 DUP10 ADD PUSH2 0xA3C JUMP JUMPDEST SWAP2 POP POP SWAP3 SWAP6 POP SWAP3 SWAP6 SWAP1 SWAP4 POP JUMP JUMPDEST PUSH1 0x0 PUSH2 0xB22 DUP3 PUSH2 0xA51 JUMP JUMPDEST SWAP2 POP PUSH2 0xB2D DUP4 PUSH2 0xA51 JUMP JUMPDEST SWAP3 POP DUP3 PUSH32 0x7FFFFFFFFFFFFFFFFFFFFFFFFFFFFFFFFFFFFFFFFFFFFFFFFFFFFFFFFFFFFFFF DIV DUP3 GT PUSH1 0x0 DUP5 SGT PUSH1 0x0 DUP5 SGT AND AND ISZERO PUSH2 0xB6C JUMPI PUSH2 0xB6B PUSH2 0x780 JUMP JUMPDEST JUMPDEST DUP2 PUSH32 0x8000000000000000000000000000000000000000000000000000000000000000 SDIV DUP4 SLT PUSH1 0x0 DUP5 SLT PUSH1 0x0 DUP5 SGT AND AND ISZERO PUSH2 0xBA9 JUMPI PUSH2 0xBA8 PUSH2 0x780 JUMP JUMPDEST JUMPDEST DUP3 PUSH32 0x8000000000000000000000000000000000000000000000000000000000000000 SDIV DUP3 SLT PUSH1 0x0 DUP5 SGT PUSH1 0x0 DUP5 SLT AND AND ISZERO PUSH2 0xBE6 JUMPI PUSH2 0xBE5 PUSH2 0x780 JUMP JUMPDEST JUMPDEST DUP3 PUSH32 0x7FFFFFFFFFFFFFFFFFFFFFFFFFFFFFFFFFFFFFFFFFFFFFFFFFFFFFFFFFFFFFFF SDIV DUP3 SLT PUSH1 0x0 DUP5 SLT PUSH1 0x0 DUP5 SLT AND AND ISZERO PUSH2 0xC23 JUMPI PUSH2 0xC22 PUSH2 0x780 JUMP JUMPDEST JUMPDEST DUP3 DUP3 MUL SWAP1 POP SWAP3 SWAP2 POP POP JUMP INVALID LOG2 PUSH5 0x6970667358 0x22 SLT KECCAK256 0xB1 SWAP1 CALLDATACOPY OR PUSH9 0x1E7888611A2CCE222C PUSH3 0x35E2D DUP13 0xE8 0x5E 0x4B DUP15 0xD5 PUSH1 0xD 0xAD DUP9 DUP11 0xDF 0xC4 0x4D PUSH5 0x736F6C6343 STOP ADDMOD LT STOP CALLER "
				},
				"gasEstimates": {
					"creation": {
						"codeDepositCost": "634400",
						"executionCost": "47042",
						"totalCost": "681442"
					},
					"external": {
						"addressToAmountFunded(address)": "2858",
						"contract_owner()": "2514",
						"fund()": "infinite",
						"funders(uint256)": "5044",
						"minimumUsd()": "2407",
						"withdraw()": "infinite"
					}
				},
				"methodIdentifiers": {
					"addressToAmountFunded(address)": "3e47d6f3",
					"contract_owner()": "384f58eb",
					"fund()": "b60d4288",
					"funders(uint256)": "dc0d3dff",
					"minimumUsd()": "098de820",
					"withdraw()": "3ccfd60b"
				}
			},
			"storageLayout": {
				"storage": [
					{
						"astId": 57,
						"contract": "contracts/FundMe/FundMe.sol:FundMe",
						"label": "minimumUsd",
						"offset": 0,
						"slot": "0",
						"type": "t_uint256"
					},
					{
						"astId": 59,
						"contract": "contracts/FundMe/FundMe.sol:FundMe",
						"label": "contract_owner",
						"offset": 0,
						"slot": "1",
						"type": "t_address"
					},
					{
						"astId": 71,
						"contract": "contracts/FundMe/FundMe.sol:FundMe",
						"label": "funders",
						"offset": 0,
						"slot": "2",
						"type": "t_array(t_address)dyn_storage"
					},
					{
						"astId": 75,
						"contract": "contracts/FundMe/FundMe.sol:FundMe",
						"label": "addressToAmountFunded",
						"offset": 0,
						"slot": "3",
						"type": "t_mapping(t_address,t_uint256)"
					}
				],
				"types": {
					"t_address": {
						"encoding": "inplace",
						"label": "address",
						"numberOfBytes": "20"
					},
					"t_array(t_address)dyn_storage": {
						"base": "t_address",
						"encoding": "dynamic_array",
						"label": "address[]",
						"numberOfBytes": "32"
					},
					"t_mapping(t_address,t_uint256)": {
						"encoding": "mapping",
						"key": "t_address",
						"label": "mapping(address => uint256)",
						"numberOfBytes": "32",
						"value": "t_uint256"
					},
					"t_uint256": {
						"encoding": "inplace",
						"label": "uint256",
						"numberOfBytes": "32"
					}
				}
			},
			"userdoc": {
				"kind": "user",
				"methods": {},
				"version": 1
			}
		}
	}
}