{
	"contracts/CaptureTheEther/CallMe.sol": {
		"CallMeChallenge": {
			"abi": [
				{
					"constant": false,
					"inputs": [],
					"name": "callme",
					"outputs": [],
					"payable": false,
					"stateMutability": "nonpayable",
					"type": "function"
				},
				{
					"constant": true,
					"inputs": [],
					"name": "isComplete",
					"outputs": [
						{
							"name": "",
							"type": "bool"
						}
					],
					"payable": false,
					"stateMutability": "view",
					"type": "function"
				}
			],
			"devdoc": {
				"methods": {}
			},
			"evm": {
				"assembly": "    /* \"contracts/CaptureTheEther/CallMe.sol\":26:155  contract CallMeChallenge {... */\n  mstore(0x40, 0x80)\n    /* \"contracts/CaptureTheEther/CallMe.sol\":82:87  false */\n  0x0\n    /* \"contracts/CaptureTheEther/CallMe.sol\":57:87  bool public isComplete = false */\n  dup1\n  exp(0x100, 0x0)\n  dup2\n  sload\n  dup2\n  0xff\n  mul\n  not\n  and\n  swap1\n  dup4\n  iszero\n  iszero\n  mul\n  or\n  swap1\n  sstore\n  pop\n    /* \"contracts/CaptureTheEther/CallMe.sol\":26:155  contract CallMeChallenge {... */\n  callvalue\n    /* \"--CODEGEN--\":8:17   */\n  dup1\n    /* \"--CODEGEN--\":5:7   */\n  iszero\n  tag_1\n  jumpi\n    /* \"--CODEGEN--\":30:31   */\n  0x0\n    /* \"--CODEGEN--\":27:28   */\n  dup1\n    /* \"--CODEGEN--\":20:32   */\n  revert\n    /* \"--CODEGEN--\":5:7   */\ntag_1:\n    /* \"contracts/CaptureTheEther/CallMe.sol\":26:155  contract CallMeChallenge {... */\n  pop\n  dataSize(sub_0)\n  dup1\n  dataOffset(sub_0)\n  0x0\n  codecopy\n  0x0\n  return\nstop\n\nsub_0: assembly {\n        /* \"contracts/CaptureTheEther/CallMe.sol\":26:155  contract CallMeChallenge {... */\n      mstore(0x40, 0x80)\n      jumpi(tag_1, lt(calldatasize, 0x4))\n      calldataload(0x0)\n      0x100000000000000000000000000000000000000000000000000000000\n      swap1\n      div\n      0xffffffff\n      and\n      dup1\n      0xa3c8e393\n      eq\n      tag_2\n      jumpi\n      dup1\n      0xb2fa1c9e\n      eq\n      tag_3\n      jumpi\n    tag_1:\n      0x0\n      dup1\n      revert\n        /* \"contracts/CaptureTheEther/CallMe.sol\":94:153  function callme() public {... */\n    tag_2:\n      callvalue\n        /* \"--CODEGEN--\":8:17   */\n      dup1\n        /* \"--CODEGEN--\":5:7   */\n      iszero\n      tag_4\n      jumpi\n        /* \"--CODEGEN--\":30:31   */\n      0x0\n        /* \"--CODEGEN--\":27:28   */\n      dup1\n        /* \"--CODEGEN--\":20:32   */\n      revert\n        /* \"--CODEGEN--\":5:7   */\n    tag_4:\n        /* \"contracts/CaptureTheEther/CallMe.sol\":94:153  function callme() public {... */\n      pop\n      tag_5\n      jump(tag_6)\n    tag_5:\n      stop\n        /* \"contracts/CaptureTheEther/CallMe.sol\":57:87  bool public isComplete = false */\n    tag_3:\n      callvalue\n        /* \"--CODEGEN--\":8:17   */\n      dup1\n        /* \"--CODEGEN--\":5:7   */\n      iszero\n      tag_7\n      jumpi\n        /* \"--CODEGEN--\":30:31   */\n      0x0\n        /* \"--CODEGEN--\":27:28   */\n      dup1\n        /* \"--CODEGEN--\":20:32   */\n      revert\n        /* \"--CODEGEN--\":5:7   */\n    tag_7:\n        /* \"contracts/CaptureTheEther/CallMe.sol\":57:87  bool public isComplete = false */\n      pop\n      tag_8\n      jump(tag_9)\n    tag_8:\n      mload(0x40)\n      dup1\n      dup3\n      iszero\n      iszero\n      iszero\n      iszero\n      dup2\n      mstore\n      0x20\n      add\n      swap2\n      pop\n      pop\n      mload(0x40)\n      dup1\n      swap2\n      sub\n      swap1\n      return\n        /* \"contracts/CaptureTheEther/CallMe.sol\":94:153  function callme() public {... */\n    tag_6:\n        /* \"contracts/CaptureTheEther/CallMe.sol\":142:146  true */\n      0x1\n        /* \"contracts/CaptureTheEther/CallMe.sol\":129:139  isComplete */\n      0x0\n      dup1\n        /* \"contracts/CaptureTheEther/CallMe.sol\":129:146  isComplete = true */\n      0x100\n      exp\n      dup2\n      sload\n      dup2\n      0xff\n      mul\n      not\n      and\n      swap1\n      dup4\n      iszero\n      iszero\n      mul\n      or\n      swap1\n      sstore\n      pop\n        /* \"contracts/CaptureTheEther/CallMe.sol\":94:153  function callme() public {... */\n      jump\t// out\n        /* \"contracts/CaptureTheEther/CallMe.sol\":57:87  bool public isComplete = false */\n    tag_9:\n      0x0\n      dup1\n      swap1\n      sload\n      swap1\n      0x100\n      exp\n      swap1\n      div\n      0xff\n      and\n      dup2\n      jump\t// out\n\n    auxdata: 0xa165627a7a72305820a2512534188209928b50119124f2e7ce2cbec412900bc83b56e2cff7cc6b82810029\n}\n",
				"bytecode": {
					"linkReferences": {},
					"object": "608060405260008060006101000a81548160ff02191690831515021790555034801561002a57600080fd5b5060e8806100396000396000f3006080604052600436106049576000357c0100000000000000000000000000000000000000000000000000000000900463ffffffff168063a3c8e39314604e578063b2fa1c9e146062575b600080fd5b348015605957600080fd5b506060608e565b005b348015606d57600080fd5b50607460aa565b604051808215151515815260200191505060405180910390f35b60016000806101000a81548160ff021916908315150217905550565b6000809054906101000a900460ff16815600a165627a7a72305820a2512534188209928b50119124f2e7ce2cbec412900bc83b56e2cff7cc6b82810029",
					"opcodes": "PUSH1 0x80 PUSH1 0x40 MSTORE PUSH1 0x0 DUP1 PUSH1 0x0 PUSH2 0x100 EXP DUP2 SLOAD DUP2 PUSH1 0xFF MUL NOT AND SWAP1 DUP4 ISZERO ISZERO MUL OR SWAP1 SSTORE POP CALLVALUE DUP1 ISZERO PUSH2 0x2A JUMPI PUSH1 0x0 DUP1 REVERT JUMPDEST POP PUSH1 0xE8 DUP1 PUSH2 0x39 PUSH1 0x0 CODECOPY PUSH1 0x0 RETURN STOP PUSH1 0x80 PUSH1 0x40 MSTORE PUSH1 0x4 CALLDATASIZE LT PUSH1 0x49 JUMPI PUSH1 0x0 CALLDATALOAD PUSH29 0x100000000000000000000000000000000000000000000000000000000 SWAP1 DIV PUSH4 0xFFFFFFFF AND DUP1 PUSH4 0xA3C8E393 EQ PUSH1 0x4E JUMPI DUP1 PUSH4 0xB2FA1C9E EQ PUSH1 0x62 JUMPI JUMPDEST PUSH1 0x0 DUP1 REVERT JUMPDEST CALLVALUE DUP1 ISZERO PUSH1 0x59 JUMPI PUSH1 0x0 DUP1 REVERT JUMPDEST POP PUSH1 0x60 PUSH1 0x8E JUMP JUMPDEST STOP JUMPDEST CALLVALUE DUP1 ISZERO PUSH1 0x6D JUMPI PUSH1 0x0 DUP1 REVERT JUMPDEST POP PUSH1 0x74 PUSH1 0xAA JUMP JUMPDEST PUSH1 0x40 MLOAD DUP1 DUP3 ISZERO ISZERO ISZERO ISZERO DUP2 MSTORE PUSH1 0x20 ADD SWAP2 POP POP PUSH1 0x40 MLOAD DUP1 SWAP2 SUB SWAP1 RETURN JUMPDEST PUSH1 0x1 PUSH1 0x0 DUP1 PUSH2 0x100 EXP DUP2 SLOAD DUP2 PUSH1 0xFF MUL NOT AND SWAP1 DUP4 ISZERO ISZERO MUL OR SWAP1 SSTORE POP JUMP JUMPDEST PUSH1 0x0 DUP1 SWAP1 SLOAD SWAP1 PUSH2 0x100 EXP SWAP1 DIV PUSH1 0xFF AND DUP2 JUMP STOP LOG1 PUSH6 0x627A7A723058 KECCAK256 LOG2 MLOAD 0x25 CALLVALUE XOR DUP3 MULMOD SWAP3 DUP12 POP GT SWAP2 0x24 CALLCODE 0xe7 0xce 0x2c 0xbe 0xc4 SLT SWAP1 SIGNEXTEND 0xc8 EXTCODESIZE JUMP 0xe2 0xcf 0xf7 0xcc PUSH12 0x828100290000000000000000 "
				},
				"gasEstimates": {
					"creation": {
						"codeDepositCost": "46400",
						"executionCost": "20366",
						"totalCost": "66766"
					},
					"external": {
						"callme()": "20400",
						"isComplete()": "464"
					}
				},
				"methodIdentifiers": {
					"callme()": "a3c8e393",
					"isComplete()": "b2fa1c9e"
				}
			},
			"userdoc": {
				"methods": {}
			}
		}
	}
}