{
	"CaptureTheEther/GuessTheRandomNumberHack.sol": {
		"GuessTheRandomNumberSolver": {
			"abi": [
				{
					"inputs": [
						{
							"internalType": "address",
							"name": "_interfaceAddress",
							"type": "address"
						}
					],
					"stateMutability": "nonpayable",
					"type": "constructor"
				},
				{
					"inputs": [],
					"name": "_interface",
					"outputs": [
						{
							"internalType": "contract IGuessTheRandomNumberChallenge",
							"name": "",
							"type": "address"
						}
					],
					"stateMutability": "view",
					"type": "function"
				},
				{
					"inputs": [],
					"name": "getBalance",
					"outputs": [
						{
							"internalType": "uint256",
							"name": "",
							"type": "uint256"
						}
					],
					"stateMutability": "view",
					"type": "function"
				},
				{
					"inputs": [],
					"name": "previousBlockHash",
					"outputs": [
						{
							"internalType": "bytes32",
							"name": "",
							"type": "bytes32"
						}
					],
					"stateMutability": "view",
					"type": "function"
				},
				{
					"inputs": [],
					"name": "previousTimestamp",
					"outputs": [
						{
							"internalType": "uint256",
							"name": "",
							"type": "uint256"
						}
					],
					"stateMutability": "view",
					"type": "function"
				},
				{
					"inputs": [],
					"name": "solve",
					"outputs": [
						{
							"internalType": "uint8",
							"name": "",
							"type": "uint8"
						}
					],
					"stateMutability": "view",
					"type": "function"
				},
				{
					"inputs": [],
					"name": "withdraw",
					"outputs": [],
					"stateMutability": "nonpayable",
					"type": "function"
				},
				{
					"stateMutability": "payable",
					"type": "receive"
				}
			],
			"devdoc": {
				"kind": "dev",
				"methods": {},
				"version": 1
			},
			"evm": {
				"assembly": "    /* \"CaptureTheEther/GuessTheRandomNumberHack.sol\":113:979  contract GuessTheRandomNumberSolver {... */\n  mstore(0x40, 0x80)\n    /* \"CaptureTheEther/GuessTheRandomNumberHack.sol\":240:306  0xdd51bfbf089e41cca26c677a2d99c7b201321a0c4d5d0e15e6234deeea9b87da */\n  0xdd51bfbf089e41cca26c677a2d99c7b201321a0c4d5d0e15e6234deeea9b87da\n    /* \"CaptureTheEther/GuessTheRandomNumberHack.sol\":205:306  bytes32 public previousBlockHash = 0xdd51bfbf089e41cca26c677a2d99c7b201321a0c4d5d0e15e6234deeea9b87da */\n  0x00\n  shl\n  0x01\n  sstore\n    /* \"CaptureTheEther/GuessTheRandomNumberHack.sol\":342:352  1650791377 */\n  0x626513d1\n    /* \"CaptureTheEther/GuessTheRandomNumberHack.sol\":310:352  uint public previousTimestamp = 1650791377 */\n  0x02\n  sstore\n    /* \"CaptureTheEther/GuessTheRandomNumberHack.sol\":356:541  constructor(address _interfaceAddress) {... */\n  callvalue\n  dup1\n  iszero\n  tag_1\n  jumpi\n  0x00\n  dup1\n  revert\ntag_1:\n  pop\n  mload(0x40)\n  sub(codesize, bytecodeSize)\n  dup1\n  bytecodeSize\n  dup4\n  codecopy\n  dup2\n  dup2\n  add\n  0x40\n  mstore\n  dup2\n  add\n  swap1\n  tag_2\n  swap2\n  swap1\n  tag_3\n  jump\t// in\ntag_2:\n    /* \"CaptureTheEther/GuessTheRandomNumberHack.sol\":438:439  0 */\n  0x00\n    /* \"CaptureTheEther/GuessTheRandomNumberHack.sol\":409:440  _interfaceAddress != address(0) */\n  0xffffffffffffffffffffffffffffffffffffffff\n  and\n    /* \"CaptureTheEther/GuessTheRandomNumberHack.sol\":409:426  _interfaceAddress */\n  dup2\n    /* \"CaptureTheEther/GuessTheRandomNumberHack.sol\":409:440  _interfaceAddress != address(0) */\n  0xffffffffffffffffffffffffffffffffffffffff\n  and\n  eq\n  iszero\n    /* \"CaptureTheEther/GuessTheRandomNumberHack.sol\":401:468  require(_interfaceAddress != address(0), \"Address can not be Zero\") */\n  tag_6\n  jumpi\n  mload(0x40)\n  0x08c379a000000000000000000000000000000000000000000000000000000000\n  dup2\n  mstore\n  0x04\n  add\n  tag_7\n  swap1\n  tag_8\n  jump\t// in\ntag_7:\n  mload(0x40)\n  dup1\n  swap2\n  sub\n  swap1\n  revert\ntag_6:\n    /* \"CaptureTheEther/GuessTheRandomNumberHack.sol\":518:535  _interfaceAddress */\n  dup1\n    /* \"CaptureTheEther/GuessTheRandomNumberHack.sol\":474:484  _interface */\n  0x00\n  dup1\n    /* \"CaptureTheEther/GuessTheRandomNumberHack.sol\":474:536  _interface = IGuessTheRandomNumberChallenge(_interfaceAddress) */\n  0x0100\n  exp\n  dup2\n  sload\n  dup2\n  0xffffffffffffffffffffffffffffffffffffffff\n  mul\n  not\n  and\n  swap1\n  dup4\n  0xffffffffffffffffffffffffffffffffffffffff\n  and\n  mul\n  or\n  swap1\n  sstore\n  pop\n    /* \"CaptureTheEther/GuessTheRandomNumberHack.sol\":356:541  constructor(address _interfaceAddress) {... */\n  pop\n    /* \"CaptureTheEther/GuessTheRandomNumberHack.sol\":113:979  contract GuessTheRandomNumberSolver {... */\n  jump(tag_9)\n    /* \"#utility.yul\":88:205   */\ntag_11:\n    /* \"#utility.yul\":197:198   */\n  0x00\n    /* \"#utility.yul\":194:195   */\n  dup1\n    /* \"#utility.yul\":187:199   */\n  revert\n    /* \"#utility.yul\":334:460   */\ntag_13:\n    /* \"#utility.yul\":371:378   */\n  0x00\n    /* \"#utility.yul\":411:453   */\n  0xffffffffffffffffffffffffffffffffffffffff\n    /* \"#utility.yul\":404:409   */\n  dup3\n    /* \"#utility.yul\":400:454   */\n  and\n    /* \"#utility.yul\":389:454   */\n  swap1\n  pop\n    /* \"#utility.yul\":334:460   */\n  swap2\n  swap1\n  pop\n  jump\t// out\n    /* \"#utility.yul\":466:562   */\ntag_14:\n    /* \"#utility.yul\":503:510   */\n  0x00\n    /* \"#utility.yul\":532:556   */\n  tag_26\n    /* \"#utility.yul\":550:555   */\n  dup3\n    /* \"#utility.yul\":532:556   */\n  tag_13\n  jump\t// in\ntag_26:\n    /* \"#utility.yul\":521:556   */\n  swap1\n  pop\n    /* \"#utility.yul\":466:562   */\n  swap2\n  swap1\n  pop\n  jump\t// out\n    /* \"#utility.yul\":568:690   */\ntag_15:\n    /* \"#utility.yul\":641:665   */\n  tag_28\n    /* \"#utility.yul\":659:664   */\n  dup2\n    /* \"#utility.yul\":641:665   */\n  tag_14\n  jump\t// in\ntag_28:\n    /* \"#utility.yul\":634:639   */\n  dup2\n    /* \"#utility.yul\":631:666   */\n  eq\n    /* \"#utility.yul\":621:684   */\n  tag_29\n  jumpi\n    /* \"#utility.yul\":680:681   */\n  0x00\n    /* \"#utility.yul\":677:678   */\n  dup1\n    /* \"#utility.yul\":670:682   */\n  revert\n    /* \"#utility.yul\":621:684   */\ntag_29:\n    /* \"#utility.yul\":568:690   */\n  pop\n  jump\t// out\n    /* \"#utility.yul\":696:839   */\ntag_16:\n    /* \"#utility.yul\":753:758   */\n  0x00\n    /* \"#utility.yul\":784:790   */\n  dup2\n    /* \"#utility.yul\":778:791   */\n  mload\n    /* \"#utility.yul\":769:791   */\n  swap1\n  pop\n    /* \"#utility.yul\":800:833   */\n  tag_31\n    /* \"#utility.yul\":827:832   */\n  dup2\n    /* \"#utility.yul\":800:833   */\n  tag_15\n  jump\t// in\ntag_31:\n    /* \"#utility.yul\":696:839   */\n  swap3\n  swap2\n  pop\n  pop\n  jump\t// out\n    /* \"#utility.yul\":845:1196   */\ntag_3:\n    /* \"#utility.yul\":915:921   */\n  0x00\n    /* \"#utility.yul\":964:966   */\n  0x20\n    /* \"#utility.yul\":952:961   */\n  dup3\n    /* \"#utility.yul\":943:950   */\n  dup5\n    /* \"#utility.yul\":939:962   */\n  sub\n    /* \"#utility.yul\":935:967   */\n  slt\n    /* \"#utility.yul\":932:1051   */\n  iszero\n  tag_33\n  jumpi\n    /* \"#utility.yul\":970:1049   */\n  tag_34\n  tag_11\n  jump\t// in\ntag_34:\n    /* \"#utility.yul\":932:1051   */\ntag_33:\n    /* \"#utility.yul\":1090:1091   */\n  0x00\n    /* \"#utility.yul\":1115:1179   */\n  tag_35\n    /* \"#utility.yul\":1171:1178   */\n  dup5\n    /* \"#utility.yul\":1162:1168   */\n  dup3\n    /* \"#utility.yul\":1151:1160   */\n  dup6\n    /* \"#utility.yul\":1147:1169   */\n  add\n    /* \"#utility.yul\":1115:1179   */\n  tag_16\n  jump\t// in\ntag_35:\n    /* \"#utility.yul\":1105:1179   */\n  swap2\n  pop\n    /* \"#utility.yul\":1061:1189   */\n  pop\n    /* \"#utility.yul\":845:1196   */\n  swap3\n  swap2\n  pop\n  pop\n  jump\t// out\n    /* \"#utility.yul\":1202:1371   */\ntag_17:\n    /* \"#utility.yul\":1286:1297   */\n  0x00\n    /* \"#utility.yul\":1320:1326   */\n  dup3\n    /* \"#utility.yul\":1315:1318   */\n  dup3\n    /* \"#utility.yul\":1308:1327   */\n  mstore\n    /* \"#utility.yul\":1360:1364   */\n  0x20\n    /* \"#utility.yul\":1355:1358   */\n  dup3\n    /* \"#utility.yul\":1351:1365   */\n  add\n    /* \"#utility.yul\":1336:1365   */\n  swap1\n  pop\n    /* \"#utility.yul\":1202:1371   */\n  swap3\n  swap2\n  pop\n  pop\n  jump\t// out\n    /* \"#utility.yul\":1377:1550   */\ntag_18:\n    /* \"#utility.yul\":1517:1542   */\n  0x416464726573732063616e206e6f74206265205a65726f000000000000000000\n    /* \"#utility.yul\":1513:1514   */\n  0x00\n    /* \"#utility.yul\":1505:1511   */\n  dup3\n    /* \"#utility.yul\":1501:1515   */\n  add\n    /* \"#utility.yul\":1494:1543   */\n  mstore\n    /* \"#utility.yul\":1377:1550   */\n  pop\n  jump\t// out\n    /* \"#utility.yul\":1556:1922   */\ntag_19:\n    /* \"#utility.yul\":1698:1701   */\n  0x00\n    /* \"#utility.yul\":1719:1786   */\n  tag_39\n    /* \"#utility.yul\":1783:1785   */\n  0x17\n    /* \"#utility.yul\":1778:1781   */\n  dup4\n    /* \"#utility.yul\":1719:1786   */\n  tag_17\n  jump\t// in\ntag_39:\n    /* \"#utility.yul\":1712:1786   */\n  swap2\n  pop\n    /* \"#utility.yul\":1795:1888   */\n  tag_40\n    /* \"#utility.yul\":1884:1887   */\n  dup3\n    /* \"#utility.yul\":1795:1888   */\n  tag_18\n  jump\t// in\ntag_40:\n    /* \"#utility.yul\":1913:1915   */\n  0x20\n    /* \"#utility.yul\":1908:1911   */\n  dup3\n    /* \"#utility.yul\":1904:1916   */\n  add\n    /* \"#utility.yul\":1897:1916   */\n  swap1\n  pop\n    /* \"#utility.yul\":1556:1922   */\n  swap2\n  swap1\n  pop\n  jump\t// out\n    /* \"#utility.yul\":1928:2347   */\ntag_8:\n    /* \"#utility.yul\":2094:2098   */\n  0x00\n    /* \"#utility.yul\":2132:2134   */\n  0x20\n    /* \"#utility.yul\":2121:2130   */\n  dup3\n    /* \"#utility.yul\":2117:2135   */\n  add\n    /* \"#utility.yul\":2109:2135   */\n  swap1\n  pop\n    /* \"#utility.yul\":2181:2190   */\n  dup2\n    /* \"#utility.yul\":2175:2179   */\n  dup2\n    /* \"#utility.yul\":2171:2191   */\n  sub\n    /* \"#utility.yul\":2167:2168   */\n  0x00\n    /* \"#utility.yul\":2156:2165   */\n  dup4\n    /* \"#utility.yul\":2152:2169   */\n  add\n    /* \"#utility.yul\":2145:2192   */\n  mstore\n    /* \"#utility.yul\":2209:2340   */\n  tag_42\n    /* \"#utility.yul\":2335:2339   */\n  dup2\n    /* \"#utility.yul\":2209:2340   */\n  tag_19\n  jump\t// in\ntag_42:\n    /* \"#utility.yul\":2201:2340   */\n  swap1\n  pop\n    /* \"#utility.yul\":1928:2347   */\n  swap2\n  swap1\n  pop\n  jump\t// out\n    /* \"CaptureTheEther/GuessTheRandomNumberHack.sol\":113:979  contract GuessTheRandomNumberSolver {... */\ntag_9:\n  dataSize(sub_0)\n  dup1\n  dataOffset(sub_0)\n  0x00\n  codecopy\n  0x00\n  return\nstop\n\nsub_0: assembly {\n        /* \"CaptureTheEther/GuessTheRandomNumberHack.sol\":113:979  contract GuessTheRandomNumberSolver {... */\n      mstore(0x40, 0x80)\n      jumpi(tag_1, lt(calldatasize, 0x04))\n      shr(0xe0, calldataload(0x00))\n      dup1\n      0x12065fe0\n      eq\n      tag_3\n      jumpi\n      dup1\n      0x1d9ff6e4\n      eq\n      tag_4\n      jumpi\n      dup1\n      0x257aeacc\n      eq\n      tag_5\n      jumpi\n      dup1\n      0x3ccfd60b\n      eq\n      tag_6\n      jumpi\n      dup1\n      0x890d6908\n      eq\n      tag_7\n      jumpi\n      dup1\n      0x9e542918\n      eq\n      tag_8\n      jumpi\n      jump(tag_2)\n    tag_1:\n      jumpi(tag_2, calldatasize)\n      stop\n    tag_2:\n      0x00\n      dup1\n      revert\n        /* \"CaptureTheEther/GuessTheRandomNumberHack.sol\":767:853  function getBalance() public view returns(uint){... */\n    tag_3:\n      callvalue\n      dup1\n      iszero\n      tag_11\n      jumpi\n      0x00\n      dup1\n      revert\n    tag_11:\n      pop\n      tag_12\n      tag_13\n      jump\t// in\n    tag_12:\n      mload(0x40)\n      tag_14\n      swap2\n      swap1\n      tag_15\n      jump\t// in\n    tag_14:\n      mload(0x40)\n      dup1\n      swap2\n      sub\n      swap1\n      return\n        /* \"CaptureTheEther/GuessTheRandomNumberHack.sol\":310:352  uint public previousTimestamp = 1650791377 */\n    tag_4:\n      callvalue\n      dup1\n      iszero\n      tag_16\n      jumpi\n      0x00\n      dup1\n      revert\n    tag_16:\n      pop\n      tag_17\n      tag_18\n      jump\t// in\n    tag_17:\n      mload(0x40)\n      tag_19\n      swap2\n      swap1\n      tag_15\n      jump\t// in\n    tag_19:\n      mload(0x40)\n      dup1\n      swap2\n      sub\n      swap1\n      return\n        /* \"CaptureTheEther/GuessTheRandomNumberHack.sol\":205:306  bytes32 public previousBlockHash = 0xdd51bfbf089e41cca26c677a2d99c7b201321a0c4d5d0e15e6234deeea9b87da */\n    tag_5:\n      callvalue\n      dup1\n      iszero\n      tag_20\n      jumpi\n      0x00\n      dup1\n      revert\n    tag_20:\n      pop\n      tag_21\n      tag_22\n      jump\t// in\n    tag_21:\n      mload(0x40)\n      tag_23\n      swap2\n      swap1\n      tag_24\n      jump\t// in\n    tag_23:\n      mload(0x40)\n      dup1\n      swap2\n      sub\n      swap1\n      return\n        /* \"CaptureTheEther/GuessTheRandomNumberHack.sol\":856:945  function withdraw() public {... */\n    tag_6:\n      callvalue\n      dup1\n      iszero\n      tag_25\n      jumpi\n      0x00\n      dup1\n      revert\n    tag_25:\n      pop\n      tag_26\n      tag_27\n      jump\t// in\n    tag_26:\n      stop\n        /* \"CaptureTheEther/GuessTheRandomNumberHack.sol\":544:764  function solve() public view returns (uint8) {... */\n    tag_7:\n      callvalue\n      dup1\n      iszero\n      tag_28\n      jumpi\n      0x00\n      dup1\n      revert\n    tag_28:\n      pop\n      tag_29\n      tag_30\n      jump\t// in\n    tag_29:\n      mload(0x40)\n      tag_31\n      swap2\n      swap1\n      tag_32\n      jump\t// in\n    tag_31:\n      mload(0x40)\n      dup1\n      swap2\n      sub\n      swap1\n      return\n        /* \"CaptureTheEther/GuessTheRandomNumberHack.sol\":153:201  IGuessTheRandomNumberChallenge public _interface */\n    tag_8:\n      callvalue\n      dup1\n      iszero\n      tag_33\n      jumpi\n      0x00\n      dup1\n      revert\n    tag_33:\n      pop\n      tag_34\n      tag_35\n      jump\t// in\n    tag_34:\n      mload(0x40)\n      tag_36\n      swap2\n      swap1\n      tag_37\n      jump\t// in\n    tag_36:\n      mload(0x40)\n      dup1\n      swap2\n      sub\n      swap1\n      return\n        /* \"CaptureTheEther/GuessTheRandomNumberHack.sol\":767:853  function getBalance() public view returns(uint){... */\n    tag_13:\n        /* \"CaptureTheEther/GuessTheRandomNumberHack.sol\":809:813  uint */\n      0x00\n        /* \"CaptureTheEther/GuessTheRandomNumberHack.sol\":827:848  address(this).balance */\n      selfbalance\n        /* \"CaptureTheEther/GuessTheRandomNumberHack.sol\":820:848  return address(this).balance */\n      swap1\n      pop\n        /* \"CaptureTheEther/GuessTheRandomNumberHack.sol\":767:853  function getBalance() public view returns(uint){... */\n      swap1\n      jump\t// out\n        /* \"CaptureTheEther/GuessTheRandomNumberHack.sol\":310:352  uint public previousTimestamp = 1650791377 */\n    tag_18:\n      sload(0x02)\n      dup2\n      jump\t// out\n        /* \"CaptureTheEther/GuessTheRandomNumberHack.sol\":205:306  bytes32 public previousBlockHash = 0xdd51bfbf089e41cca26c677a2d99c7b201321a0c4d5d0e15e6234deeea9b87da */\n    tag_22:\n      sload(0x01)\n      dup2\n      jump\t// out\n        /* \"CaptureTheEther/GuessTheRandomNumberHack.sol\":856:945  function withdraw() public {... */\n    tag_27:\n        /* \"CaptureTheEther/GuessTheRandomNumberHack.sol\":897:907  msg.sender */\n      caller\n        /* \"CaptureTheEther/GuessTheRandomNumberHack.sol\":889:917  payable(msg.sender).transfer */\n      0xffffffffffffffffffffffffffffffffffffffff\n      and\n        /* \"CaptureTheEther/GuessTheRandomNumberHack.sol\":889:940  payable(msg.sender).transfer(address(this).balance) */\n      0x08fc\n        /* \"CaptureTheEther/GuessTheRandomNumberHack.sol\":918:939  address(this).balance */\n      selfbalance\n        /* \"CaptureTheEther/GuessTheRandomNumberHack.sol\":889:940  payable(msg.sender).transfer(address(this).balance) */\n      swap1\n      dup2\n      iszero\n      mul\n      swap1\n      mload(0x40)\n      0x00\n      mload(0x40)\n      dup1\n      dup4\n      sub\n      dup2\n      dup6\n      dup9\n      dup9\n      call\n      swap4\n      pop\n      pop\n      pop\n      pop\n      iszero\n      dup1\n      iszero\n      tag_41\n      jumpi\n      returndatasize\n      0x00\n      dup1\n      returndatacopy\n      revert(0x00, returndatasize)\n    tag_41:\n      pop\n        /* \"CaptureTheEther/GuessTheRandomNumberHack.sol\":856:945  function withdraw() public {... */\n      jump\t// out\n        /* \"CaptureTheEther/GuessTheRandomNumberHack.sol\":544:764  function solve() public view returns (uint8) {... */\n    tag_30:\n        /* \"CaptureTheEther/GuessTheRandomNumberHack.sol\":582:587  uint8 */\n      0x00\n        /* \"CaptureTheEther/GuessTheRandomNumberHack.sol\":595:607  uint8 answer */\n      dup1\n        /* \"CaptureTheEther/GuessTheRandomNumberHack.sol\":651:668  previousBlockHash */\n      sload(0x01)\n        /* \"CaptureTheEther/GuessTheRandomNumberHack.sol\":670:687  previousTimestamp */\n      sload(0x02)\n        /* \"CaptureTheEther/GuessTheRandomNumberHack.sol\":634:688  abi.encodePacked(previousBlockHash, previousTimestamp) */\n      add(0x20, mload(0x40))\n      tag_43\n      swap3\n      swap2\n      swap1\n      tag_44\n      jump\t// in\n    tag_43:\n      mload(0x40)\n      0x20\n      dup2\n      dup4\n      sub\n      sub\n      dup2\n      mstore\n      swap1\n      0x40\n      mstore\n        /* \"CaptureTheEther/GuessTheRandomNumberHack.sol\":624:689  keccak256(abi.encodePacked(previousBlockHash, previousTimestamp)) */\n      dup1\n      mload\n      swap1\n      0x20\n      add\n      keccak256\n        /* \"CaptureTheEther/GuessTheRandomNumberHack.sol\":616:690  uint256(keccak256(abi.encodePacked(previousBlockHash, previousTimestamp))) */\n      0x00\n      shr\n        /* \"CaptureTheEther/GuessTheRandomNumberHack.sol\":595:691  uint8 answer = uint8(uint256(keccak256(abi.encodePacked(previousBlockHash, previousTimestamp)))) */\n      swap1\n      pop\n        /* \"CaptureTheEther/GuessTheRandomNumberHack.sol\":704:710  answer */\n      dup1\n        /* \"CaptureTheEther/GuessTheRandomNumberHack.sol\":697:710  return answer */\n      swap2\n      pop\n      pop\n        /* \"CaptureTheEther/GuessTheRandomNumberHack.sol\":544:764  function solve() public view returns (uint8) {... */\n      swap1\n      jump\t// out\n        /* \"CaptureTheEther/GuessTheRandomNumberHack.sol\":153:201  IGuessTheRandomNumberChallenge public _interface */\n    tag_35:\n      0x00\n      dup1\n      sload\n      swap1\n      0x0100\n      exp\n      swap1\n      div\n      0xffffffffffffffffffffffffffffffffffffffff\n      and\n      dup2\n      jump\t// out\n        /* \"#utility.yul\":7:84   */\n    tag_45:\n        /* \"#utility.yul\":44:51   */\n      0x00\n        /* \"#utility.yul\":73:78   */\n      dup2\n        /* \"#utility.yul\":62:78   */\n      swap1\n      pop\n        /* \"#utility.yul\":7:84   */\n      swap2\n      swap1\n      pop\n      jump\t// out\n        /* \"#utility.yul\":90:208   */\n    tag_46:\n        /* \"#utility.yul\":177:201   */\n      tag_64\n        /* \"#utility.yul\":195:200   */\n      dup2\n        /* \"#utility.yul\":177:201   */\n      tag_45\n      jump\t// in\n    tag_64:\n        /* \"#utility.yul\":172:175   */\n      dup3\n        /* \"#utility.yul\":165:202   */\n      mstore\n        /* \"#utility.yul\":90:208   */\n      pop\n      pop\n      jump\t// out\n        /* \"#utility.yul\":214:436   */\n    tag_15:\n        /* \"#utility.yul\":307:311   */\n      0x00\n        /* \"#utility.yul\":345:347   */\n      0x20\n        /* \"#utility.yul\":334:343   */\n      dup3\n        /* \"#utility.yul\":330:348   */\n      add\n        /* \"#utility.yul\":322:348   */\n      swap1\n      pop\n        /* \"#utility.yul\":358:429   */\n      tag_66\n        /* \"#utility.yul\":426:427   */\n      0x00\n        /* \"#utility.yul\":415:424   */\n      dup4\n        /* \"#utility.yul\":411:428   */\n      add\n        /* \"#utility.yul\":402:408   */\n      dup5\n        /* \"#utility.yul\":358:429   */\n      tag_46\n      jump\t// in\n    tag_66:\n        /* \"#utility.yul\":214:436   */\n      swap3\n      swap2\n      pop\n      pop\n      jump\t// out\n        /* \"#utility.yul\":442:519   */\n    tag_47:\n        /* \"#utility.yul\":479:486   */\n      0x00\n        /* \"#utility.yul\":508:513   */\n      dup2\n        /* \"#utility.yul\":497:513   */\n      swap1\n      pop\n        /* \"#utility.yul\":442:519   */\n      swap2\n      swap1\n      pop\n      jump\t// out\n        /* \"#utility.yul\":525:643   */\n    tag_48:\n        /* \"#utility.yul\":612:636   */\n      tag_69\n        /* \"#utility.yul\":630:635   */\n      dup2\n        /* \"#utility.yul\":612:636   */\n      tag_47\n      jump\t// in\n    tag_69:\n        /* \"#utility.yul\":607:610   */\n      dup3\n        /* \"#utility.yul\":600:637   */\n      mstore\n        /* \"#utility.yul\":525:643   */\n      pop\n      pop\n      jump\t// out\n        /* \"#utility.yul\":649:871   */\n    tag_24:\n        /* \"#utility.yul\":742:746   */\n      0x00\n        /* \"#utility.yul\":780:782   */\n      0x20\n        /* \"#utility.yul\":769:778   */\n      dup3\n        /* \"#utility.yul\":765:783   */\n      add\n        /* \"#utility.yul\":757:783   */\n      swap1\n      pop\n        /* \"#utility.yul\":793:864   */\n      tag_71\n        /* \"#utility.yul\":861:862   */\n      0x00\n        /* \"#utility.yul\":850:859   */\n      dup4\n        /* \"#utility.yul\":846:863   */\n      add\n        /* \"#utility.yul\":837:843   */\n      dup5\n        /* \"#utility.yul\":793:864   */\n      tag_48\n      jump\t// in\n    tag_71:\n        /* \"#utility.yul\":649:871   */\n      swap3\n      swap2\n      pop\n      pop\n      jump\t// out\n        /* \"#utility.yul\":877:963   */\n    tag_49:\n        /* \"#utility.yul\":912:919   */\n      0x00\n        /* \"#utility.yul\":952:956   */\n      0xff\n        /* \"#utility.yul\":945:950   */\n      dup3\n        /* \"#utility.yul\":941:957   */\n      and\n        /* \"#utility.yul\":930:957   */\n      swap1\n      pop\n        /* \"#utility.yul\":877:963   */\n      swap2\n      swap1\n      pop\n      jump\t// out\n        /* \"#utility.yul\":969:1081   */\n    tag_50:\n        /* \"#utility.yul\":1052:1074   */\n      tag_74\n        /* \"#utility.yul\":1068:1073   */\n      dup2\n        /* \"#utility.yul\":1052:1074   */\n      tag_49\n      jump\t// in\n    tag_74:\n        /* \"#utility.yul\":1047:1050   */\n      dup3\n        /* \"#utility.yul\":1040:1075   */\n      mstore\n        /* \"#utility.yul\":969:1081   */\n      pop\n      pop\n      jump\t// out\n        /* \"#utility.yul\":1087:1301   */\n    tag_32:\n        /* \"#utility.yul\":1176:1180   */\n      0x00\n        /* \"#utility.yul\":1214:1216   */\n      0x20\n        /* \"#utility.yul\":1203:1212   */\n      dup3\n        /* \"#utility.yul\":1199:1217   */\n      add\n        /* \"#utility.yul\":1191:1217   */\n      swap1\n      pop\n        /* \"#utility.yul\":1227:1294   */\n      tag_76\n        /* \"#utility.yul\":1291:1292   */\n      0x00\n        /* \"#utility.yul\":1280:1289   */\n      dup4\n        /* \"#utility.yul\":1276:1293   */\n      add\n        /* \"#utility.yul\":1267:1273   */\n      dup5\n        /* \"#utility.yul\":1227:1294   */\n      tag_50\n      jump\t// in\n    tag_76:\n        /* \"#utility.yul\":1087:1301   */\n      swap3\n      swap2\n      pop\n      pop\n      jump\t// out\n        /* \"#utility.yul\":1307:1433   */\n    tag_51:\n        /* \"#utility.yul\":1344:1351   */\n      0x00\n        /* \"#utility.yul\":1384:1426   */\n      0xffffffffffffffffffffffffffffffffffffffff\n        /* \"#utility.yul\":1377:1382   */\n      dup3\n        /* \"#utility.yul\":1373:1427   */\n      and\n        /* \"#utility.yul\":1362:1427   */\n      swap1\n      pop\n        /* \"#utility.yul\":1307:1433   */\n      swap2\n      swap1\n      pop\n      jump\t// out\n        /* \"#utility.yul\":1439:1499   */\n    tag_52:\n        /* \"#utility.yul\":1467:1470   */\n      0x00\n        /* \"#utility.yul\":1488:1493   */\n      dup2\n        /* \"#utility.yul\":1481:1493   */\n      swap1\n      pop\n        /* \"#utility.yul\":1439:1499   */\n      swap2\n      swap1\n      pop\n      jump\t// out\n        /* \"#utility.yul\":1505:1647   */\n    tag_53:\n        /* \"#utility.yul\":1555:1564   */\n      0x00\n        /* \"#utility.yul\":1588:1641   */\n      tag_80\n        /* \"#utility.yul\":1606:1640   */\n      tag_81\n        /* \"#utility.yul\":1615:1639   */\n      tag_82\n        /* \"#utility.yul\":1633:1638   */\n      dup5\n        /* \"#utility.yul\":1615:1639   */\n      tag_51\n      jump\t// in\n    tag_82:\n        /* \"#utility.yul\":1606:1640   */\n      tag_52\n      jump\t// in\n    tag_81:\n        /* \"#utility.yul\":1588:1641   */\n      tag_51\n      jump\t// in\n    tag_80:\n        /* \"#utility.yul\":1575:1641   */\n      swap1\n      pop\n        /* \"#utility.yul\":1505:1647   */\n      swap2\n      swap1\n      pop\n      jump\t// out\n        /* \"#utility.yul\":1653:1779   */\n    tag_54:\n        /* \"#utility.yul\":1703:1712   */\n      0x00\n        /* \"#utility.yul\":1736:1773   */\n      tag_84\n        /* \"#utility.yul\":1767:1772   */\n      dup3\n        /* \"#utility.yul\":1736:1773   */\n      tag_53\n      jump\t// in\n    tag_84:\n        /* \"#utility.yul\":1723:1773   */\n      swap1\n      pop\n        /* \"#utility.yul\":1653:1779   */\n      swap2\n      swap1\n      pop\n      jump\t// out\n        /* \"#utility.yul\":1785:1947   */\n    tag_55:\n        /* \"#utility.yul\":1871:1880   */\n      0x00\n        /* \"#utility.yul\":1904:1941   */\n      tag_86\n        /* \"#utility.yul\":1935:1940   */\n      dup3\n        /* \"#utility.yul\":1904:1941   */\n      tag_54\n      jump\t// in\n    tag_86:\n        /* \"#utility.yul\":1891:1941   */\n      swap1\n      pop\n        /* \"#utility.yul\":1785:1947   */\n      swap2\n      swap1\n      pop\n      jump\t// out\n        /* \"#utility.yul\":1953:2156   */\n    tag_56:\n        /* \"#utility.yul\":2076:2149   */\n      tag_88\n        /* \"#utility.yul\":2143:2148   */\n      dup2\n        /* \"#utility.yul\":2076:2149   */\n      tag_55\n      jump\t// in\n    tag_88:\n        /* \"#utility.yul\":2071:2074   */\n      dup3\n        /* \"#utility.yul\":2064:2150   */\n      mstore\n        /* \"#utility.yul\":1953:2156   */\n      pop\n      pop\n      jump\t// out\n        /* \"#utility.yul\":2162:2456   */\n    tag_37:\n        /* \"#utility.yul\":2291:2295   */\n      0x00\n        /* \"#utility.yul\":2329:2331   */\n      0x20\n        /* \"#utility.yul\":2318:2327   */\n      dup3\n        /* \"#utility.yul\":2314:2332   */\n      add\n        /* \"#utility.yul\":2306:2332   */\n      swap1\n      pop\n        /* \"#utility.yul\":2342:2449   */\n      tag_90\n        /* \"#utility.yul\":2446:2447   */\n      0x00\n        /* \"#utility.yul\":2435:2444   */\n      dup4\n        /* \"#utility.yul\":2431:2448   */\n      add\n        /* \"#utility.yul\":2422:2428   */\n      dup5\n        /* \"#utility.yul\":2342:2449   */\n      tag_56\n      jump\t// in\n    tag_90:\n        /* \"#utility.yul\":2162:2456   */\n      swap3\n      swap2\n      pop\n      pop\n      jump\t// out\n        /* \"#utility.yul\":2462:2541   */\n    tag_57:\n        /* \"#utility.yul\":2501:2508   */\n      0x00\n        /* \"#utility.yul\":2530:2535   */\n      dup2\n        /* \"#utility.yul\":2519:2535   */\n      swap1\n      pop\n        /* \"#utility.yul\":2462:2541   */\n      swap2\n      swap1\n      pop\n      jump\t// out\n        /* \"#utility.yul\":2547:2704   */\n    tag_58:\n        /* \"#utility.yul\":2652:2697   */\n      tag_93\n        /* \"#utility.yul\":2672:2696   */\n      tag_94\n        /* \"#utility.yul\":2690:2695   */\n      dup3\n        /* \"#utility.yul\":2672:2696   */\n      tag_47\n      jump\t// in\n    tag_94:\n        /* \"#utility.yul\":2652:2697   */\n      tag_57\n      jump\t// in\n    tag_93:\n        /* \"#utility.yul\":2647:2650   */\n      dup3\n        /* \"#utility.yul\":2640:2698   */\n      mstore\n        /* \"#utility.yul\":2547:2704   */\n      pop\n      pop\n      jump\t// out\n        /* \"#utility.yul\":2710:2789   */\n    tag_59:\n        /* \"#utility.yul\":2749:2756   */\n      0x00\n        /* \"#utility.yul\":2778:2783   */\n      dup2\n        /* \"#utility.yul\":2767:2783   */\n      swap1\n      pop\n        /* \"#utility.yul\":2710:2789   */\n      swap2\n      swap1\n      pop\n      jump\t// out\n        /* \"#utility.yul\":2795:2952   */\n    tag_60:\n        /* \"#utility.yul\":2900:2945   */\n      tag_97\n        /* \"#utility.yul\":2920:2944   */\n      tag_98\n        /* \"#utility.yul\":2938:2943   */\n      dup3\n        /* \"#utility.yul\":2920:2944   */\n      tag_45\n      jump\t// in\n    tag_98:\n        /* \"#utility.yul\":2900:2945   */\n      tag_59\n      jump\t// in\n    tag_97:\n        /* \"#utility.yul\":2895:2898   */\n      dup3\n        /* \"#utility.yul\":2888:2946   */\n      mstore\n        /* \"#utility.yul\":2795:2952   */\n      pop\n      pop\n      jump\t// out\n        /* \"#utility.yul\":2958:3355   */\n    tag_44:\n        /* \"#utility.yul\":3098:3101   */\n      0x00\n        /* \"#utility.yul\":3113:3188   */\n      tag_100\n        /* \"#utility.yul\":3184:3187   */\n      dup3\n        /* \"#utility.yul\":3175:3181   */\n      dup6\n        /* \"#utility.yul\":3113:3188   */\n      tag_58\n      jump\t// in\n    tag_100:\n        /* \"#utility.yul\":3213:3215   */\n      0x20\n        /* \"#utility.yul\":3208:3211   */\n      dup3\n        /* \"#utility.yul\":3204:3216   */\n      add\n        /* \"#utility.yul\":3197:3216   */\n      swap2\n      pop\n        /* \"#utility.yul\":3226:3301   */\n      tag_101\n        /* \"#utility.yul\":3297:3300   */\n      dup3\n        /* \"#utility.yul\":3288:3294   */\n      dup5\n        /* \"#utility.yul\":3226:3301   */\n      tag_60\n      jump\t// in\n    tag_101:\n        /* \"#utility.yul\":3326:3328   */\n      0x20\n        /* \"#utility.yul\":3321:3324   */\n      dup3\n        /* \"#utility.yul\":3317:3329   */\n      add\n        /* \"#utility.yul\":3310:3329   */\n      swap2\n      pop\n        /* \"#utility.yul\":3346:3349   */\n      dup2\n        /* \"#utility.yul\":3339:3349   */\n      swap1\n      pop\n        /* \"#utility.yul\":2958:3355   */\n      swap4\n      swap3\n      pop\n      pop\n      pop\n      jump\t// out\n\n    auxdata: 0xa2646970667358221220d69fa2e89b6a58830dff4961a89fc09cdbbf9c317cdf7158a6830c18a7fc350364736f6c634300080a0033\n}\n",
				"bytecode": {
					"linkReferences": {},
					"object": "60806040527fdd51bfbf089e41cca26c677a2d99c7b201321a0c4d5d0e15e6234deeea9b87da60001b60015563626513d160025534801561003f57600080fd5b506040516106203803806106208339818101604052810190610061919061017a565b600073ffffffffffffffffffffffffffffffffffffffff168173ffffffffffffffffffffffffffffffffffffffff1614156100d1576040517f08c379a00000000000000000000000000000000000000000000000000000000081526004016100c890610204565b60405180910390fd5b806000806101000a81548173ffffffffffffffffffffffffffffffffffffffff021916908373ffffffffffffffffffffffffffffffffffffffff16021790555050610224565b600080fd5b600073ffffffffffffffffffffffffffffffffffffffff82169050919050565b60006101478261011c565b9050919050565b6101578161013c565b811461016257600080fd5b50565b6000815190506101748161014e565b92915050565b6000602082840312156101905761018f610117565b5b600061019e84828501610165565b91505092915050565b600082825260208201905092915050565b7f416464726573732063616e206e6f74206265205a65726f000000000000000000600082015250565b60006101ee6017836101a7565b91506101f9826101b8565b602082019050919050565b6000602082019050818103600083015261021d816101e1565b9050919050565b6103ed806102336000396000f3fe6080604052600436106100595760003560e01c806312065fe0146100655780631d9ff6e414610090578063257aeacc146100bb5780633ccfd60b146100e6578063890d6908146100fd5780639e5429181461012857610060565b3661006057005b600080fd5b34801561007157600080fd5b5061007a610153565b6040516100879190610229565b60405180910390f35b34801561009c57600080fd5b506100a561015b565b6040516100b29190610229565b60405180910390f35b3480156100c757600080fd5b506100d0610161565b6040516100dd919061025d565b60405180910390f35b3480156100f257600080fd5b506100fb610167565b005b34801561010957600080fd5b506101126101b0565b60405161011f9190610294565b60405180910390f35b34801561013457600080fd5b5061013d6101ec565b60405161014a919061032e565b60405180910390f35b600047905090565b60025481565b60015481565b3373ffffffffffffffffffffffffffffffffffffffff166108fc479081150290604051600060405180830381858888f193505050501580156101ad573d6000803e3d6000fd5b50565b6000806001546002546040516020016101ca92919061038b565b6040516020818303038152906040528051906020012060001c90508091505090565b60008054906101000a900473ffffffffffffffffffffffffffffffffffffffff1681565b6000819050919050565b61022381610210565b82525050565b600060208201905061023e600083018461021a565b92915050565b6000819050919050565b61025781610244565b82525050565b6000602082019050610272600083018461024e565b92915050565b600060ff82169050919050565b61028e81610278565b82525050565b60006020820190506102a96000830184610285565b92915050565b600073ffffffffffffffffffffffffffffffffffffffff82169050919050565b6000819050919050565b60006102f46102ef6102ea846102af565b6102cf565b6102af565b9050919050565b6000610306826102d9565b9050919050565b6000610318826102fb565b9050919050565b6103288161030d565b82525050565b6000602082019050610343600083018461031f565b92915050565b6000819050919050565b61036461035f82610244565b610349565b82525050565b6000819050919050565b61038561038082610210565b61036a565b82525050565b60006103978285610353565b6020820191506103a78284610374565b602082019150819050939250505056fea2646970667358221220d69fa2e89b6a58830dff4961a89fc09cdbbf9c317cdf7158a6830c18a7fc350364736f6c634300080a0033",
					"opcodes": "PUSH1 0x80 PUSH1 0x40 MSTORE PUSH32 0xDD51BFBF089E41CCA26C677A2D99C7B201321A0C4D5D0E15E6234DEEEA9B87DA PUSH1 0x0 SHL PUSH1 0x1 SSTORE PUSH4 0x626513D1 PUSH1 0x2 SSTORE CALLVALUE DUP1 ISZERO PUSH2 0x3F JUMPI PUSH1 0x0 DUP1 REVERT JUMPDEST POP PUSH1 0x40 MLOAD PUSH2 0x620 CODESIZE SUB DUP1 PUSH2 0x620 DUP4 CODECOPY DUP2 DUP2 ADD PUSH1 0x40 MSTORE DUP2 ADD SWAP1 PUSH2 0x61 SWAP2 SWAP1 PUSH2 0x17A JUMP JUMPDEST PUSH1 0x0 PUSH20 0xFFFFFFFFFFFFFFFFFFFFFFFFFFFFFFFFFFFFFFFF AND DUP2 PUSH20 0xFFFFFFFFFFFFFFFFFFFFFFFFFFFFFFFFFFFFFFFF AND EQ ISZERO PUSH2 0xD1 JUMPI PUSH1 0x40 MLOAD PUSH32 0x8C379A000000000000000000000000000000000000000000000000000000000 DUP2 MSTORE PUSH1 0x4 ADD PUSH2 0xC8 SWAP1 PUSH2 0x204 JUMP JUMPDEST PUSH1 0x40 MLOAD DUP1 SWAP2 SUB SWAP1 REVERT JUMPDEST DUP1 PUSH1 0x0 DUP1 PUSH2 0x100 EXP DUP2 SLOAD DUP2 PUSH20 0xFFFFFFFFFFFFFFFFFFFFFFFFFFFFFFFFFFFFFFFF MUL NOT AND SWAP1 DUP4 PUSH20 0xFFFFFFFFFFFFFFFFFFFFFFFFFFFFFFFFFFFFFFFF AND MUL OR SWAP1 SSTORE POP POP PUSH2 0x224 JUMP JUMPDEST PUSH1 0x0 DUP1 REVERT JUMPDEST PUSH1 0x0 PUSH20 0xFFFFFFFFFFFFFFFFFFFFFFFFFFFFFFFFFFFFFFFF DUP3 AND SWAP1 POP SWAP2 SWAP1 POP JUMP JUMPDEST PUSH1 0x0 PUSH2 0x147 DUP3 PUSH2 0x11C JUMP JUMPDEST SWAP1 POP SWAP2 SWAP1 POP JUMP JUMPDEST PUSH2 0x157 DUP2 PUSH2 0x13C JUMP JUMPDEST DUP2 EQ PUSH2 0x162 JUMPI PUSH1 0x0 DUP1 REVERT JUMPDEST POP JUMP JUMPDEST PUSH1 0x0 DUP2 MLOAD SWAP1 POP PUSH2 0x174 DUP2 PUSH2 0x14E JUMP JUMPDEST SWAP3 SWAP2 POP POP JUMP JUMPDEST PUSH1 0x0 PUSH1 0x20 DUP3 DUP5 SUB SLT ISZERO PUSH2 0x190 JUMPI PUSH2 0x18F PUSH2 0x117 JUMP JUMPDEST JUMPDEST PUSH1 0x0 PUSH2 0x19E DUP5 DUP3 DUP6 ADD PUSH2 0x165 JUMP JUMPDEST SWAP2 POP POP SWAP3 SWAP2 POP POP JUMP JUMPDEST PUSH1 0x0 DUP3 DUP3 MSTORE PUSH1 0x20 DUP3 ADD SWAP1 POP SWAP3 SWAP2 POP POP JUMP JUMPDEST PUSH32 0x416464726573732063616E206E6F74206265205A65726F000000000000000000 PUSH1 0x0 DUP3 ADD MSTORE POP JUMP JUMPDEST PUSH1 0x0 PUSH2 0x1EE PUSH1 0x17 DUP4 PUSH2 0x1A7 JUMP JUMPDEST SWAP2 POP PUSH2 0x1F9 DUP3 PUSH2 0x1B8 JUMP JUMPDEST PUSH1 0x20 DUP3 ADD SWAP1 POP SWAP2 SWAP1 POP JUMP JUMPDEST PUSH1 0x0 PUSH1 0x20 DUP3 ADD SWAP1 POP DUP2 DUP2 SUB PUSH1 0x0 DUP4 ADD MSTORE PUSH2 0x21D DUP2 PUSH2 0x1E1 JUMP JUMPDEST SWAP1 POP SWAP2 SWAP1 POP JUMP JUMPDEST PUSH2 0x3ED DUP1 PUSH2 0x233 PUSH1 0x0 CODECOPY PUSH1 0x0 RETURN INVALID PUSH1 0x80 PUSH1 0x40 MSTORE PUSH1 0x4 CALLDATASIZE LT PUSH2 0x59 JUMPI PUSH1 0x0 CALLDATALOAD PUSH1 0xE0 SHR DUP1 PUSH4 0x12065FE0 EQ PUSH2 0x65 JUMPI DUP1 PUSH4 0x1D9FF6E4 EQ PUSH2 0x90 JUMPI DUP1 PUSH4 0x257AEACC EQ PUSH2 0xBB JUMPI DUP1 PUSH4 0x3CCFD60B EQ PUSH2 0xE6 JUMPI DUP1 PUSH4 0x890D6908 EQ PUSH2 0xFD JUMPI DUP1 PUSH4 0x9E542918 EQ PUSH2 0x128 JUMPI PUSH2 0x60 JUMP JUMPDEST CALLDATASIZE PUSH2 0x60 JUMPI STOP JUMPDEST PUSH1 0x0 DUP1 REVERT JUMPDEST CALLVALUE DUP1 ISZERO PUSH2 0x71 JUMPI PUSH1 0x0 DUP1 REVERT JUMPDEST POP PUSH2 0x7A PUSH2 0x153 JUMP JUMPDEST PUSH1 0x40 MLOAD PUSH2 0x87 SWAP2 SWAP1 PUSH2 0x229 JUMP JUMPDEST PUSH1 0x40 MLOAD DUP1 SWAP2 SUB SWAP1 RETURN JUMPDEST CALLVALUE DUP1 ISZERO PUSH2 0x9C JUMPI PUSH1 0x0 DUP1 REVERT JUMPDEST POP PUSH2 0xA5 PUSH2 0x15B JUMP JUMPDEST PUSH1 0x40 MLOAD PUSH2 0xB2 SWAP2 SWAP1 PUSH2 0x229 JUMP JUMPDEST PUSH1 0x40 MLOAD DUP1 SWAP2 SUB SWAP1 RETURN JUMPDEST CALLVALUE DUP1 ISZERO PUSH2 0xC7 JUMPI PUSH1 0x0 DUP1 REVERT JUMPDEST POP PUSH2 0xD0 PUSH2 0x161 JUMP JUMPDEST PUSH1 0x40 MLOAD PUSH2 0xDD SWAP2 SWAP1 PUSH2 0x25D JUMP JUMPDEST PUSH1 0x40 MLOAD DUP1 SWAP2 SUB SWAP1 RETURN JUMPDEST CALLVALUE DUP1 ISZERO PUSH2 0xF2 JUMPI PUSH1 0x0 DUP1 REVERT JUMPDEST POP PUSH2 0xFB PUSH2 0x167 JUMP JUMPDEST STOP JUMPDEST CALLVALUE DUP1 ISZERO PUSH2 0x109 JUMPI PUSH1 0x0 DUP1 REVERT JUMPDEST POP PUSH2 0x112 PUSH2 0x1B0 JUMP JUMPDEST PUSH1 0x40 MLOAD PUSH2 0x11F SWAP2 SWAP1 PUSH2 0x294 JUMP JUMPDEST PUSH1 0x40 MLOAD DUP1 SWAP2 SUB SWAP1 RETURN JUMPDEST CALLVALUE DUP1 ISZERO PUSH2 0x134 JUMPI PUSH1 0x0 DUP1 REVERT JUMPDEST POP PUSH2 0x13D PUSH2 0x1EC JUMP JUMPDEST PUSH1 0x40 MLOAD PUSH2 0x14A SWAP2 SWAP1 PUSH2 0x32E JUMP JUMPDEST PUSH1 0x40 MLOAD DUP1 SWAP2 SUB SWAP1 RETURN JUMPDEST PUSH1 0x0 SELFBALANCE SWAP1 POP SWAP1 JUMP JUMPDEST PUSH1 0x2 SLOAD DUP2 JUMP JUMPDEST PUSH1 0x1 SLOAD DUP2 JUMP JUMPDEST CALLER PUSH20 0xFFFFFFFFFFFFFFFFFFFFFFFFFFFFFFFFFFFFFFFF AND PUSH2 0x8FC SELFBALANCE SWAP1 DUP2 ISZERO MUL SWAP1 PUSH1 0x40 MLOAD PUSH1 0x0 PUSH1 0x40 MLOAD DUP1 DUP4 SUB DUP2 DUP6 DUP9 DUP9 CALL SWAP4 POP POP POP POP ISZERO DUP1 ISZERO PUSH2 0x1AD JUMPI RETURNDATASIZE PUSH1 0x0 DUP1 RETURNDATACOPY RETURNDATASIZE PUSH1 0x0 REVERT JUMPDEST POP JUMP JUMPDEST PUSH1 0x0 DUP1 PUSH1 0x1 SLOAD PUSH1 0x2 SLOAD PUSH1 0x40 MLOAD PUSH1 0x20 ADD PUSH2 0x1CA SWAP3 SWAP2 SWAP1 PUSH2 0x38B JUMP JUMPDEST PUSH1 0x40 MLOAD PUSH1 0x20 DUP2 DUP4 SUB SUB DUP2 MSTORE SWAP1 PUSH1 0x40 MSTORE DUP1 MLOAD SWAP1 PUSH1 0x20 ADD KECCAK256 PUSH1 0x0 SHR SWAP1 POP DUP1 SWAP2 POP POP SWAP1 JUMP JUMPDEST PUSH1 0x0 DUP1 SLOAD SWAP1 PUSH2 0x100 EXP SWAP1 DIV PUSH20 0xFFFFFFFFFFFFFFFFFFFFFFFFFFFFFFFFFFFFFFFF AND DUP2 JUMP JUMPDEST PUSH1 0x0 DUP2 SWAP1 POP SWAP2 SWAP1 POP JUMP JUMPDEST PUSH2 0x223 DUP2 PUSH2 0x210 JUMP JUMPDEST DUP3 MSTORE POP POP JUMP JUMPDEST PUSH1 0x0 PUSH1 0x20 DUP3 ADD SWAP1 POP PUSH2 0x23E PUSH1 0x0 DUP4 ADD DUP5 PUSH2 0x21A JUMP JUMPDEST SWAP3 SWAP2 POP POP JUMP JUMPDEST PUSH1 0x0 DUP2 SWAP1 POP SWAP2 SWAP1 POP JUMP JUMPDEST PUSH2 0x257 DUP2 PUSH2 0x244 JUMP JUMPDEST DUP3 MSTORE POP POP JUMP JUMPDEST PUSH1 0x0 PUSH1 0x20 DUP3 ADD SWAP1 POP PUSH2 0x272 PUSH1 0x0 DUP4 ADD DUP5 PUSH2 0x24E JUMP JUMPDEST SWAP3 SWAP2 POP POP JUMP JUMPDEST PUSH1 0x0 PUSH1 0xFF DUP3 AND SWAP1 POP SWAP2 SWAP1 POP JUMP JUMPDEST PUSH2 0x28E DUP2 PUSH2 0x278 JUMP JUMPDEST DUP3 MSTORE POP POP JUMP JUMPDEST PUSH1 0x0 PUSH1 0x20 DUP3 ADD SWAP1 POP PUSH2 0x2A9 PUSH1 0x0 DUP4 ADD DUP5 PUSH2 0x285 JUMP JUMPDEST SWAP3 SWAP2 POP POP JUMP JUMPDEST PUSH1 0x0 PUSH20 0xFFFFFFFFFFFFFFFFFFFFFFFFFFFFFFFFFFFFFFFF DUP3 AND SWAP1 POP SWAP2 SWAP1 POP JUMP JUMPDEST PUSH1 0x0 DUP2 SWAP1 POP SWAP2 SWAP1 POP JUMP JUMPDEST PUSH1 0x0 PUSH2 0x2F4 PUSH2 0x2EF PUSH2 0x2EA DUP5 PUSH2 0x2AF JUMP JUMPDEST PUSH2 0x2CF JUMP JUMPDEST PUSH2 0x2AF JUMP JUMPDEST SWAP1 POP SWAP2 SWAP1 POP JUMP JUMPDEST PUSH1 0x0 PUSH2 0x306 DUP3 PUSH2 0x2D9 JUMP JUMPDEST SWAP1 POP SWAP2 SWAP1 POP JUMP JUMPDEST PUSH1 0x0 PUSH2 0x318 DUP3 PUSH2 0x2FB JUMP JUMPDEST SWAP1 POP SWAP2 SWAP1 POP JUMP JUMPDEST PUSH2 0x328 DUP2 PUSH2 0x30D JUMP JUMPDEST DUP3 MSTORE POP POP JUMP JUMPDEST PUSH1 0x0 PUSH1 0x20 DUP3 ADD SWAP1 POP PUSH2 0x343 PUSH1 0x0 DUP4 ADD DUP5 PUSH2 0x31F JUMP JUMPDEST SWAP3 SWAP2 POP POP JUMP JUMPDEST PUSH1 0x0 DUP2 SWAP1 POP SWAP2 SWAP1 POP JUMP JUMPDEST PUSH2 0x364 PUSH2 0x35F DUP3 PUSH2 0x244 JUMP JUMPDEST PUSH2 0x349 JUMP JUMPDEST DUP3 MSTORE POP POP JUMP JUMPDEST PUSH1 0x0 DUP2 SWAP1 POP SWAP2 SWAP1 POP JUMP JUMPDEST PUSH2 0x385 PUSH2 0x380 DUP3 PUSH2 0x210 JUMP JUMPDEST PUSH2 0x36A JUMP JUMPDEST DUP3 MSTORE POP POP JUMP JUMPDEST PUSH1 0x0 PUSH2 0x397 DUP3 DUP6 PUSH2 0x353 JUMP JUMPDEST PUSH1 0x20 DUP3 ADD SWAP2 POP PUSH2 0x3A7 DUP3 DUP5 PUSH2 0x374 JUMP JUMPDEST PUSH1 0x20 DUP3 ADD SWAP2 POP DUP2 SWAP1 POP SWAP4 SWAP3 POP POP POP JUMP INVALID LOG2 PUSH5 0x6970667358 0x22 SLT KECCAK256 0xD6 SWAP16 LOG2 0xE8 SWAP12 PUSH11 0x58830DFF4961A89FC09CDB 0xBF SWAP13 BALANCE PUSH29 0xDF7158A6830C18A7FC350364736F6C634300080A003300000000000000 "
				},
				"gasEstimates": {
					"creation": {
						"codeDepositCost": "201000",
						"executionCost": "infinite",
						"totalCost": "infinite"
					},
					"external": {
						"_interface()": "infinite",
						"getBalance()": "317",
						"previousBlockHash()": "2451",
						"previousTimestamp()": "2429",
						"solve()": "5087",
						"withdraw()": "infinite"
					}
				},
				"methodIdentifiers": {
					"_interface()": "9e542918",
					"getBalance()": "12065fe0",
					"previousBlockHash()": "257aeacc",
					"previousTimestamp()": "1d9ff6e4",
					"solve()": "890d6908",
					"withdraw()": "3ccfd60b"
				}
			},
			"storageLayout": {
				"storage": [
					{
						"astId": 10,
						"contract": "CaptureTheEther/GuessTheRandomNumberHack.sol:GuessTheRandomNumberSolver",
						"label": "_interface",
						"offset": 0,
						"slot": "0",
						"type": "t_contract(IGuessTheRandomNumberChallenge)7"
					},
					{
						"astId": 13,
						"contract": "CaptureTheEther/GuessTheRandomNumberHack.sol:GuessTheRandomNumberSolver",
						"label": "previousBlockHash",
						"offset": 0,
						"slot": "1",
						"type": "t_bytes32"
					},
					{
						"astId": 16,
						"contract": "CaptureTheEther/GuessTheRandomNumberHack.sol:GuessTheRandomNumberSolver",
						"label": "previousTimestamp",
						"offset": 0,
						"slot": "2",
						"type": "t_uint256"
					}
				],
				"types": {
					"t_bytes32": {
						"encoding": "inplace",
						"label": "bytes32",
						"numberOfBytes": "32"
					},
					"t_contract(IGuessTheRandomNumberChallenge)7": {
						"encoding": "inplace",
						"label": "contract IGuessTheRandomNumberChallenge",
						"numberOfBytes": "20"
					},
					"t_uint256": {
						"encoding": "inplace",
						"label": "uint256",
						"numberOfBytes": "32"
					}
				}
			},
			"userdoc": {
				"kind": "user",
				"methods": {},
				"version": 1
			}
		}
	}
}