{
	"CaptureTheEther/GuessTheSecretNumber.sol": {
		"GuessTheSecretNumberChallenge": {
			"abi": [
				{
					"constant": false,
					"inputs": [
						{
							"name": "n",
							"type": "uint8"
						}
					],
					"name": "guess",
					"outputs": [],
					"payable": true,
					"stateMutability": "payable",
					"type": "function"
				},
				{
					"constant": true,
					"inputs": [],
					"name": "isComplete",
					"outputs": [
						{
							"name": "",
							"type": "bool"
						}
					],
					"payable": false,
					"stateMutability": "view",
					"type": "function"
				},
				{
					"inputs": [],
					"payable": true,
					"stateMutability": "payable",
					"type": "constructor"
				}
			],
			"devdoc": {
				"methods": {}
			},
			"evm": {
				"assembly": "    /* \"CaptureTheEther/GuessTheSecretNumber.sol\":26:564  contract GuessTheSecretNumberChallenge {... */\n  mstore(0x40, 0x80)\n    /* \"CaptureTheEther/GuessTheSecretNumber.sol\":92:158  0xdb81b4d58595fbbbb592d3661a34cdca14d7ab379441400cbfa1b78bc447c365 */\n  0xdb81b4d58595fbbbb592d3661a34cdca14d7ab379441400cbfa1b78bc447c365\n    /* \"CaptureTheEther/GuessTheSecretNumber.sol\":71:158  bytes32 answerHash = 0xdb81b4d58595fbbbb592d3661a34cdca14d7ab379441400cbfa1b78bc447c365 */\n  0x1\n  mul\n  0x0\n  swap1\n  not(0x0)\n  and\n  swap1\n  sstore\n    /* \"CaptureTheEther/GuessTheSecretNumber.sol\":252:259  1 ether */\n  0xde0b6b3a7640000\n    /* \"CaptureTheEther/GuessTheSecretNumber.sol\":239:248  msg.value */\n  callvalue\n    /* \"CaptureTheEther/GuessTheSecretNumber.sol\":239:259  msg.value == 1 ether */\n  eq\n    /* \"CaptureTheEther/GuessTheSecretNumber.sol\":231:260  require(msg.value == 1 ether) */\n  iszero\n  iszero\n  tag_3\n  jumpi\n  0x0\n  dup1\n  revert\ntag_3:\n    /* \"CaptureTheEther/GuessTheSecretNumber.sol\":26:564  contract GuessTheSecretNumberChallenge {... */\n  dataSize(sub_0)\n  dup1\n  dataOffset(sub_0)\n  0x0\n  codecopy\n  0x0\n  return\nstop\n\nsub_0: assembly {\n        /* \"CaptureTheEther/GuessTheSecretNumber.sol\":26:564  contract GuessTheSecretNumberChallenge {... */\n      mstore(0x40, 0x80)\n      jumpi(tag_1, lt(calldatasize, 0x4))\n      calldataload(0x0)\n      0x100000000000000000000000000000000000000000000000000000000\n      swap1\n      div\n      0xffffffff\n      and\n      dup1\n      0x4ba4c16b\n      eq\n      tag_2\n      jumpi\n      dup1\n      0xb2fa1c9e\n      eq\n      tag_3\n      jumpi\n    tag_1:\n      0x0\n      dup1\n      revert\n        /* \"CaptureTheEther/GuessTheSecretNumber.sol\":382:562  function guess(uint8 n) public payable {... */\n    tag_2:\n      tag_4\n      0x4\n      dup1\n      calldatasize\n      sub\n      dup2\n      add\n      swap1\n      dup1\n      dup1\n      calldataload\n      0xff\n      and\n      swap1\n      0x20\n      add\n      swap1\n      swap3\n      swap2\n      swap1\n      pop\n      pop\n      pop\n      jump(tag_5)\n    tag_4:\n      stop\n        /* \"CaptureTheEther/GuessTheSecretNumber.sol\":277:376  function isComplete() public view returns (bool) {... */\n    tag_3:\n      callvalue\n        /* \"--CODEGEN--\":8:17   */\n      dup1\n        /* \"--CODEGEN--\":5:7   */\n      iszero\n      tag_6\n      jumpi\n        /* \"--CODEGEN--\":30:31   */\n      0x0\n        /* \"--CODEGEN--\":27:28   */\n      dup1\n        /* \"--CODEGEN--\":20:32   */\n      revert\n        /* \"--CODEGEN--\":5:7   */\n    tag_6:\n        /* \"CaptureTheEther/GuessTheSecretNumber.sol\":277:376  function isComplete() public view returns (bool) {... */\n      pop\n      tag_7\n      jump(tag_8)\n    tag_7:\n      mload(0x40)\n      dup1\n      dup3\n      iszero\n      iszero\n      iszero\n      iszero\n      dup2\n      mstore\n      0x20\n      add\n      swap2\n      pop\n      pop\n      mload(0x40)\n      dup1\n      swap2\n      sub\n      swap1\n      return\n        /* \"CaptureTheEther/GuessTheSecretNumber.sol\":382:562  function guess(uint8 n) public payable {... */\n    tag_5:\n        /* \"CaptureTheEther/GuessTheSecretNumber.sol\":452:459  1 ether */\n      0xde0b6b3a7640000\n        /* \"CaptureTheEther/GuessTheSecretNumber.sol\":439:448  msg.value */\n      callvalue\n        /* \"CaptureTheEther/GuessTheSecretNumber.sol\":439:459  msg.value == 1 ether */\n      eq\n        /* \"CaptureTheEther/GuessTheSecretNumber.sol\":431:460  require(msg.value == 1 ether) */\n      iszero\n      iszero\n      tag_10\n      jumpi\n      0x0\n      dup1\n      revert\n    tag_10:\n        /* \"CaptureTheEther/GuessTheSecretNumber.sol\":491:501  answerHash */\n      sload(0x0)\n        /* \"CaptureTheEther/GuessTheSecretNumber.sol\":475:501  keccak256(n) == answerHash */\n      not(0x0)\n      and\n        /* \"CaptureTheEther/GuessTheSecretNumber.sol\":485:486  n */\n      dup2\n        /* \"CaptureTheEther/GuessTheSecretNumber.sol\":475:487  keccak256(n) */\n      mload(0x40)\n      dup1\n      dup3\n      0xff\n      and\n      0xff\n      and\n      0x100000000000000000000000000000000000000000000000000000000000000\n      mul\n      dup2\n      mstore\n      0x1\n      add\n      swap2\n      pop\n      pop\n      mload(0x40)\n      dup1\n      swap2\n      sub\n      swap1\n      keccak256\n        /* \"CaptureTheEther/GuessTheSecretNumber.sol\":475:501  keccak256(n) == answerHash */\n      not(0x0)\n      and\n      eq\n        /* \"CaptureTheEther/GuessTheSecretNumber.sol\":471:556  if (keccak256(n) == answerHash) {... */\n      iszero\n      tag_11\n      jumpi\n        /* \"CaptureTheEther/GuessTheSecretNumber.sol\":517:527  msg.sender */\n      caller\n        /* \"CaptureTheEther/GuessTheSecretNumber.sol\":517:536  msg.sender.transfer */\n      0xffffffffffffffffffffffffffffffffffffffff\n      and\n        /* \"CaptureTheEther/GuessTheSecretNumber.sol\":517:545  msg.sender.transfer(2 ether) */\n      0x8fc\n        /* \"CaptureTheEther/GuessTheSecretNumber.sol\":537:544  2 ether */\n      0x1bc16d674ec80000\n        /* \"CaptureTheEther/GuessTheSecretNumber.sol\":517:545  msg.sender.transfer(2 ether) */\n      swap1\n      dup2\n      iszero\n      mul\n      swap1\n      mload(0x40)\n      0x0\n      mload(0x40)\n      dup1\n      dup4\n      sub\n      dup2\n      dup6\n      dup9\n      dup9\n      call\n      swap4\n      pop\n      pop\n      pop\n      pop\n      iszero\n        /* \"--CODEGEN--\":8:17   */\n      dup1\n        /* \"--CODEGEN--\":5:7   */\n      iszero\n      tag_12\n      jumpi\n        /* \"--CODEGEN--\":45:61   */\n      returndatasize\n        /* \"--CODEGEN--\":42:43   */\n      0x0\n        /* \"--CODEGEN--\":39:40   */\n      dup1\n        /* \"--CODEGEN--\":24:62   */\n      returndatacopy\n        /* \"--CODEGEN--\":77:93   */\n      returndatasize\n        /* \"--CODEGEN--\":74:75   */\n      0x0\n        /* \"--CODEGEN--\":67:94   */\n      revert\n        /* \"--CODEGEN--\":5:7   */\n    tag_12:\n        /* \"CaptureTheEther/GuessTheSecretNumber.sol\":517:545  msg.sender.transfer(2 ether) */\n      pop\n        /* \"CaptureTheEther/GuessTheSecretNumber.sol\":471:556  if (keccak256(n) == answerHash) {... */\n    tag_11:\n        /* \"CaptureTheEther/GuessTheSecretNumber.sol\":382:562  function guess(uint8 n) public payable {... */\n      pop\n      jump\t// out\n        /* \"CaptureTheEther/GuessTheSecretNumber.sol\":277:376  function isComplete() public view returns (bool) {... */\n    tag_8:\n        /* \"CaptureTheEther/GuessTheSecretNumber.sol\":320:324  bool */\n      0x0\n        /* \"CaptureTheEther/GuessTheSecretNumber.sol\":368:369  0 */\n      dup1\n        /* \"CaptureTheEther/GuessTheSecretNumber.sol\":351:355  this */\n      address\n        /* \"CaptureTheEther/GuessTheSecretNumber.sol\":343:364  address(this).balance */\n      0xffffffffffffffffffffffffffffffffffffffff\n      and\n      balance\n        /* \"CaptureTheEther/GuessTheSecretNumber.sol\":343:369  address(this).balance == 0 */\n      eq\n        /* \"CaptureTheEther/GuessTheSecretNumber.sol\":336:369  return address(this).balance == 0 */\n      swap1\n      pop\n        /* \"CaptureTheEther/GuessTheSecretNumber.sol\":277:376  function isComplete() public view returns (bool) {... */\n      swap1\n      jump\t// out\n\n    auxdata: 0xa165627a7a72305820e725a12575b7763122bec4abb6711fd43e40135c782d81a47cf32683e81527dd0029\n}\n",
				"bytecode": {
					"linkReferences": {},
					"object": "60806040527fdb81b4d58595fbbbb592d3661a34cdca14d7ab379441400cbfa1b78bc447c365600102600090600019169055670de0b6b3a76400003414151561004757600080fd5b6101a8806100566000396000f30060806040526004361061004c576000357c0100000000000000000000000000000000000000000000000000000000900463ffffffff1680634ba4c16b14610051578063b2fa1c9e14610074575b600080fd5b610072600480360381019080803560ff1690602001909291905050506100a3565b005b34801561008057600080fd5b5061008961015b565b604051808215151515815260200191505060405180910390f35b670de0b6b3a7640000341415156100b957600080fd5b6000546000191681604051808260ff1660ff167f01000000000000000000000000000000000000000000000000000000000000000281526001019150506040518091039020600019161415610158573373ffffffffffffffffffffffffffffffffffffffff166108fc671bc16d674ec800009081150290604051600060405180830381858888f19350505050158015610156573d6000803e3d6000fd5b505b50565b6000803073ffffffffffffffffffffffffffffffffffffffff1631149050905600a165627a7a72305820e725a12575b7763122bec4abb6711fd43e40135c782d81a47cf32683e81527dd0029",
					"opcodes": "PUSH1 0x80 PUSH1 0x40 MSTORE PUSH32 0xDB81B4D58595FBBBB592D3661A34CDCA14D7AB379441400CBFA1B78BC447C365 PUSH1 0x1 MUL PUSH1 0x0 SWAP1 PUSH1 0x0 NOT AND SWAP1 SSTORE PUSH8 0xDE0B6B3A7640000 CALLVALUE EQ ISZERO ISZERO PUSH2 0x47 JUMPI PUSH1 0x0 DUP1 REVERT JUMPDEST PUSH2 0x1A8 DUP1 PUSH2 0x56 PUSH1 0x0 CODECOPY PUSH1 0x0 RETURN STOP PUSH1 0x80 PUSH1 0x40 MSTORE PUSH1 0x4 CALLDATASIZE LT PUSH2 0x4C JUMPI PUSH1 0x0 CALLDATALOAD PUSH29 0x100000000000000000000000000000000000000000000000000000000 SWAP1 DIV PUSH4 0xFFFFFFFF AND DUP1 PUSH4 0x4BA4C16B EQ PUSH2 0x51 JUMPI DUP1 PUSH4 0xB2FA1C9E EQ PUSH2 0x74 JUMPI JUMPDEST PUSH1 0x0 DUP1 REVERT JUMPDEST PUSH2 0x72 PUSH1 0x4 DUP1 CALLDATASIZE SUB DUP2 ADD SWAP1 DUP1 DUP1 CALLDATALOAD PUSH1 0xFF AND SWAP1 PUSH1 0x20 ADD SWAP1 SWAP3 SWAP2 SWAP1 POP POP POP PUSH2 0xA3 JUMP JUMPDEST STOP JUMPDEST CALLVALUE DUP1 ISZERO PUSH2 0x80 JUMPI PUSH1 0x0 DUP1 REVERT JUMPDEST POP PUSH2 0x89 PUSH2 0x15B JUMP JUMPDEST PUSH1 0x40 MLOAD DUP1 DUP3 ISZERO ISZERO ISZERO ISZERO DUP2 MSTORE PUSH1 0x20 ADD SWAP2 POP POP PUSH1 0x40 MLOAD DUP1 SWAP2 SUB SWAP1 RETURN JUMPDEST PUSH8 0xDE0B6B3A7640000 CALLVALUE EQ ISZERO ISZERO PUSH2 0xB9 JUMPI PUSH1 0x0 DUP1 REVERT JUMPDEST PUSH1 0x0 SLOAD PUSH1 0x0 NOT AND DUP2 PUSH1 0x40 MLOAD DUP1 DUP3 PUSH1 0xFF AND PUSH1 0xFF AND PUSH32 0x100000000000000000000000000000000000000000000000000000000000000 MUL DUP2 MSTORE PUSH1 0x1 ADD SWAP2 POP POP PUSH1 0x40 MLOAD DUP1 SWAP2 SUB SWAP1 KECCAK256 PUSH1 0x0 NOT AND EQ ISZERO PUSH2 0x158 JUMPI CALLER PUSH20 0xFFFFFFFFFFFFFFFFFFFFFFFFFFFFFFFFFFFFFFFF AND PUSH2 0x8FC PUSH8 0x1BC16D674EC80000 SWAP1 DUP2 ISZERO MUL SWAP1 PUSH1 0x40 MLOAD PUSH1 0x0 PUSH1 0x40 MLOAD DUP1 DUP4 SUB DUP2 DUP6 DUP9 DUP9 CALL SWAP4 POP POP POP POP ISZERO DUP1 ISZERO PUSH2 0x156 JUMPI RETURNDATASIZE PUSH1 0x0 DUP1 RETURNDATACOPY RETURNDATASIZE PUSH1 0x0 REVERT JUMPDEST POP JUMPDEST POP JUMP JUMPDEST PUSH1 0x0 DUP1 ADDRESS PUSH20 0xFFFFFFFFFFFFFFFFFFFFFFFFFFFFFFFFFFFFFFFF AND BALANCE EQ SWAP1 POP SWAP1 JUMP STOP LOG1 PUSH6 0x627A7A723058 KECCAK256 0xe7 0x25 LOG1 0x25 PUSH22 0xB7763122BEC4ABB6711FD43E40135C782D81A47CF326 DUP4 0xe8 ISZERO 0x27 0xdd STOP 0x29 "
				},
				"gasEstimates": {
					"creation": {
						"codeDepositCost": "84800",
						"executionCost": "20168",
						"totalCost": "104968"
					},
					"external": {
						"guess(uint8)": "infinite",
						"isComplete()": "647"
					}
				},
				"methodIdentifiers": {
					"guess(uint8)": "4ba4c16b",
					"isComplete()": "b2fa1c9e"
				}
			},
			"userdoc": {
				"methods": {}
			}
		}
	}
}