{
	"CaptureTheEther/GuessTheRandomNumberHack.sol": {
		"GTRNha": {
			"abi": [
				{
					"inputs": [
						{
							"internalType": "address",
							"name": "_interfaceAddress",
							"type": "address"
						}
					],
					"stateMutability": "nonpayable",
					"type": "constructor"
				},
				{
					"inputs": [],
					"name": "_interface",
					"outputs": [
						{
							"internalType": "contract IGuessTheRandomNumberChallenge",
							"name": "",
							"type": "address"
						}
					],
					"stateMutability": "view",
					"type": "function"
				},
				{
					"inputs": [],
					"name": "getBalance",
					"outputs": [
						{
							"internalType": "uint256",
							"name": "",
							"type": "uint256"
						}
					],
					"stateMutability": "view",
					"type": "function"
				},
				{
					"inputs": [],
					"name": "previousBlockHash",
					"outputs": [
						{
							"internalType": "bytes32",
							"name": "",
							"type": "bytes32"
						}
					],
					"stateMutability": "view",
					"type": "function"
				},
				{
					"inputs": [],
					"name": "previousTimestamp",
					"outputs": [
						{
							"internalType": "uint256",
							"name": "",
							"type": "uint256"
						}
					],
					"stateMutability": "view",
					"type": "function"
				},
				{
					"inputs": [],
					"name": "solve",
					"outputs": [],
					"stateMutability": "payable",
					"type": "function"
				},
				{
					"inputs": [],
					"name": "withdraw",
					"outputs": [],
					"stateMutability": "nonpayable",
					"type": "function"
				},
				{
					"stateMutability": "payable",
					"type": "receive"
				}
			],
			"devdoc": {
				"kind": "dev",
				"methods": {},
				"version": 1
			},
			"evm": {
				"assembly": "    /* \"CaptureTheEther/GuessTheRandomNumberHack.sol\":150:961  contract GTRNha {... */\n  mstore(0x40, 0x80)\n    /* \"CaptureTheEther/GuessTheRandomNumberHack.sol\":257:323  0xdd51bfbf089e41cca26c677a2d99c7b201321a0c4d5d0e15e6234deeea9b87da */\n  0xdd51bfbf089e41cca26c677a2d99c7b201321a0c4d5d0e15e6234deeea9b87da\n    /* \"CaptureTheEther/GuessTheRandomNumberHack.sol\":222:323  bytes32 public previousBlockHash = 0xdd51bfbf089e41cca26c677a2d99c7b201321a0c4d5d0e15e6234deeea9b87da */\n  0x00\n  shl\n  0x01\n  sstore\n    /* \"CaptureTheEther/GuessTheRandomNumberHack.sol\":359:369  1650799152 */\n  0x62653230\n    /* \"CaptureTheEther/GuessTheRandomNumberHack.sol\":327:369  uint public previousTimestamp = 1650799152 */\n  0x02\n  sstore\n    /* \"CaptureTheEther/GuessTheRandomNumberHack.sol\":373:558  constructor(address _interfaceAddress) {... */\n  callvalue\n  dup1\n  iszero\n  tag_1\n  jumpi\n  0x00\n  dup1\n  revert\ntag_1:\n  pop\n  mload(0x40)\n  sub(codesize, bytecodeSize)\n  dup1\n  bytecodeSize\n  dup4\n  codecopy\n  dup2\n  dup2\n  add\n  0x40\n  mstore\n  dup2\n  add\n  swap1\n  tag_2\n  swap2\n  swap1\n  tag_3\n  jump\t// in\ntag_2:\n    /* \"CaptureTheEther/GuessTheRandomNumberHack.sol\":455:456  0 */\n  0x00\n    /* \"CaptureTheEther/GuessTheRandomNumberHack.sol\":426:457  _interfaceAddress != address(0) */\n  0xffffffffffffffffffffffffffffffffffffffff\n  and\n    /* \"CaptureTheEther/GuessTheRandomNumberHack.sol\":426:443  _interfaceAddress */\n  dup2\n    /* \"CaptureTheEther/GuessTheRandomNumberHack.sol\":426:457  _interfaceAddress != address(0) */\n  0xffffffffffffffffffffffffffffffffffffffff\n  and\n  eq\n  iszero\n    /* \"CaptureTheEther/GuessTheRandomNumberHack.sol\":418:485  require(_interfaceAddress != address(0), \"Address can not be Zero\") */\n  tag_6\n  jumpi\n  mload(0x40)\n  0x08c379a000000000000000000000000000000000000000000000000000000000\n  dup2\n  mstore\n  0x04\n  add\n  tag_7\n  swap1\n  tag_8\n  jump\t// in\ntag_7:\n  mload(0x40)\n  dup1\n  swap2\n  sub\n  swap1\n  revert\ntag_6:\n    /* \"CaptureTheEther/GuessTheRandomNumberHack.sol\":535:552  _interfaceAddress */\n  dup1\n    /* \"CaptureTheEther/GuessTheRandomNumberHack.sol\":491:501  _interface */\n  0x00\n  dup1\n    /* \"CaptureTheEther/GuessTheRandomNumberHack.sol\":491:553  _interface = IGuessTheRandomNumberChallenge(_interfaceAddress) */\n  0x0100\n  exp\n  dup2\n  sload\n  dup2\n  0xffffffffffffffffffffffffffffffffffffffff\n  mul\n  not\n  and\n  swap1\n  dup4\n  0xffffffffffffffffffffffffffffffffffffffff\n  and\n  mul\n  or\n  swap1\n  sstore\n  pop\n    /* \"CaptureTheEther/GuessTheRandomNumberHack.sol\":373:558  constructor(address _interfaceAddress) {... */\n  pop\n    /* \"CaptureTheEther/GuessTheRandomNumberHack.sol\":150:961  contract GTRNha {... */\n  jump(tag_9)\n    /* \"#utility.yul\":88:205   */\ntag_11:\n    /* \"#utility.yul\":197:198   */\n  0x00\n    /* \"#utility.yul\":194:195   */\n  dup1\n    /* \"#utility.yul\":187:199   */\n  revert\n    /* \"#utility.yul\":334:460   */\ntag_13:\n    /* \"#utility.yul\":371:378   */\n  0x00\n    /* \"#utility.yul\":411:453   */\n  0xffffffffffffffffffffffffffffffffffffffff\n    /* \"#utility.yul\":404:409   */\n  dup3\n    /* \"#utility.yul\":400:454   */\n  and\n    /* \"#utility.yul\":389:454   */\n  swap1\n  pop\n    /* \"#utility.yul\":334:460   */\n  swap2\n  swap1\n  pop\n  jump\t// out\n    /* \"#utility.yul\":466:562   */\ntag_14:\n    /* \"#utility.yul\":503:510   */\n  0x00\n    /* \"#utility.yul\":532:556   */\n  tag_26\n    /* \"#utility.yul\":550:555   */\n  dup3\n    /* \"#utility.yul\":532:556   */\n  tag_13\n  jump\t// in\ntag_26:\n    /* \"#utility.yul\":521:556   */\n  swap1\n  pop\n    /* \"#utility.yul\":466:562   */\n  swap2\n  swap1\n  pop\n  jump\t// out\n    /* \"#utility.yul\":568:690   */\ntag_15:\n    /* \"#utility.yul\":641:665   */\n  tag_28\n    /* \"#utility.yul\":659:664   */\n  dup2\n    /* \"#utility.yul\":641:665   */\n  tag_14\n  jump\t// in\ntag_28:\n    /* \"#utility.yul\":634:639   */\n  dup2\n    /* \"#utility.yul\":631:666   */\n  eq\n    /* \"#utility.yul\":621:684   */\n  tag_29\n  jumpi\n    /* \"#utility.yul\":680:681   */\n  0x00\n    /* \"#utility.yul\":677:678   */\n  dup1\n    /* \"#utility.yul\":670:682   */\n  revert\n    /* \"#utility.yul\":621:684   */\ntag_29:\n    /* \"#utility.yul\":568:690   */\n  pop\n  jump\t// out\n    /* \"#utility.yul\":696:839   */\ntag_16:\n    /* \"#utility.yul\":753:758   */\n  0x00\n    /* \"#utility.yul\":784:790   */\n  dup2\n    /* \"#utility.yul\":778:791   */\n  mload\n    /* \"#utility.yul\":769:791   */\n  swap1\n  pop\n    /* \"#utility.yul\":800:833   */\n  tag_31\n    /* \"#utility.yul\":827:832   */\n  dup2\n    /* \"#utility.yul\":800:833   */\n  tag_15\n  jump\t// in\ntag_31:\n    /* \"#utility.yul\":696:839   */\n  swap3\n  swap2\n  pop\n  pop\n  jump\t// out\n    /* \"#utility.yul\":845:1196   */\ntag_3:\n    /* \"#utility.yul\":915:921   */\n  0x00\n    /* \"#utility.yul\":964:966   */\n  0x20\n    /* \"#utility.yul\":952:961   */\n  dup3\n    /* \"#utility.yul\":943:950   */\n  dup5\n    /* \"#utility.yul\":939:962   */\n  sub\n    /* \"#utility.yul\":935:967   */\n  slt\n    /* \"#utility.yul\":932:1051   */\n  iszero\n  tag_33\n  jumpi\n    /* \"#utility.yul\":970:1049   */\n  tag_34\n  tag_11\n  jump\t// in\ntag_34:\n    /* \"#utility.yul\":932:1051   */\ntag_33:\n    /* \"#utility.yul\":1090:1091   */\n  0x00\n    /* \"#utility.yul\":1115:1179   */\n  tag_35\n    /* \"#utility.yul\":1171:1178   */\n  dup5\n    /* \"#utility.yul\":1162:1168   */\n  dup3\n    /* \"#utility.yul\":1151:1160   */\n  dup6\n    /* \"#utility.yul\":1147:1169   */\n  add\n    /* \"#utility.yul\":1115:1179   */\n  tag_16\n  jump\t// in\ntag_35:\n    /* \"#utility.yul\":1105:1179   */\n  swap2\n  pop\n    /* \"#utility.yul\":1061:1189   */\n  pop\n    /* \"#utility.yul\":845:1196   */\n  swap3\n  swap2\n  pop\n  pop\n  jump\t// out\n    /* \"#utility.yul\":1202:1371   */\ntag_17:\n    /* \"#utility.yul\":1286:1297   */\n  0x00\n    /* \"#utility.yul\":1320:1326   */\n  dup3\n    /* \"#utility.yul\":1315:1318   */\n  dup3\n    /* \"#utility.yul\":1308:1327   */\n  mstore\n    /* \"#utility.yul\":1360:1364   */\n  0x20\n    /* \"#utility.yul\":1355:1358   */\n  dup3\n    /* \"#utility.yul\":1351:1365   */\n  add\n    /* \"#utility.yul\":1336:1365   */\n  swap1\n  pop\n    /* \"#utility.yul\":1202:1371   */\n  swap3\n  swap2\n  pop\n  pop\n  jump\t// out\n    /* \"#utility.yul\":1377:1550   */\ntag_18:\n    /* \"#utility.yul\":1517:1542   */\n  0x416464726573732063616e206e6f74206265205a65726f000000000000000000\n    /* \"#utility.yul\":1513:1514   */\n  0x00\n    /* \"#utility.yul\":1505:1511   */\n  dup3\n    /* \"#utility.yul\":1501:1515   */\n  add\n    /* \"#utility.yul\":1494:1543   */\n  mstore\n    /* \"#utility.yul\":1377:1550   */\n  pop\n  jump\t// out\n    /* \"#utility.yul\":1556:1922   */\ntag_19:\n    /* \"#utility.yul\":1698:1701   */\n  0x00\n    /* \"#utility.yul\":1719:1786   */\n  tag_39\n    /* \"#utility.yul\":1783:1785   */\n  0x17\n    /* \"#utility.yul\":1778:1781   */\n  dup4\n    /* \"#utility.yul\":1719:1786   */\n  tag_17\n  jump\t// in\ntag_39:\n    /* \"#utility.yul\":1712:1786   */\n  swap2\n  pop\n    /* \"#utility.yul\":1795:1888   */\n  tag_40\n    /* \"#utility.yul\":1884:1887   */\n  dup3\n    /* \"#utility.yul\":1795:1888   */\n  tag_18\n  jump\t// in\ntag_40:\n    /* \"#utility.yul\":1913:1915   */\n  0x20\n    /* \"#utility.yul\":1908:1911   */\n  dup3\n    /* \"#utility.yul\":1904:1916   */\n  add\n    /* \"#utility.yul\":1897:1916   */\n  swap1\n  pop\n    /* \"#utility.yul\":1556:1922   */\n  swap2\n  swap1\n  pop\n  jump\t// out\n    /* \"#utility.yul\":1928:2347   */\ntag_8:\n    /* \"#utility.yul\":2094:2098   */\n  0x00\n    /* \"#utility.yul\":2132:2134   */\n  0x20\n    /* \"#utility.yul\":2121:2130   */\n  dup3\n    /* \"#utility.yul\":2117:2135   */\n  add\n    /* \"#utility.yul\":2109:2135   */\n  swap1\n  pop\n    /* \"#utility.yul\":2181:2190   */\n  dup2\n    /* \"#utility.yul\":2175:2179   */\n  dup2\n    /* \"#utility.yul\":2171:2191   */\n  sub\n    /* \"#utility.yul\":2167:2168   */\n  0x00\n    /* \"#utility.yul\":2156:2165   */\n  dup4\n    /* \"#utility.yul\":2152:2169   */\n  add\n    /* \"#utility.yul\":2145:2192   */\n  mstore\n    /* \"#utility.yul\":2209:2340   */\n  tag_42\n    /* \"#utility.yul\":2335:2339   */\n  dup2\n    /* \"#utility.yul\":2209:2340   */\n  tag_19\n  jump\t// in\ntag_42:\n    /* \"#utility.yul\":2201:2340   */\n  swap1\n  pop\n    /* \"#utility.yul\":1928:2347   */\n  swap2\n  swap1\n  pop\n  jump\t// out\n    /* \"CaptureTheEther/GuessTheRandomNumberHack.sol\":150:961  contract GTRNha {... */\ntag_9:\n  dataSize(sub_0)\n  dup1\n  dataOffset(sub_0)\n  0x00\n  codecopy\n  0x00\n  return\nstop\n\nsub_0: assembly {\n        /* \"CaptureTheEther/GuessTheRandomNumberHack.sol\":150:961  contract GTRNha {... */\n      mstore(0x40, 0x80)\n      jumpi(tag_1, lt(calldatasize, 0x04))\n      shr(0xe0, calldataload(0x00))\n      dup1\n      0x12065fe0\n      eq\n      tag_3\n      jumpi\n      dup1\n      0x1d9ff6e4\n      eq\n      tag_4\n      jumpi\n      dup1\n      0x257aeacc\n      eq\n      tag_5\n      jumpi\n      dup1\n      0x3ccfd60b\n      eq\n      tag_6\n      jumpi\n      dup1\n      0x890d6908\n      eq\n      tag_7\n      jumpi\n      dup1\n      0x9e542918\n      eq\n      tag_8\n      jumpi\n      jump(tag_2)\n    tag_1:\n      jumpi(tag_2, calldatasize)\n      stop\n    tag_2:\n      0x00\n      dup1\n      revert\n        /* \"CaptureTheEther/GuessTheRandomNumberHack.sol\":749:835  function getBalance() public view returns(uint){... */\n    tag_3:\n      callvalue\n      dup1\n      iszero\n      tag_11\n      jumpi\n      0x00\n      dup1\n      revert\n    tag_11:\n      pop\n      tag_12\n      tag_13\n      jump\t// in\n    tag_12:\n      mload(0x40)\n      tag_14\n      swap2\n      swap1\n      tag_15\n      jump\t// in\n    tag_14:\n      mload(0x40)\n      dup1\n      swap2\n      sub\n      swap1\n      return\n        /* \"CaptureTheEther/GuessTheRandomNumberHack.sol\":327:369  uint public previousTimestamp = 1650799152 */\n    tag_4:\n      callvalue\n      dup1\n      iszero\n      tag_16\n      jumpi\n      0x00\n      dup1\n      revert\n    tag_16:\n      pop\n      tag_17\n      tag_18\n      jump\t// in\n    tag_17:\n      mload(0x40)\n      tag_19\n      swap2\n      swap1\n      tag_15\n      jump\t// in\n    tag_19:\n      mload(0x40)\n      dup1\n      swap2\n      sub\n      swap1\n      return\n        /* \"CaptureTheEther/GuessTheRandomNumberHack.sol\":222:323  bytes32 public previousBlockHash = 0xdd51bfbf089e41cca26c677a2d99c7b201321a0c4d5d0e15e6234deeea9b87da */\n    tag_5:\n      callvalue\n      dup1\n      iszero\n      tag_20\n      jumpi\n      0x00\n      dup1\n      revert\n    tag_20:\n      pop\n      tag_21\n      tag_22\n      jump\t// in\n    tag_21:\n      mload(0x40)\n      tag_23\n      swap2\n      swap1\n      tag_24\n      jump\t// in\n    tag_23:\n      mload(0x40)\n      dup1\n      swap2\n      sub\n      swap1\n      return\n        /* \"CaptureTheEther/GuessTheRandomNumberHack.sol\":838:927  function withdraw() public {... */\n    tag_6:\n      callvalue\n      dup1\n      iszero\n      tag_25\n      jumpi\n      0x00\n      dup1\n      revert\n    tag_25:\n      pop\n      tag_26\n      tag_27\n      jump\t// in\n    tag_26:\n      stop\n        /* \"CaptureTheEther/GuessTheRandomNumberHack.sol\":561:746  function solve() public payable {... */\n    tag_7:\n      tag_28\n      tag_29\n      jump\t// in\n    tag_28:\n      stop\n        /* \"CaptureTheEther/GuessTheRandomNumberHack.sol\":170:218  IGuessTheRandomNumberChallenge public _interface */\n    tag_8:\n      callvalue\n      dup1\n      iszero\n      tag_30\n      jumpi\n      0x00\n      dup1\n      revert\n    tag_30:\n      pop\n      tag_31\n      tag_32\n      jump\t// in\n    tag_31:\n      mload(0x40)\n      tag_33\n      swap2\n      swap1\n      tag_34\n      jump\t// in\n    tag_33:\n      mload(0x40)\n      dup1\n      swap2\n      sub\n      swap1\n      return\n        /* \"CaptureTheEther/GuessTheRandomNumberHack.sol\":749:835  function getBalance() public view returns(uint){... */\n    tag_13:\n        /* \"CaptureTheEther/GuessTheRandomNumberHack.sol\":791:795  uint */\n      0x00\n        /* \"CaptureTheEther/GuessTheRandomNumberHack.sol\":809:830  address(this).balance */\n      selfbalance\n        /* \"CaptureTheEther/GuessTheRandomNumberHack.sol\":802:830  return address(this).balance */\n      swap1\n      pop\n        /* \"CaptureTheEther/GuessTheRandomNumberHack.sol\":749:835  function getBalance() public view returns(uint){... */\n      swap1\n      jump\t// out\n        /* \"CaptureTheEther/GuessTheRandomNumberHack.sol\":327:369  uint public previousTimestamp = 1650799152 */\n    tag_18:\n      sload(0x02)\n      dup2\n      jump\t// out\n        /* \"CaptureTheEther/GuessTheRandomNumberHack.sol\":222:323  bytes32 public previousBlockHash = 0xdd51bfbf089e41cca26c677a2d99c7b201321a0c4d5d0e15e6234deeea9b87da */\n    tag_22:\n      sload(0x01)\n      dup2\n      jump\t// out\n        /* \"CaptureTheEther/GuessTheRandomNumberHack.sol\":838:927  function withdraw() public {... */\n    tag_27:\n        /* \"CaptureTheEther/GuessTheRandomNumberHack.sol\":879:889  msg.sender */\n      caller\n        /* \"CaptureTheEther/GuessTheRandomNumberHack.sol\":871:899  payable(msg.sender).transfer */\n      0xffffffffffffffffffffffffffffffffffffffff\n      and\n        /* \"CaptureTheEther/GuessTheRandomNumberHack.sol\":871:922  payable(msg.sender).transfer(address(this).balance) */\n      0x08fc\n        /* \"CaptureTheEther/GuessTheRandomNumberHack.sol\":900:921  address(this).balance */\n      selfbalance\n        /* \"CaptureTheEther/GuessTheRandomNumberHack.sol\":871:922  payable(msg.sender).transfer(address(this).balance) */\n      swap1\n      dup2\n      iszero\n      mul\n      swap1\n      mload(0x40)\n      0x00\n      mload(0x40)\n      dup1\n      dup4\n      sub\n      dup2\n      dup6\n      dup9\n      dup9\n      call\n      swap4\n      pop\n      pop\n      pop\n      pop\n      iszero\n      dup1\n      iszero\n      tag_38\n      jumpi\n      returndatasize\n      0x00\n      dup1\n      returndatacopy\n      revert(0x00, returndatasize)\n    tag_38:\n      pop\n        /* \"CaptureTheEther/GuessTheRandomNumberHack.sol\":838:927  function withdraw() public {... */\n      jump\t// out\n        /* \"CaptureTheEther/GuessTheRandomNumberHack.sol\":561:746  function solve() public payable {... */\n    tag_29:\n        /* \"CaptureTheEther/GuessTheRandomNumberHack.sol\":599:611  uint8 answer */\n      0x00\n        /* \"CaptureTheEther/GuessTheRandomNumberHack.sol\":655:672  previousBlockHash */\n      sload(0x01)\n        /* \"CaptureTheEther/GuessTheRandomNumberHack.sol\":674:691  previousTimestamp */\n      sload(0x02)\n        /* \"CaptureTheEther/GuessTheRandomNumberHack.sol\":638:692  abi.encodePacked(previousBlockHash, previousTimestamp) */\n      add(0x20, mload(0x40))\n      tag_40\n      swap3\n      swap2\n      swap1\n      tag_41\n      jump\t// in\n    tag_40:\n      mload(0x40)\n      0x20\n      dup2\n      dup4\n      sub\n      sub\n      dup2\n      mstore\n      swap1\n      0x40\n      mstore\n        /* \"CaptureTheEther/GuessTheRandomNumberHack.sol\":628:693  keccak256(abi.encodePacked(previousBlockHash, previousTimestamp)) */\n      dup1\n      mload\n      swap1\n      0x20\n      add\n      keccak256\n        /* \"CaptureTheEther/GuessTheRandomNumberHack.sol\":620:694  uint256(keccak256(abi.encodePacked(previousBlockHash, previousTimestamp))) */\n      0x00\n      shr\n        /* \"CaptureTheEther/GuessTheRandomNumberHack.sol\":599:695  uint8 answer = uint8(uint256(keccak256(abi.encodePacked(previousBlockHash, previousTimestamp)))) */\n      swap1\n      pop\n        /* \"CaptureTheEther/GuessTheRandomNumberHack.sol\":701:711  _interface */\n      0x00\n      dup1\n      sload\n      swap1\n      0x0100\n      exp\n      swap1\n      div\n      0xffffffffffffffffffffffffffffffffffffffff\n      and\n        /* \"CaptureTheEther/GuessTheRandomNumberHack.sol\":701:717  _interface.guess */\n      0xffffffffffffffffffffffffffffffffffffffff\n      and\n      0x4ba4c16b\n        /* \"CaptureTheEther/GuessTheRandomNumberHack.sol\":725:732  1 ether */\n      0x0de0b6b3a7640000\n        /* \"CaptureTheEther/GuessTheRandomNumberHack.sol\":734:740  answer */\n      dup4\n        /* \"CaptureTheEther/GuessTheRandomNumberHack.sol\":701:741  _interface.guess{value: 1 ether}(answer) */\n      mload(0x40)\n      dup4\n      0xffffffff\n      and\n      0xe0\n      shl\n      dup2\n      mstore\n      0x04\n      add\n      tag_42\n      swap2\n      swap1\n      tag_43\n      jump\t// in\n    tag_42:\n      0x00\n      mload(0x40)\n      dup1\n      dup4\n      sub\n      dup2\n      dup6\n      dup9\n      dup1\n      extcodesize\n      iszero\n      dup1\n      iszero\n      tag_44\n      jumpi\n      0x00\n      dup1\n      revert\n    tag_44:\n      pop\n      gas\n      call\n      iszero\n      dup1\n      iszero\n      tag_46\n      jumpi\n      returndatasize\n      0x00\n      dup1\n      returndatacopy\n      revert(0x00, returndatasize)\n    tag_46:\n      pop\n      pop\n      pop\n      pop\n      pop\n        /* \"CaptureTheEther/GuessTheRandomNumberHack.sol\":593:746  {... */\n      pop\n        /* \"CaptureTheEther/GuessTheRandomNumberHack.sol\":561:746  function solve() public payable {... */\n      jump\t// out\n        /* \"CaptureTheEther/GuessTheRandomNumberHack.sol\":170:218  IGuessTheRandomNumberChallenge public _interface */\n    tag_32:\n      0x00\n      dup1\n      sload\n      swap1\n      0x0100\n      exp\n      swap1\n      div\n      0xffffffffffffffffffffffffffffffffffffffff\n      and\n      dup2\n      jump\t// out\n        /* \"#utility.yul\":7:84   */\n    tag_47:\n        /* \"#utility.yul\":44:51   */\n      0x00\n        /* \"#utility.yul\":73:78   */\n      dup2\n        /* \"#utility.yul\":62:78   */\n      swap1\n      pop\n        /* \"#utility.yul\":7:84   */\n      swap2\n      swap1\n      pop\n      jump\t// out\n        /* \"#utility.yul\":90:208   */\n    tag_48:\n        /* \"#utility.yul\":177:201   */\n      tag_66\n        /* \"#utility.yul\":195:200   */\n      dup2\n        /* \"#utility.yul\":177:201   */\n      tag_47\n      jump\t// in\n    tag_66:\n        /* \"#utility.yul\":172:175   */\n      dup3\n        /* \"#utility.yul\":165:202   */\n      mstore\n        /* \"#utility.yul\":90:208   */\n      pop\n      pop\n      jump\t// out\n        /* \"#utility.yul\":214:436   */\n    tag_15:\n        /* \"#utility.yul\":307:311   */\n      0x00\n        /* \"#utility.yul\":345:347   */\n      0x20\n        /* \"#utility.yul\":334:343   */\n      dup3\n        /* \"#utility.yul\":330:348   */\n      add\n        /* \"#utility.yul\":322:348   */\n      swap1\n      pop\n        /* \"#utility.yul\":358:429   */\n      tag_68\n        /* \"#utility.yul\":426:427   */\n      0x00\n        /* \"#utility.yul\":415:424   */\n      dup4\n        /* \"#utility.yul\":411:428   */\n      add\n        /* \"#utility.yul\":402:408   */\n      dup5\n        /* \"#utility.yul\":358:429   */\n      tag_48\n      jump\t// in\n    tag_68:\n        /* \"#utility.yul\":214:436   */\n      swap3\n      swap2\n      pop\n      pop\n      jump\t// out\n        /* \"#utility.yul\":442:519   */\n    tag_49:\n        /* \"#utility.yul\":479:486   */\n      0x00\n        /* \"#utility.yul\":508:513   */\n      dup2\n        /* \"#utility.yul\":497:513   */\n      swap1\n      pop\n        /* \"#utility.yul\":442:519   */\n      swap2\n      swap1\n      pop\n      jump\t// out\n        /* \"#utility.yul\":525:643   */\n    tag_50:\n        /* \"#utility.yul\":612:636   */\n      tag_71\n        /* \"#utility.yul\":630:635   */\n      dup2\n        /* \"#utility.yul\":612:636   */\n      tag_49\n      jump\t// in\n    tag_71:\n        /* \"#utility.yul\":607:610   */\n      dup3\n        /* \"#utility.yul\":600:637   */\n      mstore\n        /* \"#utility.yul\":525:643   */\n      pop\n      pop\n      jump\t// out\n        /* \"#utility.yul\":649:871   */\n    tag_24:\n        /* \"#utility.yul\":742:746   */\n      0x00\n        /* \"#utility.yul\":780:782   */\n      0x20\n        /* \"#utility.yul\":769:778   */\n      dup3\n        /* \"#utility.yul\":765:783   */\n      add\n        /* \"#utility.yul\":757:783   */\n      swap1\n      pop\n        /* \"#utility.yul\":793:864   */\n      tag_73\n        /* \"#utility.yul\":861:862   */\n      0x00\n        /* \"#utility.yul\":850:859   */\n      dup4\n        /* \"#utility.yul\":846:863   */\n      add\n        /* \"#utility.yul\":837:843   */\n      dup5\n        /* \"#utility.yul\":793:864   */\n      tag_50\n      jump\t// in\n    tag_73:\n        /* \"#utility.yul\":649:871   */\n      swap3\n      swap2\n      pop\n      pop\n      jump\t// out\n        /* \"#utility.yul\":877:1003   */\n    tag_51:\n        /* \"#utility.yul\":914:921   */\n      0x00\n        /* \"#utility.yul\":954:996   */\n      0xffffffffffffffffffffffffffffffffffffffff\n        /* \"#utility.yul\":947:952   */\n      dup3\n        /* \"#utility.yul\":943:997   */\n      and\n        /* \"#utility.yul\":932:997   */\n      swap1\n      pop\n        /* \"#utility.yul\":877:1003   */\n      swap2\n      swap1\n      pop\n      jump\t// out\n        /* \"#utility.yul\":1009:1069   */\n    tag_52:\n        /* \"#utility.yul\":1037:1040   */\n      0x00\n        /* \"#utility.yul\":1058:1063   */\n      dup2\n        /* \"#utility.yul\":1051:1063   */\n      swap1\n      pop\n        /* \"#utility.yul\":1009:1069   */\n      swap2\n      swap1\n      pop\n      jump\t// out\n        /* \"#utility.yul\":1075:1217   */\n    tag_53:\n        /* \"#utility.yul\":1125:1134   */\n      0x00\n        /* \"#utility.yul\":1158:1211   */\n      tag_77\n        /* \"#utility.yul\":1176:1210   */\n      tag_78\n        /* \"#utility.yul\":1185:1209   */\n      tag_79\n        /* \"#utility.yul\":1203:1208   */\n      dup5\n        /* \"#utility.yul\":1185:1209   */\n      tag_51\n      jump\t// in\n    tag_79:\n        /* \"#utility.yul\":1176:1210   */\n      tag_52\n      jump\t// in\n    tag_78:\n        /* \"#utility.yul\":1158:1211   */\n      tag_51\n      jump\t// in\n    tag_77:\n        /* \"#utility.yul\":1145:1211   */\n      swap1\n      pop\n        /* \"#utility.yul\":1075:1217   */\n      swap2\n      swap1\n      pop\n      jump\t// out\n        /* \"#utility.yul\":1223:1349   */\n    tag_54:\n        /* \"#utility.yul\":1273:1282   */\n      0x00\n        /* \"#utility.yul\":1306:1343   */\n      tag_81\n        /* \"#utility.yul\":1337:1342   */\n      dup3\n        /* \"#utility.yul\":1306:1343   */\n      tag_53\n      jump\t// in\n    tag_81:\n        /* \"#utility.yul\":1293:1343   */\n      swap1\n      pop\n        /* \"#utility.yul\":1223:1349   */\n      swap2\n      swap1\n      pop\n      jump\t// out\n        /* \"#utility.yul\":1355:1517   */\n    tag_55:\n        /* \"#utility.yul\":1441:1450   */\n      0x00\n        /* \"#utility.yul\":1474:1511   */\n      tag_83\n        /* \"#utility.yul\":1505:1510   */\n      dup3\n        /* \"#utility.yul\":1474:1511   */\n      tag_54\n      jump\t// in\n    tag_83:\n        /* \"#utility.yul\":1461:1511   */\n      swap1\n      pop\n        /* \"#utility.yul\":1355:1517   */\n      swap2\n      swap1\n      pop\n      jump\t// out\n        /* \"#utility.yul\":1523:1726   */\n    tag_56:\n        /* \"#utility.yul\":1646:1719   */\n      tag_85\n        /* \"#utility.yul\":1713:1718   */\n      dup2\n        /* \"#utility.yul\":1646:1719   */\n      tag_55\n      jump\t// in\n    tag_85:\n        /* \"#utility.yul\":1641:1644   */\n      dup3\n        /* \"#utility.yul\":1634:1720   */\n      mstore\n        /* \"#utility.yul\":1523:1726   */\n      pop\n      pop\n      jump\t// out\n        /* \"#utility.yul\":1732:2026   */\n    tag_34:\n        /* \"#utility.yul\":1861:1865   */\n      0x00\n        /* \"#utility.yul\":1899:1901   */\n      0x20\n        /* \"#utility.yul\":1888:1897   */\n      dup3\n        /* \"#utility.yul\":1884:1902   */\n      add\n        /* \"#utility.yul\":1876:1902   */\n      swap1\n      pop\n        /* \"#utility.yul\":1912:2019   */\n      tag_87\n        /* \"#utility.yul\":2016:2017   */\n      0x00\n        /* \"#utility.yul\":2005:2014   */\n      dup4\n        /* \"#utility.yul\":2001:2018   */\n      add\n        /* \"#utility.yul\":1992:1998   */\n      dup5\n        /* \"#utility.yul\":1912:2019   */\n      tag_56\n      jump\t// in\n    tag_87:\n        /* \"#utility.yul\":1732:2026   */\n      swap3\n      swap2\n      pop\n      pop\n      jump\t// out\n        /* \"#utility.yul\":2032:2111   */\n    tag_57:\n        /* \"#utility.yul\":2071:2078   */\n      0x00\n        /* \"#utility.yul\":2100:2105   */\n      dup2\n        /* \"#utility.yul\":2089:2105   */\n      swap1\n      pop\n        /* \"#utility.yul\":2032:2111   */\n      swap2\n      swap1\n      pop\n      jump\t// out\n        /* \"#utility.yul\":2117:2274   */\n    tag_58:\n        /* \"#utility.yul\":2222:2267   */\n      tag_90\n        /* \"#utility.yul\":2242:2266   */\n      tag_91\n        /* \"#utility.yul\":2260:2265   */\n      dup3\n        /* \"#utility.yul\":2242:2266   */\n      tag_49\n      jump\t// in\n    tag_91:\n        /* \"#utility.yul\":2222:2267   */\n      tag_57\n      jump\t// in\n    tag_90:\n        /* \"#utility.yul\":2217:2220   */\n      dup3\n        /* \"#utility.yul\":2210:2268   */\n      mstore\n        /* \"#utility.yul\":2117:2274   */\n      pop\n      pop\n      jump\t// out\n        /* \"#utility.yul\":2280:2359   */\n    tag_59:\n        /* \"#utility.yul\":2319:2326   */\n      0x00\n        /* \"#utility.yul\":2348:2353   */\n      dup2\n        /* \"#utility.yul\":2337:2353   */\n      swap1\n      pop\n        /* \"#utility.yul\":2280:2359   */\n      swap2\n      swap1\n      pop\n      jump\t// out\n        /* \"#utility.yul\":2365:2522   */\n    tag_60:\n        /* \"#utility.yul\":2470:2515   */\n      tag_94\n        /* \"#utility.yul\":2490:2514   */\n      tag_95\n        /* \"#utility.yul\":2508:2513   */\n      dup3\n        /* \"#utility.yul\":2490:2514   */\n      tag_47\n      jump\t// in\n    tag_95:\n        /* \"#utility.yul\":2470:2515   */\n      tag_59\n      jump\t// in\n    tag_94:\n        /* \"#utility.yul\":2465:2468   */\n      dup3\n        /* \"#utility.yul\":2458:2516   */\n      mstore\n        /* \"#utility.yul\":2365:2522   */\n      pop\n      pop\n      jump\t// out\n        /* \"#utility.yul\":2528:2925   */\n    tag_41:\n        /* \"#utility.yul\":2668:2671   */\n      0x00\n        /* \"#utility.yul\":2683:2758   */\n      tag_97\n        /* \"#utility.yul\":2754:2757   */\n      dup3\n        /* \"#utility.yul\":2745:2751   */\n      dup6\n        /* \"#utility.yul\":2683:2758   */\n      tag_58\n      jump\t// in\n    tag_97:\n        /* \"#utility.yul\":2783:2785   */\n      0x20\n        /* \"#utility.yul\":2778:2781   */\n      dup3\n        /* \"#utility.yul\":2774:2786   */\n      add\n        /* \"#utility.yul\":2767:2786   */\n      swap2\n      pop\n        /* \"#utility.yul\":2796:2871   */\n      tag_98\n        /* \"#utility.yul\":2867:2870   */\n      dup3\n        /* \"#utility.yul\":2858:2864   */\n      dup5\n        /* \"#utility.yul\":2796:2871   */\n      tag_60\n      jump\t// in\n    tag_98:\n        /* \"#utility.yul\":2896:2898   */\n      0x20\n        /* \"#utility.yul\":2891:2894   */\n      dup3\n        /* \"#utility.yul\":2887:2899   */\n      add\n        /* \"#utility.yul\":2880:2899   */\n      swap2\n      pop\n        /* \"#utility.yul\":2916:2919   */\n      dup2\n        /* \"#utility.yul\":2909:2919   */\n      swap1\n      pop\n        /* \"#utility.yul\":2528:2925   */\n      swap4\n      swap3\n      pop\n      pop\n      pop\n      jump\t// out\n        /* \"#utility.yul\":2931:3017   */\n    tag_61:\n        /* \"#utility.yul\":2966:2973   */\n      0x00\n        /* \"#utility.yul\":3006:3010   */\n      0xff\n        /* \"#utility.yul\":2999:3004   */\n      dup3\n        /* \"#utility.yul\":2995:3011   */\n      and\n        /* \"#utility.yul\":2984:3011   */\n      swap1\n      pop\n        /* \"#utility.yul\":2931:3017   */\n      swap2\n      swap1\n      pop\n      jump\t// out\n        /* \"#utility.yul\":3023:3135   */\n    tag_62:\n        /* \"#utility.yul\":3106:3128   */\n      tag_101\n        /* \"#utility.yul\":3122:3127   */\n      dup2\n        /* \"#utility.yul\":3106:3128   */\n      tag_61\n      jump\t// in\n    tag_101:\n        /* \"#utility.yul\":3101:3104   */\n      dup3\n        /* \"#utility.yul\":3094:3129   */\n      mstore\n        /* \"#utility.yul\":3023:3135   */\n      pop\n      pop\n      jump\t// out\n        /* \"#utility.yul\":3141:3355   */\n    tag_43:\n        /* \"#utility.yul\":3230:3234   */\n      0x00\n        /* \"#utility.yul\":3268:3270   */\n      0x20\n        /* \"#utility.yul\":3257:3266   */\n      dup3\n        /* \"#utility.yul\":3253:3271   */\n      add\n        /* \"#utility.yul\":3245:3271   */\n      swap1\n      pop\n        /* \"#utility.yul\":3281:3348   */\n      tag_103\n        /* \"#utility.yul\":3345:3346   */\n      0x00\n        /* \"#utility.yul\":3334:3343   */\n      dup4\n        /* \"#utility.yul\":3330:3347   */\n      add\n        /* \"#utility.yul\":3321:3327   */\n      dup5\n        /* \"#utility.yul\":3281:3348   */\n      tag_62\n      jump\t// in\n    tag_103:\n        /* \"#utility.yul\":3141:3355   */\n      swap3\n      swap2\n      pop\n      pop\n      jump\t// out\n\n    auxdata: 0xa2646970667358221220378c11e9ac6a2cb21cb2298f3715a3d894bbd7b052e06a0dff578b497b6a115764736f6c634300080a0033\n}\n",
				"bytecode": {
					"linkReferences": {},
					"object": "60806040527fdd51bfbf089e41cca26c677a2d99c7b201321a0c4d5d0e15e6234deeea9b87da60001b600155636265323060025534801561003f57600080fd5b5060405161068e38038061068e8339818101604052810190610061919061017a565b600073ffffffffffffffffffffffffffffffffffffffff168173ffffffffffffffffffffffffffffffffffffffff1614156100d1576040517f08c379a00000000000000000000000000000000000000000000000000000000081526004016100c890610204565b60405180910390fd5b806000806101000a81548173ffffffffffffffffffffffffffffffffffffffff021916908373ffffffffffffffffffffffffffffffffffffffff16021790555050610224565b600080fd5b600073ffffffffffffffffffffffffffffffffffffffff82169050919050565b60006101478261011c565b9050919050565b6101578161013c565b811461016257600080fd5b50565b6000815190506101748161014e565b92915050565b6000602082840312156101905761018f610117565b5b600061019e84828501610165565b91505092915050565b600082825260208201905092915050565b7f416464726573732063616e206e6f74206265205a65726f000000000000000000600082015250565b60006101ee6017836101a7565b91506101f9826101b8565b602082019050919050565b6000602082019050818103600083015261021d816101e1565b9050919050565b61045b806102336000396000f3fe6080604052600436106100595760003560e01c806312065fe0146100655780631d9ff6e414610090578063257aeacc146100bb5780633ccfd60b146100e6578063890d6908146100fd5780639e5429181461010757610060565b3661006057005b600080fd5b34801561007157600080fd5b5061007a610132565b6040516100879190610297565b60405180910390f35b34801561009c57600080fd5b506100a561013a565b6040516100b29190610297565b60405180910390f35b3480156100c757600080fd5b506100d0610140565b6040516100dd91906102cb565b60405180910390f35b3480156100f257600080fd5b506100fb610146565b005b61010561018f565b005b34801561011357600080fd5b5061011c61025a565b6040516101299190610365565b60405180910390f35b600047905090565b60025481565b60015481565b3373ffffffffffffffffffffffffffffffffffffffff166108fc479081150290604051600060405180830381858888f1935050505015801561018c573d6000803e3d6000fd5b50565b60006001546002546040516020016101a89291906103c2565b6040516020818303038152906040528051906020012060001c905060008054906101000a900473ffffffffffffffffffffffffffffffffffffffff1673ffffffffffffffffffffffffffffffffffffffff16634ba4c16b670de0b6b3a7640000836040518363ffffffff1660e01b8152600401610225919061040a565b6000604051808303818588803b15801561023e57600080fd5b505af1158015610252573d6000803e3d6000fd5b505050505050565b60008054906101000a900473ffffffffffffffffffffffffffffffffffffffff1681565b6000819050919050565b6102918161027e565b82525050565b60006020820190506102ac6000830184610288565b92915050565b6000819050919050565b6102c5816102b2565b82525050565b60006020820190506102e060008301846102bc565b92915050565b600073ffffffffffffffffffffffffffffffffffffffff82169050919050565b6000819050919050565b600061032b610326610321846102e6565b610306565b6102e6565b9050919050565b600061033d82610310565b9050919050565b600061034f82610332565b9050919050565b61035f81610344565b82525050565b600060208201905061037a6000830184610356565b92915050565b6000819050919050565b61039b610396826102b2565b610380565b82525050565b6000819050919050565b6103bc6103b78261027e565b6103a1565b82525050565b60006103ce828561038a565b6020820191506103de82846103ab565b6020820191508190509392505050565b600060ff82169050919050565b610404816103ee565b82525050565b600060208201905061041f60008301846103fb565b9291505056fea2646970667358221220378c11e9ac6a2cb21cb2298f3715a3d894bbd7b052e06a0dff578b497b6a115764736f6c634300080a0033",
					"opcodes": "PUSH1 0x80 PUSH1 0x40 MSTORE PUSH32 0xDD51BFBF089E41CCA26C677A2D99C7B201321A0C4D5D0E15E6234DEEEA9B87DA PUSH1 0x0 SHL PUSH1 0x1 SSTORE PUSH4 0x62653230 PUSH1 0x2 SSTORE CALLVALUE DUP1 ISZERO PUSH2 0x3F JUMPI PUSH1 0x0 DUP1 REVERT JUMPDEST POP PUSH1 0x40 MLOAD PUSH2 0x68E CODESIZE SUB DUP1 PUSH2 0x68E DUP4 CODECOPY DUP2 DUP2 ADD PUSH1 0x40 MSTORE DUP2 ADD SWAP1 PUSH2 0x61 SWAP2 SWAP1 PUSH2 0x17A JUMP JUMPDEST PUSH1 0x0 PUSH20 0xFFFFFFFFFFFFFFFFFFFFFFFFFFFFFFFFFFFFFFFF AND DUP2 PUSH20 0xFFFFFFFFFFFFFFFFFFFFFFFFFFFFFFFFFFFFFFFF AND EQ ISZERO PUSH2 0xD1 JUMPI PUSH1 0x40 MLOAD PUSH32 0x8C379A000000000000000000000000000000000000000000000000000000000 DUP2 MSTORE PUSH1 0x4 ADD PUSH2 0xC8 SWAP1 PUSH2 0x204 JUMP JUMPDEST PUSH1 0x40 MLOAD DUP1 SWAP2 SUB SWAP1 REVERT JUMPDEST DUP1 PUSH1 0x0 DUP1 PUSH2 0x100 EXP DUP2 SLOAD DUP2 PUSH20 0xFFFFFFFFFFFFFFFFFFFFFFFFFFFFFFFFFFFFFFFF MUL NOT AND SWAP1 DUP4 PUSH20 0xFFFFFFFFFFFFFFFFFFFFFFFFFFFFFFFFFFFFFFFF AND MUL OR SWAP1 SSTORE POP POP PUSH2 0x224 JUMP JUMPDEST PUSH1 0x0 DUP1 REVERT JUMPDEST PUSH1 0x0 PUSH20 0xFFFFFFFFFFFFFFFFFFFFFFFFFFFFFFFFFFFFFFFF DUP3 AND SWAP1 POP SWAP2 SWAP1 POP JUMP JUMPDEST PUSH1 0x0 PUSH2 0x147 DUP3 PUSH2 0x11C JUMP JUMPDEST SWAP1 POP SWAP2 SWAP1 POP JUMP JUMPDEST PUSH2 0x157 DUP2 PUSH2 0x13C JUMP JUMPDEST DUP2 EQ PUSH2 0x162 JUMPI PUSH1 0x0 DUP1 REVERT JUMPDEST POP JUMP JUMPDEST PUSH1 0x0 DUP2 MLOAD SWAP1 POP PUSH2 0x174 DUP2 PUSH2 0x14E JUMP JUMPDEST SWAP3 SWAP2 POP POP JUMP JUMPDEST PUSH1 0x0 PUSH1 0x20 DUP3 DUP5 SUB SLT ISZERO PUSH2 0x190 JUMPI PUSH2 0x18F PUSH2 0x117 JUMP JUMPDEST JUMPDEST PUSH1 0x0 PUSH2 0x19E DUP5 DUP3 DUP6 ADD PUSH2 0x165 JUMP JUMPDEST SWAP2 POP POP SWAP3 SWAP2 POP POP JUMP JUMPDEST PUSH1 0x0 DUP3 DUP3 MSTORE PUSH1 0x20 DUP3 ADD SWAP1 POP SWAP3 SWAP2 POP POP JUMP JUMPDEST PUSH32 0x416464726573732063616E206E6F74206265205A65726F000000000000000000 PUSH1 0x0 DUP3 ADD MSTORE POP JUMP JUMPDEST PUSH1 0x0 PUSH2 0x1EE PUSH1 0x17 DUP4 PUSH2 0x1A7 JUMP JUMPDEST SWAP2 POP PUSH2 0x1F9 DUP3 PUSH2 0x1B8 JUMP JUMPDEST PUSH1 0x20 DUP3 ADD SWAP1 POP SWAP2 SWAP1 POP JUMP JUMPDEST PUSH1 0x0 PUSH1 0x20 DUP3 ADD SWAP1 POP DUP2 DUP2 SUB PUSH1 0x0 DUP4 ADD MSTORE PUSH2 0x21D DUP2 PUSH2 0x1E1 JUMP JUMPDEST SWAP1 POP SWAP2 SWAP1 POP JUMP JUMPDEST PUSH2 0x45B DUP1 PUSH2 0x233 PUSH1 0x0 CODECOPY PUSH1 0x0 RETURN INVALID PUSH1 0x80 PUSH1 0x40 MSTORE PUSH1 0x4 CALLDATASIZE LT PUSH2 0x59 JUMPI PUSH1 0x0 CALLDATALOAD PUSH1 0xE0 SHR DUP1 PUSH4 0x12065FE0 EQ PUSH2 0x65 JUMPI DUP1 PUSH4 0x1D9FF6E4 EQ PUSH2 0x90 JUMPI DUP1 PUSH4 0x257AEACC EQ PUSH2 0xBB JUMPI DUP1 PUSH4 0x3CCFD60B EQ PUSH2 0xE6 JUMPI DUP1 PUSH4 0x890D6908 EQ PUSH2 0xFD JUMPI DUP1 PUSH4 0x9E542918 EQ PUSH2 0x107 JUMPI PUSH2 0x60 JUMP JUMPDEST CALLDATASIZE PUSH2 0x60 JUMPI STOP JUMPDEST PUSH1 0x0 DUP1 REVERT JUMPDEST CALLVALUE DUP1 ISZERO PUSH2 0x71 JUMPI PUSH1 0x0 DUP1 REVERT JUMPDEST POP PUSH2 0x7A PUSH2 0x132 JUMP JUMPDEST PUSH1 0x40 MLOAD PUSH2 0x87 SWAP2 SWAP1 PUSH2 0x297 JUMP JUMPDEST PUSH1 0x40 MLOAD DUP1 SWAP2 SUB SWAP1 RETURN JUMPDEST CALLVALUE DUP1 ISZERO PUSH2 0x9C JUMPI PUSH1 0x0 DUP1 REVERT JUMPDEST POP PUSH2 0xA5 PUSH2 0x13A JUMP JUMPDEST PUSH1 0x40 MLOAD PUSH2 0xB2 SWAP2 SWAP1 PUSH2 0x297 JUMP JUMPDEST PUSH1 0x40 MLOAD DUP1 SWAP2 SUB SWAP1 RETURN JUMPDEST CALLVALUE DUP1 ISZERO PUSH2 0xC7 JUMPI PUSH1 0x0 DUP1 REVERT JUMPDEST POP PUSH2 0xD0 PUSH2 0x140 JUMP JUMPDEST PUSH1 0x40 MLOAD PUSH2 0xDD SWAP2 SWAP1 PUSH2 0x2CB JUMP JUMPDEST PUSH1 0x40 MLOAD DUP1 SWAP2 SUB SWAP1 RETURN JUMPDEST CALLVALUE DUP1 ISZERO PUSH2 0xF2 JUMPI PUSH1 0x0 DUP1 REVERT JUMPDEST POP PUSH2 0xFB PUSH2 0x146 JUMP JUMPDEST STOP JUMPDEST PUSH2 0x105 PUSH2 0x18F JUMP JUMPDEST STOP JUMPDEST CALLVALUE DUP1 ISZERO PUSH2 0x113 JUMPI PUSH1 0x0 DUP1 REVERT JUMPDEST POP PUSH2 0x11C PUSH2 0x25A JUMP JUMPDEST PUSH1 0x40 MLOAD PUSH2 0x129 SWAP2 SWAP1 PUSH2 0x365 JUMP JUMPDEST PUSH1 0x40 MLOAD DUP1 SWAP2 SUB SWAP1 RETURN JUMPDEST PUSH1 0x0 SELFBALANCE SWAP1 POP SWAP1 JUMP JUMPDEST PUSH1 0x2 SLOAD DUP2 JUMP JUMPDEST PUSH1 0x1 SLOAD DUP2 JUMP JUMPDEST CALLER PUSH20 0xFFFFFFFFFFFFFFFFFFFFFFFFFFFFFFFFFFFFFFFF AND PUSH2 0x8FC SELFBALANCE SWAP1 DUP2 ISZERO MUL SWAP1 PUSH1 0x40 MLOAD PUSH1 0x0 PUSH1 0x40 MLOAD DUP1 DUP4 SUB DUP2 DUP6 DUP9 DUP9 CALL SWAP4 POP POP POP POP ISZERO DUP1 ISZERO PUSH2 0x18C JUMPI RETURNDATASIZE PUSH1 0x0 DUP1 RETURNDATACOPY RETURNDATASIZE PUSH1 0x0 REVERT JUMPDEST POP JUMP JUMPDEST PUSH1 0x0 PUSH1 0x1 SLOAD PUSH1 0x2 SLOAD PUSH1 0x40 MLOAD PUSH1 0x20 ADD PUSH2 0x1A8 SWAP3 SWAP2 SWAP1 PUSH2 0x3C2 JUMP JUMPDEST PUSH1 0x40 MLOAD PUSH1 0x20 DUP2 DUP4 SUB SUB DUP2 MSTORE SWAP1 PUSH1 0x40 MSTORE DUP1 MLOAD SWAP1 PUSH1 0x20 ADD KECCAK256 PUSH1 0x0 SHR SWAP1 POP PUSH1 0x0 DUP1 SLOAD SWAP1 PUSH2 0x100 EXP SWAP1 DIV PUSH20 0xFFFFFFFFFFFFFFFFFFFFFFFFFFFFFFFFFFFFFFFF AND PUSH20 0xFFFFFFFFFFFFFFFFFFFFFFFFFFFFFFFFFFFFFFFF AND PUSH4 0x4BA4C16B PUSH8 0xDE0B6B3A7640000 DUP4 PUSH1 0x40 MLOAD DUP4 PUSH4 0xFFFFFFFF AND PUSH1 0xE0 SHL DUP2 MSTORE PUSH1 0x4 ADD PUSH2 0x225 SWAP2 SWAP1 PUSH2 0x40A JUMP JUMPDEST PUSH1 0x0 PUSH1 0x40 MLOAD DUP1 DUP4 SUB DUP2 DUP6 DUP9 DUP1 EXTCODESIZE ISZERO DUP1 ISZERO PUSH2 0x23E JUMPI PUSH1 0x0 DUP1 REVERT JUMPDEST POP GAS CALL ISZERO DUP1 ISZERO PUSH2 0x252 JUMPI RETURNDATASIZE PUSH1 0x0 DUP1 RETURNDATACOPY RETURNDATASIZE PUSH1 0x0 REVERT JUMPDEST POP POP POP POP POP POP JUMP JUMPDEST PUSH1 0x0 DUP1 SLOAD SWAP1 PUSH2 0x100 EXP SWAP1 DIV PUSH20 0xFFFFFFFFFFFFFFFFFFFFFFFFFFFFFFFFFFFFFFFF AND DUP2 JUMP JUMPDEST PUSH1 0x0 DUP2 SWAP1 POP SWAP2 SWAP1 POP JUMP JUMPDEST PUSH2 0x291 DUP2 PUSH2 0x27E JUMP JUMPDEST DUP3 MSTORE POP POP JUMP JUMPDEST PUSH1 0x0 PUSH1 0x20 DUP3 ADD SWAP1 POP PUSH2 0x2AC PUSH1 0x0 DUP4 ADD DUP5 PUSH2 0x288 JUMP JUMPDEST SWAP3 SWAP2 POP POP JUMP JUMPDEST PUSH1 0x0 DUP2 SWAP1 POP SWAP2 SWAP1 POP JUMP JUMPDEST PUSH2 0x2C5 DUP2 PUSH2 0x2B2 JUMP JUMPDEST DUP3 MSTORE POP POP JUMP JUMPDEST PUSH1 0x0 PUSH1 0x20 DUP3 ADD SWAP1 POP PUSH2 0x2E0 PUSH1 0x0 DUP4 ADD DUP5 PUSH2 0x2BC JUMP JUMPDEST SWAP3 SWAP2 POP POP JUMP JUMPDEST PUSH1 0x0 PUSH20 0xFFFFFFFFFFFFFFFFFFFFFFFFFFFFFFFFFFFFFFFF DUP3 AND SWAP1 POP SWAP2 SWAP1 POP JUMP JUMPDEST PUSH1 0x0 DUP2 SWAP1 POP SWAP2 SWAP1 POP JUMP JUMPDEST PUSH1 0x0 PUSH2 0x32B PUSH2 0x326 PUSH2 0x321 DUP5 PUSH2 0x2E6 JUMP JUMPDEST PUSH2 0x306 JUMP JUMPDEST PUSH2 0x2E6 JUMP JUMPDEST SWAP1 POP SWAP2 SWAP1 POP JUMP JUMPDEST PUSH1 0x0 PUSH2 0x33D DUP3 PUSH2 0x310 JUMP JUMPDEST SWAP1 POP SWAP2 SWAP1 POP JUMP JUMPDEST PUSH1 0x0 PUSH2 0x34F DUP3 PUSH2 0x332 JUMP JUMPDEST SWAP1 POP SWAP2 SWAP1 POP JUMP JUMPDEST PUSH2 0x35F DUP2 PUSH2 0x344 JUMP JUMPDEST DUP3 MSTORE POP POP JUMP JUMPDEST PUSH1 0x0 PUSH1 0x20 DUP3 ADD SWAP1 POP PUSH2 0x37A PUSH1 0x0 DUP4 ADD DUP5 PUSH2 0x356 JUMP JUMPDEST SWAP3 SWAP2 POP POP JUMP JUMPDEST PUSH1 0x0 DUP2 SWAP1 POP SWAP2 SWAP1 POP JUMP JUMPDEST PUSH2 0x39B PUSH2 0x396 DUP3 PUSH2 0x2B2 JUMP JUMPDEST PUSH2 0x380 JUMP JUMPDEST DUP3 MSTORE POP POP JUMP JUMPDEST PUSH1 0x0 DUP2 SWAP1 POP SWAP2 SWAP1 POP JUMP JUMPDEST PUSH2 0x3BC PUSH2 0x3B7 DUP3 PUSH2 0x27E JUMP JUMPDEST PUSH2 0x3A1 JUMP JUMPDEST DUP3 MSTORE POP POP JUMP JUMPDEST PUSH1 0x0 PUSH2 0x3CE DUP3 DUP6 PUSH2 0x38A JUMP JUMPDEST PUSH1 0x20 DUP3 ADD SWAP2 POP PUSH2 0x3DE DUP3 DUP5 PUSH2 0x3AB JUMP JUMPDEST PUSH1 0x20 DUP3 ADD SWAP2 POP DUP2 SWAP1 POP SWAP4 SWAP3 POP POP POP JUMP JUMPDEST PUSH1 0x0 PUSH1 0xFF DUP3 AND SWAP1 POP SWAP2 SWAP1 POP JUMP JUMPDEST PUSH2 0x404 DUP2 PUSH2 0x3EE JUMP JUMPDEST DUP3 MSTORE POP POP JUMP JUMPDEST PUSH1 0x0 PUSH1 0x20 DUP3 ADD SWAP1 POP PUSH2 0x41F PUSH1 0x0 DUP4 ADD DUP5 PUSH2 0x3FB JUMP JUMPDEST SWAP3 SWAP2 POP POP JUMP INVALID LOG2 PUSH5 0x6970667358 0x22 SLT KECCAK256 CALLDATACOPY DUP13 GT 0xE9 0xAC PUSH11 0x2CB21CB2298F3715A3D894 0xBB 0xD7 0xB0 MSTORE 0xE0 PUSH11 0xDFF578B497B6A11576473 PUSH16 0x6C634300080A00330000000000000000 "
				},
				"gasEstimates": {
					"creation": {
						"codeDepositCost": "223000",
						"executionCost": "infinite",
						"totalCost": "infinite"
					},
					"external": {
						"_interface()": "infinite",
						"getBalance()": "317",
						"previousBlockHash()": "2451",
						"previousTimestamp()": "2429",
						"solve()": "infinite",
						"withdraw()": "infinite"
					}
				},
				"methodIdentifiers": {
					"_interface()": "9e542918",
					"getBalance()": "12065fe0",
					"previousBlockHash()": "257aeacc",
					"previousTimestamp()": "1d9ff6e4",
					"solve()": "890d6908",
					"withdraw()": "3ccfd60b"
				}
			},
			"storageLayout": {
				"storage": [
					{
						"astId": 10,
						"contract": "CaptureTheEther/GuessTheRandomNumberHack.sol:GTRNha",
						"label": "_interface",
						"offset": 0,
						"slot": "0",
						"type": "t_contract(IGuessTheRandomNumberChallenge)7"
					},
					{
						"astId": 13,
						"contract": "CaptureTheEther/GuessTheRandomNumberHack.sol:GTRNha",
						"label": "previousBlockHash",
						"offset": 0,
						"slot": "1",
						"type": "t_bytes32"
					},
					{
						"astId": 16,
						"contract": "CaptureTheEther/GuessTheRandomNumberHack.sol:GTRNha",
						"label": "previousTimestamp",
						"offset": 0,
						"slot": "2",
						"type": "t_uint256"
					}
				],
				"types": {
					"t_bytes32": {
						"encoding": "inplace",
						"label": "bytes32",
						"numberOfBytes": "32"
					},
					"t_contract(IGuessTheRandomNumberChallenge)7": {
						"encoding": "inplace",
						"label": "contract IGuessTheRandomNumberChallenge",
						"numberOfBytes": "20"
					},
					"t_uint256": {
						"encoding": "inplace",
						"label": "uint256",
						"numberOfBytes": "32"
					}
				}
			},
			"userdoc": {
				"kind": "user",
				"methods": {},
				"version": 1
			}
		}
	}
}