{
	"CaptureTheEther/PredictTheBlockHash.sol": {
		"PredictTheBlockHashChallenge": {
			"abi": [
				{
					"constant": false,
					"inputs": [],
					"name": "settle",
					"outputs": [],
					"payable": false,
					"stateMutability": "nonpayable",
					"type": "function"
				},
				{
					"constant": true,
					"inputs": [],
					"name": "isComplete",
					"outputs": [
						{
							"name": "",
							"type": "bool"
						}
					],
					"payable": false,
					"stateMutability": "view",
					"type": "function"
				},
				{
					"constant": false,
					"inputs": [
						{
							"name": "hash",
							"type": "bytes32"
						}
					],
					"name": "lockInGuess",
					"outputs": [],
					"payable": true,
					"stateMutability": "payable",
					"type": "function"
				},
				{
					"inputs": [],
					"payable": true,
					"stateMutability": "payable",
					"type": "constructor"
				}
			],
			"devdoc": {
				"methods": {}
			},
			"evm": {
				"assembly": "    /* \"CaptureTheEther/PredictTheBlockHash.sol\":26:894  contract PredictTheBlockHashChallenge {... */\n  mstore(0x40, 0x80)\n    /* \"CaptureTheEther/PredictTheBlockHash.sol\":232:239  1 ether */\n  0xde0b6b3a7640000\n    /* \"CaptureTheEther/PredictTheBlockHash.sol\":219:228  msg.value */\n  callvalue\n    /* \"CaptureTheEther/PredictTheBlockHash.sol\":219:239  msg.value == 1 ether */\n  eq\n    /* \"CaptureTheEther/PredictTheBlockHash.sol\":211:240  require(msg.value == 1 ether) */\n  iszero\n  iszero\n  tag_3\n  jumpi\n  0x0\n  dup1\n  revert\ntag_3:\n    /* \"CaptureTheEther/PredictTheBlockHash.sol\":26:894  contract PredictTheBlockHashChallenge {... */\n  dataSize(sub_0)\n  dup1\n  dataOffset(sub_0)\n  0x0\n  codecopy\n  0x0\n  return\nstop\n\nsub_0: assembly {\n        /* \"CaptureTheEther/PredictTheBlockHash.sol\":26:894  contract PredictTheBlockHashChallenge {... */\n      mstore(0x40, 0x80)\n      jumpi(tag_1, lt(calldatasize, 0x4))\n      calldataload(0x0)\n      0x100000000000000000000000000000000000000000000000000000000\n      swap1\n      div\n      0xffffffff\n      and\n      dup1\n      0x11da60b4\n      eq\n      tag_2\n      jumpi\n      dup1\n      0xb2fa1c9e\n      eq\n      tag_3\n      jumpi\n      dup1\n      0xed7f559c\n      eq\n      tag_4\n      jumpi\n    tag_1:\n      0x0\n      dup1\n      revert\n        /* \"CaptureTheEther/PredictTheBlockHash.sol\":594:892  function settle() public {... */\n    tag_2:\n      callvalue\n        /* \"--CODEGEN--\":8:17   */\n      dup1\n        /* \"--CODEGEN--\":5:7   */\n      iszero\n      tag_5\n      jumpi\n        /* \"--CODEGEN--\":30:31   */\n      0x0\n        /* \"--CODEGEN--\":27:28   */\n      dup1\n        /* \"--CODEGEN--\":20:32   */\n      revert\n        /* \"--CODEGEN--\":5:7   */\n    tag_5:\n        /* \"CaptureTheEther/PredictTheBlockHash.sol\":594:892  function settle() public {... */\n      pop\n      tag_6\n      jump(tag_7)\n    tag_6:\n      stop\n        /* \"CaptureTheEther/PredictTheBlockHash.sol\":253:352  function isComplete() public view returns (bool) {... */\n    tag_3:\n      callvalue\n        /* \"--CODEGEN--\":8:17   */\n      dup1\n        /* \"--CODEGEN--\":5:7   */\n      iszero\n      tag_8\n      jumpi\n        /* \"--CODEGEN--\":30:31   */\n      0x0\n        /* \"--CODEGEN--\":27:28   */\n      dup1\n        /* \"--CODEGEN--\":20:32   */\n      revert\n        /* \"--CODEGEN--\":5:7   */\n    tag_8:\n        /* \"CaptureTheEther/PredictTheBlockHash.sol\":253:352  function isComplete() public view returns (bool) {... */\n      pop\n      tag_9\n      jump(tag_10)\n    tag_9:\n      mload(0x40)\n      dup1\n      dup3\n      iszero\n      iszero\n      iszero\n      iszero\n      dup2\n      mstore\n      0x20\n      add\n      swap2\n      pop\n      pop\n      mload(0x40)\n      dup1\n      swap2\n      sub\n      swap1\n      return\n        /* \"CaptureTheEther/PredictTheBlockHash.sol\":358:588  function lockInGuess(bytes32 hash) public payable {... */\n    tag_4:\n      tag_11\n      0x4\n      dup1\n      calldatasize\n      sub\n      dup2\n      add\n      swap1\n      dup1\n      dup1\n      calldataload\n      not(0x0)\n      and\n      swap1\n      0x20\n      add\n      swap1\n      swap3\n      swap2\n      swap1\n      pop\n      pop\n      pop\n      jump(tag_12)\n    tag_11:\n      stop\n        /* \"CaptureTheEther/PredictTheBlockHash.sol\":594:892  function settle() public {... */\n    tag_7:\n        /* \"CaptureTheEther/PredictTheBlockHash.sol\":725:739  bytes32 answer */\n      0x0\n        /* \"CaptureTheEther/PredictTheBlockHash.sol\":651:658  guesser */\n      dup1\n      0x0\n      swap1\n      sload\n      swap1\n      0x100\n      exp\n      swap1\n      div\n      0xffffffffffffffffffffffffffffffffffffffff\n      and\n        /* \"CaptureTheEther/PredictTheBlockHash.sol\":637:658  msg.sender == guesser */\n      0xffffffffffffffffffffffffffffffffffffffff\n      and\n        /* \"CaptureTheEther/PredictTheBlockHash.sol\":637:647  msg.sender */\n      caller\n        /* \"CaptureTheEther/PredictTheBlockHash.sol\":637:658  msg.sender == guesser */\n      0xffffffffffffffffffffffffffffffffffffffff\n      and\n      eq\n        /* \"CaptureTheEther/PredictTheBlockHash.sol\":629:659  require(msg.sender == guesser) */\n      iszero\n      iszero\n      tag_14\n      jumpi\n      0x0\n      dup1\n      revert\n    tag_14:\n        /* \"CaptureTheEther/PredictTheBlockHash.sol\":692:713  settlementBlockNumber */\n      sload(0x2)\n        /* \"CaptureTheEther/PredictTheBlockHash.sol\":677:689  block.number */\n      number\n        /* \"CaptureTheEther/PredictTheBlockHash.sol\":677:713  block.number > settlementBlockNumber */\n      gt\n        /* \"CaptureTheEther/PredictTheBlockHash.sol\":669:714  require(block.number > settlementBlockNumber) */\n      iszero\n      iszero\n      tag_15\n      jumpi\n      0x0\n      dup1\n      revert\n    tag_15:\n        /* \"CaptureTheEther/PredictTheBlockHash.sol\":758:779  settlementBlockNumber */\n      sload(0x2)\n        /* \"CaptureTheEther/PredictTheBlockHash.sol\":742:780  block.blockhash(settlementBlockNumber) */\n      blockhash\n        /* \"CaptureTheEther/PredictTheBlockHash.sol\":725:780  bytes32 answer = block.blockhash(settlementBlockNumber) */\n      swap1\n      pop\n        /* \"CaptureTheEther/PredictTheBlockHash.sol\":801:802  0 */\n      0x0\n        /* \"CaptureTheEther/PredictTheBlockHash.sol\":791:798  guesser */\n      dup1\n      0x0\n        /* \"CaptureTheEther/PredictTheBlockHash.sol\":791:802  guesser = 0 */\n      0x100\n      exp\n      dup2\n      sload\n      dup2\n      0xffffffffffffffffffffffffffffffffffffffff\n      mul\n      not\n      and\n      swap1\n      dup4\n      0xffffffffffffffffffffffffffffffffffffffff\n      and\n      mul\n      or\n      swap1\n      sstore\n      pop\n        /* \"CaptureTheEther/PredictTheBlockHash.sol\":825:831  answer */\n      dup1\n        /* \"CaptureTheEther/PredictTheBlockHash.sol\":816:831  guess == answer */\n      not(0x0)\n      and\n        /* \"CaptureTheEther/PredictTheBlockHash.sol\":816:821  guess */\n      sload(0x1)\n        /* \"CaptureTheEther/PredictTheBlockHash.sol\":816:831  guess == answer */\n      not(0x0)\n      and\n      eq\n        /* \"CaptureTheEther/PredictTheBlockHash.sol\":812:886  if (guess == answer) {... */\n      iszero\n      tag_16\n      jumpi\n        /* \"CaptureTheEther/PredictTheBlockHash.sol\":847:857  msg.sender */\n      caller\n        /* \"CaptureTheEther/PredictTheBlockHash.sol\":847:866  msg.sender.transfer */\n      0xffffffffffffffffffffffffffffffffffffffff\n      and\n        /* \"CaptureTheEther/PredictTheBlockHash.sol\":847:875  msg.sender.transfer(2 ether) */\n      0x8fc\n        /* \"CaptureTheEther/PredictTheBlockHash.sol\":867:874  2 ether */\n      0x1bc16d674ec80000\n        /* \"CaptureTheEther/PredictTheBlockHash.sol\":847:875  msg.sender.transfer(2 ether) */\n      swap1\n      dup2\n      iszero\n      mul\n      swap1\n      mload(0x40)\n      0x0\n      mload(0x40)\n      dup1\n      dup4\n      sub\n      dup2\n      dup6\n      dup9\n      dup9\n      call\n      swap4\n      pop\n      pop\n      pop\n      pop\n      iszero\n        /* \"--CODEGEN--\":8:17   */\n      dup1\n        /* \"--CODEGEN--\":5:7   */\n      iszero\n      tag_17\n      jumpi\n        /* \"--CODEGEN--\":45:61   */\n      returndatasize\n        /* \"--CODEGEN--\":42:43   */\n      0x0\n        /* \"--CODEGEN--\":39:40   */\n      dup1\n        /* \"--CODEGEN--\":24:62   */\n      returndatacopy\n        /* \"--CODEGEN--\":77:93   */\n      returndatasize\n        /* \"--CODEGEN--\":74:75   */\n      0x0\n        /* \"--CODEGEN--\":67:94   */\n      revert\n        /* \"--CODEGEN--\":5:7   */\n    tag_17:\n        /* \"CaptureTheEther/PredictTheBlockHash.sol\":847:875  msg.sender.transfer(2 ether) */\n      pop\n        /* \"CaptureTheEther/PredictTheBlockHash.sol\":812:886  if (guess == answer) {... */\n    tag_16:\n        /* \"CaptureTheEther/PredictTheBlockHash.sol\":594:892  function settle() public {... */\n      pop\n      jump\t// out\n        /* \"CaptureTheEther/PredictTheBlockHash.sol\":253:352  function isComplete() public view returns (bool) {... */\n    tag_10:\n        /* \"CaptureTheEther/PredictTheBlockHash.sol\":296:300  bool */\n      0x0\n        /* \"CaptureTheEther/PredictTheBlockHash.sol\":344:345  0 */\n      dup1\n        /* \"CaptureTheEther/PredictTheBlockHash.sol\":327:331  this */\n      address\n        /* \"CaptureTheEther/PredictTheBlockHash.sol\":319:340  address(this).balance */\n      0xffffffffffffffffffffffffffffffffffffffff\n      and\n      balance\n        /* \"CaptureTheEther/PredictTheBlockHash.sol\":319:345  address(this).balance == 0 */\n      eq\n        /* \"CaptureTheEther/PredictTheBlockHash.sol\":312:345  return address(this).balance == 0 */\n      swap1\n      pop\n        /* \"CaptureTheEther/PredictTheBlockHash.sol\":253:352  function isComplete() public view returns (bool) {... */\n      swap1\n      jump\t// out\n        /* \"CaptureTheEther/PredictTheBlockHash.sol\":358:588  function lockInGuess(bytes32 hash) public payable {... */\n    tag_12:\n        /* \"CaptureTheEther/PredictTheBlockHash.sol\":437:438  0 */\n      0x0\n        /* \"CaptureTheEther/PredictTheBlockHash.sol\":426:433  guesser */\n      dup1\n      0x0\n      swap1\n      sload\n      swap1\n      0x100\n      exp\n      swap1\n      div\n      0xffffffffffffffffffffffffffffffffffffffff\n      and\n        /* \"CaptureTheEther/PredictTheBlockHash.sol\":426:438  guesser == 0 */\n      0xffffffffffffffffffffffffffffffffffffffff\n      and\n      eq\n        /* \"CaptureTheEther/PredictTheBlockHash.sol\":418:439  require(guesser == 0) */\n      iszero\n      iszero\n      tag_20\n      jumpi\n      0x0\n      dup1\n      revert\n    tag_20:\n        /* \"CaptureTheEther/PredictTheBlockHash.sol\":470:477  1 ether */\n      0xde0b6b3a7640000\n        /* \"CaptureTheEther/PredictTheBlockHash.sol\":457:466  msg.value */\n      callvalue\n        /* \"CaptureTheEther/PredictTheBlockHash.sol\":457:477  msg.value == 1 ether */\n      eq\n        /* \"CaptureTheEther/PredictTheBlockHash.sol\":449:478  require(msg.value == 1 ether) */\n      iszero\n      iszero\n      tag_21\n      jumpi\n      0x0\n      dup1\n      revert\n    tag_21:\n        /* \"CaptureTheEther/PredictTheBlockHash.sol\":499:509  msg.sender */\n      caller\n        /* \"CaptureTheEther/PredictTheBlockHash.sol\":489:496  guesser */\n      0x0\n      dup1\n        /* \"CaptureTheEther/PredictTheBlockHash.sol\":489:509  guesser = msg.sender */\n      0x100\n      exp\n      dup2\n      sload\n      dup2\n      0xffffffffffffffffffffffffffffffffffffffff\n      mul\n      not\n      and\n      swap1\n      dup4\n      0xffffffffffffffffffffffffffffffffffffffff\n      and\n      mul\n      or\n      swap1\n      sstore\n      pop\n        /* \"CaptureTheEther/PredictTheBlockHash.sol\":527:531  hash */\n      dup1\n        /* \"CaptureTheEther/PredictTheBlockHash.sol\":519:524  guess */\n      0x1\n        /* \"CaptureTheEther/PredictTheBlockHash.sol\":519:531  guess = hash */\n      dup2\n      not(0x0)\n      and\n      swap1\n      sstore\n      pop\n        /* \"CaptureTheEther/PredictTheBlockHash.sol\":580:581  1 */\n      0x1\n        /* \"CaptureTheEther/PredictTheBlockHash.sol\":565:577  block.number */\n      number\n        /* \"CaptureTheEther/PredictTheBlockHash.sol\":565:581  block.number + 1 */\n      add\n        /* \"CaptureTheEther/PredictTheBlockHash.sol\":541:562  settlementBlockNumber */\n      0x2\n        /* \"CaptureTheEther/PredictTheBlockHash.sol\":541:581  settlementBlockNumber = block.number + 1 */\n      dup2\n      swap1\n      sstore\n      pop\n        /* \"CaptureTheEther/PredictTheBlockHash.sol\":358:588  function lockInGuess(bytes32 hash) public payable {... */\n      pop\n      jump\t// out\n\n    auxdata: 0xa165627a7a72305820de14c11b16479fc8e6a2e2ac64435ca86709fbfc56d851507172211279ca635f0029\n}\n",
				"bytecode": {
					"linkReferences": {},
					"object": "6080604052670de0b6b3a76400003414151561001a57600080fd5b6102e0806100296000396000f300608060405260043610610057576000357c0100000000000000000000000000000000000000000000000000000000900463ffffffff16806311da60b41461005c578063b2fa1c9e14610073578063ed7f559c146100a2575b600080fd5b34801561006857600080fd5b506100716100c6565b005b34801561007f57600080fd5b506100886101df565b604051808215151515815260200191505060405180910390f35b6100c46004803603810190808035600019169060200190929190505050610200565b005b60008060009054906101000a900473ffffffffffffffffffffffffffffffffffffffff1673ffffffffffffffffffffffffffffffffffffffff163373ffffffffffffffffffffffffffffffffffffffff1614151561012357600080fd5b6002544311151561013357600080fd5b60025440905060008060006101000a81548173ffffffffffffffffffffffffffffffffffffffff021916908373ffffffffffffffffffffffffffffffffffffffff16021790555080600019166001546000191614156101dc573373ffffffffffffffffffffffffffffffffffffffff166108fc671bc16d674ec800009081150290604051600060405180830381858888f193505050501580156101da573d6000803e3d6000fd5b505b50565b6000803073ffffffffffffffffffffffffffffffffffffffff163114905090565b60008060009054906101000a900473ffffffffffffffffffffffffffffffffffffffff1673ffffffffffffffffffffffffffffffffffffffff1614151561024657600080fd5b670de0b6b3a76400003414151561025c57600080fd5b336000806101000a81548173ffffffffffffffffffffffffffffffffffffffff021916908373ffffffffffffffffffffffffffffffffffffffff160217905550806001816000191690555060014301600281905550505600a165627a7a72305820de14c11b16479fc8e6a2e2ac64435ca86709fbfc56d851507172211279ca635f0029",
					"opcodes": "PUSH1 0x80 PUSH1 0x40 MSTORE PUSH8 0xDE0B6B3A7640000 CALLVALUE EQ ISZERO ISZERO PUSH2 0x1A JUMPI PUSH1 0x0 DUP1 REVERT JUMPDEST PUSH2 0x2E0 DUP1 PUSH2 0x29 PUSH1 0x0 CODECOPY PUSH1 0x0 RETURN STOP PUSH1 0x80 PUSH1 0x40 MSTORE PUSH1 0x4 CALLDATASIZE LT PUSH2 0x57 JUMPI PUSH1 0x0 CALLDATALOAD PUSH29 0x100000000000000000000000000000000000000000000000000000000 SWAP1 DIV PUSH4 0xFFFFFFFF AND DUP1 PUSH4 0x11DA60B4 EQ PUSH2 0x5C JUMPI DUP1 PUSH4 0xB2FA1C9E EQ PUSH2 0x73 JUMPI DUP1 PUSH4 0xED7F559C EQ PUSH2 0xA2 JUMPI JUMPDEST PUSH1 0x0 DUP1 REVERT JUMPDEST CALLVALUE DUP1 ISZERO PUSH2 0x68 JUMPI PUSH1 0x0 DUP1 REVERT JUMPDEST POP PUSH2 0x71 PUSH2 0xC6 JUMP JUMPDEST STOP JUMPDEST CALLVALUE DUP1 ISZERO PUSH2 0x7F JUMPI PUSH1 0x0 DUP1 REVERT JUMPDEST POP PUSH2 0x88 PUSH2 0x1DF JUMP JUMPDEST PUSH1 0x40 MLOAD DUP1 DUP3 ISZERO ISZERO ISZERO ISZERO DUP2 MSTORE PUSH1 0x20 ADD SWAP2 POP POP PUSH1 0x40 MLOAD DUP1 SWAP2 SUB SWAP1 RETURN JUMPDEST PUSH2 0xC4 PUSH1 0x4 DUP1 CALLDATASIZE SUB DUP2 ADD SWAP1 DUP1 DUP1 CALLDATALOAD PUSH1 0x0 NOT AND SWAP1 PUSH1 0x20 ADD SWAP1 SWAP3 SWAP2 SWAP1 POP POP POP PUSH2 0x200 JUMP JUMPDEST STOP JUMPDEST PUSH1 0x0 DUP1 PUSH1 0x0 SWAP1 SLOAD SWAP1 PUSH2 0x100 EXP SWAP1 DIV PUSH20 0xFFFFFFFFFFFFFFFFFFFFFFFFFFFFFFFFFFFFFFFF AND PUSH20 0xFFFFFFFFFFFFFFFFFFFFFFFFFFFFFFFFFFFFFFFF AND CALLER PUSH20 0xFFFFFFFFFFFFFFFFFFFFFFFFFFFFFFFFFFFFFFFF AND EQ ISZERO ISZERO PUSH2 0x123 JUMPI PUSH1 0x0 DUP1 REVERT JUMPDEST PUSH1 0x2 SLOAD NUMBER GT ISZERO ISZERO PUSH2 0x133 JUMPI PUSH1 0x0 DUP1 REVERT JUMPDEST PUSH1 0x2 SLOAD BLOCKHASH SWAP1 POP PUSH1 0x0 DUP1 PUSH1 0x0 PUSH2 0x100 EXP DUP2 SLOAD DUP2 PUSH20 0xFFFFFFFFFFFFFFFFFFFFFFFFFFFFFFFFFFFFFFFF MUL NOT AND SWAP1 DUP4 PUSH20 0xFFFFFFFFFFFFFFFFFFFFFFFFFFFFFFFFFFFFFFFF AND MUL OR SWAP1 SSTORE POP DUP1 PUSH1 0x0 NOT AND PUSH1 0x1 SLOAD PUSH1 0x0 NOT AND EQ ISZERO PUSH2 0x1DC JUMPI CALLER PUSH20 0xFFFFFFFFFFFFFFFFFFFFFFFFFFFFFFFFFFFFFFFF AND PUSH2 0x8FC PUSH8 0x1BC16D674EC80000 SWAP1 DUP2 ISZERO MUL SWAP1 PUSH1 0x40 MLOAD PUSH1 0x0 PUSH1 0x40 MLOAD DUP1 DUP4 SUB DUP2 DUP6 DUP9 DUP9 CALL SWAP4 POP POP POP POP ISZERO DUP1 ISZERO PUSH2 0x1DA JUMPI RETURNDATASIZE PUSH1 0x0 DUP1 RETURNDATACOPY RETURNDATASIZE PUSH1 0x0 REVERT JUMPDEST POP JUMPDEST POP JUMP JUMPDEST PUSH1 0x0 DUP1 ADDRESS PUSH20 0xFFFFFFFFFFFFFFFFFFFFFFFFFFFFFFFFFFFFFFFF AND BALANCE EQ SWAP1 POP SWAP1 JUMP JUMPDEST PUSH1 0x0 DUP1 PUSH1 0x0 SWAP1 SLOAD SWAP1 PUSH2 0x100 EXP SWAP1 DIV PUSH20 0xFFFFFFFFFFFFFFFFFFFFFFFFFFFFFFFFFFFFFFFF AND PUSH20 0xFFFFFFFFFFFFFFFFFFFFFFFFFFFFFFFFFFFFFFFF AND EQ ISZERO ISZERO PUSH2 0x246 JUMPI PUSH1 0x0 DUP1 REVERT JUMPDEST PUSH8 0xDE0B6B3A7640000 CALLVALUE EQ ISZERO ISZERO PUSH2 0x25C JUMPI PUSH1 0x0 DUP1 REVERT JUMPDEST CALLER PUSH1 0x0 DUP1 PUSH2 0x100 EXP DUP2 SLOAD DUP2 PUSH20 0xFFFFFFFFFFFFFFFFFFFFFFFFFFFFFFFFFFFFFFFF MUL NOT AND SWAP1 DUP4 PUSH20 0xFFFFFFFFFFFFFFFFFFFFFFFFFFFFFFFFFFFFFFFF AND MUL OR SWAP1 SSTORE POP DUP1 PUSH1 0x1 DUP2 PUSH1 0x0 NOT AND SWAP1 SSTORE POP PUSH1 0x1 NUMBER ADD PUSH1 0x2 DUP2 SWAP1 SSTORE POP POP JUMP STOP LOG1 PUSH6 0x627A7A723058 KECCAK256 0xde EQ 0xc1 SHL AND 0x47 SWAP16 0xc8 0xe6 LOG2 0xe2 0xac PUSH5 0x435CA86709 CREATE2 0xfc JUMP 0xd8 MLOAD POP PUSH18 0x72211279CA635F0029000000000000000000 "
				},
				"gasEstimates": {
					"creation": {
						"codeDepositCost": "147200",
						"executionCost": "194",
						"totalCost": "147394"
					},
					"external": {
						"isComplete()": "647",
						"lockInGuess(bytes32)": "60827",
						"settle()": "infinite"
					}
				},
				"methodIdentifiers": {
					"isComplete()": "b2fa1c9e",
					"lockInGuess(bytes32)": "ed7f559c",
					"settle()": "11da60b4"
				}
			},
			"userdoc": {
				"methods": {}
			}
		}
	}
}