{
	"CaptureTheEther/ChooseANickname.sol": {
		"TestContract": {
			"abi": [
				{
					"constant": false,
					"inputs": [
						{
							"name": "_string",
							"type": "string"
						}
					],
					"name": "stringToBytes32Test",
					"outputs": [
						{
							"name": "",
							"type": "bytes32"
						}
					],
					"payable": false,
					"stateMutability": "nonpayable",
					"type": "function"
				},
				{
					"constant": true,
					"inputs": [
						{
							"name": "source",
							"type": "string"
						}
					],
					"name": "stringToBytes32",
					"outputs": [
						{
							"name": "result",
							"type": "bytes32"
						}
					],
					"payable": false,
					"stateMutability": "view",
					"type": "function"
				},
				{
					"constant": true,
					"inputs": [],
					"name": "lastTestBytes32Result",
					"outputs": [
						{
							"name": "",
							"type": "bytes32"
						}
					],
					"payable": false,
					"stateMutability": "view",
					"type": "function"
				}
			],
			"devdoc": {
				"methods": {}
			},
			"evm": {
				"assembly": "    /* \"CaptureTheEther/ChooseANickname.sol\":802:1522  contract TestContract {... */\n  mstore(0x40, 0x80)\n  callvalue\n    /* \"--CODEGEN--\":8:17   */\n  dup1\n    /* \"--CODEGEN--\":5:7   */\n  iszero\n  tag_1\n  jumpi\n    /* \"--CODEGEN--\":30:31   */\n  0x0\n    /* \"--CODEGEN--\":27:28   */\n  dup1\n    /* \"--CODEGEN--\":20:32   */\n  revert\n    /* \"--CODEGEN--\":5:7   */\ntag_1:\n    /* \"CaptureTheEther/ChooseANickname.sol\":802:1522  contract TestContract {... */\n  pop\n  dataSize(sub_0)\n  dup1\n  dataOffset(sub_0)\n  0x0\n  codecopy\n  0x0\n  return\nstop\n\nsub_0: assembly {\n        /* \"CaptureTheEther/ChooseANickname.sol\":802:1522  contract TestContract {... */\n      mstore(0x40, 0x80)\n      jumpi(tag_1, lt(calldatasize, 0x4))\n      calldataload(0x0)\n      0x100000000000000000000000000000000000000000000000000000000\n      swap1\n      div\n      0xffffffff\n      and\n      dup1\n      0x29f26059\n      eq\n      tag_2\n      jumpi\n      dup1\n      0xcfb51928\n      eq\n      tag_3\n      jumpi\n      dup1\n      0xf12c68fe\n      eq\n      tag_4\n      jumpi\n    tag_1:\n      0x0\n      dup1\n      revert\n        /* \"CaptureTheEther/ChooseANickname.sol\":1322:1520  function stringToBytes32Test(string _string) public  returns (bytes32) {... */\n    tag_2:\n      callvalue\n        /* \"--CODEGEN--\":8:17   */\n      dup1\n        /* \"--CODEGEN--\":5:7   */\n      iszero\n      tag_5\n      jumpi\n        /* \"--CODEGEN--\":30:31   */\n      0x0\n        /* \"--CODEGEN--\":27:28   */\n      dup1\n        /* \"--CODEGEN--\":20:32   */\n      revert\n        /* \"--CODEGEN--\":5:7   */\n    tag_5:\n        /* \"CaptureTheEther/ChooseANickname.sol\":1322:1520  function stringToBytes32Test(string _string) public  returns (bytes32) {... */\n      pop\n      tag_6\n      0x4\n      dup1\n      calldatasize\n      sub\n      dup2\n      add\n      swap1\n      dup1\n      dup1\n      calldataload\n      swap1\n      0x20\n      add\n      swap1\n      dup3\n      add\n      dup1\n      calldataload\n      swap1\n      0x20\n      add\n      swap1\n      dup1\n      dup1\n      0x1f\n      add\n      0x20\n      dup1\n      swap2\n      div\n      mul\n      0x20\n      add\n      mload(0x40)\n      swap1\n      dup2\n      add\n      0x40\n      mstore\n      dup1\n      swap4\n      swap3\n      swap2\n      swap1\n      dup2\n      dup2\n      mstore\n      0x20\n      add\n      dup4\n      dup4\n      dup1\n      dup3\n      dup5\n      calldatacopy\n      dup3\n      add\n      swap2\n      pop\n      pop\n      pop\n      pop\n      pop\n      pop\n      swap2\n      swap3\n      swap2\n      swap3\n      swap1\n      pop\n      pop\n      pop\n      jump(tag_7)\n    tag_6:\n      mload(0x40)\n      dup1\n      dup3\n      not(0x0)\n      and\n      not(0x0)\n      and\n      dup2\n      mstore\n      0x20\n      add\n      swap2\n      pop\n      pop\n      mload(0x40)\n      dup1\n      swap2\n      sub\n      swap1\n      return\n        /* \"CaptureTheEther/ChooseANickname.sol\":882:1316  function stringToBytes32(string memory source)  constant returns (bytes32 result) {... */\n    tag_3:\n      callvalue\n        /* \"--CODEGEN--\":8:17   */\n      dup1\n        /* \"--CODEGEN--\":5:7   */\n      iszero\n      tag_8\n      jumpi\n        /* \"--CODEGEN--\":30:31   */\n      0x0\n        /* \"--CODEGEN--\":27:28   */\n      dup1\n        /* \"--CODEGEN--\":20:32   */\n      revert\n        /* \"--CODEGEN--\":5:7   */\n    tag_8:\n        /* \"CaptureTheEther/ChooseANickname.sol\":882:1316  function stringToBytes32(string memory source)  constant returns (bytes32 result) {... */\n      pop\n      tag_9\n      0x4\n      dup1\n      calldatasize\n      sub\n      dup2\n      add\n      swap1\n      dup1\n      dup1\n      calldataload\n      swap1\n      0x20\n      add\n      swap1\n      dup3\n      add\n      dup1\n      calldataload\n      swap1\n      0x20\n      add\n      swap1\n      dup1\n      dup1\n      0x1f\n      add\n      0x20\n      dup1\n      swap2\n      div\n      mul\n      0x20\n      add\n      mload(0x40)\n      swap1\n      dup2\n      add\n      0x40\n      mstore\n      dup1\n      swap4\n      swap3\n      swap2\n      swap1\n      dup2\n      dup2\n      mstore\n      0x20\n      add\n      dup4\n      dup4\n      dup1\n      dup3\n      dup5\n      calldatacopy\n      dup3\n      add\n      swap2\n      pop\n      pop\n      pop\n      pop\n      pop\n      pop\n      swap2\n      swap3\n      swap2\n      swap3\n      swap1\n      pop\n      pop\n      pop\n      jump(tag_10)\n    tag_9:\n      mload(0x40)\n      dup1\n      dup3\n      not(0x0)\n      and\n      not(0x0)\n      and\n      dup2\n      mstore\n      0x20\n      add\n      swap2\n      pop\n      pop\n      mload(0x40)\n      dup1\n      swap2\n      sub\n      swap1\n      return\n        /* \"CaptureTheEther/ChooseANickname.sol\":835:871  bytes32 public lastTestBytes32Result */\n    tag_4:\n      callvalue\n        /* \"--CODEGEN--\":8:17   */\n      dup1\n        /* \"--CODEGEN--\":5:7   */\n      iszero\n      tag_11\n      jumpi\n        /* \"--CODEGEN--\":30:31   */\n      0x0\n        /* \"--CODEGEN--\":27:28   */\n      dup1\n        /* \"--CODEGEN--\":20:32   */\n      revert\n        /* \"--CODEGEN--\":5:7   */\n    tag_11:\n        /* \"CaptureTheEther/ChooseANickname.sol\":835:871  bytes32 public lastTestBytes32Result */\n      pop\n      tag_12\n      jump(tag_13)\n    tag_12:\n      mload(0x40)\n      dup1\n      dup3\n      not(0x0)\n      and\n      not(0x0)\n      and\n      dup2\n      mstore\n      0x20\n      add\n      swap2\n      pop\n      pop\n      mload(0x40)\n      dup1\n      swap2\n      sub\n      swap1\n      return\n        /* \"CaptureTheEther/ChooseANickname.sol\":1322:1520  function stringToBytes32Test(string _string) public  returns (bytes32) {... */\n    tag_7:\n        /* \"CaptureTheEther/ChooseANickname.sol\":1384:1391  bytes32 */\n      0x0\n        /* \"CaptureTheEther/ChooseANickname.sol\":1403:1419  bytes32 _bytes32 */\n      dup1\n        /* \"CaptureTheEther/ChooseANickname.sol\":1422:1446  stringToBytes32(_string) */\n      tag_15\n        /* \"CaptureTheEther/ChooseANickname.sol\":1438:1445  _string */\n      dup4\n        /* \"CaptureTheEther/ChooseANickname.sol\":1422:1437  stringToBytes32 */\n      tag_10\n        /* \"CaptureTheEther/ChooseANickname.sol\":1422:1446  stringToBytes32(_string) */\n      jump\t// in\n    tag_15:\n        /* \"CaptureTheEther/ChooseANickname.sol\":1403:1446  bytes32 _bytes32 = stringToBytes32(_string) */\n      swap1\n      pop\n        /* \"CaptureTheEther/ChooseANickname.sol\":1480:1488  _bytes32 */\n      dup1\n        /* \"CaptureTheEther/ChooseANickname.sol\":1456:1477  lastTestBytes32Result */\n      0x0\n        /* \"CaptureTheEther/ChooseANickname.sol\":1456:1488  lastTestBytes32Result = _bytes32 */\n      dup2\n      not(0x0)\n      and\n      swap1\n      sstore\n      pop\n        /* \"CaptureTheEther/ChooseANickname.sol\":1505:1513  _bytes32 */\n      dup1\n        /* \"CaptureTheEther/ChooseANickname.sol\":1498:1513  return _bytes32 */\n      swap2\n      pop\n        /* \"CaptureTheEther/ChooseANickname.sol\":1322:1520  function stringToBytes32Test(string _string) public  returns (bytes32) {... */\n      pop\n      swap2\n      swap1\n      pop\n      jump\t// out\n        /* \"CaptureTheEther/ChooseANickname.sol\":882:1316  function stringToBytes32(string memory source)  constant returns (bytes32 result) {... */\n    tag_10:\n        /* \"CaptureTheEther/ChooseANickname.sol\":948:962  bytes32 result */\n      0x0\n        /* \"CaptureTheEther/ChooseANickname.sol\":1296:1298  32 */\n      0x20\n        /* \"CaptureTheEther/ChooseANickname.sol\":1288:1294  source */\n      dup3\n        /* \"CaptureTheEther/ChooseANickname.sol\":1284:1299  add(source, 32) */\n      add\n        /* \"CaptureTheEther/ChooseANickname.sol\":1278:1300  mload(add(source, 32)) */\n      mload\n        /* \"CaptureTheEther/ChooseANickname.sol\":1268:1300  result := mload(add(source, 32)) */\n      swap1\n      pop\n        /* \"CaptureTheEther/ChooseANickname.sol\":1258:1310  {... */\n      swap2\n      swap1\n      pop\n      jump\t// out\n        /* \"CaptureTheEther/ChooseANickname.sol\":835:871  bytes32 public lastTestBytes32Result */\n    tag_13:\n      sload(0x0)\n      dup2\n      jump\t// out\n\n    auxdata: 0xa165627a7a723058206be85b953302d63e1659fefa16e6db697690d9a0a30227b9ce11d5bd6d2bcc5d0029\n}\n",
				"bytecode": {
					"linkReferences": {},
					"object": "608060405234801561001057600080fd5b506101fb806100206000396000f300608060405260043610610057576000357c0100000000000000000000000000000000000000000000000000000000900463ffffffff16806329f260591461005c578063cfb51928146100e1578063f12c68fe14610166575b600080fd5b34801561006857600080fd5b506100c3600480360381019080803590602001908201803590602001908080601f0160208091040260200160405190810160405280939291908181526020018383808284378201915050505050509192919290505050610199565b60405180826000191660001916815260200191505060405180910390f35b3480156100ed57600080fd5b50610148600480360381019080803590602001908201803590602001908080601f01602080910402602001604051908101604052809392919081815260200183838082843782019150505050505091929192905050506101bb565b60405180826000191660001916815260200191505060405180910390f35b34801561017257600080fd5b5061017b6101c9565b60405180826000191660001916815260200191505060405180910390f35b6000806101a5836101bb565b9050806000816000191690555080915050919050565b600060208201519050919050565b600054815600a165627a7a723058206be85b953302d63e1659fefa16e6db697690d9a0a30227b9ce11d5bd6d2bcc5d0029",
					"opcodes": "PUSH1 0x80 PUSH1 0x40 MSTORE CALLVALUE DUP1 ISZERO PUSH2 0x10 JUMPI PUSH1 0x0 DUP1 REVERT JUMPDEST POP PUSH2 0x1FB DUP1 PUSH2 0x20 PUSH1 0x0 CODECOPY PUSH1 0x0 RETURN STOP PUSH1 0x80 PUSH1 0x40 MSTORE PUSH1 0x4 CALLDATASIZE LT PUSH2 0x57 JUMPI PUSH1 0x0 CALLDATALOAD PUSH29 0x100000000000000000000000000000000000000000000000000000000 SWAP1 DIV PUSH4 0xFFFFFFFF AND DUP1 PUSH4 0x29F26059 EQ PUSH2 0x5C JUMPI DUP1 PUSH4 0xCFB51928 EQ PUSH2 0xE1 JUMPI DUP1 PUSH4 0xF12C68FE EQ PUSH2 0x166 JUMPI JUMPDEST PUSH1 0x0 DUP1 REVERT JUMPDEST CALLVALUE DUP1 ISZERO PUSH2 0x68 JUMPI PUSH1 0x0 DUP1 REVERT JUMPDEST POP PUSH2 0xC3 PUSH1 0x4 DUP1 CALLDATASIZE SUB DUP2 ADD SWAP1 DUP1 DUP1 CALLDATALOAD SWAP1 PUSH1 0x20 ADD SWAP1 DUP3 ADD DUP1 CALLDATALOAD SWAP1 PUSH1 0x20 ADD SWAP1 DUP1 DUP1 PUSH1 0x1F ADD PUSH1 0x20 DUP1 SWAP2 DIV MUL PUSH1 0x20 ADD PUSH1 0x40 MLOAD SWAP1 DUP2 ADD PUSH1 0x40 MSTORE DUP1 SWAP4 SWAP3 SWAP2 SWAP1 DUP2 DUP2 MSTORE PUSH1 0x20 ADD DUP4 DUP4 DUP1 DUP3 DUP5 CALLDATACOPY DUP3 ADD SWAP2 POP POP POP POP POP POP SWAP2 SWAP3 SWAP2 SWAP3 SWAP1 POP POP POP PUSH2 0x199 JUMP JUMPDEST PUSH1 0x40 MLOAD DUP1 DUP3 PUSH1 0x0 NOT AND PUSH1 0x0 NOT AND DUP2 MSTORE PUSH1 0x20 ADD SWAP2 POP POP PUSH1 0x40 MLOAD DUP1 SWAP2 SUB SWAP1 RETURN JUMPDEST CALLVALUE DUP1 ISZERO PUSH2 0xED JUMPI PUSH1 0x0 DUP1 REVERT JUMPDEST POP PUSH2 0x148 PUSH1 0x4 DUP1 CALLDATASIZE SUB DUP2 ADD SWAP1 DUP1 DUP1 CALLDATALOAD SWAP1 PUSH1 0x20 ADD SWAP1 DUP3 ADD DUP1 CALLDATALOAD SWAP1 PUSH1 0x20 ADD SWAP1 DUP1 DUP1 PUSH1 0x1F ADD PUSH1 0x20 DUP1 SWAP2 DIV MUL PUSH1 0x20 ADD PUSH1 0x40 MLOAD SWAP1 DUP2 ADD PUSH1 0x40 MSTORE DUP1 SWAP4 SWAP3 SWAP2 SWAP1 DUP2 DUP2 MSTORE PUSH1 0x20 ADD DUP4 DUP4 DUP1 DUP3 DUP5 CALLDATACOPY DUP3 ADD SWAP2 POP POP POP POP POP POP SWAP2 SWAP3 SWAP2 SWAP3 SWAP1 POP POP POP PUSH2 0x1BB JUMP JUMPDEST PUSH1 0x40 MLOAD DUP1 DUP3 PUSH1 0x0 NOT AND PUSH1 0x0 NOT AND DUP2 MSTORE PUSH1 0x20 ADD SWAP2 POP POP PUSH1 0x40 MLOAD DUP1 SWAP2 SUB SWAP1 RETURN JUMPDEST CALLVALUE DUP1 ISZERO PUSH2 0x172 JUMPI PUSH1 0x0 DUP1 REVERT JUMPDEST POP PUSH2 0x17B PUSH2 0x1C9 JUMP JUMPDEST PUSH1 0x40 MLOAD DUP1 DUP3 PUSH1 0x0 NOT AND PUSH1 0x0 NOT AND DUP2 MSTORE PUSH1 0x20 ADD SWAP2 POP POP PUSH1 0x40 MLOAD DUP1 SWAP2 SUB SWAP1 RETURN JUMPDEST PUSH1 0x0 DUP1 PUSH2 0x1A5 DUP4 PUSH2 0x1BB JUMP JUMPDEST SWAP1 POP DUP1 PUSH1 0x0 DUP2 PUSH1 0x0 NOT AND SWAP1 SSTORE POP DUP1 SWAP2 POP POP SWAP2 SWAP1 POP JUMP JUMPDEST PUSH1 0x0 PUSH1 0x20 DUP3 ADD MLOAD SWAP1 POP SWAP2 SWAP1 POP JUMP JUMPDEST PUSH1 0x0 SLOAD DUP2 JUMP STOP LOG1 PUSH6 0x627A7A723058 KECCAK256 PUSH12 0xE85B953302D63E1659FEFA16 0xe6 0xdb PUSH10 0x7690D9A0A30227B9CE11 0xd5 0xbd PUSH14 0x2BCC5D0029000000000000000000 "
				},
				"gasEstimates": {
					"creation": {
						"codeDepositCost": "101400",
						"executionCost": "147",
						"totalCost": "101547"
					},
					"external": {
						"lastTestBytes32Result()": "456",
						"stringToBytes32(string)": "infinite",
						"stringToBytes32Test(string)": "infinite"
					}
				},
				"methodIdentifiers": {
					"lastTestBytes32Result()": "f12c68fe",
					"stringToBytes32(string)": "cfb51928",
					"stringToBytes32Test(string)": "29f26059"
				}
			},
			"userdoc": {
				"methods": {}
			}
		}
	}
}