{
	"CaptureTheEther/ChooseANickname.sol": {
		"CaptureTheEther": {
			"abi": [
				{
					"constant": false,
					"inputs": [
						{
							"name": "nickname",
							"type": "bytes32"
						}
					],
					"name": "setNickname",
					"outputs": [],
					"payable": false,
					"stateMutability": "nonpayable",
					"type": "function"
				},
				{
					"constant": true,
					"inputs": [
						{
							"name": "",
							"type": "address"
						}
					],
					"name": "nicknameOf",
					"outputs": [
						{
							"name": "",
							"type": "bytes32"
						}
					],
					"payable": false,
					"stateMutability": "view",
					"type": "function"
				}
			],
			"devdoc": {
				"methods": {}
			},
			"evm": {
				"assembly": "    /* \"CaptureTheEther/ChooseANickname.sol\":76:258  contract CaptureTheEther {... */\n  mstore(0x40, 0x80)\n  callvalue\n    /* \"--CODEGEN--\":8:17   */\n  dup1\n    /* \"--CODEGEN--\":5:7   */\n  iszero\n  tag_1\n  jumpi\n    /* \"--CODEGEN--\":30:31   */\n  0x0\n    /* \"--CODEGEN--\":27:28   */\n  dup1\n    /* \"--CODEGEN--\":20:32   */\n  revert\n    /* \"--CODEGEN--\":5:7   */\ntag_1:\n    /* \"CaptureTheEther/ChooseANickname.sol\":76:258  contract CaptureTheEther {... */\n  pop\n  dataSize(sub_0)\n  dup1\n  dataOffset(sub_0)\n  0x0\n  codecopy\n  0x0\n  return\nstop\n\nsub_0: assembly {\n        /* \"CaptureTheEther/ChooseANickname.sol\":76:258  contract CaptureTheEther {... */\n      mstore(0x40, 0x80)\n      jumpi(tag_1, lt(calldatasize, 0x4))\n      calldataload(0x0)\n      0x100000000000000000000000000000000000000000000000000000000\n      swap1\n      div\n      0xffffffff\n      and\n      dup1\n      0x1ae8ab81\n      eq\n      tag_2\n      jumpi\n      dup1\n      0x6790081c\n      eq\n      tag_3\n      jumpi\n    tag_1:\n      0x0\n      dup1\n      revert\n        /* \"CaptureTheEther/ChooseANickname.sol\":160:256  function setNickname(bytes32 nickname) public {... */\n    tag_2:\n      callvalue\n        /* \"--CODEGEN--\":8:17   */\n      dup1\n        /* \"--CODEGEN--\":5:7   */\n      iszero\n      tag_4\n      jumpi\n        /* \"--CODEGEN--\":30:31   */\n      0x0\n        /* \"--CODEGEN--\":27:28   */\n      dup1\n        /* \"--CODEGEN--\":20:32   */\n      revert\n        /* \"--CODEGEN--\":5:7   */\n    tag_4:\n        /* \"CaptureTheEther/ChooseANickname.sol\":160:256  function setNickname(bytes32 nickname) public {... */\n      pop\n      tag_5\n      0x4\n      dup1\n      calldatasize\n      sub\n      dup2\n      add\n      swap1\n      dup1\n      dup1\n      calldataload\n      not(0x0)\n      and\n      swap1\n      0x20\n      add\n      swap1\n      swap3\n      swap2\n      swap1\n      pop\n      pop\n      pop\n      jump(tag_6)\n    tag_5:\n      stop\n        /* \"CaptureTheEther/ChooseANickname.sol\":107:153  mapping (address => bytes32) public nicknameOf */\n    tag_3:\n      callvalue\n        /* \"--CODEGEN--\":8:17   */\n      dup1\n        /* \"--CODEGEN--\":5:7   */\n      iszero\n      tag_7\n      jumpi\n        /* \"--CODEGEN--\":30:31   */\n      0x0\n        /* \"--CODEGEN--\":27:28   */\n      dup1\n        /* \"--CODEGEN--\":20:32   */\n      revert\n        /* \"--CODEGEN--\":5:7   */\n    tag_7:\n        /* \"CaptureTheEther/ChooseANickname.sol\":107:153  mapping (address => bytes32) public nicknameOf */\n      pop\n      tag_8\n      0x4\n      dup1\n      calldatasize\n      sub\n      dup2\n      add\n      swap1\n      dup1\n      dup1\n      calldataload\n      0xffffffffffffffffffffffffffffffffffffffff\n      and\n      swap1\n      0x20\n      add\n      swap1\n      swap3\n      swap2\n      swap1\n      pop\n      pop\n      pop\n      jump(tag_9)\n    tag_8:\n      mload(0x40)\n      dup1\n      dup3\n      not(0x0)\n      and\n      not(0x0)\n      and\n      dup2\n      mstore\n      0x20\n      add\n      swap2\n      pop\n      pop\n      mload(0x40)\n      dup1\n      swap2\n      sub\n      swap1\n      return\n        /* \"CaptureTheEther/ChooseANickname.sol\":160:256  function setNickname(bytes32 nickname) public {... */\n    tag_6:\n        /* \"CaptureTheEther/ChooseANickname.sol\":241:249  nickname */\n      dup1\n        /* \"CaptureTheEther/ChooseANickname.sol\":216:226  nicknameOf */\n      0x0\n        /* \"CaptureTheEther/ChooseANickname.sol\":216:238  nicknameOf[msg.sender] */\n      dup1\n        /* \"CaptureTheEther/ChooseANickname.sol\":227:237  msg.sender */\n      caller\n        /* \"CaptureTheEther/ChooseANickname.sol\":216:238  nicknameOf[msg.sender] */\n      0xffffffffffffffffffffffffffffffffffffffff\n      and\n      0xffffffffffffffffffffffffffffffffffffffff\n      and\n      dup2\n      mstore\n      0x20\n      add\n      swap1\n      dup2\n      mstore\n      0x20\n      add\n      0x0\n      keccak256\n        /* \"CaptureTheEther/ChooseANickname.sol\":216:249  nicknameOf[msg.sender] = nickname */\n      dup2\n      not(0x0)\n      and\n      swap1\n      sstore\n      pop\n        /* \"CaptureTheEther/ChooseANickname.sol\":160:256  function setNickname(bytes32 nickname) public {... */\n      pop\n      jump\t// out\n        /* \"CaptureTheEther/ChooseANickname.sol\":107:153  mapping (address => bytes32) public nicknameOf */\n    tag_9:\n      mstore(0x20, 0x0)\n      dup1\n      0x0\n      mstore\n      keccak256(0x0, 0x40)\n      0x0\n      swap2\n      pop\n      swap1\n      pop\n      sload\n      dup2\n      jump\t// out\n\n    auxdata: 0xa165627a7a723058202596f1663973722139849d1f35a068acb8b4907c9a4a29823ce7c628c26f23d70029\n}\n",
				"bytecode": {
					"linkReferences": {},
					"object": "608060405234801561001057600080fd5b5061016f806100206000396000f30060806040526004361061004c576000357c0100000000000000000000000000000000000000000000000000000000900463ffffffff1680631ae8ab81146100515780636790081c14610082575b600080fd5b34801561005d57600080fd5b5061008060048036038101908080356000191690602001909291905050506100e1565b005b34801561008e57600080fd5b506100c3600480360381019080803573ffffffffffffffffffffffffffffffffffffffff16906020019092919050505061012b565b60405180826000191660001916815260200191505060405180910390f35b806000803373ffffffffffffffffffffffffffffffffffffffff1673ffffffffffffffffffffffffffffffffffffffff168152602001908152602001600020816000191690555050565b600060205280600052604060002060009150905054815600a165627a7a723058202596f1663973722139849d1f35a068acb8b4907c9a4a29823ce7c628c26f23d70029",
					"opcodes": "PUSH1 0x80 PUSH1 0x40 MSTORE CALLVALUE DUP1 ISZERO PUSH2 0x10 JUMPI PUSH1 0x0 DUP1 REVERT JUMPDEST POP PUSH2 0x16F DUP1 PUSH2 0x20 PUSH1 0x0 CODECOPY PUSH1 0x0 RETURN STOP PUSH1 0x80 PUSH1 0x40 MSTORE PUSH1 0x4 CALLDATASIZE LT PUSH2 0x4C JUMPI PUSH1 0x0 CALLDATALOAD PUSH29 0x100000000000000000000000000000000000000000000000000000000 SWAP1 DIV PUSH4 0xFFFFFFFF AND DUP1 PUSH4 0x1AE8AB81 EQ PUSH2 0x51 JUMPI DUP1 PUSH4 0x6790081C EQ PUSH2 0x82 JUMPI JUMPDEST PUSH1 0x0 DUP1 REVERT JUMPDEST CALLVALUE DUP1 ISZERO PUSH2 0x5D JUMPI PUSH1 0x0 DUP1 REVERT JUMPDEST POP PUSH2 0x80 PUSH1 0x4 DUP1 CALLDATASIZE SUB DUP2 ADD SWAP1 DUP1 DUP1 CALLDATALOAD PUSH1 0x0 NOT AND SWAP1 PUSH1 0x20 ADD SWAP1 SWAP3 SWAP2 SWAP1 POP POP POP PUSH2 0xE1 JUMP JUMPDEST STOP JUMPDEST CALLVALUE DUP1 ISZERO PUSH2 0x8E JUMPI PUSH1 0x0 DUP1 REVERT JUMPDEST POP PUSH2 0xC3 PUSH1 0x4 DUP1 CALLDATASIZE SUB DUP2 ADD SWAP1 DUP1 DUP1 CALLDATALOAD PUSH20 0xFFFFFFFFFFFFFFFFFFFFFFFFFFFFFFFFFFFFFFFF AND SWAP1 PUSH1 0x20 ADD SWAP1 SWAP3 SWAP2 SWAP1 POP POP POP PUSH2 0x12B JUMP JUMPDEST PUSH1 0x40 MLOAD DUP1 DUP3 PUSH1 0x0 NOT AND PUSH1 0x0 NOT AND DUP2 MSTORE PUSH1 0x20 ADD SWAP2 POP POP PUSH1 0x40 MLOAD DUP1 SWAP2 SUB SWAP1 RETURN JUMPDEST DUP1 PUSH1 0x0 DUP1 CALLER PUSH20 0xFFFFFFFFFFFFFFFFFFFFFFFFFFFFFFFFFFFFFFFF AND PUSH20 0xFFFFFFFFFFFFFFFFFFFFFFFFFFFFFFFFFFFFFFFF AND DUP2 MSTORE PUSH1 0x20 ADD SWAP1 DUP2 MSTORE PUSH1 0x20 ADD PUSH1 0x0 KECCAK256 DUP2 PUSH1 0x0 NOT AND SWAP1 SSTORE POP POP JUMP JUMPDEST PUSH1 0x0 PUSH1 0x20 MSTORE DUP1 PUSH1 0x0 MSTORE PUSH1 0x40 PUSH1 0x0 KECCAK256 PUSH1 0x0 SWAP2 POP SWAP1 POP SLOAD DUP2 JUMP STOP LOG1 PUSH6 0x627A7A723058 KECCAK256 0x25 SWAP7 CALL PUSH7 0x3973722139849D 0x1f CALLDATALOAD LOG0 PUSH9 0xACB8B4907C9A4A2982 EXTCODECOPY 0xe7 0xc6 0x28 0xc2 PUSH16 0x23D70029000000000000000000000000 "
				},
				"gasEstimates": {
					"creation": {
						"codeDepositCost": "73400",
						"executionCost": "123",
						"totalCost": "73523"
					},
					"external": {
						"nicknameOf(address)": "572",
						"setNickname(bytes32)": "20312"
					}
				},
				"methodIdentifiers": {
					"nicknameOf(address)": "6790081c",
					"setNickname(bytes32)": "1ae8ab81"
				}
			},
			"userdoc": {
				"methods": {}
			}
		}
	}
}