{
	"CaptureTheEther/GuessTheRandomNumber.sol": {
		"GuessTheRandomNumberChallengeHack": {
			"abi": [
				{
					"constant": true,
					"inputs": [],
					"name": "answer",
					"outputs": [
						{
							"name": "",
							"type": "uint8"
						}
					],
					"payable": false,
					"stateMutability": "view",
					"type": "function"
				},
				{
					"inputs": [],
					"payable": false,
					"stateMutability": "nonpayable",
					"type": "constructor"
				}
			],
			"devdoc": {
				"methods": {}
			},
			"evm": {
				"assembly": "    /* \"CaptureTheEther/GuessTheRandomNumber.sol\":548:801  contract GuessTheRandomNumberChallengeHack {... */\n  mstore(0x40, 0x80)\n    /* \"CaptureTheEther/GuessTheRandomNumber.sol\":623:799  function GuessTheRandomNumberChallengeHack() public {... */\n  callvalue\n    /* \"--CODEGEN--\":8:17   */\n  dup1\n    /* \"--CODEGEN--\":5:7   */\n  iszero\n  tag_1\n  jumpi\n    /* \"--CODEGEN--\":30:31   */\n  0x0\n    /* \"--CODEGEN--\":27:28   */\n  dup1\n    /* \"--CODEGEN--\":20:32   */\n  revert\n    /* \"--CODEGEN--\":5:7   */\ntag_1:\n    /* \"CaptureTheEther/GuessTheRandomNumber.sol\":623:799  function GuessTheRandomNumberChallengeHack() public {... */\n  pop\n    /* \"CaptureTheEther/GuessTheRandomNumber.sol\":780:790  1576480240 */\n  0x5df72df0\n    /* \"CaptureTheEther/GuessTheRandomNumber.sol\":700:791  keccak256(\"0xdd51bfbf089e41cca26c677a2d99c7b201321a0c4d5d0e15e6234deeea9b87da\", 1576480240) */\n  mload(0x40)\n  dup1\n  dup1\n  0x3078646435316266626630383965343163636132366336373761326439396337\n  dup2\n  mstore\n  0x20\n  add\n  0x6232303133323161306334643564306531356536323334646565656139623837\n  dup2\n  mstore\n  0x20\n  add\n  0x6461000000000000000000000000000000000000000000000000000000000000\n  dup2\n  mstore\n  pop\n  0x42\n  add\n  dup3\n  0xffffffff\n  and\n  0x100000000000000000000000000000000000000000000000000000000\n  mul\n  dup2\n  mstore\n  0x4\n  add\n  swap2\n  pop\n  pop\n  mload(0x40)\n  dup1\n  swap2\n  sub\n  swap1\n  keccak256\n    /* \"CaptureTheEther/GuessTheRandomNumber.sol\":694:792  uint8(keccak256(\"0xdd51bfbf089e41cca26c677a2d99c7b201321a0c4d5d0e15e6234deeea9b87da\", 1576480240)) */\n  0x1\n  swap1\n  div\n    /* \"CaptureTheEther/GuessTheRandomNumber.sol\":685:691  answer */\n  0x0\n  dup1\n    /* \"CaptureTheEther/GuessTheRandomNumber.sol\":685:792  answer = uint8(keccak256(\"0xdd51bfbf089e41cca26c677a2d99c7b201321a0c4d5d0e15e6234deeea9b87da\", 1576480240)) */\n  0x100\n  exp\n  dup2\n  sload\n  dup2\n  0xff\n  mul\n  not\n  and\n  swap1\n  dup4\n  0xff\n  and\n  mul\n  or\n  swap1\n  sstore\n  pop\n    /* \"CaptureTheEther/GuessTheRandomNumber.sol\":548:801  contract GuessTheRandomNumberChallengeHack {... */\n  dataSize(sub_0)\n  dup1\n  dataOffset(sub_0)\n  0x0\n  codecopy\n  0x0\n  return\nstop\n\nsub_0: assembly {\n        /* \"CaptureTheEther/GuessTheRandomNumber.sol\":548:801  contract GuessTheRandomNumberChallengeHack {... */\n      mstore(0x40, 0x80)\n      jumpi(tag_1, lt(calldatasize, 0x4))\n      calldataload(0x0)\n      0x100000000000000000000000000000000000000000000000000000000\n      swap1\n      div\n      0xffffffff\n      and\n      dup1\n      0x85bb7d69\n      eq\n      tag_2\n      jumpi\n    tag_1:\n      0x0\n      dup1\n      revert\n        /* \"CaptureTheEther/GuessTheRandomNumber.sol\":597:616  uint8 public answer */\n    tag_2:\n      callvalue\n        /* \"--CODEGEN--\":8:17   */\n      dup1\n        /* \"--CODEGEN--\":5:7   */\n      iszero\n      tag_3\n      jumpi\n        /* \"--CODEGEN--\":30:31   */\n      0x0\n        /* \"--CODEGEN--\":27:28   */\n      dup1\n        /* \"--CODEGEN--\":20:32   */\n      revert\n        /* \"--CODEGEN--\":5:7   */\n    tag_3:\n        /* \"CaptureTheEther/GuessTheRandomNumber.sol\":597:616  uint8 public answer */\n      pop\n      tag_4\n      jump(tag_5)\n    tag_4:\n      mload(0x40)\n      dup1\n      dup3\n      0xff\n      and\n      0xff\n      and\n      dup2\n      mstore\n      0x20\n      add\n      swap2\n      pop\n      pop\n      mload(0x40)\n      dup1\n      swap2\n      sub\n      swap1\n      return\n    tag_5:\n      0x0\n      dup1\n      swap1\n      sload\n      swap1\n      0x100\n      exp\n      swap1\n      div\n      0xff\n      and\n      dup2\n      jump\t// out\n\n    auxdata: 0xa165627a7a723058209768c94ab6a20c4513d5ed87d14952a61ee2893b0704b79655a9e85bf99a981a0029\n}\n",
				"bytecode": {
					"linkReferences": {},
					"object": "608060405234801561001057600080fd5b50635df72df060405180807f307864643531626662663038396534316363613236633637376132643939633781526020017f623230313332316130633464356430653135653632333464656565613962383781526020017f64610000000000000000000000000000000000000000000000000000000000008152506042018263ffffffff167c01000000000000000000000000000000000000000000000000000000000281526004019150506040518091039020600190046000806101000a81548160ff021916908360ff16021790555060b0806100ef6000396000f300608060405260043610603f576000357c0100000000000000000000000000000000000000000000000000000000900463ffffffff16806385bb7d69146044575b600080fd5b348015604f57600080fd5b5060566072565b604051808260ff1660ff16815260200191505060405180910390f35b6000809054906101000a900460ff16815600a165627a7a723058209768c94ab6a20c4513d5ed87d14952a61ee2893b0704b79655a9e85bf99a981a0029",
					"opcodes": "PUSH1 0x80 PUSH1 0x40 MSTORE CALLVALUE DUP1 ISZERO PUSH2 0x10 JUMPI PUSH1 0x0 DUP1 REVERT JUMPDEST POP PUSH4 0x5DF72DF0 PUSH1 0x40 MLOAD DUP1 DUP1 PUSH32 0x3078646435316266626630383965343163636132366336373761326439396337 DUP2 MSTORE PUSH1 0x20 ADD PUSH32 0x6232303133323161306334643564306531356536323334646565656139623837 DUP2 MSTORE PUSH1 0x20 ADD PUSH32 0x6461000000000000000000000000000000000000000000000000000000000000 DUP2 MSTORE POP PUSH1 0x42 ADD DUP3 PUSH4 0xFFFFFFFF AND PUSH29 0x100000000000000000000000000000000000000000000000000000000 MUL DUP2 MSTORE PUSH1 0x4 ADD SWAP2 POP POP PUSH1 0x40 MLOAD DUP1 SWAP2 SUB SWAP1 KECCAK256 PUSH1 0x1 SWAP1 DIV PUSH1 0x0 DUP1 PUSH2 0x100 EXP DUP2 SLOAD DUP2 PUSH1 0xFF MUL NOT AND SWAP1 DUP4 PUSH1 0xFF AND MUL OR SWAP1 SSTORE POP PUSH1 0xB0 DUP1 PUSH2 0xEF PUSH1 0x0 CODECOPY PUSH1 0x0 RETURN STOP PUSH1 0x80 PUSH1 0x40 MSTORE PUSH1 0x4 CALLDATASIZE LT PUSH1 0x3F JUMPI PUSH1 0x0 CALLDATALOAD PUSH29 0x100000000000000000000000000000000000000000000000000000000 SWAP1 DIV PUSH4 0xFFFFFFFF AND DUP1 PUSH4 0x85BB7D69 EQ PUSH1 0x44 JUMPI JUMPDEST PUSH1 0x0 DUP1 REVERT JUMPDEST CALLVALUE DUP1 ISZERO PUSH1 0x4F JUMPI PUSH1 0x0 DUP1 REVERT JUMPDEST POP PUSH1 0x56 PUSH1 0x72 JUMP JUMPDEST PUSH1 0x40 MLOAD DUP1 DUP3 PUSH1 0xFF AND PUSH1 0xFF AND DUP2 MSTORE PUSH1 0x20 ADD SWAP2 POP POP PUSH1 0x40 MLOAD DUP1 SWAP2 SUB SWAP1 RETURN JUMPDEST PUSH1 0x0 DUP1 SWAP1 SLOAD SWAP1 PUSH2 0x100 EXP SWAP1 DIV PUSH1 0xFF AND DUP2 JUMP STOP LOG1 PUSH6 0x627A7A723058 KECCAK256 SWAP8 PUSH9 0xC94AB6A20C4513D5ED DUP8 0xd1 0x49 MSTORE 0xa6 0x1e 0xe2 DUP10 EXTCODESIZE SMOD DIV 0xb7 SWAP7 SSTORE 0xa9 0xe8 JUMPDEST 0xf9 SWAP11 SWAP9 BYTE STOP 0x29 "
				},
				"gasEstimates": {
					"creation": {
						"codeDepositCost": "35200",
						"executionCost": "20532",
						"totalCost": "55732"
					},
					"external": {
						"answer()": "442"
					}
				},
				"methodIdentifiers": {
					"answer()": "85bb7d69"
				}
			},
			"userdoc": {
				"methods": {}
			}
		}
	}
}