{
	"CaptureTheEther/GuessTheRandomNumber.sol": {
		"GuessTheRandomNumberChallenge": {
			"abi": [
				{
					"constant": false,
					"inputs": [
						{
							"name": "n",
							"type": "uint8"
						}
					],
					"name": "guess",
					"outputs": [],
					"payable": true,
					"stateMutability": "payable",
					"type": "function"
				},
				{
					"constant": true,
					"inputs": [],
					"name": "isComplete",
					"outputs": [
						{
							"name": "",
							"type": "bool"
						}
					],
					"payable": false,
					"stateMutability": "view",
					"type": "function"
				},
				{
					"inputs": [],
					"payable": true,
					"stateMutability": "payable",
					"type": "constructor"
				}
			],
			"devdoc": {
				"methods": {}
			},
			"evm": {
				"assembly": "    /* \"CaptureTheEther/GuessTheRandomNumber.sol\":26:545  contract GuessTheRandomNumberChallenge {... */\n  mstore(0x40, 0x80)\n    /* \"CaptureTheEther/GuessTheRandomNumber.sol\":177:184  1 ether */\n  0xde0b6b3a7640000\n    /* \"CaptureTheEther/GuessTheRandomNumber.sol\":164:173  msg.value */\n  callvalue\n    /* \"CaptureTheEther/GuessTheRandomNumber.sol\":164:184  msg.value == 1 ether */\n  eq\n    /* \"CaptureTheEther/GuessTheRandomNumber.sol\":156:185  require(msg.value == 1 ether) */\n  iszero\n  iszero\n  tag_3\n  jumpi\n  0x0\n  dup1\n  revert\ntag_3:\n    /* \"CaptureTheEther/GuessTheRandomNumber.sol\":251:252  1 */\n  0x1\n    /* \"CaptureTheEther/GuessTheRandomNumber.sol\":236:248  block.number */\n  number\n    /* \"CaptureTheEther/GuessTheRandomNumber.sol\":236:252  block.number - 1 */\n  sub\n    /* \"CaptureTheEther/GuessTheRandomNumber.sol\":220:253  block.blockhash(block.number - 1) */\n  blockhash\n    /* \"CaptureTheEther/GuessTheRandomNumber.sol\":255:258  now */\n  timestamp\n    /* \"CaptureTheEther/GuessTheRandomNumber.sol\":210:259  keccak256(block.blockhash(block.number - 1), now) */\n  mload(0x40)\n  dup1\n  dup4\n  not(0x0)\n  and\n  not(0x0)\n  and\n  dup2\n  mstore\n  0x20\n  add\n  dup3\n  dup2\n  mstore\n  0x20\n  add\n  swap3\n  pop\n  pop\n  pop\n  mload(0x40)\n  dup1\n  swap2\n  sub\n  swap1\n  keccak256\n    /* \"CaptureTheEther/GuessTheRandomNumber.sol\":204:260  uint8(keccak256(block.blockhash(block.number - 1), now)) */\n  0x1\n  swap1\n  div\n    /* \"CaptureTheEther/GuessTheRandomNumber.sol\":195:201  answer */\n  0x0\n  dup1\n    /* \"CaptureTheEther/GuessTheRandomNumber.sol\":195:260  answer = uint8(keccak256(block.blockhash(block.number - 1), now)) */\n  0x100\n  exp\n  dup2\n  sload\n  dup2\n  0xff\n  mul\n  not\n  and\n  swap1\n  dup4\n  0xff\n  and\n  mul\n  or\n  swap1\n  sstore\n  pop\n    /* \"CaptureTheEther/GuessTheRandomNumber.sol\":26:545  contract GuessTheRandomNumberChallenge {... */\n  dataSize(sub_0)\n  dup1\n  dataOffset(sub_0)\n  0x0\n  codecopy\n  0x0\n  return\nstop\n\nsub_0: assembly {\n        /* \"CaptureTheEther/GuessTheRandomNumber.sol\":26:545  contract GuessTheRandomNumberChallenge {... */\n      mstore(0x40, 0x80)\n      jumpi(tag_1, lt(calldatasize, 0x4))\n      calldataload(0x0)\n      0x100000000000000000000000000000000000000000000000000000000\n      swap1\n      div\n      0xffffffff\n      and\n      dup1\n      0x4ba4c16b\n      eq\n      tag_2\n      jumpi\n      dup1\n      0xb2fa1c9e\n      eq\n      tag_3\n      jumpi\n    tag_1:\n      0x0\n      dup1\n      revert\n        /* \"CaptureTheEther/GuessTheRandomNumber.sol\":378:543  function guess(uint8 n) public payable {... */\n    tag_2:\n      tag_4\n      0x4\n      dup1\n      calldatasize\n      sub\n      dup2\n      add\n      swap1\n      dup1\n      dup1\n      calldataload\n      0xff\n      and\n      swap1\n      0x20\n      add\n      swap1\n      swap3\n      swap2\n      swap1\n      pop\n      pop\n      pop\n      jump(tag_5)\n    tag_4:\n      stop\n        /* \"CaptureTheEther/GuessTheRandomNumber.sol\":273:372  function isComplete() public view returns (bool) {... */\n    tag_3:\n      callvalue\n        /* \"--CODEGEN--\":8:17   */\n      dup1\n        /* \"--CODEGEN--\":5:7   */\n      iszero\n      tag_6\n      jumpi\n        /* \"--CODEGEN--\":30:31   */\n      0x0\n        /* \"--CODEGEN--\":27:28   */\n      dup1\n        /* \"--CODEGEN--\":20:32   */\n      revert\n        /* \"--CODEGEN--\":5:7   */\n    tag_6:\n        /* \"CaptureTheEther/GuessTheRandomNumber.sol\":273:372  function isComplete() public view returns (bool) {... */\n      pop\n      tag_7\n      jump(tag_8)\n    tag_7:\n      mload(0x40)\n      dup1\n      dup3\n      iszero\n      iszero\n      iszero\n      iszero\n      dup2\n      mstore\n      0x20\n      add\n      swap2\n      pop\n      pop\n      mload(0x40)\n      dup1\n      swap2\n      sub\n      swap1\n      return\n        /* \"CaptureTheEther/GuessTheRandomNumber.sol\":378:543  function guess(uint8 n) public payable {... */\n    tag_5:\n        /* \"CaptureTheEther/GuessTheRandomNumber.sol\":448:455  1 ether */\n      0xde0b6b3a7640000\n        /* \"CaptureTheEther/GuessTheRandomNumber.sol\":435:444  msg.value */\n      callvalue\n        /* \"CaptureTheEther/GuessTheRandomNumber.sol\":435:455  msg.value == 1 ether */\n      eq\n        /* \"CaptureTheEther/GuessTheRandomNumber.sol\":427:456  require(msg.value == 1 ether) */\n      iszero\n      iszero\n      tag_10\n      jumpi\n      0x0\n      dup1\n      revert\n    tag_10:\n        /* \"CaptureTheEther/GuessTheRandomNumber.sol\":476:482  answer */\n      0x0\n      dup1\n      swap1\n      sload\n      swap1\n      0x100\n      exp\n      swap1\n      div\n      0xff\n      and\n        /* \"CaptureTheEther/GuessTheRandomNumber.sol\":471:482  n == answer */\n      0xff\n      and\n        /* \"CaptureTheEther/GuessTheRandomNumber.sol\":471:472  n */\n      dup2\n        /* \"CaptureTheEther/GuessTheRandomNumber.sol\":471:482  n == answer */\n      0xff\n      and\n      eq\n        /* \"CaptureTheEther/GuessTheRandomNumber.sol\":467:537  if (n == answer) {... */\n      iszero\n      tag_11\n      jumpi\n        /* \"CaptureTheEther/GuessTheRandomNumber.sol\":498:508  msg.sender */\n      caller\n        /* \"CaptureTheEther/GuessTheRandomNumber.sol\":498:517  msg.sender.transfer */\n      0xffffffffffffffffffffffffffffffffffffffff\n      and\n        /* \"CaptureTheEther/GuessTheRandomNumber.sol\":498:526  msg.sender.transfer(2 ether) */\n      0x8fc\n        /* \"CaptureTheEther/GuessTheRandomNumber.sol\":518:525  2 ether */\n      0x1bc16d674ec80000\n        /* \"CaptureTheEther/GuessTheRandomNumber.sol\":498:526  msg.sender.transfer(2 ether) */\n      swap1\n      dup2\n      iszero\n      mul\n      swap1\n      mload(0x40)\n      0x0\n      mload(0x40)\n      dup1\n      dup4\n      sub\n      dup2\n      dup6\n      dup9\n      dup9\n      call\n      swap4\n      pop\n      pop\n      pop\n      pop\n      iszero\n        /* \"--CODEGEN--\":8:17   */\n      dup1\n        /* \"--CODEGEN--\":5:7   */\n      iszero\n      tag_12\n      jumpi\n        /* \"--CODEGEN--\":45:61   */\n      returndatasize\n        /* \"--CODEGEN--\":42:43   */\n      0x0\n        /* \"--CODEGEN--\":39:40   */\n      dup1\n        /* \"--CODEGEN--\":24:62   */\n      returndatacopy\n        /* \"--CODEGEN--\":77:93   */\n      returndatasize\n        /* \"--CODEGEN--\":74:75   */\n      0x0\n        /* \"--CODEGEN--\":67:94   */\n      revert\n        /* \"--CODEGEN--\":5:7   */\n    tag_12:\n        /* \"CaptureTheEther/GuessTheRandomNumber.sol\":498:526  msg.sender.transfer(2 ether) */\n      pop\n        /* \"CaptureTheEther/GuessTheRandomNumber.sol\":467:537  if (n == answer) {... */\n    tag_11:\n        /* \"CaptureTheEther/GuessTheRandomNumber.sol\":378:543  function guess(uint8 n) public payable {... */\n      pop\n      jump\t// out\n        /* \"CaptureTheEther/GuessTheRandomNumber.sol\":273:372  function isComplete() public view returns (bool) {... */\n    tag_8:\n        /* \"CaptureTheEther/GuessTheRandomNumber.sol\":316:320  bool */\n      0x0\n        /* \"CaptureTheEther/GuessTheRandomNumber.sol\":364:365  0 */\n      dup1\n        /* \"CaptureTheEther/GuessTheRandomNumber.sol\":347:351  this */\n      address\n        /* \"CaptureTheEther/GuessTheRandomNumber.sol\":339:360  address(this).balance */\n      0xffffffffffffffffffffffffffffffffffffffff\n      and\n      balance\n        /* \"CaptureTheEther/GuessTheRandomNumber.sol\":339:365  address(this).balance == 0 */\n      eq\n        /* \"CaptureTheEther/GuessTheRandomNumber.sol\":332:365  return address(this).balance == 0 */\n      swap1\n      pop\n        /* \"CaptureTheEther/GuessTheRandomNumber.sol\":273:372  function isComplete() public view returns (bool) {... */\n      swap1\n      jump\t// out\n\n    auxdata: 0xa165627a7a72305820e5d2ff691f90c5f98f8959ad866793a592a8efe2facdeb36d9976c02b77f132f0029\n}\n",
				"bytecode": {
					"linkReferences": {},
					"object": "6080604052670de0b6b3a76400003414151561001a57600080fd5b600143034042604051808360001916600019168152602001828152602001925050506040518091039020600190046000806101000a81548160ff021916908360ff160217905550610175806100706000396000f30060806040526004361061004c576000357c0100000000000000000000000000000000000000000000000000000000900463ffffffff1680634ba4c16b14610051578063b2fa1c9e14610074575b600080fd5b610072600480360381019080803560ff1690602001909291905050506100a3565b005b34801561008057600080fd5b50610089610128565b604051808215151515815260200191505060405180910390f35b670de0b6b3a7640000341415156100b957600080fd5b6000809054906101000a900460ff1660ff168160ff161415610125573373ffffffffffffffffffffffffffffffffffffffff166108fc671bc16d674ec800009081150290604051600060405180830381858888f19350505050158015610123573d6000803e3d6000fd5b505b50565b6000803073ffffffffffffffffffffffffffffffffffffffff1631149050905600a165627a7a72305820e5d2ff691f90c5f98f8959ad866793a592a8efe2facdeb36d9976c02b77f132f0029",
					"opcodes": "PUSH1 0x80 PUSH1 0x40 MSTORE PUSH8 0xDE0B6B3A7640000 CALLVALUE EQ ISZERO ISZERO PUSH2 0x1A JUMPI PUSH1 0x0 DUP1 REVERT JUMPDEST PUSH1 0x1 NUMBER SUB BLOCKHASH TIMESTAMP PUSH1 0x40 MLOAD DUP1 DUP4 PUSH1 0x0 NOT AND PUSH1 0x0 NOT AND DUP2 MSTORE PUSH1 0x20 ADD DUP3 DUP2 MSTORE PUSH1 0x20 ADD SWAP3 POP POP POP PUSH1 0x40 MLOAD DUP1 SWAP2 SUB SWAP1 KECCAK256 PUSH1 0x1 SWAP1 DIV PUSH1 0x0 DUP1 PUSH2 0x100 EXP DUP2 SLOAD DUP2 PUSH1 0xFF MUL NOT AND SWAP1 DUP4 PUSH1 0xFF AND MUL OR SWAP1 SSTORE POP PUSH2 0x175 DUP1 PUSH2 0x70 PUSH1 0x0 CODECOPY PUSH1 0x0 RETURN STOP PUSH1 0x80 PUSH1 0x40 MSTORE PUSH1 0x4 CALLDATASIZE LT PUSH2 0x4C JUMPI PUSH1 0x0 CALLDATALOAD PUSH29 0x100000000000000000000000000000000000000000000000000000000 SWAP1 DIV PUSH4 0xFFFFFFFF AND DUP1 PUSH4 0x4BA4C16B EQ PUSH2 0x51 JUMPI DUP1 PUSH4 0xB2FA1C9E EQ PUSH2 0x74 JUMPI JUMPDEST PUSH1 0x0 DUP1 REVERT JUMPDEST PUSH2 0x72 PUSH1 0x4 DUP1 CALLDATASIZE SUB DUP2 ADD SWAP1 DUP1 DUP1 CALLDATALOAD PUSH1 0xFF AND SWAP1 PUSH1 0x20 ADD SWAP1 SWAP3 SWAP2 SWAP1 POP POP POP PUSH2 0xA3 JUMP JUMPDEST STOP JUMPDEST CALLVALUE DUP1 ISZERO PUSH2 0x80 JUMPI PUSH1 0x0 DUP1 REVERT JUMPDEST POP PUSH2 0x89 PUSH2 0x128 JUMP JUMPDEST PUSH1 0x40 MLOAD DUP1 DUP3 ISZERO ISZERO ISZERO ISZERO DUP2 MSTORE PUSH1 0x20 ADD SWAP2 POP POP PUSH1 0x40 MLOAD DUP1 SWAP2 SUB SWAP1 RETURN JUMPDEST PUSH8 0xDE0B6B3A7640000 CALLVALUE EQ ISZERO ISZERO PUSH2 0xB9 JUMPI PUSH1 0x0 DUP1 REVERT JUMPDEST PUSH1 0x0 DUP1 SWAP1 SLOAD SWAP1 PUSH2 0x100 EXP SWAP1 DIV PUSH1 0xFF AND PUSH1 0xFF AND DUP2 PUSH1 0xFF AND EQ ISZERO PUSH2 0x125 JUMPI CALLER PUSH20 0xFFFFFFFFFFFFFFFFFFFFFFFFFFFFFFFFFFFFFFFF AND PUSH2 0x8FC PUSH8 0x1BC16D674EC80000 SWAP1 DUP2 ISZERO MUL SWAP1 PUSH1 0x40 MLOAD PUSH1 0x0 PUSH1 0x40 MLOAD DUP1 DUP4 SUB DUP2 DUP6 DUP9 DUP9 CALL SWAP4 POP POP POP POP ISZERO DUP1 ISZERO PUSH2 0x123 JUMPI RETURNDATASIZE PUSH1 0x0 DUP1 RETURNDATACOPY RETURNDATASIZE PUSH1 0x0 REVERT JUMPDEST POP JUMPDEST POP JUMP JUMPDEST PUSH1 0x0 DUP1 ADDRESS PUSH20 0xFFFFFFFFFFFFFFFFFFFFFFFFFFFFFFFFFFFFFFFF AND BALANCE EQ SWAP1 POP SWAP1 JUMP STOP LOG1 PUSH6 0x627A7A723058 KECCAK256 0xe5 0xd2 SELFDESTRUCT PUSH10 0x1F90C5F98F8959AD8667 SWAP4 0xa5 SWAP3 0xa8 0xef 0xe2 STATICCALL 0xcd 0xeb CALLDATASIZE 0xd9 SWAP8 PUSH13 0x2B77F132F0029000000000000 "
				},
				"gasEstimates": {
					"creation": {
						"codeDepositCost": "74600",
						"executionCost": "20558",
						"totalCost": "95158"
					},
					"external": {
						"guess(uint8)": "infinite",
						"isComplete()": "647"
					}
				},
				"methodIdentifiers": {
					"guess(uint8)": "4ba4c16b",
					"isComplete()": "b2fa1c9e"
				}
			},
			"userdoc": {
				"methods": {}
			}
		}
	}
}