{
	"CaptureTheEther/PredictTheFuture.sol": {
		"PredictTheFutureChallenge": {
			"abi": [
				{
					"constant": false,
					"inputs": [],
					"name": "settle",
					"outputs": [],
					"payable": false,
					"stateMutability": "nonpayable",
					"type": "function"
				},
				{
					"constant": false,
					"inputs": [
						{
							"name": "n",
							"type": "uint8"
						}
					],
					"name": "lockInGuess",
					"outputs": [],
					"payable": true,
					"stateMutability": "payable",
					"type": "function"
				},
				{
					"constant": true,
					"inputs": [],
					"name": "isComplete",
					"outputs": [
						{
							"name": "",
							"type": "bool"
						}
					],
					"payable": false,
					"stateMutability": "view",
					"type": "function"
				},
				{
					"inputs": [],
					"payable": true,
					"stateMutability": "payable",
					"type": "constructor"
				}
			],
			"devdoc": {
				"methods": {}
			},
			"evm": {
				"assembly": "    /* \"CaptureTheEther/PredictTheFuture.sol\":26:899  contract PredictTheFutureChallenge {... */\n  mstore(0x40, 0x80)\n    /* \"CaptureTheEther/PredictTheFuture.sol\":224:231  1 ether */\n  0xde0b6b3a7640000\n    /* \"CaptureTheEther/PredictTheFuture.sol\":211:220  msg.value */\n  callvalue\n    /* \"CaptureTheEther/PredictTheFuture.sol\":211:231  msg.value == 1 ether */\n  eq\n    /* \"CaptureTheEther/PredictTheFuture.sol\":203:232  require(msg.value == 1 ether) */\n  iszero\n  iszero\n  tag_3\n  jumpi\n  0x0\n  dup1\n  revert\ntag_3:\n    /* \"CaptureTheEther/PredictTheFuture.sol\":26:899  contract PredictTheFutureChallenge {... */\n  dataSize(sub_0)\n  dup1\n  dataOffset(sub_0)\n  0x0\n  codecopy\n  0x0\n  return\nstop\n\nsub_0: assembly {\n        /* \"CaptureTheEther/PredictTheFuture.sol\":26:899  contract PredictTheFutureChallenge {... */\n      mstore(0x40, 0x80)\n      jumpi(tag_1, lt(calldatasize, 0x4))\n      calldataload(0x0)\n      0x100000000000000000000000000000000000000000000000000000000\n      swap1\n      div\n      0xffffffff\n      and\n      dup1\n      0x11da60b4\n      eq\n      tag_2\n      jumpi\n      dup1\n      0x2c0e0054\n      eq\n      tag_3\n      jumpi\n      dup1\n      0xb2fa1c9e\n      eq\n      tag_4\n      jumpi\n    tag_1:\n      0x0\n      dup1\n      revert\n        /* \"CaptureTheEther/PredictTheFuture.sol\":578:897  function settle() public {... */\n    tag_2:\n      callvalue\n        /* \"--CODEGEN--\":8:17   */\n      dup1\n        /* \"--CODEGEN--\":5:7   */\n      iszero\n      tag_5\n      jumpi\n        /* \"--CODEGEN--\":30:31   */\n      0x0\n        /* \"--CODEGEN--\":27:28   */\n      dup1\n        /* \"--CODEGEN--\":20:32   */\n      revert\n        /* \"--CODEGEN--\":5:7   */\n    tag_5:\n        /* \"CaptureTheEther/PredictTheFuture.sol\":578:897  function settle() public {... */\n      pop\n      tag_6\n      jump(tag_7)\n    tag_6:\n      stop\n        /* \"CaptureTheEther/PredictTheFuture.sol\":350:572  function lockInGuess(uint8 n) public payable {... */\n    tag_3:\n      tag_8\n      0x4\n      dup1\n      calldatasize\n      sub\n      dup2\n      add\n      swap1\n      dup1\n      dup1\n      calldataload\n      0xff\n      and\n      swap1\n      0x20\n      add\n      swap1\n      swap3\n      swap2\n      swap1\n      pop\n      pop\n      pop\n      jump(tag_9)\n    tag_8:\n      stop\n        /* \"CaptureTheEther/PredictTheFuture.sol\":245:344  function isComplete() public view returns (bool) {... */\n    tag_4:\n      callvalue\n        /* \"--CODEGEN--\":8:17   */\n      dup1\n        /* \"--CODEGEN--\":5:7   */\n      iszero\n      tag_10\n      jumpi\n        /* \"--CODEGEN--\":30:31   */\n      0x0\n        /* \"--CODEGEN--\":27:28   */\n      dup1\n        /* \"--CODEGEN--\":20:32   */\n      revert\n        /* \"--CODEGEN--\":5:7   */\n    tag_10:\n        /* \"CaptureTheEther/PredictTheFuture.sol\":245:344  function isComplete() public view returns (bool) {... */\n      pop\n      tag_11\n      jump(tag_12)\n    tag_11:\n      mload(0x40)\n      dup1\n      dup3\n      iszero\n      iszero\n      iszero\n      iszero\n      dup2\n      mstore\n      0x20\n      add\n      swap2\n      pop\n      pop\n      mload(0x40)\n      dup1\n      swap2\n      sub\n      swap1\n      return\n        /* \"CaptureTheEther/PredictTheFuture.sol\":578:897  function settle() public {... */\n    tag_7:\n        /* \"CaptureTheEther/PredictTheFuture.sol\":709:721  uint8 answer */\n      0x0\n        /* \"CaptureTheEther/PredictTheFuture.sol\":635:642  guesser */\n      dup1\n      0x0\n      swap1\n      sload\n      swap1\n      0x100\n      exp\n      swap1\n      div\n      0xffffffffffffffffffffffffffffffffffffffff\n      and\n        /* \"CaptureTheEther/PredictTheFuture.sol\":621:642  msg.sender == guesser */\n      0xffffffffffffffffffffffffffffffffffffffff\n      and\n        /* \"CaptureTheEther/PredictTheFuture.sol\":621:631  msg.sender */\n      caller\n        /* \"CaptureTheEther/PredictTheFuture.sol\":621:642  msg.sender == guesser */\n      0xffffffffffffffffffffffffffffffffffffffff\n      and\n      eq\n        /* \"CaptureTheEther/PredictTheFuture.sol\":613:643  require(msg.sender == guesser) */\n      iszero\n      iszero\n      tag_14\n      jumpi\n      0x0\n      dup1\n      revert\n    tag_14:\n        /* \"CaptureTheEther/PredictTheFuture.sol\":676:697  settlementBlockNumber */\n      sload(0x1)\n        /* \"CaptureTheEther/PredictTheFuture.sol\":661:673  block.number */\n      number\n        /* \"CaptureTheEther/PredictTheFuture.sol\":661:697  block.number > settlementBlockNumber */\n      gt\n        /* \"CaptureTheEther/PredictTheFuture.sol\":653:698  require(block.number > settlementBlockNumber) */\n      iszero\n      iszero\n      tag_15\n      jumpi\n      0x0\n      dup1\n      revert\n    tag_15:\n        /* \"CaptureTheEther/PredictTheFuture.sol\":783:785  10 */\n      0xa\n        /* \"CaptureTheEther/PredictTheFuture.sol\":771:772  1 */\n      0x1\n        /* \"CaptureTheEther/PredictTheFuture.sol\":756:768  block.number */\n      number\n        /* \"CaptureTheEther/PredictTheFuture.sol\":756:772  block.number - 1 */\n      sub\n        /* \"CaptureTheEther/PredictTheFuture.sol\":740:773  block.blockhash(block.number - 1) */\n      blockhash\n        /* \"CaptureTheEther/PredictTheFuture.sol\":775:778  now */\n      timestamp\n        /* \"CaptureTheEther/PredictTheFuture.sol\":730:779  keccak256(block.blockhash(block.number - 1), now) */\n      mload(0x40)\n      dup1\n      dup4\n      not(0x0)\n      and\n      not(0x0)\n      and\n      dup2\n      mstore\n      0x20\n      add\n      dup3\n      dup2\n      mstore\n      0x20\n      add\n      swap3\n      pop\n      pop\n      pop\n      mload(0x40)\n      dup1\n      swap2\n      sub\n      swap1\n      keccak256\n        /* \"CaptureTheEther/PredictTheFuture.sol\":724:780  uint8(keccak256(block.blockhash(block.number - 1), now)) */\n      0x1\n      swap1\n      div\n        /* \"CaptureTheEther/PredictTheFuture.sol\":724:785  uint8(keccak256(block.blockhash(block.number - 1), now)) % 10 */\n      0xff\n      and\n      dup2\n      iszero\n      iszero\n      tag_16\n      jumpi\n      invalid\n    tag_16:\n      mod\n        /* \"CaptureTheEther/PredictTheFuture.sol\":709:785  uint8 answer = uint8(keccak256(block.blockhash(block.number - 1), now)) % 10 */\n      swap1\n      pop\n        /* \"CaptureTheEther/PredictTheFuture.sol\":806:807  0 */\n      0x0\n        /* \"CaptureTheEther/PredictTheFuture.sol\":796:803  guesser */\n      dup1\n      0x0\n        /* \"CaptureTheEther/PredictTheFuture.sol\":796:807  guesser = 0 */\n      0x100\n      exp\n      dup2\n      sload\n      dup2\n      0xffffffffffffffffffffffffffffffffffffffff\n      mul\n      not\n      and\n      swap1\n      dup4\n      0xffffffffffffffffffffffffffffffffffffffff\n      and\n      mul\n      or\n      swap1\n      sstore\n      pop\n        /* \"CaptureTheEther/PredictTheFuture.sol\":830:836  answer */\n      dup1\n        /* \"CaptureTheEther/PredictTheFuture.sol\":821:836  guess == answer */\n      0xff\n      and\n        /* \"CaptureTheEther/PredictTheFuture.sol\":821:826  guess */\n      0x0\n      0x14\n      swap1\n      sload\n      swap1\n      0x100\n      exp\n      swap1\n      div\n      0xff\n      and\n        /* \"CaptureTheEther/PredictTheFuture.sol\":821:836  guess == answer */\n      0xff\n      and\n      eq\n        /* \"CaptureTheEther/PredictTheFuture.sol\":817:891  if (guess == answer) {... */\n      iszero\n      tag_17\n      jumpi\n        /* \"CaptureTheEther/PredictTheFuture.sol\":852:862  msg.sender */\n      caller\n        /* \"CaptureTheEther/PredictTheFuture.sol\":852:871  msg.sender.transfer */\n      0xffffffffffffffffffffffffffffffffffffffff\n      and\n        /* \"CaptureTheEther/PredictTheFuture.sol\":852:880  msg.sender.transfer(2 ether) */\n      0x8fc\n        /* \"CaptureTheEther/PredictTheFuture.sol\":872:879  2 ether */\n      0x1bc16d674ec80000\n        /* \"CaptureTheEther/PredictTheFuture.sol\":852:880  msg.sender.transfer(2 ether) */\n      swap1\n      dup2\n      iszero\n      mul\n      swap1\n      mload(0x40)\n      0x0\n      mload(0x40)\n      dup1\n      dup4\n      sub\n      dup2\n      dup6\n      dup9\n      dup9\n      call\n      swap4\n      pop\n      pop\n      pop\n      pop\n      iszero\n        /* \"--CODEGEN--\":8:17   */\n      dup1\n        /* \"--CODEGEN--\":5:7   */\n      iszero\n      tag_18\n      jumpi\n        /* \"--CODEGEN--\":45:61   */\n      returndatasize\n        /* \"--CODEGEN--\":42:43   */\n      0x0\n        /* \"--CODEGEN--\":39:40   */\n      dup1\n        /* \"--CODEGEN--\":24:62   */\n      returndatacopy\n        /* \"--CODEGEN--\":77:93   */\n      returndatasize\n        /* \"--CODEGEN--\":74:75   */\n      0x0\n        /* \"--CODEGEN--\":67:94   */\n      revert\n        /* \"--CODEGEN--\":5:7   */\n    tag_18:\n        /* \"CaptureTheEther/PredictTheFuture.sol\":852:880  msg.sender.transfer(2 ether) */\n      pop\n        /* \"CaptureTheEther/PredictTheFuture.sol\":817:891  if (guess == answer) {... */\n    tag_17:\n        /* \"CaptureTheEther/PredictTheFuture.sol\":578:897  function settle() public {... */\n      pop\n      jump\t// out\n        /* \"CaptureTheEther/PredictTheFuture.sol\":350:572  function lockInGuess(uint8 n) public payable {... */\n    tag_9:\n        /* \"CaptureTheEther/PredictTheFuture.sol\":424:425  0 */\n      0x0\n        /* \"CaptureTheEther/PredictTheFuture.sol\":413:420  guesser */\n      dup1\n      0x0\n      swap1\n      sload\n      swap1\n      0x100\n      exp\n      swap1\n      div\n      0xffffffffffffffffffffffffffffffffffffffff\n      and\n        /* \"CaptureTheEther/PredictTheFuture.sol\":413:425  guesser == 0 */\n      0xffffffffffffffffffffffffffffffffffffffff\n      and\n      eq\n        /* \"CaptureTheEther/PredictTheFuture.sol\":405:426  require(guesser == 0) */\n      iszero\n      iszero\n      tag_20\n      jumpi\n      0x0\n      dup1\n      revert\n    tag_20:\n        /* \"CaptureTheEther/PredictTheFuture.sol\":457:464  1 ether */\n      0xde0b6b3a7640000\n        /* \"CaptureTheEther/PredictTheFuture.sol\":444:453  msg.value */\n      callvalue\n        /* \"CaptureTheEther/PredictTheFuture.sol\":444:464  msg.value == 1 ether */\n      eq\n        /* \"CaptureTheEther/PredictTheFuture.sol\":436:465  require(msg.value == 1 ether) */\n      iszero\n      iszero\n      tag_21\n      jumpi\n      0x0\n      dup1\n      revert\n    tag_21:\n        /* \"CaptureTheEther/PredictTheFuture.sol\":486:496  msg.sender */\n      caller\n        /* \"CaptureTheEther/PredictTheFuture.sol\":476:483  guesser */\n      0x0\n      dup1\n        /* \"CaptureTheEther/PredictTheFuture.sol\":476:496  guesser = msg.sender */\n      0x100\n      exp\n      dup2\n      sload\n      dup2\n      0xffffffffffffffffffffffffffffffffffffffff\n      mul\n      not\n      and\n      swap1\n      dup4\n      0xffffffffffffffffffffffffffffffffffffffff\n      and\n      mul\n      or\n      swap1\n      sstore\n      pop\n        /* \"CaptureTheEther/PredictTheFuture.sol\":514:515  n */\n      dup1\n        /* \"CaptureTheEther/PredictTheFuture.sol\":506:511  guess */\n      0x0\n      0x14\n        /* \"CaptureTheEther/PredictTheFuture.sol\":506:515  guess = n */\n      0x100\n      exp\n      dup2\n      sload\n      dup2\n      0xff\n      mul\n      not\n      and\n      swap1\n      dup4\n      0xff\n      and\n      mul\n      or\n      swap1\n      sstore\n      pop\n        /* \"CaptureTheEther/PredictTheFuture.sol\":564:565  1 */\n      0x1\n        /* \"CaptureTheEther/PredictTheFuture.sol\":549:561  block.number */\n      number\n        /* \"CaptureTheEther/PredictTheFuture.sol\":549:565  block.number + 1 */\n      add\n        /* \"CaptureTheEther/PredictTheFuture.sol\":525:546  settlementBlockNumber */\n      0x1\n        /* \"CaptureTheEther/PredictTheFuture.sol\":525:565  settlementBlockNumber = block.number + 1 */\n      dup2\n      swap1\n      sstore\n      pop\n        /* \"CaptureTheEther/PredictTheFuture.sol\":350:572  function lockInGuess(uint8 n) public payable {... */\n      pop\n      jump\t// out\n        /* \"CaptureTheEther/PredictTheFuture.sol\":245:344  function isComplete() public view returns (bool) {... */\n    tag_12:\n        /* \"CaptureTheEther/PredictTheFuture.sol\":288:292  bool */\n      0x0\n        /* \"CaptureTheEther/PredictTheFuture.sol\":336:337  0 */\n      dup1\n        /* \"CaptureTheEther/PredictTheFuture.sol\":319:323  this */\n      address\n        /* \"CaptureTheEther/PredictTheFuture.sol\":311:332  address(this).balance */\n      0xffffffffffffffffffffffffffffffffffffffff\n      and\n      balance\n        /* \"CaptureTheEther/PredictTheFuture.sol\":311:337  address(this).balance == 0 */\n      eq\n        /* \"CaptureTheEther/PredictTheFuture.sol\":304:337  return address(this).balance == 0 */\n      swap1\n      pop\n        /* \"CaptureTheEther/PredictTheFuture.sol\":245:344  function isComplete() public view returns (bool) {... */\n      swap1\n      jump\t// out\n\n    auxdata: 0xa165627a7a72305820a96740202c2d1154830d593f5cb700c1c069bb9aa1cdf1188c3aba87cac29d090029\n}\n",
				"bytecode": {
					"linkReferences": {},
					"object": "6080604052670de0b6b3a76400003414151561001a57600080fd5b610333806100296000396000f300608060405260043610610057576000357c0100000000000000000000000000000000000000000000000000000000900463ffffffff16806311da60b41461005c5780632c0e005414610073578063b2fa1c9e14610096575b600080fd5b34801561006857600080fd5b506100716100c5565b005b610094600480360381019080803560ff169060200190929190505050610222565b005b3480156100a257600080fd5b506100ab6102e6565b604051808215151515815260200191505060405180910390f35b60008060009054906101000a900473ffffffffffffffffffffffffffffffffffffffff1673ffffffffffffffffffffffffffffffffffffffff163373ffffffffffffffffffffffffffffffffffffffff1614151561012257600080fd5b6001544311151561013257600080fd5b600a6001430340426040518083600019166000191681526020018281526020019250505060405180910390206001900460ff1681151561016e57fe5b06905060008060006101000a81548173ffffffffffffffffffffffffffffffffffffffff021916908373ffffffffffffffffffffffffffffffffffffffff1602179055508060ff16600060149054906101000a900460ff1660ff16141561021f573373ffffffffffffffffffffffffffffffffffffffff166108fc671bc16d674ec800009081150290604051600060405180830381858888f1935050505015801561021d573d6000803e3d6000fd5b505b50565b60008060009054906101000a900473ffffffffffffffffffffffffffffffffffffffff1673ffffffffffffffffffffffffffffffffffffffff1614151561026857600080fd5b670de0b6b3a76400003414151561027e57600080fd5b336000806101000a81548173ffffffffffffffffffffffffffffffffffffffff021916908373ffffffffffffffffffffffffffffffffffffffff16021790555080600060146101000a81548160ff021916908360ff1602179055506001430160018190555050565b6000803073ffffffffffffffffffffffffffffffffffffffff1631149050905600a165627a7a72305820a96740202c2d1154830d593f5cb700c1c069bb9aa1cdf1188c3aba87cac29d090029",
					"opcodes": "PUSH1 0x80 PUSH1 0x40 MSTORE PUSH8 0xDE0B6B3A7640000 CALLVALUE EQ ISZERO ISZERO PUSH2 0x1A JUMPI PUSH1 0x0 DUP1 REVERT JUMPDEST PUSH2 0x333 DUP1 PUSH2 0x29 PUSH1 0x0 CODECOPY PUSH1 0x0 RETURN STOP PUSH1 0x80 PUSH1 0x40 MSTORE PUSH1 0x4 CALLDATASIZE LT PUSH2 0x57 JUMPI PUSH1 0x0 CALLDATALOAD PUSH29 0x100000000000000000000000000000000000000000000000000000000 SWAP1 DIV PUSH4 0xFFFFFFFF AND DUP1 PUSH4 0x11DA60B4 EQ PUSH2 0x5C JUMPI DUP1 PUSH4 0x2C0E0054 EQ PUSH2 0x73 JUMPI DUP1 PUSH4 0xB2FA1C9E EQ PUSH2 0x96 JUMPI JUMPDEST PUSH1 0x0 DUP1 REVERT JUMPDEST CALLVALUE DUP1 ISZERO PUSH2 0x68 JUMPI PUSH1 0x0 DUP1 REVERT JUMPDEST POP PUSH2 0x71 PUSH2 0xC5 JUMP JUMPDEST STOP JUMPDEST PUSH2 0x94 PUSH1 0x4 DUP1 CALLDATASIZE SUB DUP2 ADD SWAP1 DUP1 DUP1 CALLDATALOAD PUSH1 0xFF AND SWAP1 PUSH1 0x20 ADD SWAP1 SWAP3 SWAP2 SWAP1 POP POP POP PUSH2 0x222 JUMP JUMPDEST STOP JUMPDEST CALLVALUE DUP1 ISZERO PUSH2 0xA2 JUMPI PUSH1 0x0 DUP1 REVERT JUMPDEST POP PUSH2 0xAB PUSH2 0x2E6 JUMP JUMPDEST PUSH1 0x40 MLOAD DUP1 DUP3 ISZERO ISZERO ISZERO ISZERO DUP2 MSTORE PUSH1 0x20 ADD SWAP2 POP POP PUSH1 0x40 MLOAD DUP1 SWAP2 SUB SWAP1 RETURN JUMPDEST PUSH1 0x0 DUP1 PUSH1 0x0 SWAP1 SLOAD SWAP1 PUSH2 0x100 EXP SWAP1 DIV PUSH20 0xFFFFFFFFFFFFFFFFFFFFFFFFFFFFFFFFFFFFFFFF AND PUSH20 0xFFFFFFFFFFFFFFFFFFFFFFFFFFFFFFFFFFFFFFFF AND CALLER PUSH20 0xFFFFFFFFFFFFFFFFFFFFFFFFFFFFFFFFFFFFFFFF AND EQ ISZERO ISZERO PUSH2 0x122 JUMPI PUSH1 0x0 DUP1 REVERT JUMPDEST PUSH1 0x1 SLOAD NUMBER GT ISZERO ISZERO PUSH2 0x132 JUMPI PUSH1 0x0 DUP1 REVERT JUMPDEST PUSH1 0xA PUSH1 0x1 NUMBER SUB BLOCKHASH TIMESTAMP PUSH1 0x40 MLOAD DUP1 DUP4 PUSH1 0x0 NOT AND PUSH1 0x0 NOT AND DUP2 MSTORE PUSH1 0x20 ADD DUP3 DUP2 MSTORE PUSH1 0x20 ADD SWAP3 POP POP POP PUSH1 0x40 MLOAD DUP1 SWAP2 SUB SWAP1 KECCAK256 PUSH1 0x1 SWAP1 DIV PUSH1 0xFF AND DUP2 ISZERO ISZERO PUSH2 0x16E JUMPI INVALID JUMPDEST MOD SWAP1 POP PUSH1 0x0 DUP1 PUSH1 0x0 PUSH2 0x100 EXP DUP2 SLOAD DUP2 PUSH20 0xFFFFFFFFFFFFFFFFFFFFFFFFFFFFFFFFFFFFFFFF MUL NOT AND SWAP1 DUP4 PUSH20 0xFFFFFFFFFFFFFFFFFFFFFFFFFFFFFFFFFFFFFFFF AND MUL OR SWAP1 SSTORE POP DUP1 PUSH1 0xFF AND PUSH1 0x0 PUSH1 0x14 SWAP1 SLOAD SWAP1 PUSH2 0x100 EXP SWAP1 DIV PUSH1 0xFF AND PUSH1 0xFF AND EQ ISZERO PUSH2 0x21F JUMPI CALLER PUSH20 0xFFFFFFFFFFFFFFFFFFFFFFFFFFFFFFFFFFFFFFFF AND PUSH2 0x8FC PUSH8 0x1BC16D674EC80000 SWAP1 DUP2 ISZERO MUL SWAP1 PUSH1 0x40 MLOAD PUSH1 0x0 PUSH1 0x40 MLOAD DUP1 DUP4 SUB DUP2 DUP6 DUP9 DUP9 CALL SWAP4 POP POP POP POP ISZERO DUP1 ISZERO PUSH2 0x21D JUMPI RETURNDATASIZE PUSH1 0x0 DUP1 RETURNDATACOPY RETURNDATASIZE PUSH1 0x0 REVERT JUMPDEST POP JUMPDEST POP JUMP JUMPDEST PUSH1 0x0 DUP1 PUSH1 0x0 SWAP1 SLOAD SWAP1 PUSH2 0x100 EXP SWAP1 DIV PUSH20 0xFFFFFFFFFFFFFFFFFFFFFFFFFFFFFFFFFFFFFFFF AND PUSH20 0xFFFFFFFFFFFFFFFFFFFFFFFFFFFFFFFFFFFFFFFF AND EQ ISZERO ISZERO PUSH2 0x268 JUMPI PUSH1 0x0 DUP1 REVERT JUMPDEST PUSH8 0xDE0B6B3A7640000 CALLVALUE EQ ISZERO ISZERO PUSH2 0x27E JUMPI PUSH1 0x0 DUP1 REVERT JUMPDEST CALLER PUSH1 0x0 DUP1 PUSH2 0x100 EXP DUP2 SLOAD DUP2 PUSH20 0xFFFFFFFFFFFFFFFFFFFFFFFFFFFFFFFFFFFFFFFF MUL NOT AND SWAP1 DUP4 PUSH20 0xFFFFFFFFFFFFFFFFFFFFFFFFFFFFFFFFFFFFFFFF AND MUL OR SWAP1 SSTORE POP DUP1 PUSH1 0x0 PUSH1 0x14 PUSH2 0x100 EXP DUP2 SLOAD DUP2 PUSH1 0xFF MUL NOT AND SWAP1 DUP4 PUSH1 0xFF AND MUL OR SWAP1 SSTORE POP PUSH1 0x1 NUMBER ADD PUSH1 0x1 DUP2 SWAP1 SSTORE POP POP JUMP JUMPDEST PUSH1 0x0 DUP1 ADDRESS PUSH20 0xFFFFFFFFFFFFFFFFFFFFFFFFFFFFFFFFFFFFFFFF AND BALANCE EQ SWAP1 POP SWAP1 JUMP STOP LOG1 PUSH6 0x627A7A723058 KECCAK256 0xa9 PUSH8 0x40202C2D1154830D MSIZE 0x3f 0x5c 0xb7 STOP 0xc1 0xc0 PUSH10 0xBB9AA1CDF1188C3ABA87 0xca 0xc2 SWAP14 MULMOD STOP 0x29 "
				},
				"gasEstimates": {
					"creation": {
						"codeDepositCost": "163800",
						"executionCost": "212",
						"totalCost": "164012"
					},
					"external": {
						"isComplete()": "669",
						"lockInGuess(uint8)": "61096",
						"settle()": "infinite"
					}
				},
				"methodIdentifiers": {
					"isComplete()": "b2fa1c9e",
					"lockInGuess(uint8)": "2c0e0054",
					"settle()": "11da60b4"
				}
			},
			"userdoc": {
				"methods": {}
			}
		}
	}
}